{
	"TemperatureFunctions.sol": {
		"TemperatureFunctions": {
			"abi": [
				{
					"inputs": [
						{
							"internalType": "uint64",
							"name": "subscriptionId",
							"type": "uint64"
						}
					],
					"stateMutability": "nonpayable",
					"type": "constructor"
				},
				{
					"inputs": [],
					"name": "EmptyArgs",
					"type": "error"
				},
				{
					"inputs": [],
					"name": "EmptySource",
					"type": "error"
				},
				{
					"inputs": [],
					"name": "NoInlineSecrets",
					"type": "error"
				},
				{
					"inputs": [],
					"name": "OnlyRouterCanFulfill",
					"type": "error"
				},
				{
					"inputs": [
						{
							"internalType": "bytes32",
							"name": "requestId",
							"type": "bytes32"
						}
					],
					"name": "UnexpectedRequestID",
					"type": "error"
				},
				{
					"anonymous": false,
					"inputs": [
						{
							"indexed": true,
							"internalType": "bytes32",
							"name": "id",
							"type": "bytes32"
						}
					],
					"name": "RequestFulfilled",
					"type": "event"
				},
				{
					"anonymous": false,
					"inputs": [
						{
							"indexed": true,
							"internalType": "bytes32",
							"name": "id",
							"type": "bytes32"
						}
					],
					"name": "RequestSent",
					"type": "event"
				},
				{
					"anonymous": false,
					"inputs": [
						{
							"indexed": true,
							"internalType": "bytes32",
							"name": "requestId",
							"type": "bytes32"
						},
						{
							"indexed": false,
							"internalType": "string",
							"name": "temperature",
							"type": "string"
						},
						{
							"indexed": false,
							"internalType": "bytes",
							"name": "response",
							"type": "bytes"
						},
						{
							"indexed": false,
							"internalType": "bytes",
							"name": "err",
							"type": "bytes"
						}
					],
					"name": "Response",
					"type": "event"
				},
				{
					"inputs": [
						{
							"internalType": "string",
							"name": "_city",
							"type": "string"
						}
					],
					"name": "getTemperature",
					"outputs": [
						{
							"internalType": "bytes32",
							"name": "requestId",
							"type": "bytes32"
						}
					],
					"stateMutability": "nonpayable",
					"type": "function"
				},
				{
					"inputs": [
						{
							"internalType": "bytes32",
							"name": "requestId",
							"type": "bytes32"
						},
						{
							"internalType": "bytes",
							"name": "response",
							"type": "bytes"
						},
						{
							"internalType": "bytes",
							"name": "err",
							"type": "bytes"
						}
					],
					"name": "handleOracleFulfillment",
					"outputs": [],
					"stateMutability": "nonpayable",
					"type": "function"
				},
				{
					"inputs": [],
					"name": "lastCity",
					"outputs": [
						{
							"internalType": "string",
							"name": "",
							"type": "string"
						}
					],
					"stateMutability": "view",
					"type": "function"
				},
				{
					"inputs": [],
					"name": "lastTemperature",
					"outputs": [
						{
							"internalType": "string",
							"name": "",
							"type": "string"
						}
					],
					"stateMutability": "view",
					"type": "function"
				},
				{
					"inputs": [],
					"name": "s_lastError",
					"outputs": [
						{
							"internalType": "bytes",
							"name": "",
							"type": "bytes"
						}
					],
					"stateMutability": "view",
					"type": "function"
				},
				{
					"inputs": [],
					"name": "s_lastRequestId",
					"outputs": [
						{
							"internalType": "bytes32",
							"name": "",
							"type": "bytes32"
						}
					],
					"stateMutability": "view",
					"type": "function"
				},
				{
					"inputs": [],
					"name": "s_lastResponse",
					"outputs": [
						{
							"internalType": "bytes",
							"name": "",
							"type": "bytes"
						}
					],
					"stateMutability": "view",
					"type": "function"
				},
				{
					"inputs": [],
					"name": "s_subscriptionId",
					"outputs": [
						{
							"internalType": "uint64",
							"name": "",
							"type": "uint64"
						}
					],
					"stateMutability": "view",
					"type": "function"
				},
				{
					"inputs": [],
					"name": "source",
					"outputs": [
						{
							"internalType": "string",
							"name": "",
							"type": "string"
						}
					],
					"stateMutability": "view",
					"type": "function"
				}
			],
			"devdoc": {
				"kind": "dev",
				"methods": {
					"handleOracleFulfillment(bytes32,bytes,bytes)": {
						"details": "Either response or error parameter will be set, but never both.",
						"params": {
							"err": "Aggregated error either from the request's source code or from the execution pipeline.",
							"requestId": "The requestId returned by FunctionsClient.sendRequest().",
							"response": "Aggregated response from the request's source code."
						}
					}
				},
				"version": 1
			},
			"evm": {
				"assembly": "    /* \"TemperatureFunctions.sol\":401:3540  contract TemperatureFunctions is FunctionsClient {... */\n  mstore(0x40, 0xa0)\n    /* \"TemperatureFunctions.sol\":1079:1121  0xA9d587a00A31A52Ed70D6026794a8FC5E2F5dCb0 */\n  0xa9d587a00a31a52ed70d6026794a8fc5e2f5dcb0\n    /* \"TemperatureFunctions.sol\":1062:1121  address router = 0xA9d587a00A31A52Ed70D6026794a8FC5E2F5dCb0 */\n  0x03\n  exp(0x0100, 0x00)\n  dup2\n  sload\n  dup2\n  0xffffffffffffffffffffffffffffffffffffffff\n  mul\n  not\n  and\n  swap1\n  dup4\n  0xffffffffffffffffffffffffffffffffffffffff\n  and\n  mul\n  or\n  swap1\n  sstore\n  pop\n    /* \"TemperatureFunctions.sol\":1153:1219  0x66756e2d6176616c616e6368652d66756a692d31000000000000000000000000 */\n  0x66756e2d6176616c616e6368652d66756a692d31000000000000000000000000\n    /* \"TemperatureFunctions.sol\":1128:1219  bytes32 donID =... */\n  0x00\n  shl\n  0x04\n  sstore\n    /* \"TemperatureFunctions.sol\":1272:1278  300000 */\n  0x0493e0\n    /* \"TemperatureFunctions.sol\":1254:1278  uint32 gasLimit = 300000 */\n  0x05\n  exp(0x0100, 0x00)\n  dup2\n  sload\n  dup2\n  0xffffffff\n  mul\n  not\n  and\n  swap1\n  dup4\n  0xffffffff\n  and\n  mul\n  or\n  swap1\n  sstore\n  pop\n    /* \"TemperatureFunctions.sol\":1391:1790  string public source =... */\n  mload(0x40)\n  dup1\n  0x0140\n  add\n  0x40\n  mstore\n  dup1\n  0x0101\n  dup2\n  mstore\n  0x20\n  add\n  data_33258073b24d1610740c1acddaf05d8818823dd8d8528cbdd31a195ad0aac47f\n  0x0101\n  swap2\n  codecopy\n  0x06\n  swap1\n  dup2\n  tag_1\n  swap2\n  swap1\n  tag_2\n  jump\t// in\ntag_1:\n  pop\n    /* \"TemperatureFunctions.sol\":1868:1979  constructor(uint64 subscriptionId) FunctionsClient(router) {... */\n  callvalue\n  dup1\n  iszero\n  tag_3\n  jumpi\n  0x00\n  dup1\n  revert\ntag_3:\n  pop\n  mload(0x40)\n  sub(codesize, bytecodeSize)\n  dup1\n  bytecodeSize\n  dup4\n  codecopy\n  dup2\n  dup2\n  add\n  0x40\n  mstore\n  dup2\n  add\n  swap1\n  tag_4\n  swap2\n  swap1\n  tag_5\n  jump\t// in\ntag_4:\n    /* \"TemperatureFunctions.sol\":1919:1925  router */\n  0x03\n  0x00\n  swap1\n  sload\n  swap1\n  0x0100\n  exp\n  swap1\n  div\n  0xffffffffffffffffffffffffffffffffffffffff\n  and\n    /* \"@chainlink/contracts/src/v0.8/functions/dev/v1_0_0/FunctionsClient.sol\":764:770  router */\n  dup1\n    /* \"@chainlink/contracts/src/v0.8/functions/dev/v1_0_0/FunctionsClient.sol\":736:771  i_router = IFunctionsRouter(router) */\n  0xffffffffffffffffffffffffffffffffffffffff\n  and\n  0x80\n  dup2\n  0xffffffffffffffffffffffffffffffffffffffff\n  and\n  dup2\n  mstore\n  pop\n  pop\n    /* \"@chainlink/contracts/src/v0.8/functions/dev/v1_0_0/FunctionsClient.sol\":702:776  constructor(address router) {... */\n  pop\n    /* \"TemperatureFunctions.sol\":1957:1971  subscriptionId */\n  dup1\n    /* \"TemperatureFunctions.sol\":1938:1954  s_subscriptionId */\n  0x05\n  0x04\n    /* \"TemperatureFunctions.sol\":1938:1971  s_subscriptionId = subscriptionId */\n  0x0100\n  exp\n  dup2\n  sload\n  dup2\n  0xffffffffffffffff\n  mul\n  not\n  and\n  swap1\n  dup4\n  0xffffffffffffffff\n  and\n  mul\n  or\n  swap1\n  sstore\n  pop\n    /* \"TemperatureFunctions.sol\":1868:1979  constructor(uint64 subscriptionId) FunctionsClient(router) {... */\n  pop\n    /* \"TemperatureFunctions.sol\":401:3540  contract TemperatureFunctions is FunctionsClient {... */\n  jump(tag_10)\n    /* \"#utility.yul\":7:106   */\ntag_11:\n    /* \"#utility.yul\":59:65   */\n  0x00\n    /* \"#utility.yul\":93:98   */\n  dup2\n    /* \"#utility.yul\":87:99   */\n  mload\n    /* \"#utility.yul\":77:99   */\n  swap1\n  pop\n    /* \"#utility.yul\":7:106   */\n  swap2\n  swap1\n  pop\n  jump\t// out\n    /* \"#utility.yul\":112:292   */\ntag_12:\n    /* \"#utility.yul\":160:237   */\n  0x4e487b7100000000000000000000000000000000000000000000000000000000\n    /* \"#utility.yul\":157:158   */\n  0x00\n    /* \"#utility.yul\":150:238   */\n  mstore\n    /* \"#utility.yul\":257:261   */\n  0x41\n    /* \"#utility.yul\":254:255   */\n  0x04\n    /* \"#utility.yul\":247:262   */\n  mstore\n    /* \"#utility.yul\":281:285   */\n  0x24\n    /* \"#utility.yul\":278:279   */\n  0x00\n    /* \"#utility.yul\":271:286   */\n  revert\n    /* \"#utility.yul\":298:478   */\ntag_13:\n    /* \"#utility.yul\":346:423   */\n  0x4e487b7100000000000000000000000000000000000000000000000000000000\n    /* \"#utility.yul\":343:344   */\n  0x00\n    /* \"#utility.yul\":336:424   */\n  mstore\n    /* \"#utility.yul\":443:447   */\n  0x22\n    /* \"#utility.yul\":440:441   */\n  0x04\n    /* \"#utility.yul\":433:448   */\n  mstore\n    /* \"#utility.yul\":467:471   */\n  0x24\n    /* \"#utility.yul\":464:465   */\n  0x00\n    /* \"#utility.yul\":457:472   */\n  revert\n    /* \"#utility.yul\":484:804   */\ntag_14:\n    /* \"#utility.yul\":528:534   */\n  0x00\n    /* \"#utility.yul\":565:566   */\n  0x02\n    /* \"#utility.yul\":559:563   */\n  dup3\n    /* \"#utility.yul\":555:567   */\n  div\n    /* \"#utility.yul\":545:567   */\n  swap1\n  pop\n    /* \"#utility.yul\":612:613   */\n  0x01\n    /* \"#utility.yul\":606:610   */\n  dup3\n    /* \"#utility.yul\":602:614   */\n  and\n    /* \"#utility.yul\":633:651   */\n  dup1\n    /* \"#utility.yul\":623:704   */\n  tag_42\n  jumpi\n    /* \"#utility.yul\":689:693   */\n  0x7f\n    /* \"#utility.yul\":681:687   */\n  dup3\n    /* \"#utility.yul\":677:694   */\n  and\n    /* \"#utility.yul\":667:694   */\n  swap2\n  pop\n    /* \"#utility.yul\":623:704   */\ntag_42:\n    /* \"#utility.yul\":751:753   */\n  0x20\n    /* \"#utility.yul\":743:749   */\n  dup3\n    /* \"#utility.yul\":740:754   */\n  lt\n    /* \"#utility.yul\":720:738   */\n  dup2\n    /* \"#utility.yul\":717:755   */\n  sub\n    /* \"#utility.yul\":714:798   */\n  tag_43\n  jumpi\n    /* \"#utility.yul\":770:788   */\n  tag_44\n  tag_13\n  jump\t// in\ntag_44:\n    /* \"#utility.yul\":714:798   */\ntag_43:\n    /* \"#utility.yul\":535:804   */\n  pop\n    /* \"#utility.yul\":484:804   */\n  swap2\n  swap1\n  pop\n  jump\t// out\n    /* \"#utility.yul\":810:951   */\ntag_15:\n    /* \"#utility.yul\":859:863   */\n  0x00\n    /* \"#utility.yul\":882:885   */\n  dup2\n    /* \"#utility.yul\":874:885   */\n  swap1\n  pop\n    /* \"#utility.yul\":905:908   */\n  dup2\n    /* \"#utility.yul\":902:903   */\n  0x00\n    /* \"#utility.yul\":895:909   */\n  mstore\n    /* \"#utility.yul\":939:943   */\n  0x20\n    /* \"#utility.yul\":936:937   */\n  0x00\n    /* \"#utility.yul\":926:944   */\n  keccak256\n    /* \"#utility.yul\":918:944   */\n  swap1\n  pop\n    /* \"#utility.yul\":810:951   */\n  swap2\n  swap1\n  pop\n  jump\t// out\n    /* \"#utility.yul\":957:1050   */\ntag_16:\n    /* \"#utility.yul\":994:1000   */\n  0x00\n    /* \"#utility.yul\":1041:1043   */\n  0x20\n    /* \"#utility.yul\":1036:1038   */\n  0x1f\n    /* \"#utility.yul\":1029:1034   */\n  dup4\n    /* \"#utility.yul\":1025:1039   */\n  add\n    /* \"#utility.yul\":1021:1044   */\n  div\n    /* \"#utility.yul\":1011:1044   */\n  swap1\n  pop\n    /* \"#utility.yul\":957:1050   */\n  swap2\n  swap1\n  pop\n  jump\t// out\n    /* \"#utility.yul\":1056:1163   */\ntag_17:\n    /* \"#utility.yul\":1100:1108   */\n  0x00\n    /* \"#utility.yul\":1150:1155   */\n  dup3\n    /* \"#utility.yul\":1144:1148   */\n  dup3\n    /* \"#utility.yul\":1140:1156   */\n  shl\n    /* \"#utility.yul\":1119:1156   */\n  swap1\n  pop\n    /* \"#utility.yul\":1056:1163   */\n  swap3\n  swap2\n  pop\n  pop\n  jump\t// out\n    /* \"#utility.yul\":1169:1562   */\ntag_18:\n    /* \"#utility.yul\":1238:1244   */\n  0x00\n    /* \"#utility.yul\":1288:1289   */\n  0x08\n    /* \"#utility.yul\":1276:1286   */\n  dup4\n    /* \"#utility.yul\":1272:1290   */\n  mul\n    /* \"#utility.yul\":1311:1408   */\n  tag_49\n    /* \"#utility.yul\":1341:1407   */\n  0xffffffffffffffffffffffffffffffffffffffffffffffffffffffffffffffff\n    /* \"#utility.yul\":1330:1339   */\n  dup3\n    /* \"#utility.yul\":1311:1408   */\n  tag_17\n  jump\t// in\ntag_49:\n    /* \"#utility.yul\":1429:1468   */\n  tag_50\n    /* \"#utility.yul\":1459:1467   */\n  dup7\n    /* \"#utility.yul\":1448:1457   */\n  dup4\n    /* \"#utility.yul\":1429:1468   */\n  tag_17\n  jump\t// in\ntag_50:\n    /* \"#utility.yul\":1417:1468   */\n  swap6\n  pop\n    /* \"#utility.yul\":1501:1505   */\n  dup1\n    /* \"#utility.yul\":1497:1506   */\n  not\n    /* \"#utility.yul\":1490:1495   */\n  dup5\n    /* \"#utility.yul\":1486:1507   */\n  and\n    /* \"#utility.yul\":1477:1507   */\n  swap4\n  pop\n    /* \"#utility.yul\":1550:1554   */\n  dup1\n    /* \"#utility.yul\":1540:1548   */\n  dup7\n    /* \"#utility.yul\":1536:1555   */\n  and\n    /* \"#utility.yul\":1529:1534   */\n  dup5\n    /* \"#utility.yul\":1526:1556   */\n  or\n    /* \"#utility.yul\":1516:1556   */\n  swap3\n  pop\n    /* \"#utility.yul\":1245:1562   */\n  pop\n  pop\n    /* \"#utility.yul\":1169:1562   */\n  swap4\n  swap3\n  pop\n  pop\n  pop\n  jump\t// out\n    /* \"#utility.yul\":1568:1645   */\ntag_19:\n    /* \"#utility.yul\":1605:1612   */\n  0x00\n    /* \"#utility.yul\":1634:1639   */\n  dup2\n    /* \"#utility.yul\":1623:1639   */\n  swap1\n  pop\n    /* \"#utility.yul\":1568:1645   */\n  swap2\n  swap1\n  pop\n  jump\t// out\n    /* \"#utility.yul\":1651:1711   */\ntag_20:\n    /* \"#utility.yul\":1679:1682   */\n  0x00\n    /* \"#utility.yul\":1700:1705   */\n  dup2\n    /* \"#utility.yul\":1693:1705   */\n  swap1\n  pop\n    /* \"#utility.yul\":1651:1711   */\n  swap2\n  swap1\n  pop\n  jump\t// out\n    /* \"#utility.yul\":1717:1859   */\ntag_21:\n    /* \"#utility.yul\":1767:1776   */\n  0x00\n    /* \"#utility.yul\":1800:1853   */\n  tag_54\n    /* \"#utility.yul\":1818:1852   */\n  tag_55\n    /* \"#utility.yul\":1827:1851   */\n  tag_56\n    /* \"#utility.yul\":1845:1850   */\n  dup5\n    /* \"#utility.yul\":1827:1851   */\n  tag_19\n  jump\t// in\ntag_56:\n    /* \"#utility.yul\":1818:1852   */\n  tag_20\n  jump\t// in\ntag_55:\n    /* \"#utility.yul\":1800:1853   */\n  tag_19\n  jump\t// in\ntag_54:\n    /* \"#utility.yul\":1787:1853   */\n  swap1\n  pop\n    /* \"#utility.yul\":1717:1859   */\n  swap2\n  swap1\n  pop\n  jump\t// out\n    /* \"#utility.yul\":1865:1940   */\ntag_22:\n    /* \"#utility.yul\":1908:1911   */\n  0x00\n    /* \"#utility.yul\":1929:1934   */\n  dup2\n    /* \"#utility.yul\":1922:1934   */\n  swap1\n  pop\n    /* \"#utility.yul\":1865:1940   */\n  swap2\n  swap1\n  pop\n  jump\t// out\n    /* \"#utility.yul\":1946:2215   */\ntag_23:\n    /* \"#utility.yul\":2056:2095   */\n  tag_59\n    /* \"#utility.yul\":2087:2094   */\n  dup4\n    /* \"#utility.yul\":2056:2095   */\n  tag_21\n  jump\t// in\ntag_59:\n    /* \"#utility.yul\":2117:2208   */\n  tag_60\n    /* \"#utility.yul\":2166:2207   */\n  tag_61\n    /* \"#utility.yul\":2190:2206   */\n  dup3\n    /* \"#utility.yul\":2166:2207   */\n  tag_22\n  jump\t// in\ntag_61:\n    /* \"#utility.yul\":2158:2164   */\n  dup5\n    /* \"#utility.yul\":2151:2155   */\n  dup5\n    /* \"#utility.yul\":2145:2156   */\n  sload\n    /* \"#utility.yul\":2117:2208   */\n  tag_18\n  jump\t// in\ntag_60:\n    /* \"#utility.yul\":2111:2115   */\n  dup3\n    /* \"#utility.yul\":2104:2209   */\n  sstore\n    /* \"#utility.yul\":2022:2215   */\n  pop\n    /* \"#utility.yul\":1946:2215   */\n  pop\n  pop\n  pop\n  jump\t// out\n    /* \"#utility.yul\":2221:2294   */\ntag_24:\n    /* \"#utility.yul\":2266:2269   */\n  0x00\n    /* \"#utility.yul\":2221:2294   */\n  swap1\n  jump\t// out\n    /* \"#utility.yul\":2300:2489   */\ntag_25:\n    /* \"#utility.yul\":2377:2409   */\n  tag_64\n  tag_24\n  jump\t// in\ntag_64:\n    /* \"#utility.yul\":2418:2483   */\n  tag_65\n    /* \"#utility.yul\":2476:2482   */\n  dup2\n    /* \"#utility.yul\":2468:2474   */\n  dup5\n    /* \"#utility.yul\":2462:2466   */\n  dup5\n    /* \"#utility.yul\":2418:2483   */\n  tag_23\n  jump\t// in\ntag_65:\n    /* \"#utility.yul\":2353:2489   */\n  pop\n    /* \"#utility.yul\":2300:2489   */\n  pop\n  pop\n  jump\t// out\n    /* \"#utility.yul\":2495:2681   */\ntag_26:\n    /* \"#utility.yul\":2555:2675   */\ntag_67:\n    /* \"#utility.yul\":2572:2575   */\n  dup2\n    /* \"#utility.yul\":2565:2570   */\n  dup2\n    /* \"#utility.yul\":2562:2576   */\n  lt\n    /* \"#utility.yul\":2555:2675   */\n  iszero\n  tag_69\n  jumpi\n    /* \"#utility.yul\":2626:2665   */\n  tag_70\n    /* \"#utility.yul\":2663:2664   */\n  0x00\n    /* \"#utility.yul\":2656:2661   */\n  dup3\n    /* \"#utility.yul\":2626:2665   */\n  tag_25\n  jump\t// in\ntag_70:\n    /* \"#utility.yul\":2599:2600   */\n  0x01\n    /* \"#utility.yul\":2592:2597   */\n  dup2\n    /* \"#utility.yul\":2588:2601   */\n  add\n    /* \"#utility.yul\":2579:2601   */\n  swap1\n  pop\n    /* \"#utility.yul\":2555:2675   */\n  jump(tag_67)\ntag_69:\n    /* \"#utility.yul\":2495:2681   */\n  pop\n  pop\n  jump\t// out\n    /* \"#utility.yul\":2687:3230   */\ntag_27:\n    /* \"#utility.yul\":2788:2790   */\n  0x1f\n    /* \"#utility.yul\":2783:2786   */\n  dup3\n    /* \"#utility.yul\":2780:2791   */\n  gt\n    /* \"#utility.yul\":2777:3223   */\n  iszero\n  tag_72\n  jumpi\n    /* \"#utility.yul\":2822:2860   */\n  tag_73\n    /* \"#utility.yul\":2854:2859   */\n  dup2\n    /* \"#utility.yul\":2822:2860   */\n  tag_15\n  jump\t// in\ntag_73:\n    /* \"#utility.yul\":2906:2935   */\n  tag_74\n    /* \"#utility.yul\":2924:2934   */\n  dup5\n    /* \"#utility.yul\":2906:2935   */\n  tag_16\n  jump\t// in\ntag_74:\n    /* \"#utility.yul\":2896:2904   */\n  dup2\n    /* \"#utility.yul\":2892:2936   */\n  add\n    /* \"#utility.yul\":3089:3091   */\n  0x20\n    /* \"#utility.yul\":3077:3087   */\n  dup6\n    /* \"#utility.yul\":3074:3092   */\n  lt\n    /* \"#utility.yul\":3071:3120   */\n  iszero\n  tag_75\n  jumpi\n    /* \"#utility.yul\":3110:3118   */\n  dup2\n    /* \"#utility.yul\":3095:3118   */\n  swap1\n  pop\n    /* \"#utility.yul\":3071:3120   */\ntag_75:\n    /* \"#utility.yul\":3133:3213   */\n  tag_76\n    /* \"#utility.yul\":3189:3211   */\n  tag_77\n    /* \"#utility.yul\":3207:3210   */\n  dup6\n    /* \"#utility.yul\":3189:3211   */\n  tag_16\n  jump\t// in\ntag_77:\n    /* \"#utility.yul\":3179:3187   */\n  dup4\n    /* \"#utility.yul\":3175:3212   */\n  add\n    /* \"#utility.yul\":3162:3173   */\n  dup3\n    /* \"#utility.yul\":3133:3213   */\n  tag_26\n  jump\t// in\ntag_76:\n    /* \"#utility.yul\":2792:3223   */\n  pop\n  pop\n    /* \"#utility.yul\":2777:3223   */\ntag_72:\n    /* \"#utility.yul\":2687:3230   */\n  pop\n  pop\n  pop\n  jump\t// out\n    /* \"#utility.yul\":3236:3353   */\ntag_28:\n    /* \"#utility.yul\":3290:3298   */\n  0x00\n    /* \"#utility.yul\":3340:3345   */\n  dup3\n    /* \"#utility.yul\":3334:3338   */\n  dup3\n    /* \"#utility.yul\":3330:3346   */\n  shr\n    /* \"#utility.yul\":3309:3346   */\n  swap1\n  pop\n    /* \"#utility.yul\":3236:3353   */\n  swap3\n  swap2\n  pop\n  pop\n  jump\t// out\n    /* \"#utility.yul\":3359:3528   */\ntag_29:\n    /* \"#utility.yul\":3403:3409   */\n  0x00\n    /* \"#utility.yul\":3436:3487   */\n  tag_80\n    /* \"#utility.yul\":3484:3485   */\n  0x00\n    /* \"#utility.yul\":3480:3486   */\n  not\n    /* \"#utility.yul\":3472:3477   */\n  dup5\n    /* \"#utility.yul\":3469:3470   */\n  0x08\n    /* \"#utility.yul\":3465:3478   */\n  mul\n    /* \"#utility.yul\":3436:3487   */\n  tag_28\n  jump\t// in\ntag_80:\n    /* \"#utility.yul\":3432:3488   */\n  not\n    /* \"#utility.yul\":3517:3521   */\n  dup1\n    /* \"#utility.yul\":3511:3515   */\n  dup4\n    /* \"#utility.yul\":3507:3522   */\n  and\n    /* \"#utility.yul\":3497:3522   */\n  swap2\n  pop\n    /* \"#utility.yul\":3410:3528   */\n  pop\n    /* \"#utility.yul\":3359:3528   */\n  swap3\n  swap2\n  pop\n  pop\n  jump\t// out\n    /* \"#utility.yul\":3533:3828   */\ntag_30:\n    /* \"#utility.yul\":3609:3613   */\n  0x00\n    /* \"#utility.yul\":3755:3784   */\n  tag_82\n    /* \"#utility.yul\":3780:3783   */\n  dup4\n    /* \"#utility.yul\":3774:3778   */\n  dup4\n    /* \"#utility.yul\":3755:3784   */\n  tag_29\n  jump\t// in\ntag_82:\n    /* \"#utility.yul\":3747:3784   */\n  swap2\n  pop\n    /* \"#utility.yul\":3817:3820   */\n  dup3\n    /* \"#utility.yul\":3814:3815   */\n  0x02\n    /* \"#utility.yul\":3810:3821   */\n  mul\n    /* \"#utility.yul\":3804:3808   */\n  dup3\n    /* \"#utility.yul\":3801:3822   */\n  or\n    /* \"#utility.yul\":3793:3822   */\n  swap1\n  pop\n    /* \"#utility.yul\":3533:3828   */\n  swap3\n  swap2\n  pop\n  pop\n  jump\t// out\n    /* \"#utility.yul\":3833:5228   */\ntag_2:\n    /* \"#utility.yul\":3950:3987   */\n  tag_84\n    /* \"#utility.yul\":3983:3986   */\n  dup3\n    /* \"#utility.yul\":3950:3987   */\n  tag_11\n  jump\t// in\ntag_84:\n    /* \"#utility.yul\":4052:4070   */\n  0xffffffffffffffff\n    /* \"#utility.yul\":4044:4050   */\n  dup2\n    /* \"#utility.yul\":4041:4071   */\n  gt\n    /* \"#utility.yul\":4038:4094   */\n  iszero\n  tag_85\n  jumpi\n    /* \"#utility.yul\":4074:4092   */\n  tag_86\n  tag_12\n  jump\t// in\ntag_86:\n    /* \"#utility.yul\":4038:4094   */\ntag_85:\n    /* \"#utility.yul\":4118:4156   */\n  tag_87\n    /* \"#utility.yul\":4150:4154   */\n  dup3\n    /* \"#utility.yul\":4144:4155   */\n  sload\n    /* \"#utility.yul\":4118:4156   */\n  tag_14\n  jump\t// in\ntag_87:\n    /* \"#utility.yul\":4203:4270   */\n  tag_88\n    /* \"#utility.yul\":4263:4269   */\n  dup3\n    /* \"#utility.yul\":4255:4261   */\n  dup3\n    /* \"#utility.yul\":4249:4253   */\n  dup6\n    /* \"#utility.yul\":4203:4270   */\n  tag_27\n  jump\t// in\ntag_88:\n    /* \"#utility.yul\":4297:4298   */\n  0x00\n    /* \"#utility.yul\":4321:4325   */\n  0x20\n    /* \"#utility.yul\":4308:4325   */\n  swap1\n  pop\n    /* \"#utility.yul\":4353:4355   */\n  0x1f\n    /* \"#utility.yul\":4345:4351   */\n  dup4\n    /* \"#utility.yul\":4342:4356   */\n  gt\n    /* \"#utility.yul\":4370:4371   */\n  0x01\n    /* \"#utility.yul\":4365:4983   */\n  dup2\n  eq\n  tag_90\n  jumpi\n    /* \"#utility.yul\":5027:5028   */\n  0x00\n    /* \"#utility.yul\":5044:5050   */\n  dup5\n    /* \"#utility.yul\":5041:5118   */\n  iszero\n  tag_91\n  jumpi\n    /* \"#utility.yul\":5093:5102   */\n  dup3\n    /* \"#utility.yul\":5088:5091   */\n  dup8\n    /* \"#utility.yul\":5084:5103   */\n  add\n    /* \"#utility.yul\":5078:5104   */\n  mload\n    /* \"#utility.yul\":5069:5104   */\n  swap1\n  pop\n    /* \"#utility.yul\":5041:5118   */\ntag_91:\n    /* \"#utility.yul\":5144:5211   */\n  tag_92\n    /* \"#utility.yul\":5204:5210   */\n  dup6\n    /* \"#utility.yul\":5197:5202   */\n  dup3\n    /* \"#utility.yul\":5144:5211   */\n  tag_30\n  jump\t// in\ntag_92:\n    /* \"#utility.yul\":5138:5142   */\n  dup7\n    /* \"#utility.yul\":5131:5212   */\n  sstore\n    /* \"#utility.yul\":5000:5222   */\n  pop\n    /* \"#utility.yul\":4335:5222   */\n  jump(tag_89)\n    /* \"#utility.yul\":4365:4983   */\ntag_90:\n    /* \"#utility.yul\":4417:4421   */\n  0x1f\n    /* \"#utility.yul\":4413:4422   */\n  not\n    /* \"#utility.yul\":4405:4411   */\n  dup5\n    /* \"#utility.yul\":4401:4423   */\n  and\n    /* \"#utility.yul\":4451:4488   */\n  tag_93\n    /* \"#utility.yul\":4483:4487   */\n  dup7\n    /* \"#utility.yul\":4451:4488   */\n  tag_15\n  jump\t// in\ntag_93:\n    /* \"#utility.yul\":4510:4511   */\n  0x00\n    /* \"#utility.yul\":4524:4732   */\ntag_94:\n    /* \"#utility.yul\":4538:4545   */\n  dup3\n    /* \"#utility.yul\":4535:4536   */\n  dup2\n    /* \"#utility.yul\":4532:4546   */\n  lt\n    /* \"#utility.yul\":4524:4732   */\n  iszero\n  tag_96\n  jumpi\n    /* \"#utility.yul\":4617:4626   */\n  dup5\n    /* \"#utility.yul\":4612:4615   */\n  dup10\n    /* \"#utility.yul\":4608:4627   */\n  add\n    /* \"#utility.yul\":4602:4628   */\n  mload\n    /* \"#utility.yul\":4594:4600   */\n  dup3\n    /* \"#utility.yul\":4587:4629   */\n  sstore\n    /* \"#utility.yul\":4668:4669   */\n  0x01\n    /* \"#utility.yul\":4660:4666   */\n  dup3\n    /* \"#utility.yul\":4656:4670   */\n  add\n    /* \"#utility.yul\":4646:4670   */\n  swap2\n  pop\n    /* \"#utility.yul\":4715:4717   */\n  0x20\n    /* \"#utility.yul\":4704:4713   */\n  dup6\n    /* \"#utility.yul\":4700:4718   */\n  add\n    /* \"#utility.yul\":4687:4718   */\n  swap5\n  pop\n    /* \"#utility.yul\":4561:4565   */\n  0x20\n    /* \"#utility.yul\":4558:4559   */\n  dup2\n    /* \"#utility.yul\":4554:4566   */\n  add\n    /* \"#utility.yul\":4549:4566   */\n  swap1\n  pop\n    /* \"#utility.yul\":4524:4732   */\n  jump(tag_94)\ntag_96:\n    /* \"#utility.yul\":4760:4766   */\n  dup7\n    /* \"#utility.yul\":4751:4758   */\n  dup4\n    /* \"#utility.yul\":4748:4767   */\n  lt\n    /* \"#utility.yul\":4745:4924   */\n  iszero\n  tag_97\n  jumpi\n    /* \"#utility.yul\":4818:4827   */\n  dup5\n    /* \"#utility.yul\":4813:4816   */\n  dup10\n    /* \"#utility.yul\":4809:4828   */\n  add\n    /* \"#utility.yul\":4803:4829   */\n  mload\n    /* \"#utility.yul\":4861:4909   */\n  tag_98\n    /* \"#utility.yul\":4903:4907   */\n  0x1f\n    /* \"#utility.yul\":4895:4901   */\n  dup10\n    /* \"#utility.yul\":4891:4908   */\n  and\n    /* \"#utility.yul\":4880:4889   */\n  dup3\n    /* \"#utility.yul\":4861:4909   */\n  tag_29\n  jump\t// in\ntag_98:\n    /* \"#utility.yul\":4853:4859   */\n  dup4\n    /* \"#utility.yul\":4846:4910   */\n  sstore\n    /* \"#utility.yul\":4768:4924   */\n  pop\n    /* \"#utility.yul\":4745:4924   */\ntag_97:\n    /* \"#utility.yul\":4970:4971   */\n  0x01\n    /* \"#utility.yul\":4966:4967   */\n  0x02\n    /* \"#utility.yul\":4958:4964   */\n  dup9\n    /* \"#utility.yul\":4954:4968   */\n  mul\n    /* \"#utility.yul\":4950:4972   */\n  add\n    /* \"#utility.yul\":4944:4948   */\n  dup9\n    /* \"#utility.yul\":4937:4973   */\n  sstore\n    /* \"#utility.yul\":4372:4983   */\n  pop\n  pop\n  pop\n    /* \"#utility.yul\":4335:5222   */\ntag_89:\n  pop\n    /* \"#utility.yul\":3925:5228   */\n  pop\n  pop\n  pop\n    /* \"#utility.yul\":3833:5228   */\n  pop\n  pop\n  jump\t// out\n    /* \"#utility.yul\":5315:5432   */\ntag_32:\n    /* \"#utility.yul\":5424:5425   */\n  0x00\n    /* \"#utility.yul\":5421:5422   */\n  dup1\n    /* \"#utility.yul\":5414:5426   */\n  revert\n    /* \"#utility.yul\":5561:5662   */\ntag_34:\n    /* \"#utility.yul\":5597:5604   */\n  0x00\n    /* \"#utility.yul\":5637:5655   */\n  0xffffffffffffffff\n    /* \"#utility.yul\":5630:5635   */\n  dup3\n    /* \"#utility.yul\":5626:5656   */\n  and\n    /* \"#utility.yul\":5615:5656   */\n  swap1\n  pop\n    /* \"#utility.yul\":5561:5662   */\n  swap2\n  swap1\n  pop\n  jump\t// out\n    /* \"#utility.yul\":5668:5788   */\ntag_35:\n    /* \"#utility.yul\":5740:5763   */\n  tag_104\n    /* \"#utility.yul\":5757:5762   */\n  dup2\n    /* \"#utility.yul\":5740:5763   */\n  tag_34\n  jump\t// in\ntag_104:\n    /* \"#utility.yul\":5733:5738   */\n  dup2\n    /* \"#utility.yul\":5730:5764   */\n  eq\n    /* \"#utility.yul\":5720:5782   */\n  tag_105\n  jumpi\n    /* \"#utility.yul\":5778:5779   */\n  0x00\n    /* \"#utility.yul\":5775:5776   */\n  dup1\n    /* \"#utility.yul\":5768:5780   */\n  revert\n    /* \"#utility.yul\":5720:5782   */\ntag_105:\n    /* \"#utility.yul\":5668:5788   */\n  pop\n  jump\t// out\n    /* \"#utility.yul\":5794:5935   */\ntag_36:\n    /* \"#utility.yul\":5850:5855   */\n  0x00\n    /* \"#utility.yul\":5881:5887   */\n  dup2\n    /* \"#utility.yul\":5875:5888   */\n  mload\n    /* \"#utility.yul\":5866:5888   */\n  swap1\n  pop\n    /* \"#utility.yul\":5897:5929   */\n  tag_107\n    /* \"#utility.yul\":5923:5928   */\n  dup2\n    /* \"#utility.yul\":5897:5929   */\n  tag_35\n  jump\t// in\ntag_107:\n    /* \"#utility.yul\":5794:5935   */\n  swap3\n  swap2\n  pop\n  pop\n  jump\t// out\n    /* \"#utility.yul\":5941:6290   */\ntag_5:\n    /* \"#utility.yul\":6010:6016   */\n  0x00\n    /* \"#utility.yul\":6059:6061   */\n  0x20\n    /* \"#utility.yul\":6047:6056   */\n  dup3\n    /* \"#utility.yul\":6038:6045   */\n  dup5\n    /* \"#utility.yul\":6034:6057   */\n  sub\n    /* \"#utility.yul\":6030:6062   */\n  slt\n    /* \"#utility.yul\":6027:6146   */\n  iszero\n  tag_109\n  jumpi\n    /* \"#utility.yul\":6065:6144   */\n  tag_110\n  tag_32\n  jump\t// in\ntag_110:\n    /* \"#utility.yul\":6027:6146   */\ntag_109:\n    /* \"#utility.yul\":6185:6186   */\n  0x00\n    /* \"#utility.yul\":6210:6273   */\n  tag_111\n    /* \"#utility.yul\":6265:6272   */\n  dup5\n    /* \"#utility.yul\":6256:6262   */\n  dup3\n    /* \"#utility.yul\":6245:6254   */\n  dup6\n    /* \"#utility.yul\":6241:6263   */\n  add\n    /* \"#utility.yul\":6210:6273   */\n  tag_36\n  jump\t// in\ntag_111:\n    /* \"#utility.yul\":6200:6273   */\n  swap2\n  pop\n    /* \"#utility.yul\":6156:6283   */\n  pop\n    /* \"#utility.yul\":5941:6290   */\n  swap3\n  swap2\n  pop\n  pop\n  jump\t// out\n    /* \"TemperatureFunctions.sol\":401:3540  contract TemperatureFunctions is FunctionsClient {... */\ntag_10:\n  mload(0x80)\n  codecopy(0x00, dataOffset(sub_0), dataSize(sub_0))\n  0x00\n  assignImmutable(\"0x8e8fab5f003314da8d1873ea7720e8d9f47650136d916064d1edb8a11d682624\")\n  return(0x00, dataSize(sub_0))\nstop\ndata_33258073b24d1610740c1acddaf05d8818823dd8d8528cbdd31a195ad0aac47f 636f6e73742063697479203d20617267735b305d3b636f6e737420617069526573706f6e7365203d2061776169742046756e6374696f6e732e6d616b654874747052657175657374287b75726c3a206068747470733a2f2f777474722e696e2f247b636974797d3f666f726d61743d33602c726573706f6e7365547970653a202774657874277d293b69662028617069526573706f6e73652e6572726f7229207b7468726f77204572726f72282752657175657374206661696c656427293b7d636f6e7374207b2064617461207d203d20617069526573706f6e73653b72657475726e2046756e6374696f6e732e656e636f6465537472696e672864617461293b\n\nsub_0: assembly {\n        /* \"TemperatureFunctions.sol\":401:3540  contract TemperatureFunctions is FunctionsClient {... */\n      mstore(0x40, 0x80)\n      callvalue\n      dup1\n      iszero\n      tag_1\n      jumpi\n      0x00\n      dup1\n      revert\n    tag_1:\n      pop\n      jumpi(tag_2, lt(calldatasize, 0x04))\n      shr(0xe0, calldataload(0x00))\n      dup1\n      0x8ac00021\n      gt\n      tag_12\n      jumpi\n      dup1\n      0x8ac00021\n      eq\n      tag_7\n      jumpi\n      dup1\n      0x94d02941\n      eq\n      tag_8\n      jumpi\n      dup1\n      0x9fb51771\n      eq\n      tag_9\n      jumpi\n      dup1\n      0xb1e21749\n      eq\n      tag_10\n      jumpi\n      dup1\n      0xcd2b8d11\n      eq\n      tag_11\n      jumpi\n      jump(tag_2)\n    tag_12:\n      dup1\n      0x0ca76175\n      eq\n      tag_3\n      jumpi\n      dup1\n      0x3944ea3a\n      eq\n      tag_4\n      jumpi\n      dup1\n      0x4b0795a8\n      eq\n      tag_5\n      jumpi\n      dup1\n      0x67e828bf\n      eq\n      tag_6\n      jumpi\n    tag_2:\n      0x00\n      dup1\n      revert\n        /* \"@chainlink/contracts/src/v0.8/functions/dev/v1_0_0/FunctionsClient.sol\":2078:2364  function handleOracleFulfillment(bytes32 requestId, bytes memory response, bytes memory err) external override {... */\n    tag_3:\n      tag_13\n      0x04\n      dup1\n      calldatasize\n      sub\n      dup2\n      add\n      swap1\n      tag_14\n      swap2\n      swap1\n      tag_15\n      jump\t// in\n    tag_14:\n      tag_16\n      jump\t// in\n    tag_13:\n      stop\n        /* \"TemperatureFunctions.sol\":628:655  bytes public s_lastResponse */\n    tag_4:\n      tag_17\n      tag_18\n      jump\t// in\n    tag_17:\n      mload(0x40)\n      tag_19\n      swap2\n      swap1\n      tag_20\n      jump\t// in\n    tag_19:\n      mload(0x40)\n      dup1\n      swap2\n      sub\n      swap1\n      return\n        /* \"TemperatureFunctions.sol\":662:686  bytes public s_lastError */\n    tag_5:\n      tag_21\n      tag_22\n      jump\t// in\n    tag_21:\n      mload(0x40)\n      tag_23\n      swap2\n      swap1\n      tag_20\n      jump\t// in\n    tag_23:\n      mload(0x40)\n      dup1\n      swap2\n      sub\n      swap1\n      return\n        /* \"TemperatureFunctions.sol\":1391:1790  string public source =... */\n    tag_6:\n      tag_24\n      tag_25\n      jump\t// in\n    tag_24:\n      mload(0x40)\n      tag_26\n      swap2\n      swap1\n      tag_27\n      jump\t// in\n    tag_26:\n      mload(0x40)\n      dup1\n      swap2\n      sub\n      swap1\n      return\n        /* \"TemperatureFunctions.sol\":1317:1347  uint64 public s_subscriptionId */\n    tag_7:\n      tag_28\n      tag_29\n      jump\t// in\n    tag_28:\n      mload(0x40)\n      tag_30\n      swap2\n      swap1\n      tag_31\n      jump\t// in\n    tag_30:\n      mload(0x40)\n      dup1\n      swap2\n      sub\n      swap1\n      return\n        /* \"TemperatureFunctions.sol\":1987:2677  function getTemperature(... */\n    tag_8:\n      tag_32\n      0x04\n      dup1\n      calldatasize\n      sub\n      dup2\n      add\n      swap1\n      tag_33\n      swap2\n      swap1\n      tag_34\n      jump\t// in\n    tag_33:\n      tag_35\n      jump\t// in\n    tag_32:\n      mload(0x40)\n      tag_36\n      swap2\n      swap1\n      tag_37\n      jump\t// in\n    tag_36:\n      mload(0x40)\n      dup1\n      swap2\n      sub\n      swap1\n      return\n        /* \"TemperatureFunctions.sol\":1830:1859  string public lastTemperature */\n    tag_9:\n      tag_38\n      tag_39\n      jump\t// in\n    tag_38:\n      mload(0x40)\n      tag_40\n      swap2\n      swap1\n      tag_27\n      jump\t// in\n    tag_40:\n      mload(0x40)\n      dup1\n      swap2\n      sub\n      swap1\n      return\n        /* \"TemperatureFunctions.sol\":591:621  bytes32 public s_lastRequestId */\n    tag_10:\n      tag_41\n      tag_42\n      jump\t// in\n    tag_41:\n      mload(0x40)\n      tag_43\n      swap2\n      swap1\n      tag_37\n      jump\t// in\n    tag_43:\n      mload(0x40)\n      dup1\n      swap2\n      sub\n      swap1\n      return\n        /* \"TemperatureFunctions.sol\":1797:1819  string public lastCity */\n    tag_11:\n      tag_44\n      tag_45\n      jump\t// in\n    tag_44:\n      mload(0x40)\n      tag_46\n      swap2\n      swap1\n      tag_27\n      jump\t// in\n    tag_46:\n      mload(0x40)\n      dup1\n      swap2\n      sub\n      swap1\n      return\n        /* \"@chainlink/contracts/src/v0.8/functions/dev/v1_0_0/FunctionsClient.sol\":2078:2364  function handleOracleFulfillment(bytes32 requestId, bytes memory response, bytes memory err) external override {... */\n    tag_16:\n        /* \"@chainlink/contracts/src/v0.8/functions/dev/v1_0_0/FunctionsClient.sol\":2221:2229  i_router */\n      immutable(\"0x8e8fab5f003314da8d1873ea7720e8d9f47650136d916064d1edb8a11d682624\")\n        /* \"@chainlink/contracts/src/v0.8/functions/dev/v1_0_0/FunctionsClient.sol\":2199:2230  msg.sender != address(i_router) */\n      0xffffffffffffffffffffffffffffffffffffffff\n      and\n        /* \"@chainlink/contracts/src/v0.8/functions/dev/v1_0_0/FunctionsClient.sol\":2199:2209  msg.sender */\n      caller\n        /* \"@chainlink/contracts/src/v0.8/functions/dev/v1_0_0/FunctionsClient.sol\":2199:2230  msg.sender != address(i_router) */\n      0xffffffffffffffffffffffffffffffffffffffff\n      and\n      eq\n        /* \"@chainlink/contracts/src/v0.8/functions/dev/v1_0_0/FunctionsClient.sol\":2195:2276  if (msg.sender != address(i_router)) {... */\n      tag_48\n      jumpi\n        /* \"@chainlink/contracts/src/v0.8/functions/dev/v1_0_0/FunctionsClient.sol\":2247:2269  OnlyRouterCanFulfill() */\n      mload(0x40)\n      0xc6829f8300000000000000000000000000000000000000000000000000000000\n      dup2\n      mstore\n      0x04\n      add\n      mload(0x40)\n      dup1\n      swap2\n      sub\n      swap1\n      revert\n        /* \"@chainlink/contracts/src/v0.8/functions/dev/v1_0_0/FunctionsClient.sol\":2195:2276  if (msg.sender != address(i_router)) {... */\n    tag_48:\n        /* \"@chainlink/contracts/src/v0.8/functions/dev/v1_0_0/FunctionsClient.sol\":2281:2321  fulfillRequest(requestId, response, err) */\n      tag_49\n        /* \"@chainlink/contracts/src/v0.8/functions/dev/v1_0_0/FunctionsClient.sol\":2296:2305  requestId */\n      dup4\n        /* \"@chainlink/contracts/src/v0.8/functions/dev/v1_0_0/FunctionsClient.sol\":2307:2315  response */\n      dup4\n        /* \"@chainlink/contracts/src/v0.8/functions/dev/v1_0_0/FunctionsClient.sol\":2317:2320  err */\n      dup4\n        /* \"@chainlink/contracts/src/v0.8/functions/dev/v1_0_0/FunctionsClient.sol\":2281:2295  fulfillRequest */\n      tag_50\n        /* \"@chainlink/contracts/src/v0.8/functions/dev/v1_0_0/FunctionsClient.sol\":2281:2321  fulfillRequest(requestId, response, err) */\n      jump\t// in\n    tag_49:\n        /* \"@chainlink/contracts/src/v0.8/functions/dev/v1_0_0/FunctionsClient.sol\":2349:2358  requestId */\n      dup3\n        /* \"@chainlink/contracts/src/v0.8/functions/dev/v1_0_0/FunctionsClient.sol\":2332:2359  RequestFulfilled(requestId) */\n      0x85e1543bf2f84fe80c6badbce3648c8539ad1df4d2b3d822938ca0538be727e6\n      mload(0x40)\n      mload(0x40)\n      dup1\n      swap2\n      sub\n      swap1\n      log2\n        /* \"@chainlink/contracts/src/v0.8/functions/dev/v1_0_0/FunctionsClient.sol\":2078:2364  function handleOracleFulfillment(bytes32 requestId, bytes memory response, bytes memory err) external override {... */\n      pop\n      pop\n      pop\n      jump\t// out\n        /* \"TemperatureFunctions.sol\":628:655  bytes public s_lastResponse */\n    tag_18:\n      0x01\n      dup1\n      sload\n      tag_51\n      swap1\n      tag_52\n      jump\t// in\n    tag_51:\n      dup1\n      0x1f\n      add\n      0x20\n      dup1\n      swap2\n      div\n      mul\n      0x20\n      add\n      mload(0x40)\n      swap1\n      dup2\n      add\n      0x40\n      mstore\n      dup1\n      swap3\n      swap2\n      swap1\n      dup2\n      dup2\n      mstore\n      0x20\n      add\n      dup3\n      dup1\n      sload\n      tag_53\n      swap1\n      tag_52\n      jump\t// in\n    tag_53:\n      dup1\n      iszero\n      tag_54\n      jumpi\n      dup1\n      0x1f\n      lt\n      tag_55\n      jumpi\n      0x0100\n      dup1\n      dup4\n      sload\n      div\n      mul\n      dup4\n      mstore\n      swap2\n      0x20\n      add\n      swap2\n      jump(tag_54)\n    tag_55:\n      dup3\n      add\n      swap2\n      swap1\n      0x00\n      mstore\n      keccak256(0x00, 0x20)\n      swap1\n    tag_56:\n      dup2\n      sload\n      dup2\n      mstore\n      swap1\n      0x01\n      add\n      swap1\n      0x20\n      add\n      dup1\n      dup4\n      gt\n      tag_56\n      jumpi\n      dup3\n      swap1\n      sub\n      0x1f\n      and\n      dup3\n      add\n      swap2\n    tag_54:\n      pop\n      pop\n      pop\n      pop\n      pop\n      dup2\n      jump\t// out\n        /* \"TemperatureFunctions.sol\":662:686  bytes public s_lastError */\n    tag_22:\n      0x02\n      dup1\n      sload\n      tag_57\n      swap1\n      tag_52\n      jump\t// in\n    tag_57:\n      dup1\n      0x1f\n      add\n      0x20\n      dup1\n      swap2\n      div\n      mul\n      0x20\n      add\n      mload(0x40)\n      swap1\n      dup2\n      add\n      0x40\n      mstore\n      dup1\n      swap3\n      swap2\n      swap1\n      dup2\n      dup2\n      mstore\n      0x20\n      add\n      dup3\n      dup1\n      sload\n      tag_58\n      swap1\n      tag_52\n      jump\t// in\n    tag_58:\n      dup1\n      iszero\n      tag_59\n      jumpi\n      dup1\n      0x1f\n      lt\n      tag_60\n      jumpi\n      0x0100\n      dup1\n      dup4\n      sload\n      div\n      mul\n      dup4\n      mstore\n      swap2\n      0x20\n      add\n      swap2\n      jump(tag_59)\n    tag_60:\n      dup3\n      add\n      swap2\n      swap1\n      0x00\n      mstore\n      keccak256(0x00, 0x20)\n      swap1\n    tag_61:\n      dup2\n      sload\n      dup2\n      mstore\n      swap1\n      0x01\n      add\n      swap1\n      0x20\n      add\n      dup1\n      dup4\n      gt\n      tag_61\n      jumpi\n      dup3\n      swap1\n      sub\n      0x1f\n      and\n      dup3\n      add\n      swap2\n    tag_59:\n      pop\n      pop\n      pop\n      pop\n      pop\n      dup2\n      jump\t// out\n        /* \"TemperatureFunctions.sol\":1391:1790  string public source =... */\n    tag_25:\n      0x06\n      dup1\n      sload\n      tag_62\n      swap1\n      tag_52\n      jump\t// in\n    tag_62:\n      dup1\n      0x1f\n      add\n      0x20\n      dup1\n      swap2\n      div\n      mul\n      0x20\n      add\n      mload(0x40)\n      swap1\n      dup2\n      add\n      0x40\n      mstore\n      dup1\n      swap3\n      swap2\n      swap1\n      dup2\n      dup2\n      mstore\n      0x20\n      add\n      dup3\n      dup1\n      sload\n      tag_63\n      swap1\n      tag_52\n      jump\t// in\n    tag_63:\n      dup1\n      iszero\n      tag_64\n      jumpi\n      dup1\n      0x1f\n      lt\n      tag_65\n      jumpi\n      0x0100\n      dup1\n      dup4\n      sload\n      div\n      mul\n      dup4\n      mstore\n      swap2\n      0x20\n      add\n      swap2\n      jump(tag_64)\n    tag_65:\n      dup3\n      add\n      swap2\n      swap1\n      0x00\n      mstore\n      keccak256(0x00, 0x20)\n      swap1\n    tag_66:\n      dup2\n      sload\n      dup2\n      mstore\n      swap1\n      0x01\n      add\n      swap1\n      0x20\n      add\n      dup1\n      dup4\n      gt\n      tag_66\n      jumpi\n      dup3\n      swap1\n      sub\n      0x1f\n      and\n      dup3\n      add\n      swap2\n    tag_64:\n      pop\n      pop\n      pop\n      pop\n      pop\n      dup2\n      jump\t// out\n        /* \"TemperatureFunctions.sol\":1317:1347  uint64 public s_subscriptionId */\n    tag_29:\n      0x05\n      0x04\n      swap1\n      sload\n      swap1\n      0x0100\n      exp\n      swap1\n      div\n      0xffffffffffffffff\n      and\n      dup2\n      jump\t// out\n        /* \"TemperatureFunctions.sol\":1987:2677  function getTemperature(... */\n    tag_35:\n        /* \"TemperatureFunctions.sol\":2066:2083  bytes32 requestId */\n      0x00\n        /* \"TemperatureFunctions.sol\":2098:2118  string[] memory args */\n      dup1\n        /* \"TemperatureFunctions.sol\":2134:2135  1 */\n      0x01\n        /* \"TemperatureFunctions.sol\":2121:2136  new string[](1) */\n      0xffffffffffffffff\n      dup2\n      gt\n      iszero\n      tag_68\n      jumpi\n      tag_69\n      tag_70\n      jump\t// in\n    tag_69:\n    tag_68:\n      mload(0x40)\n      swap1\n      dup1\n      dup3\n      mstore\n      dup1\n      0x20\n      mul\n      0x20\n      add\n      dup3\n      add\n      0x40\n      mstore\n      dup1\n      iszero\n      tag_71\n      jumpi\n      dup2\n      0x20\n      add\n    tag_72:\n      0x60\n      dup2\n      mstore\n      0x20\n      add\n      swap1\n      0x01\n      swap1\n      sub\n      swap1\n      dup2\n      tag_72\n      jumpi\n      swap1\n      pop\n    tag_71:\n      pop\n        /* \"TemperatureFunctions.sol\":2098:2136  string[] memory args = new string[](1) */\n      swap1\n      pop\n        /* \"TemperatureFunctions.sol\":2157:2162  _city */\n      dup3\n        /* \"TemperatureFunctions.sol\":2147:2151  args */\n      dup2\n        /* \"TemperatureFunctions.sol\":2152:2153  0 */\n      0x00\n        /* \"TemperatureFunctions.sol\":2147:2154  args[0] */\n      dup2\n      mload\n      dup2\n      lt\n      tag_73\n      jumpi\n      tag_74\n      tag_75\n      jump\t// in\n    tag_74:\n    tag_73:\n      0x20\n      mul\n      0x20\n      add\n      add\n        /* \"TemperatureFunctions.sol\":2147:2162  args[0] = _city */\n      dup2\n      swap1\n      mstore\n      pop\n        /* \"TemperatureFunctions.sol\":2175:2210  FunctionsRequest.Request memory req */\n      tag_76\n      tag_77\n      jump\t// in\n    tag_76:\n        /* \"TemperatureFunctions.sol\":2221:2269  req.initializeRequestForInlineJavaScript(source) */\n      tag_78\n        /* \"TemperatureFunctions.sol\":2262:2268  source */\n      0x06\n        /* \"TemperatureFunctions.sol\":2221:2269  req.initializeRequestForInlineJavaScript(source) */\n      dup1\n      sload\n      tag_79\n      swap1\n      tag_52\n      jump\t// in\n    tag_79:\n      dup1\n      0x1f\n      add\n      0x20\n      dup1\n      swap2\n      div\n      mul\n      0x20\n      add\n      mload(0x40)\n      swap1\n      dup2\n      add\n      0x40\n      mstore\n      dup1\n      swap3\n      swap2\n      swap1\n      dup2\n      dup2\n      mstore\n      0x20\n      add\n      dup3\n      dup1\n      sload\n      tag_80\n      swap1\n      tag_52\n      jump\t// in\n    tag_80:\n      dup1\n      iszero\n      tag_81\n      jumpi\n      dup1\n      0x1f\n      lt\n      tag_82\n      jumpi\n      0x0100\n      dup1\n      dup4\n      sload\n      div\n      mul\n      dup4\n      mstore\n      swap2\n      0x20\n      add\n      swap2\n      jump(tag_81)\n    tag_82:\n      dup3\n      add\n      swap2\n      swap1\n      0x00\n      mstore\n      keccak256(0x00, 0x20)\n      swap1\n    tag_83:\n      dup2\n      sload\n      dup2\n      mstore\n      swap1\n      0x01\n      add\n      swap1\n      0x20\n      add\n      dup1\n      dup4\n      gt\n      tag_83\n      jumpi\n      dup3\n      swap1\n      sub\n      0x1f\n      and\n      dup3\n      add\n      swap2\n    tag_81:\n      pop\n      pop\n      pop\n      pop\n      pop\n        /* \"TemperatureFunctions.sol\":2221:2224  req */\n      dup3\n        /* \"TemperatureFunctions.sol\":2221:2261  req.initializeRequestForInlineJavaScript */\n      tag_84\n      swap1\n        /* \"TemperatureFunctions.sol\":2221:2269  req.initializeRequestForInlineJavaScript(source) */\n      swap2\n      swap1\n      0xffffffff\n      and\n      jump\t// in\n    tag_78:\n        /* \"TemperatureFunctions.sol\":2337:2338  0 */\n      0x00\n        /* \"TemperatureFunctions.sol\":2323:2327  args */\n      dup3\n        /* \"TemperatureFunctions.sol\":2323:2334  args.length */\n      mload\n        /* \"TemperatureFunctions.sol\":2323:2338  args.length > 0 */\n      gt\n        /* \"TemperatureFunctions.sol\":2319:2357  if (args.length > 0) req.setArgs(args) */\n      iszero\n      tag_85\n      jumpi\n        /* \"TemperatureFunctions.sol\":2340:2357  req.setArgs(args) */\n      tag_86\n        /* \"TemperatureFunctions.sol\":2352:2356  args */\n      dup3\n        /* \"TemperatureFunctions.sol\":2340:2343  req */\n      dup3\n        /* \"TemperatureFunctions.sol\":2340:2351  req.setArgs */\n      tag_87\n      swap1\n        /* \"TemperatureFunctions.sol\":2340:2357  req.setArgs(args) */\n      swap2\n      swap1\n      0xffffffff\n      and\n      jump\t// in\n    tag_86:\n        /* \"TemperatureFunctions.sol\":2319:2357  if (args.length > 0) req.setArgs(args) */\n    tag_85:\n        /* \"TemperatureFunctions.sol\":2479:2607  _sendRequest(... */\n      tag_88\n        /* \"TemperatureFunctions.sol\":2506:2522  req.encodeCBOR() */\n      tag_89\n        /* \"TemperatureFunctions.sol\":2506:2509  req */\n      dup3\n        /* \"TemperatureFunctions.sol\":2506:2520  req.encodeCBOR */\n      tag_90\n        /* \"TemperatureFunctions.sol\":2506:2522  req.encodeCBOR() */\n      jump\t// in\n    tag_89:\n        /* \"TemperatureFunctions.sol\":2537:2553  s_subscriptionId */\n      0x05\n      0x04\n      swap1\n      sload\n      swap1\n      0x0100\n      exp\n      swap1\n      div\n      0xffffffffffffffff\n      and\n        /* \"TemperatureFunctions.sol\":2568:2576  gasLimit */\n      0x05\n      0x00\n      swap1\n      sload\n      swap1\n      0x0100\n      exp\n      swap1\n      div\n      0xffffffff\n      and\n        /* \"TemperatureFunctions.sol\":2591:2596  donID */\n      sload(0x04)\n        /* \"TemperatureFunctions.sol\":2479:2491  _sendRequest */\n      tag_91\n        /* \"TemperatureFunctions.sol\":2479:2607  _sendRequest(... */\n      jump\t// in\n    tag_88:\n        /* \"TemperatureFunctions.sol\":2461:2476  s_lastRequestId */\n      0x00\n        /* \"TemperatureFunctions.sol\":2461:2607  s_lastRequestId = _sendRequest(... */\n      dup2\n      swap1\n      sstore\n      pop\n        /* \"TemperatureFunctions.sol\":2629:2634  _city */\n      dup4\n        /* \"TemperatureFunctions.sol\":2618:2626  lastCity */\n      0x07\n        /* \"TemperatureFunctions.sol\":2618:2634  lastCity = _city */\n      swap1\n      dup2\n      tag_92\n      swap2\n      swap1\n      tag_93\n      jump\t// in\n    tag_92:\n      pop\n        /* \"TemperatureFunctions.sol\":2654:2669  s_lastRequestId */\n      sload(0x00)\n        /* \"TemperatureFunctions.sol\":2647:2669  return s_lastRequestId */\n      swap3\n      pop\n      pop\n      pop\n        /* \"TemperatureFunctions.sol\":1987:2677  function getTemperature(... */\n      swap2\n      swap1\n      pop\n      jump\t// out\n        /* \"TemperatureFunctions.sol\":1830:1859  string public lastTemperature */\n    tag_39:\n      0x08\n      dup1\n      sload\n      tag_94\n      swap1\n      tag_52\n      jump\t// in\n    tag_94:\n      dup1\n      0x1f\n      add\n      0x20\n      dup1\n      swap2\n      div\n      mul\n      0x20\n      add\n      mload(0x40)\n      swap1\n      dup2\n      add\n      0x40\n      mstore\n      dup1\n      swap3\n      swap2\n      swap1\n      dup2\n      dup2\n      mstore\n      0x20\n      add\n      dup3\n      dup1\n      sload\n      tag_95\n      swap1\n      tag_52\n      jump\t// in\n    tag_95:\n      dup1\n      iszero\n      tag_96\n      jumpi\n      dup1\n      0x1f\n      lt\n      tag_97\n      jumpi\n      0x0100\n      dup1\n      dup4\n      sload\n      div\n      mul\n      dup4\n      mstore\n      swap2\n      0x20\n      add\n      swap2\n      jump(tag_96)\n    tag_97:\n      dup3\n      add\n      swap2\n      swap1\n      0x00\n      mstore\n      keccak256(0x00, 0x20)\n      swap1\n    tag_98:\n      dup2\n      sload\n      dup2\n      mstore\n      swap1\n      0x01\n      add\n      swap1\n      0x20\n      add\n      dup1\n      dup4\n      gt\n      tag_98\n      jumpi\n      dup3\n      swap1\n      sub\n      0x1f\n      and\n      dup3\n      add\n      swap2\n    tag_96:\n      pop\n      pop\n      pop\n      pop\n      pop\n      dup2\n      jump\t// out\n        /* \"TemperatureFunctions.sol\":591:621  bytes32 public s_lastRequestId */\n    tag_42:\n      sload(0x00)\n      dup2\n      jump\t// out\n        /* \"TemperatureFunctions.sol\":1797:1819  string public lastCity */\n    tag_45:\n      0x07\n      dup1\n      sload\n      tag_99\n      swap1\n      tag_52\n      jump\t// in\n    tag_99:\n      dup1\n      0x1f\n      add\n      0x20\n      dup1\n      swap2\n      div\n      mul\n      0x20\n      add\n      mload(0x40)\n      swap1\n      dup2\n      add\n      0x40\n      mstore\n      dup1\n      swap3\n      swap2\n      swap1\n      dup2\n      dup2\n      mstore\n      0x20\n      add\n      dup3\n      dup1\n      sload\n      tag_100\n      swap1\n      tag_52\n      jump\t// in\n    tag_100:\n      dup1\n      iszero\n      tag_101\n      jumpi\n      dup1\n      0x1f\n      lt\n      tag_102\n      jumpi\n      0x0100\n      dup1\n      dup4\n      sload\n      div\n      mul\n      dup4\n      mstore\n      swap2\n      0x20\n      add\n      swap2\n      jump(tag_101)\n    tag_102:\n      dup3\n      add\n      swap2\n      swap1\n      0x00\n      mstore\n      keccak256(0x00, 0x20)\n      swap1\n    tag_103:\n      dup2\n      sload\n      dup2\n      mstore\n      swap1\n      0x01\n      add\n      swap1\n      0x20\n      add\n      dup1\n      dup4\n      gt\n      tag_103\n      jumpi\n      dup3\n      swap1\n      sub\n      0x1f\n      and\n      dup3\n      add\n      swap2\n    tag_101:\n      pop\n      pop\n      pop\n      pop\n      pop\n      dup2\n      jump\t// out\n        /* \"TemperatureFunctions.sol\":2924:3537  function fulfillRequest(... */\n    tag_50:\n        /* \"TemperatureFunctions.sol\":3094:3103  requestId */\n      dup3\n        /* \"TemperatureFunctions.sol\":3075:3090  s_lastRequestId */\n      sload(0x00)\n        /* \"TemperatureFunctions.sol\":3075:3103  s_lastRequestId != requestId */\n      eq\n        /* \"TemperatureFunctions.sol\":3071:3199  if (s_lastRequestId != requestId) {... */\n      tag_105\n      jumpi\n        /* \"TemperatureFunctions.sol\":3147:3156  requestId */\n      dup3\n        /* \"TemperatureFunctions.sol\":3127:3157  UnexpectedRequestID(requestId) */\n      mload(0x40)\n      0xd068bf5b00000000000000000000000000000000000000000000000000000000\n      dup2\n      mstore\n      0x04\n      add\n      tag_106\n      swap2\n      swap1\n      tag_37\n      jump\t// in\n    tag_106:\n      mload(0x40)\n      dup1\n      swap2\n      sub\n      swap1\n      revert\n        /* \"TemperatureFunctions.sol\":3071:3199  if (s_lastRequestId != requestId) {... */\n    tag_105:\n        /* \"TemperatureFunctions.sol\":3231:3234  err */\n      dup1\n        /* \"TemperatureFunctions.sol\":3217:3228  s_lastError */\n      0x02\n        /* \"TemperatureFunctions.sol\":3217:3234  s_lastError = err */\n      swap1\n      dup2\n      tag_107\n      swap2\n      swap1\n      tag_108\n      jump\t// in\n    tag_107:\n      pop\n        /* \"TemperatureFunctions.sol\":3347:3355  response */\n      dup2\n        /* \"TemperatureFunctions.sol\":3330:3344  s_lastResponse */\n      0x01\n        /* \"TemperatureFunctions.sol\":3330:3355  s_lastResponse = response */\n      swap1\n      dup2\n      tag_109\n      swap2\n      swap1\n      tag_108\n      jump\t// in\n    tag_109:\n      pop\n        /* \"TemperatureFunctions.sol\":3391:3399  response */\n      dup2\n        /* \"TemperatureFunctions.sol\":3366:3381  lastTemperature */\n      0x08\n        /* \"TemperatureFunctions.sol\":3366:3400  lastTemperature = string(response) */\n      swap1\n      dup2\n      tag_110\n      swap2\n      swap1\n      tag_93\n      jump\t// in\n    tag_110:\n      pop\n        /* \"TemperatureFunctions.sol\":3473:3482  requestId */\n      dup3\n        /* \"TemperatureFunctions.sol\":3464:3529  Response(requestId, lastTemperature, s_lastResponse, s_lastError) */\n      0x160ed0aaffbef6885155188b91459cb5a97d5daadccf7561d8c46deea6641b50\n        /* \"TemperatureFunctions.sol\":3484:3499  lastTemperature */\n      0x08\n        /* \"TemperatureFunctions.sol\":3501:3515  s_lastResponse */\n      0x01\n        /* \"TemperatureFunctions.sol\":3517:3528  s_lastError */\n      0x02\n        /* \"TemperatureFunctions.sol\":3464:3529  Response(requestId, lastTemperature, s_lastResponse, s_lastError) */\n      mload(0x40)\n      tag_111\n      swap4\n      swap3\n      swap2\n      swap1\n      tag_112\n      jump\t// in\n    tag_111:\n      mload(0x40)\n      dup1\n      swap2\n      sub\n      swap1\n      log2\n        /* \"TemperatureFunctions.sol\":2924:3537  function fulfillRequest(... */\n      pop\n      pop\n      pop\n      jump\t// out\n        /* \"@chainlink/contracts/src/v0.8/functions/dev/v1_0_0/libraries/FunctionsRequest.sol\":4326:4533  function initializeRequestForInlineJavaScript(Request memory self, string memory javaScriptSource) internal pure {... */\n    tag_84:\n        /* \"@chainlink/contracts/src/v0.8/functions/dev/v1_0_0/libraries/FunctionsRequest.sol\":4445:4528  initializeRequest(self, Location.Inline, CodeLanguage.JavaScript, javaScriptSource) */\n      tag_114\n        /* \"@chainlink/contracts/src/v0.8/functions/dev/v1_0_0/libraries/FunctionsRequest.sol\":4463:4467  self */\n      dup3\n        /* \"@chainlink/contracts/src/v0.8/functions/dev/v1_0_0/libraries/FunctionsRequest.sol\":4469:4484  Location.Inline */\n      0x00\n        /* \"@chainlink/contracts/src/v0.8/functions/dev/v1_0_0/libraries/FunctionsRequest.sol\":4486:4509  CodeLanguage.JavaScript */\n      dup1\n        /* \"@chainlink/contracts/src/v0.8/functions/dev/v1_0_0/libraries/FunctionsRequest.sol\":4511:4527  javaScriptSource */\n      dup5\n        /* \"@chainlink/contracts/src/v0.8/functions/dev/v1_0_0/libraries/FunctionsRequest.sol\":4445:4462  initializeRequest */\n      tag_115\n        /* \"@chainlink/contracts/src/v0.8/functions/dev/v1_0_0/libraries/FunctionsRequest.sol\":4445:4528  initializeRequest(self, Location.Inline, CodeLanguage.JavaScript, javaScriptSource) */\n      jump\t// in\n    tag_114:\n        /* \"@chainlink/contracts/src/v0.8/functions/dev/v1_0_0/libraries/FunctionsRequest.sol\":4326:4533  function initializeRequestForInlineJavaScript(Request memory self, string memory javaScriptSource) internal pure {... */\n      pop\n      pop\n      jump\t// out\n        /* \"@chainlink/contracts/src/v0.8/functions/dev/v1_0_0/libraries/FunctionsRequest.sol\":5830:5978  function setArgs(Request memory self, string[] memory args) internal pure {... */\n    tag_87:\n        /* \"@chainlink/contracts/src/v0.8/functions/dev/v1_0_0/libraries/FunctionsRequest.sol\":5929:5930  0 */\n      0x00\n        /* \"@chainlink/contracts/src/v0.8/functions/dev/v1_0_0/libraries/FunctionsRequest.sol\":5914:5918  args */\n      dup2\n        /* \"@chainlink/contracts/src/v0.8/functions/dev/v1_0_0/libraries/FunctionsRequest.sol\":5914:5925  args.length */\n      mload\n        /* \"@chainlink/contracts/src/v0.8/functions/dev/v1_0_0/libraries/FunctionsRequest.sol\":5914:5930  args.length == 0 */\n      sub\n        /* \"@chainlink/contracts/src/v0.8/functions/dev/v1_0_0/libraries/FunctionsRequest.sol\":5910:5950  if (args.length == 0) revert EmptyArgs() */\n      tag_117\n      jumpi\n        /* \"@chainlink/contracts/src/v0.8/functions/dev/v1_0_0/libraries/FunctionsRequest.sol\":5939:5950  EmptyArgs() */\n      mload(0x40)\n      0xfe936cb700000000000000000000000000000000000000000000000000000000\n      dup2\n      mstore\n      0x04\n      add\n      mload(0x40)\n      dup1\n      swap2\n      sub\n      swap1\n      revert\n        /* \"@chainlink/contracts/src/v0.8/functions/dev/v1_0_0/libraries/FunctionsRequest.sol\":5910:5950  if (args.length == 0) revert EmptyArgs() */\n    tag_117:\n        /* \"@chainlink/contracts/src/v0.8/functions/dev/v1_0_0/libraries/FunctionsRequest.sol\":5969:5973  args */\n      dup1\n        /* \"@chainlink/contracts/src/v0.8/functions/dev/v1_0_0/libraries/FunctionsRequest.sol\":5957:5961  self */\n      dup3\n        /* \"@chainlink/contracts/src/v0.8/functions/dev/v1_0_0/libraries/FunctionsRequest.sol\":5957:5966  self.args */\n      0xa0\n      add\n        /* \"@chainlink/contracts/src/v0.8/functions/dev/v1_0_0/libraries/FunctionsRequest.sol\":5957:5973  self.args = args */\n      dup2\n      swap1\n      mstore\n      pop\n        /* \"@chainlink/contracts/src/v0.8/functions/dev/v1_0_0/libraries/FunctionsRequest.sol\":5830:5978  function setArgs(Request memory self, string[] memory args) internal pure {... */\n      pop\n      pop\n      jump\t// out\n        /* \"@chainlink/contracts/src/v0.8/functions/dev/v1_0_0/libraries/FunctionsRequest.sol\":2161:3431  function encodeCBOR(Request memory self) internal pure returns (bytes memory) {... */\n    tag_90:\n        /* \"@chainlink/contracts/src/v0.8/functions/dev/v1_0_0/libraries/FunctionsRequest.sol\":2225:2237  bytes memory */\n      0x60\n        /* \"@chainlink/contracts/src/v0.8/functions/dev/v1_0_0/libraries/FunctionsRequest.sol\":2245:2274  CBOR.CBORBuffer memory buffer */\n      0x00\n        /* \"@chainlink/contracts/src/v0.8/functions/dev/v1_0_0/libraries/FunctionsRequest.sol\":2277:2309  CBOR.create(DEFAULT_BUFFER_SIZE) */\n      tag_119\n        /* \"@chainlink/contracts/src/v0.8/functions/dev/v1_0_0/libraries/FunctionsRequest.sol\":378:381  256 */\n      0x0100\n        /* \"@chainlink/contracts/src/v0.8/functions/dev/v1_0_0/libraries/FunctionsRequest.sol\":2277:2288  CBOR.create */\n      tag_120\n        /* \"@chainlink/contracts/src/v0.8/functions/dev/v1_0_0/libraries/FunctionsRequest.sol\":2277:2309  CBOR.create(DEFAULT_BUFFER_SIZE) */\n      jump\t// in\n    tag_119:\n        /* \"@chainlink/contracts/src/v0.8/functions/dev/v1_0_0/libraries/FunctionsRequest.sol\":2245:2309  CBOR.CBORBuffer memory buffer = CBOR.create(DEFAULT_BUFFER_SIZE) */\n      swap1\n      pop\n        /* \"@chainlink/contracts/src/v0.8/functions/dev/v1_0_0/libraries/FunctionsRequest.sol\":2316:2350  buffer.writeString(\"codeLocation\") */\n      tag_121\n      mload(0x40)\n      dup1\n      0x40\n      add\n      0x40\n      mstore\n      dup1\n      0x0c\n      dup2\n      mstore\n      0x20\n      add\n      0x636f64654c6f636174696f6e0000000000000000000000000000000000000000\n      dup2\n      mstore\n      pop\n        /* \"@chainlink/contracts/src/v0.8/functions/dev/v1_0_0/libraries/FunctionsRequest.sol\":2316:2322  buffer */\n      dup3\n        /* \"@chainlink/contracts/src/v0.8/functions/dev/v1_0_0/libraries/FunctionsRequest.sol\":2316:2334  buffer.writeString */\n      tag_122\n      swap1\n        /* \"@chainlink/contracts/src/v0.8/functions/dev/v1_0_0/libraries/FunctionsRequest.sol\":2316:2350  buffer.writeString(\"codeLocation\") */\n      swap2\n      swap1\n      0xffffffff\n      and\n      jump\t// in\n    tag_121:\n        /* \"@chainlink/contracts/src/v0.8/functions/dev/v1_0_0/libraries/FunctionsRequest.sol\":2356:2403  buffer.writeUInt256(uint256(self.codeLocation)) */\n      tag_123\n        /* \"@chainlink/contracts/src/v0.8/functions/dev/v1_0_0/libraries/FunctionsRequest.sol\":2384:2388  self */\n      dup4\n        /* \"@chainlink/contracts/src/v0.8/functions/dev/v1_0_0/libraries/FunctionsRequest.sol\":2384:2401  self.codeLocation */\n      0x00\n      add\n      mload\n        /* \"@chainlink/contracts/src/v0.8/functions/dev/v1_0_0/libraries/FunctionsRequest.sol\":2376:2402  uint256(self.codeLocation) */\n      0x02\n      dup2\n      gt\n      iszero\n      tag_124\n      jumpi\n      tag_125\n      tag_126\n      jump\t// in\n    tag_125:\n    tag_124:\n        /* \"@chainlink/contracts/src/v0.8/functions/dev/v1_0_0/libraries/FunctionsRequest.sol\":2356:2362  buffer */\n      dup3\n        /* \"@chainlink/contracts/src/v0.8/functions/dev/v1_0_0/libraries/FunctionsRequest.sol\":2356:2375  buffer.writeUInt256 */\n      tag_127\n      swap1\n        /* \"@chainlink/contracts/src/v0.8/functions/dev/v1_0_0/libraries/FunctionsRequest.sol\":2356:2403  buffer.writeUInt256(uint256(self.codeLocation)) */\n      swap2\n      swap1\n      0xffffffff\n      and\n      jump\t// in\n    tag_123:\n        /* \"@chainlink/contracts/src/v0.8/functions/dev/v1_0_0/libraries/FunctionsRequest.sol\":2410:2440  buffer.writeString(\"language\") */\n      tag_128\n      mload(0x40)\n      dup1\n      0x40\n      add\n      0x40\n      mstore\n      dup1\n      0x08\n      dup2\n      mstore\n      0x20\n      add\n      0x6c616e6775616765000000000000000000000000000000000000000000000000\n      dup2\n      mstore\n      pop\n        /* \"@chainlink/contracts/src/v0.8/functions/dev/v1_0_0/libraries/FunctionsRequest.sol\":2410:2416  buffer */\n      dup3\n        /* \"@chainlink/contracts/src/v0.8/functions/dev/v1_0_0/libraries/FunctionsRequest.sol\":2410:2428  buffer.writeString */\n      tag_122\n      swap1\n        /* \"@chainlink/contracts/src/v0.8/functions/dev/v1_0_0/libraries/FunctionsRequest.sol\":2410:2440  buffer.writeString(\"language\") */\n      swap2\n      swap1\n      0xffffffff\n      and\n      jump\t// in\n    tag_128:\n        /* \"@chainlink/contracts/src/v0.8/functions/dev/v1_0_0/libraries/FunctionsRequest.sol\":2446:2489  buffer.writeUInt256(uint256(self.language)) */\n      tag_129\n        /* \"@chainlink/contracts/src/v0.8/functions/dev/v1_0_0/libraries/FunctionsRequest.sol\":2474:2478  self */\n      dup4\n        /* \"@chainlink/contracts/src/v0.8/functions/dev/v1_0_0/libraries/FunctionsRequest.sol\":2474:2487  self.language */\n      0x40\n      add\n      mload\n        /* \"@chainlink/contracts/src/v0.8/functions/dev/v1_0_0/libraries/FunctionsRequest.sol\":2466:2488  uint256(self.language) */\n      0x00\n      dup2\n      gt\n      iszero\n      tag_130\n      jumpi\n      tag_131\n      tag_126\n      jump\t// in\n    tag_131:\n    tag_130:\n        /* \"@chainlink/contracts/src/v0.8/functions/dev/v1_0_0/libraries/FunctionsRequest.sol\":2446:2452  buffer */\n      dup3\n        /* \"@chainlink/contracts/src/v0.8/functions/dev/v1_0_0/libraries/FunctionsRequest.sol\":2446:2465  buffer.writeUInt256 */\n      tag_127\n      swap1\n        /* \"@chainlink/contracts/src/v0.8/functions/dev/v1_0_0/libraries/FunctionsRequest.sol\":2446:2489  buffer.writeUInt256(uint256(self.language)) */\n      swap2\n      swap1\n      0xffffffff\n      and\n      jump\t// in\n    tag_129:\n        /* \"@chainlink/contracts/src/v0.8/functions/dev/v1_0_0/libraries/FunctionsRequest.sol\":2496:2524  buffer.writeString(\"source\") */\n      tag_132\n      mload(0x40)\n      dup1\n      0x40\n      add\n      0x40\n      mstore\n      dup1\n      0x06\n      dup2\n      mstore\n      0x20\n      add\n      0x736f757263650000000000000000000000000000000000000000000000000000\n      dup2\n      mstore\n      pop\n        /* \"@chainlink/contracts/src/v0.8/functions/dev/v1_0_0/libraries/FunctionsRequest.sol\":2496:2502  buffer */\n      dup3\n        /* \"@chainlink/contracts/src/v0.8/functions/dev/v1_0_0/libraries/FunctionsRequest.sol\":2496:2514  buffer.writeString */\n      tag_122\n      swap1\n        /* \"@chainlink/contracts/src/v0.8/functions/dev/v1_0_0/libraries/FunctionsRequest.sol\":2496:2524  buffer.writeString(\"source\") */\n      swap2\n      swap1\n      0xffffffff\n      and\n      jump\t// in\n    tag_132:\n        /* \"@chainlink/contracts/src/v0.8/functions/dev/v1_0_0/libraries/FunctionsRequest.sol\":2530:2561  buffer.writeString(self.source) */\n      tag_133\n        /* \"@chainlink/contracts/src/v0.8/functions/dev/v1_0_0/libraries/FunctionsRequest.sol\":2549:2553  self */\n      dup4\n        /* \"@chainlink/contracts/src/v0.8/functions/dev/v1_0_0/libraries/FunctionsRequest.sol\":2549:2560  self.source */\n      0x60\n      add\n      mload\n        /* \"@chainlink/contracts/src/v0.8/functions/dev/v1_0_0/libraries/FunctionsRequest.sol\":2530:2536  buffer */\n      dup3\n        /* \"@chainlink/contracts/src/v0.8/functions/dev/v1_0_0/libraries/FunctionsRequest.sol\":2530:2548  buffer.writeString */\n      tag_122\n      swap1\n        /* \"@chainlink/contracts/src/v0.8/functions/dev/v1_0_0/libraries/FunctionsRequest.sol\":2530:2561  buffer.writeString(self.source) */\n      swap2\n      swap1\n      0xffffffff\n      and\n      jump\t// in\n    tag_133:\n        /* \"@chainlink/contracts/src/v0.8/functions/dev/v1_0_0/libraries/FunctionsRequest.sol\":2591:2592  0 */\n      0x00\n        /* \"@chainlink/contracts/src/v0.8/functions/dev/v1_0_0/libraries/FunctionsRequest.sol\":2572:2576  self */\n      dup4\n        /* \"@chainlink/contracts/src/v0.8/functions/dev/v1_0_0/libraries/FunctionsRequest.sol\":2572:2581  self.args */\n      0xa0\n      add\n      mload\n        /* \"@chainlink/contracts/src/v0.8/functions/dev/v1_0_0/libraries/FunctionsRequest.sol\":2572:2588  self.args.length */\n      mload\n        /* \"@chainlink/contracts/src/v0.8/functions/dev/v1_0_0/libraries/FunctionsRequest.sol\":2572:2592  self.args.length > 0 */\n      gt\n        /* \"@chainlink/contracts/src/v0.8/functions/dev/v1_0_0/libraries/FunctionsRequest.sol\":2568:2795  if (self.args.length > 0) {... */\n      iszero\n      tag_134\n      jumpi\n        /* \"@chainlink/contracts/src/v0.8/functions/dev/v1_0_0/libraries/FunctionsRequest.sol\":2602:2628  buffer.writeString(\"args\") */\n      tag_135\n      mload(0x40)\n      dup1\n      0x40\n      add\n      0x40\n      mstore\n      dup1\n      0x04\n      dup2\n      mstore\n      0x20\n      add\n      0x6172677300000000000000000000000000000000000000000000000000000000\n      dup2\n      mstore\n      pop\n        /* \"@chainlink/contracts/src/v0.8/functions/dev/v1_0_0/libraries/FunctionsRequest.sol\":2602:2608  buffer */\n      dup3\n        /* \"@chainlink/contracts/src/v0.8/functions/dev/v1_0_0/libraries/FunctionsRequest.sol\":2602:2620  buffer.writeString */\n      tag_122\n      swap1\n        /* \"@chainlink/contracts/src/v0.8/functions/dev/v1_0_0/libraries/FunctionsRequest.sol\":2602:2628  buffer.writeString(\"args\") */\n      swap2\n      swap1\n      0xffffffff\n      and\n      jump\t// in\n    tag_135:\n        /* \"@chainlink/contracts/src/v0.8/functions/dev/v1_0_0/libraries/FunctionsRequest.sol\":2636:2655  buffer.startArray() */\n      tag_136\n        /* \"@chainlink/contracts/src/v0.8/functions/dev/v1_0_0/libraries/FunctionsRequest.sol\":2636:2642  buffer */\n      dup2\n        /* \"@chainlink/contracts/src/v0.8/functions/dev/v1_0_0/libraries/FunctionsRequest.sol\":2636:2653  buffer.startArray */\n      tag_137\n        /* \"@chainlink/contracts/src/v0.8/functions/dev/v1_0_0/libraries/FunctionsRequest.sol\":2636:2655  buffer.startArray() */\n      jump\t// in\n    tag_136:\n        /* \"@chainlink/contracts/src/v0.8/functions/dev/v1_0_0/libraries/FunctionsRequest.sol\":2668:2677  uint256 i */\n      0x00\n        /* \"@chainlink/contracts/src/v0.8/functions/dev/v1_0_0/libraries/FunctionsRequest.sol\":2663:2761  for (uint256 i = 0; i < self.args.length; ++i) {... */\n    tag_138:\n        /* \"@chainlink/contracts/src/v0.8/functions/dev/v1_0_0/libraries/FunctionsRequest.sol\":2687:2691  self */\n      dup4\n        /* \"@chainlink/contracts/src/v0.8/functions/dev/v1_0_0/libraries/FunctionsRequest.sol\":2687:2696  self.args */\n      0xa0\n      add\n      mload\n        /* \"@chainlink/contracts/src/v0.8/functions/dev/v1_0_0/libraries/FunctionsRequest.sol\":2687:2703  self.args.length */\n      mload\n        /* \"@chainlink/contracts/src/v0.8/functions/dev/v1_0_0/libraries/FunctionsRequest.sol\":2683:2684  i */\n      dup2\n        /* \"@chainlink/contracts/src/v0.8/functions/dev/v1_0_0/libraries/FunctionsRequest.sol\":2683:2703  i < self.args.length */\n      lt\n        /* \"@chainlink/contracts/src/v0.8/functions/dev/v1_0_0/libraries/FunctionsRequest.sol\":2663:2761  for (uint256 i = 0; i < self.args.length; ++i) {... */\n      iszero\n      tag_139\n      jumpi\n        /* \"@chainlink/contracts/src/v0.8/functions/dev/v1_0_0/libraries/FunctionsRequest.sol\":2720:2752  buffer.writeString(self.args[i]) */\n      tag_141\n        /* \"@chainlink/contracts/src/v0.8/functions/dev/v1_0_0/libraries/FunctionsRequest.sol\":2739:2743  self */\n      dup5\n        /* \"@chainlink/contracts/src/v0.8/functions/dev/v1_0_0/libraries/FunctionsRequest.sol\":2739:2748  self.args */\n      0xa0\n      add\n      mload\n        /* \"@chainlink/contracts/src/v0.8/functions/dev/v1_0_0/libraries/FunctionsRequest.sol\":2749:2750  i */\n      dup3\n        /* \"@chainlink/contracts/src/v0.8/functions/dev/v1_0_0/libraries/FunctionsRequest.sol\":2739:2751  self.args[i] */\n      dup2\n      mload\n      dup2\n      lt\n      tag_142\n      jumpi\n      tag_143\n      tag_75\n      jump\t// in\n    tag_143:\n    tag_142:\n      0x20\n      mul\n      0x20\n      add\n      add\n      mload\n        /* \"@chainlink/contracts/src/v0.8/functions/dev/v1_0_0/libraries/FunctionsRequest.sol\":2720:2726  buffer */\n      dup4\n        /* \"@chainlink/contracts/src/v0.8/functions/dev/v1_0_0/libraries/FunctionsRequest.sol\":2720:2738  buffer.writeString */\n      tag_122\n      swap1\n        /* \"@chainlink/contracts/src/v0.8/functions/dev/v1_0_0/libraries/FunctionsRequest.sol\":2720:2752  buffer.writeString(self.args[i]) */\n      swap2\n      swap1\n      0xffffffff\n      and\n      jump\t// in\n    tag_141:\n        /* \"@chainlink/contracts/src/v0.8/functions/dev/v1_0_0/libraries/FunctionsRequest.sol\":2705:2708  ++i */\n      dup1\n      tag_144\n      swap1\n      tag_145\n      jump\t// in\n    tag_144:\n      swap1\n      pop\n        /* \"@chainlink/contracts/src/v0.8/functions/dev/v1_0_0/libraries/FunctionsRequest.sol\":2663:2761  for (uint256 i = 0; i < self.args.length; ++i) {... */\n      jump(tag_138)\n    tag_139:\n      pop\n        /* \"@chainlink/contracts/src/v0.8/functions/dev/v1_0_0/libraries/FunctionsRequest.sol\":2768:2788  buffer.endSequence() */\n      tag_146\n        /* \"@chainlink/contracts/src/v0.8/functions/dev/v1_0_0/libraries/FunctionsRequest.sol\":2768:2774  buffer */\n      dup2\n        /* \"@chainlink/contracts/src/v0.8/functions/dev/v1_0_0/libraries/FunctionsRequest.sol\":2768:2786  buffer.endSequence */\n      tag_147\n        /* \"@chainlink/contracts/src/v0.8/functions/dev/v1_0_0/libraries/FunctionsRequest.sol\":2768:2788  buffer.endSequence() */\n      jump\t// in\n    tag_146:\n        /* \"@chainlink/contracts/src/v0.8/functions/dev/v1_0_0/libraries/FunctionsRequest.sol\":2568:2795  if (self.args.length > 0) {... */\n    tag_134:\n        /* \"@chainlink/contracts/src/v0.8/functions/dev/v1_0_0/libraries/FunctionsRequest.sol\":2845:2846  0 */\n      0x00\n        /* \"@chainlink/contracts/src/v0.8/functions/dev/v1_0_0/libraries/FunctionsRequest.sol\":2805:2809  self */\n      dup4\n        /* \"@chainlink/contracts/src/v0.8/functions/dev/v1_0_0/libraries/FunctionsRequest.sol\":2805:2835  self.encryptedSecretsReference */\n      0x80\n      add\n      mload\n        /* \"@chainlink/contracts/src/v0.8/functions/dev/v1_0_0/libraries/FunctionsRequest.sol\":2805:2842  self.encryptedSecretsReference.length */\n      mload\n        /* \"@chainlink/contracts/src/v0.8/functions/dev/v1_0_0/libraries/FunctionsRequest.sol\":2805:2846  self.encryptedSecretsReference.length > 0 */\n      gt\n        /* \"@chainlink/contracts/src/v0.8/functions/dev/v1_0_0/libraries/FunctionsRequest.sol\":2801:3147  if (self.encryptedSecretsReference.length > 0) {... */\n      iszero\n      tag_148\n      jumpi\n        /* \"@chainlink/contracts/src/v0.8/functions/dev/v1_0_0/libraries/FunctionsRequest.sol\":2884:2899  Location.Inline */\n      0x00\n        /* \"@chainlink/contracts/src/v0.8/functions/dev/v1_0_0/libraries/FunctionsRequest.sol\":2860:2899  self.secretsLocation == Location.Inline */\n      0x02\n      dup2\n      gt\n      iszero\n      tag_149\n      jumpi\n      tag_150\n      tag_126\n      jump\t// in\n    tag_150:\n    tag_149:\n        /* \"@chainlink/contracts/src/v0.8/functions/dev/v1_0_0/libraries/FunctionsRequest.sol\":2860:2864  self */\n      dup4\n        /* \"@chainlink/contracts/src/v0.8/functions/dev/v1_0_0/libraries/FunctionsRequest.sol\":2860:2880  self.secretsLocation */\n      0x20\n      add\n      mload\n        /* \"@chainlink/contracts/src/v0.8/functions/dev/v1_0_0/libraries/FunctionsRequest.sol\":2860:2899  self.secretsLocation == Location.Inline */\n      0x02\n      dup2\n      gt\n      iszero\n      tag_151\n      jumpi\n      tag_152\n      tag_126\n      jump\t// in\n    tag_152:\n    tag_151:\n      sub\n        /* \"@chainlink/contracts/src/v0.8/functions/dev/v1_0_0/libraries/FunctionsRequest.sol\":2856:2944  if (self.secretsLocation == Location.Inline) {... */\n      tag_153\n      jumpi\n        /* \"@chainlink/contracts/src/v0.8/functions/dev/v1_0_0/libraries/FunctionsRequest.sol\":2918:2935  NoInlineSecrets() */\n      mload(0x40)\n      0xa80d31f700000000000000000000000000000000000000000000000000000000\n      dup2\n      mstore\n      0x04\n      add\n      mload(0x40)\n      dup1\n      swap2\n      sub\n      swap1\n      revert\n        /* \"@chainlink/contracts/src/v0.8/functions/dev/v1_0_0/libraries/FunctionsRequest.sol\":2856:2944  if (self.secretsLocation == Location.Inline) {... */\n    tag_153:\n        /* \"@chainlink/contracts/src/v0.8/functions/dev/v1_0_0/libraries/FunctionsRequest.sol\":2951:2988  buffer.writeString(\"secretsLocation\") */\n      tag_154\n      mload(0x40)\n      dup1\n      0x40\n      add\n      0x40\n      mstore\n      dup1\n      0x0f\n      dup2\n      mstore\n      0x20\n      add\n      0x736563726574734c6f636174696f6e0000000000000000000000000000000000\n      dup2\n      mstore\n      pop\n        /* \"@chainlink/contracts/src/v0.8/functions/dev/v1_0_0/libraries/FunctionsRequest.sol\":2951:2957  buffer */\n      dup3\n        /* \"@chainlink/contracts/src/v0.8/functions/dev/v1_0_0/libraries/FunctionsRequest.sol\":2951:2969  buffer.writeString */\n      tag_122\n      swap1\n        /* \"@chainlink/contracts/src/v0.8/functions/dev/v1_0_0/libraries/FunctionsRequest.sol\":2951:2988  buffer.writeString(\"secretsLocation\") */\n      swap2\n      swap1\n      0xffffffff\n      and\n      jump\t// in\n    tag_154:\n        /* \"@chainlink/contracts/src/v0.8/functions/dev/v1_0_0/libraries/FunctionsRequest.sol\":2996:3046  buffer.writeUInt256(uint256(self.secretsLocation)) */\n      tag_155\n        /* \"@chainlink/contracts/src/v0.8/functions/dev/v1_0_0/libraries/FunctionsRequest.sol\":3024:3028  self */\n      dup4\n        /* \"@chainlink/contracts/src/v0.8/functions/dev/v1_0_0/libraries/FunctionsRequest.sol\":3024:3044  self.secretsLocation */\n      0x20\n      add\n      mload\n        /* \"@chainlink/contracts/src/v0.8/functions/dev/v1_0_0/libraries/FunctionsRequest.sol\":3016:3045  uint256(self.secretsLocation) */\n      0x02\n      dup2\n      gt\n      iszero\n      tag_156\n      jumpi\n      tag_157\n      tag_126\n      jump\t// in\n    tag_157:\n    tag_156:\n        /* \"@chainlink/contracts/src/v0.8/functions/dev/v1_0_0/libraries/FunctionsRequest.sol\":2996:3002  buffer */\n      dup3\n        /* \"@chainlink/contracts/src/v0.8/functions/dev/v1_0_0/libraries/FunctionsRequest.sol\":2996:3015  buffer.writeUInt256 */\n      tag_127\n      swap1\n        /* \"@chainlink/contracts/src/v0.8/functions/dev/v1_0_0/libraries/FunctionsRequest.sol\":2996:3046  buffer.writeUInt256(uint256(self.secretsLocation)) */\n      swap2\n      swap1\n      0xffffffff\n      and\n      jump\t// in\n    tag_155:\n        /* \"@chainlink/contracts/src/v0.8/functions/dev/v1_0_0/libraries/FunctionsRequest.sol\":3054:3083  buffer.writeString(\"secrets\") */\n      tag_158\n      mload(0x40)\n      dup1\n      0x40\n      add\n      0x40\n      mstore\n      dup1\n      0x07\n      dup2\n      mstore\n      0x20\n      add\n      0x7365637265747300000000000000000000000000000000000000000000000000\n      dup2\n      mstore\n      pop\n        /* \"@chainlink/contracts/src/v0.8/functions/dev/v1_0_0/libraries/FunctionsRequest.sol\":3054:3060  buffer */\n      dup3\n        /* \"@chainlink/contracts/src/v0.8/functions/dev/v1_0_0/libraries/FunctionsRequest.sol\":3054:3072  buffer.writeString */\n      tag_122\n      swap1\n        /* \"@chainlink/contracts/src/v0.8/functions/dev/v1_0_0/libraries/FunctionsRequest.sol\":3054:3083  buffer.writeString(\"secrets\") */\n      swap2\n      swap1\n      0xffffffff\n      and\n      jump\t// in\n    tag_158:\n        /* \"@chainlink/contracts/src/v0.8/functions/dev/v1_0_0/libraries/FunctionsRequest.sol\":3091:3140  buffer.writeBytes(self.encryptedSecretsReference) */\n      tag_159\n        /* \"@chainlink/contracts/src/v0.8/functions/dev/v1_0_0/libraries/FunctionsRequest.sol\":3109:3113  self */\n      dup4\n        /* \"@chainlink/contracts/src/v0.8/functions/dev/v1_0_0/libraries/FunctionsRequest.sol\":3109:3139  self.encryptedSecretsReference */\n      0x80\n      add\n      mload\n        /* \"@chainlink/contracts/src/v0.8/functions/dev/v1_0_0/libraries/FunctionsRequest.sol\":3091:3097  buffer */\n      dup3\n        /* \"@chainlink/contracts/src/v0.8/functions/dev/v1_0_0/libraries/FunctionsRequest.sol\":3091:3108  buffer.writeBytes */\n      tag_160\n      swap1\n        /* \"@chainlink/contracts/src/v0.8/functions/dev/v1_0_0/libraries/FunctionsRequest.sol\":3091:3140  buffer.writeBytes(self.encryptedSecretsReference) */\n      swap2\n      swap1\n      0xffffffff\n      and\n      jump\t// in\n    tag_159:\n        /* \"@chainlink/contracts/src/v0.8/functions/dev/v1_0_0/libraries/FunctionsRequest.sol\":2801:3147  if (self.encryptedSecretsReference.length > 0) {... */\n    tag_148:\n        /* \"@chainlink/contracts/src/v0.8/functions/dev/v1_0_0/libraries/FunctionsRequest.sol\":3181:3182  0 */\n      0x00\n        /* \"@chainlink/contracts/src/v0.8/functions/dev/v1_0_0/libraries/FunctionsRequest.sol\":3157:3161  self */\n      dup4\n        /* \"@chainlink/contracts/src/v0.8/functions/dev/v1_0_0/libraries/FunctionsRequest.sol\":3157:3171  self.bytesArgs */\n      0xc0\n      add\n      mload\n        /* \"@chainlink/contracts/src/v0.8/functions/dev/v1_0_0/libraries/FunctionsRequest.sol\":3157:3178  self.bytesArgs.length */\n      mload\n        /* \"@chainlink/contracts/src/v0.8/functions/dev/v1_0_0/libraries/FunctionsRequest.sol\":3157:3182  self.bytesArgs.length > 0 */\n      gt\n        /* \"@chainlink/contracts/src/v0.8/functions/dev/v1_0_0/libraries/FunctionsRequest.sol\":3153:3399  if (self.bytesArgs.length > 0) {... */\n      iszero\n      tag_161\n      jumpi\n        /* \"@chainlink/contracts/src/v0.8/functions/dev/v1_0_0/libraries/FunctionsRequest.sol\":3192:3223  buffer.writeString(\"bytesArgs\") */\n      tag_162\n      mload(0x40)\n      dup1\n      0x40\n      add\n      0x40\n      mstore\n      dup1\n      0x09\n      dup2\n      mstore\n      0x20\n      add\n      0x6279746573417267730000000000000000000000000000000000000000000000\n      dup2\n      mstore\n      pop\n        /* \"@chainlink/contracts/src/v0.8/functions/dev/v1_0_0/libraries/FunctionsRequest.sol\":3192:3198  buffer */\n      dup3\n        /* \"@chainlink/contracts/src/v0.8/functions/dev/v1_0_0/libraries/FunctionsRequest.sol\":3192:3210  buffer.writeString */\n      tag_122\n      swap1\n        /* \"@chainlink/contracts/src/v0.8/functions/dev/v1_0_0/libraries/FunctionsRequest.sol\":3192:3223  buffer.writeString(\"bytesArgs\") */\n      swap2\n      swap1\n      0xffffffff\n      and\n      jump\t// in\n    tag_162:\n        /* \"@chainlink/contracts/src/v0.8/functions/dev/v1_0_0/libraries/FunctionsRequest.sol\":3231:3250  buffer.startArray() */\n      tag_163\n        /* \"@chainlink/contracts/src/v0.8/functions/dev/v1_0_0/libraries/FunctionsRequest.sol\":3231:3237  buffer */\n      dup2\n        /* \"@chainlink/contracts/src/v0.8/functions/dev/v1_0_0/libraries/FunctionsRequest.sol\":3231:3248  buffer.startArray */\n      tag_137\n        /* \"@chainlink/contracts/src/v0.8/functions/dev/v1_0_0/libraries/FunctionsRequest.sol\":3231:3250  buffer.startArray() */\n      jump\t// in\n    tag_163:\n        /* \"@chainlink/contracts/src/v0.8/functions/dev/v1_0_0/libraries/FunctionsRequest.sol\":3263:3272  uint256 i */\n      0x00\n        /* \"@chainlink/contracts/src/v0.8/functions/dev/v1_0_0/libraries/FunctionsRequest.sol\":3258:3365  for (uint256 i = 0; i < self.bytesArgs.length; ++i) {... */\n    tag_164:\n        /* \"@chainlink/contracts/src/v0.8/functions/dev/v1_0_0/libraries/FunctionsRequest.sol\":3282:3286  self */\n      dup4\n        /* \"@chainlink/contracts/src/v0.8/functions/dev/v1_0_0/libraries/FunctionsRequest.sol\":3282:3296  self.bytesArgs */\n      0xc0\n      add\n      mload\n        /* \"@chainlink/contracts/src/v0.8/functions/dev/v1_0_0/libraries/FunctionsRequest.sol\":3282:3303  self.bytesArgs.length */\n      mload\n        /* \"@chainlink/contracts/src/v0.8/functions/dev/v1_0_0/libraries/FunctionsRequest.sol\":3278:3279  i */\n      dup2\n        /* \"@chainlink/contracts/src/v0.8/functions/dev/v1_0_0/libraries/FunctionsRequest.sol\":3278:3303  i < self.bytesArgs.length */\n      lt\n        /* \"@chainlink/contracts/src/v0.8/functions/dev/v1_0_0/libraries/FunctionsRequest.sol\":3258:3365  for (uint256 i = 0; i < self.bytesArgs.length; ++i) {... */\n      iszero\n      tag_165\n      jumpi\n        /* \"@chainlink/contracts/src/v0.8/functions/dev/v1_0_0/libraries/FunctionsRequest.sol\":3320:3356  buffer.writeBytes(self.bytesArgs[i]) */\n      tag_167\n        /* \"@chainlink/contracts/src/v0.8/functions/dev/v1_0_0/libraries/FunctionsRequest.sol\":3338:3342  self */\n      dup5\n        /* \"@chainlink/contracts/src/v0.8/functions/dev/v1_0_0/libraries/FunctionsRequest.sol\":3338:3352  self.bytesArgs */\n      0xc0\n      add\n      mload\n        /* \"@chainlink/contracts/src/v0.8/functions/dev/v1_0_0/libraries/FunctionsRequest.sol\":3353:3354  i */\n      dup3\n        /* \"@chainlink/contracts/src/v0.8/functions/dev/v1_0_0/libraries/FunctionsRequest.sol\":3338:3355  self.bytesArgs[i] */\n      dup2\n      mload\n      dup2\n      lt\n      tag_168\n      jumpi\n      tag_169\n      tag_75\n      jump\t// in\n    tag_169:\n    tag_168:\n      0x20\n      mul\n      0x20\n      add\n      add\n      mload\n        /* \"@chainlink/contracts/src/v0.8/functions/dev/v1_0_0/libraries/FunctionsRequest.sol\":3320:3326  buffer */\n      dup4\n        /* \"@chainlink/contracts/src/v0.8/functions/dev/v1_0_0/libraries/FunctionsRequest.sol\":3320:3337  buffer.writeBytes */\n      tag_160\n      swap1\n        /* \"@chainlink/contracts/src/v0.8/functions/dev/v1_0_0/libraries/FunctionsRequest.sol\":3320:3356  buffer.writeBytes(self.bytesArgs[i]) */\n      swap2\n      swap1\n      0xffffffff\n      and\n      jump\t// in\n    tag_167:\n        /* \"@chainlink/contracts/src/v0.8/functions/dev/v1_0_0/libraries/FunctionsRequest.sol\":3305:3308  ++i */\n      dup1\n      tag_170\n      swap1\n      tag_145\n      jump\t// in\n    tag_170:\n      swap1\n      pop\n        /* \"@chainlink/contracts/src/v0.8/functions/dev/v1_0_0/libraries/FunctionsRequest.sol\":3258:3365  for (uint256 i = 0; i < self.bytesArgs.length; ++i) {... */\n      jump(tag_164)\n    tag_165:\n      pop\n        /* \"@chainlink/contracts/src/v0.8/functions/dev/v1_0_0/libraries/FunctionsRequest.sol\":3372:3392  buffer.endSequence() */\n      tag_171\n        /* \"@chainlink/contracts/src/v0.8/functions/dev/v1_0_0/libraries/FunctionsRequest.sol\":3372:3378  buffer */\n      dup2\n        /* \"@chainlink/contracts/src/v0.8/functions/dev/v1_0_0/libraries/FunctionsRequest.sol\":3372:3390  buffer.endSequence */\n      tag_147\n        /* \"@chainlink/contracts/src/v0.8/functions/dev/v1_0_0/libraries/FunctionsRequest.sol\":3372:3392  buffer.endSequence() */\n      jump\t// in\n    tag_171:\n        /* \"@chainlink/contracts/src/v0.8/functions/dev/v1_0_0/libraries/FunctionsRequest.sol\":3153:3399  if (self.bytesArgs.length > 0) {... */\n    tag_161:\n        /* \"@chainlink/contracts/src/v0.8/functions/dev/v1_0_0/libraries/FunctionsRequest.sol\":3412:3418  buffer */\n      dup1\n        /* \"@chainlink/contracts/src/v0.8/functions/dev/v1_0_0/libraries/FunctionsRequest.sol\":3412:3422  buffer.buf */\n      0x00\n      add\n      mload\n        /* \"@chainlink/contracts/src/v0.8/functions/dev/v1_0_0/libraries/FunctionsRequest.sol\":3412:3426  buffer.buf.buf */\n      0x00\n      add\n      mload\n        /* \"@chainlink/contracts/src/v0.8/functions/dev/v1_0_0/libraries/FunctionsRequest.sol\":3405:3426  return buffer.buf.buf */\n      swap2\n      pop\n      pop\n        /* \"@chainlink/contracts/src/v0.8/functions/dev/v1_0_0/libraries/FunctionsRequest.sol\":2161:3431  function encodeCBOR(Request memory self) internal pure returns (bytes memory) {... */\n      swap2\n      swap1\n      pop\n      jump\t// out\n        /* \"@chainlink/contracts/src/v0.8/functions/dev/v1_0_0/FunctionsClient.sol\":1158:1537  function _sendRequest(... */\n    tag_91:\n        /* \"@chainlink/contracts/src/v0.8/functions/dev/v1_0_0/FunctionsClient.sol\":1300:1307  bytes32 */\n      0x00\n        /* \"@chainlink/contracts/src/v0.8/functions/dev/v1_0_0/FunctionsClient.sol\":1315:1332  bytes32 requestId */\n      dup1\n        /* \"@chainlink/contracts/src/v0.8/functions/dev/v1_0_0/FunctionsClient.sol\":1335:1343  i_router */\n      immutable(\"0x8e8fab5f003314da8d1873ea7720e8d9f47650136d916064d1edb8a11d682624\")\n        /* \"@chainlink/contracts/src/v0.8/functions/dev/v1_0_0/FunctionsClient.sol\":1335:1355  i_router.sendRequest */\n      0xffffffffffffffffffffffffffffffffffffffff\n      and\n      0x461d2762\n        /* \"@chainlink/contracts/src/v0.8/functions/dev/v1_0_0/FunctionsClient.sol\":1363:1377  subscriptionId */\n      dup7\n        /* \"@chainlink/contracts/src/v0.8/functions/dev/v1_0_0/FunctionsClient.sol\":1385:1389  data */\n      dup9\n        /* \"@chainlink/contracts/src/v0.8/functions/dev/v1_0_0/libraries/FunctionsRequest.sol\":325:326  1 */\n      0x01\n        /* \"@chainlink/contracts/src/v0.8/functions/dev/v1_0_0/FunctionsClient.sol\":1442:1458  callbackGasLimit */\n      dup9\n        /* \"@chainlink/contracts/src/v0.8/functions/dev/v1_0_0/FunctionsClient.sol\":1466:1471  donId */\n      dup9\n        /* \"@chainlink/contracts/src/v0.8/functions/dev/v1_0_0/FunctionsClient.sol\":1335:1477  i_router.sendRequest(... */\n      mload(0x40)\n      dup7\n      0xffffffff\n      and\n      0xe0\n      shl\n      dup2\n      mstore\n      0x04\n      add\n      tag_173\n      swap6\n      swap5\n      swap4\n      swap3\n      swap2\n      swap1\n      tag_174\n      jump\t// in\n    tag_173:\n      0x20\n      mload(0x40)\n      dup1\n      dup4\n      sub\n      dup2\n      0x00\n      dup8\n      gas\n      call\n      iszero\n      dup1\n      iszero\n      tag_176\n      jumpi\n      returndatasize\n      0x00\n      dup1\n      returndatacopy\n      revert(0x00, returndatasize)\n    tag_176:\n      pop\n      pop\n      pop\n      pop\n      mload(0x40)\n      returndatasize\n      not(0x1f)\n      0x1f\n      dup3\n      add\n      and\n      dup3\n      add\n      dup1\n      0x40\n      mstore\n      pop\n      dup2\n      add\n      swap1\n      tag_177\n      swap2\n      swap1\n      tag_178\n      jump\t// in\n    tag_177:\n        /* \"@chainlink/contracts/src/v0.8/functions/dev/v1_0_0/FunctionsClient.sol\":1315:1477  bytes32 requestId = i_router.sendRequest(... */\n      swap1\n      pop\n        /* \"@chainlink/contracts/src/v0.8/functions/dev/v1_0_0/FunctionsClient.sol\":1500:1509  requestId */\n      dup1\n        /* \"@chainlink/contracts/src/v0.8/functions/dev/v1_0_0/FunctionsClient.sol\":1488:1510  RequestSent(requestId) */\n      0x1131472297a800fee664d1d89cfa8f7676ff07189ecc53f80bbb5f4969099db8\n      mload(0x40)\n      mload(0x40)\n      dup1\n      swap2\n      sub\n      swap1\n      log2\n        /* \"@chainlink/contracts/src/v0.8/functions/dev/v1_0_0/FunctionsClient.sol\":1523:1532  requestId */\n      dup1\n        /* \"@chainlink/contracts/src/v0.8/functions/dev/v1_0_0/FunctionsClient.sol\":1516:1532  return requestId */\n      swap2\n      pop\n      pop\n        /* \"@chainlink/contracts/src/v0.8/functions/dev/v1_0_0/FunctionsClient.sol\":1158:1537  function _sendRequest(... */\n      swap5\n      swap4\n      pop\n      pop\n      pop\n      pop\n      jump\t// out\n        /* \"@chainlink/contracts/src/v0.8/functions/dev/v1_0_0/libraries/FunctionsRequest.sol\":3780:4087  function initializeRequest(... */\n    tag_115:\n        /* \"@chainlink/contracts/src/v0.8/functions/dev/v1_0_0/libraries/FunctionsRequest.sol\":3964:3965  0 */\n      0x00\n        /* \"@chainlink/contracts/src/v0.8/functions/dev/v1_0_0/libraries/FunctionsRequest.sol\":3946:3952  source */\n      dup2\n        /* \"@chainlink/contracts/src/v0.8/functions/dev/v1_0_0/libraries/FunctionsRequest.sol\":3940:3960  bytes(source).length */\n      mload\n        /* \"@chainlink/contracts/src/v0.8/functions/dev/v1_0_0/libraries/FunctionsRequest.sol\":3940:3965  bytes(source).length == 0 */\n      sub\n        /* \"@chainlink/contracts/src/v0.8/functions/dev/v1_0_0/libraries/FunctionsRequest.sol\":3936:3987  if (bytes(source).length == 0) revert EmptySource() */\n      tag_180\n      jumpi\n        /* \"@chainlink/contracts/src/v0.8/functions/dev/v1_0_0/libraries/FunctionsRequest.sol\":3974:3987  EmptySource() */\n      mload(0x40)\n      0x22ce3edd00000000000000000000000000000000000000000000000000000000\n      dup2\n      mstore\n      0x04\n      add\n      mload(0x40)\n      dup1\n      swap2\n      sub\n      swap1\n      revert\n        /* \"@chainlink/contracts/src/v0.8/functions/dev/v1_0_0/libraries/FunctionsRequest.sol\":3936:3987  if (bytes(source).length == 0) revert EmptySource() */\n    tag_180:\n        /* \"@chainlink/contracts/src/v0.8/functions/dev/v1_0_0/libraries/FunctionsRequest.sol\":4014:4026  codeLocation */\n      dup3\n        /* \"@chainlink/contracts/src/v0.8/functions/dev/v1_0_0/libraries/FunctionsRequest.sol\":3994:3998  self */\n      dup5\n        /* \"@chainlink/contracts/src/v0.8/functions/dev/v1_0_0/libraries/FunctionsRequest.sol\":3994:4011  self.codeLocation */\n      0x00\n      add\n        /* \"@chainlink/contracts/src/v0.8/functions/dev/v1_0_0/libraries/FunctionsRequest.sol\":3994:4026  self.codeLocation = codeLocation */\n      swap1\n      0x02\n      dup2\n      gt\n      iszero\n      tag_181\n      jumpi\n      tag_182\n      tag_126\n      jump\t// in\n    tag_182:\n    tag_181:\n      swap1\n      dup2\n      0x02\n      dup2\n      gt\n      iszero\n      tag_183\n      jumpi\n      tag_184\n      tag_126\n      jump\t// in\n    tag_184:\n    tag_183:\n      dup2\n      mstore\n      pop\n      pop\n        /* \"@chainlink/contracts/src/v0.8/functions/dev/v1_0_0/libraries/FunctionsRequest.sol\":4048:4056  language */\n      dup2\n        /* \"@chainlink/contracts/src/v0.8/functions/dev/v1_0_0/libraries/FunctionsRequest.sol\":4032:4036  self */\n      dup5\n        /* \"@chainlink/contracts/src/v0.8/functions/dev/v1_0_0/libraries/FunctionsRequest.sol\":4032:4045  self.language */\n      0x40\n      add\n        /* \"@chainlink/contracts/src/v0.8/functions/dev/v1_0_0/libraries/FunctionsRequest.sol\":4032:4056  self.language = language */\n      swap1\n      0x00\n      dup2\n      gt\n      iszero\n      tag_185\n      jumpi\n      tag_186\n      tag_126\n      jump\t// in\n    tag_186:\n    tag_185:\n      swap1\n      dup2\n      0x00\n      dup2\n      gt\n      iszero\n      tag_187\n      jumpi\n      tag_188\n      tag_126\n      jump\t// in\n    tag_188:\n    tag_187:\n      dup2\n      mstore\n      pop\n      pop\n        /* \"@chainlink/contracts/src/v0.8/functions/dev/v1_0_0/libraries/FunctionsRequest.sol\":4076:4082  source */\n      dup1\n        /* \"@chainlink/contracts/src/v0.8/functions/dev/v1_0_0/libraries/FunctionsRequest.sol\":4062:4066  self */\n      dup5\n        /* \"@chainlink/contracts/src/v0.8/functions/dev/v1_0_0/libraries/FunctionsRequest.sol\":4062:4073  self.source */\n      0x60\n      add\n        /* \"@chainlink/contracts/src/v0.8/functions/dev/v1_0_0/libraries/FunctionsRequest.sol\":4062:4082  self.source = source */\n      dup2\n      swap1\n      mstore\n      pop\n        /* \"@chainlink/contracts/src/v0.8/functions/dev/v1_0_0/libraries/FunctionsRequest.sol\":3780:4087  function initializeRequest(... */\n      pop\n      pop\n      pop\n      pop\n      jump\t// out\n        /* \"@chainlink/contracts/src/v0.8/vendor/solidity-cborutils/v2.0.0/CBOR.sol\":1490:1663  function create(uint256 capacity) internal pure returns(CBORBuffer memory cbor) {... */\n    tag_120:\n        /* \"@chainlink/contracts/src/v0.8/vendor/solidity-cborutils/v2.0.0/CBOR.sol\":1546:1568  CBORBuffer memory cbor */\n      tag_189\n      tag_190\n      jump\t// in\n    tag_189:\n        /* \"@chainlink/contracts/src/v0.8/vendor/solidity-cborutils/v2.0.0/CBOR.sol\":1580:1611  Buffer.init(cbor.buf, capacity) */\n      tag_192\n        /* \"@chainlink/contracts/src/v0.8/vendor/solidity-cborutils/v2.0.0/CBOR.sol\":1592:1596  cbor */\n      dup2\n        /* \"@chainlink/contracts/src/v0.8/vendor/solidity-cborutils/v2.0.0/CBOR.sol\":1592:1600  cbor.buf */\n      0x00\n      add\n      mload\n        /* \"@chainlink/contracts/src/v0.8/vendor/solidity-cborutils/v2.0.0/CBOR.sol\":1602:1610  capacity */\n      dup4\n        /* \"@chainlink/contracts/src/v0.8/vendor/solidity-cborutils/v2.0.0/CBOR.sol\":1580:1591  Buffer.init */\n      tag_193\n        /* \"@chainlink/contracts/src/v0.8/vendor/solidity-cborutils/v2.0.0/CBOR.sol\":1580:1611  Buffer.init(cbor.buf, capacity) */\n      jump\t// in\n    tag_192:\n      pop\n        /* \"@chainlink/contracts/src/v0.8/vendor/solidity-cborutils/v2.0.0/CBOR.sol\":1634:1635  0 */\n      0x00\n        /* \"@chainlink/contracts/src/v0.8/vendor/solidity-cborutils/v2.0.0/CBOR.sol\":1621:1625  cbor */\n      dup2\n        /* \"@chainlink/contracts/src/v0.8/vendor/solidity-cborutils/v2.0.0/CBOR.sol\":1621:1631  cbor.depth */\n      0x20\n      add\n        /* \"@chainlink/contracts/src/v0.8/vendor/solidity-cborutils/v2.0.0/CBOR.sol\":1621:1635  cbor.depth = 0 */\n      dup2\n      dup2\n      mstore\n      pop\n      pop\n        /* \"@chainlink/contracts/src/v0.8/vendor/solidity-cborutils/v2.0.0/CBOR.sol\":1490:1663  function create(uint256 capacity) internal pure returns(CBORBuffer memory cbor) {... */\n      swap2\n      swap1\n      pop\n      jump\t// out\n        /* \"@chainlink/contracts/src/v0.8/vendor/solidity-cborutils/v2.0.0/CBOR.sol\":3021:3225  function writeString(CBORBuffer memory buf, string memory value) internal pure {... */\n    tag_122:\n        /* \"@chainlink/contracts/src/v0.8/vendor/solidity-cborutils/v2.0.0/CBOR.sol\":3110:3180  writeFixedNumeric(buf, MAJOR_TYPE_STRING, uint64(bytes(value).length)) */\n      tag_195\n        /* \"@chainlink/contracts/src/v0.8/vendor/solidity-cborutils/v2.0.0/CBOR.sol\":3128:3131  buf */\n      dup3\n        /* \"@chainlink/contracts/src/v0.8/vendor/solidity-cborutils/v2.0.0/CBOR.sol\":998:999  3 */\n      0x03\n        /* \"@chainlink/contracts/src/v0.8/vendor/solidity-cborutils/v2.0.0/CBOR.sol\":3165:3170  value */\n      dup4\n        /* \"@chainlink/contracts/src/v0.8/vendor/solidity-cborutils/v2.0.0/CBOR.sol\":3159:3178  bytes(value).length */\n      mload\n        /* \"@chainlink/contracts/src/v0.8/vendor/solidity-cborutils/v2.0.0/CBOR.sol\":3110:3127  writeFixedNumeric */\n      tag_196\n        /* \"@chainlink/contracts/src/v0.8/vendor/solidity-cborutils/v2.0.0/CBOR.sol\":3110:3180  writeFixedNumeric(buf, MAJOR_TYPE_STRING, uint64(bytes(value).length)) */\n      jump\t// in\n    tag_195:\n        /* \"@chainlink/contracts/src/v0.8/vendor/solidity-cborutils/v2.0.0/CBOR.sol\":3190:3218  buf.buf.append(bytes(value)) */\n      tag_197\n        /* \"@chainlink/contracts/src/v0.8/vendor/solidity-cborutils/v2.0.0/CBOR.sol\":3211:3216  value */\n      dup2\n        /* \"@chainlink/contracts/src/v0.8/vendor/solidity-cborutils/v2.0.0/CBOR.sol\":3190:3193  buf */\n      dup4\n        /* \"@chainlink/contracts/src/v0.8/vendor/solidity-cborutils/v2.0.0/CBOR.sol\":3190:3197  buf.buf */\n      0x00\n      add\n      mload\n        /* \"@chainlink/contracts/src/v0.8/vendor/solidity-cborutils/v2.0.0/CBOR.sol\":3190:3204  buf.buf.append */\n      tag_198\n      swap1\n        /* \"@chainlink/contracts/src/v0.8/vendor/solidity-cborutils/v2.0.0/CBOR.sol\":3190:3218  buf.buf.append(bytes(value)) */\n      swap2\n      swap1\n      0xffffffff\n      and\n      jump\t// in\n    tag_197:\n      pop\n        /* \"@chainlink/contracts/src/v0.8/vendor/solidity-cborutils/v2.0.0/CBOR.sol\":3021:3225  function writeString(CBORBuffer memory buf, string memory value) internal pure {... */\n      pop\n      pop\n      jump\t// out\n        /* \"@chainlink/contracts/src/v0.8/vendor/solidity-cborutils/v2.0.0/CBOR.sol\":1832:2034  function writeUInt256(CBORBuffer memory buf, uint256 value) internal pure {... */\n    tag_127:\n        /* \"@chainlink/contracts/src/v0.8/vendor/solidity-cborutils/v2.0.0/CBOR.sol\":1916:1983  buf.buf.appendUint8(uint8((MAJOR_TYPE_TAG << 5) | TAG_TYPE_BIGNUM)) */\n      tag_200\n        /* \"@chainlink/contracts/src/v0.8/vendor/solidity-cborutils/v2.0.0/CBOR.sol\":1246:1247  2 */\n      0x02\n        /* \"@chainlink/contracts/src/v0.8/vendor/solidity-cborutils/v2.0.0/CBOR.sol\":1961:1962  5 */\n      0x05\n        /* \"@chainlink/contracts/src/v0.8/vendor/solidity-cborutils/v2.0.0/CBOR.sol\":1141:1142  6 */\n      0x06\n        /* \"@chainlink/contracts/src/v0.8/vendor/solidity-cborutils/v2.0.0/CBOR.sol\":1943:1962  MAJOR_TYPE_TAG << 5 */\n      0xff\n      and\n      swap1\n      shl\n        /* \"@chainlink/contracts/src/v0.8/vendor/solidity-cborutils/v2.0.0/CBOR.sol\":1942:1981  (MAJOR_TYPE_TAG << 5) | TAG_TYPE_BIGNUM */\n      or\n        /* \"@chainlink/contracts/src/v0.8/vendor/solidity-cborutils/v2.0.0/CBOR.sol\":1916:1919  buf */\n      dup4\n        /* \"@chainlink/contracts/src/v0.8/vendor/solidity-cborutils/v2.0.0/CBOR.sol\":1916:1923  buf.buf */\n      0x00\n      add\n      mload\n        /* \"@chainlink/contracts/src/v0.8/vendor/solidity-cborutils/v2.0.0/CBOR.sol\":1916:1935  buf.buf.appendUint8 */\n      tag_201\n      swap1\n        /* \"@chainlink/contracts/src/v0.8/vendor/solidity-cborutils/v2.0.0/CBOR.sol\":1916:1983  buf.buf.appendUint8(uint8((MAJOR_TYPE_TAG << 5) | TAG_TYPE_BIGNUM)) */\n      swap2\n      swap1\n      0xffffffff\n      and\n      jump\t// in\n    tag_200:\n      pop\n        /* \"@chainlink/contracts/src/v0.8/vendor/solidity-cborutils/v2.0.0/CBOR.sol\":1993:2027  writeBytes(buf, abi.encode(value)) */\n      tag_202\n        /* \"@chainlink/contracts/src/v0.8/vendor/solidity-cborutils/v2.0.0/CBOR.sol\":2004:2007  buf */\n      dup3\n        /* \"@chainlink/contracts/src/v0.8/vendor/solidity-cborutils/v2.0.0/CBOR.sol\":2020:2025  value */\n      dup3\n        /* \"@chainlink/contracts/src/v0.8/vendor/solidity-cborutils/v2.0.0/CBOR.sol\":2009:2026  abi.encode(value) */\n      add(0x20, mload(0x40))\n      tag_203\n      swap2\n      swap1\n      tag_204\n      jump\t// in\n    tag_203:\n      mload(0x40)\n      0x20\n      dup2\n      dup4\n      sub\n      sub\n      dup2\n      mstore\n      swap1\n      0x40\n      mstore\n        /* \"@chainlink/contracts/src/v0.8/vendor/solidity-cborutils/v2.0.0/CBOR.sol\":1993:2003  writeBytes */\n      tag_160\n        /* \"@chainlink/contracts/src/v0.8/vendor/solidity-cborutils/v2.0.0/CBOR.sol\":1993:2027  writeBytes(buf, abi.encode(value)) */\n      jump\t// in\n    tag_202:\n        /* \"@chainlink/contracts/src/v0.8/vendor/solidity-cborutils/v2.0.0/CBOR.sol\":1832:2034  function writeUInt256(CBORBuffer memory buf, uint256 value) internal pure {... */\n      pop\n      pop\n      jump\t// out\n        /* \"@chainlink/contracts/src/v0.8/vendor/solidity-cborutils/v2.0.0/CBOR.sol\":3607:3753  function startArray(CBORBuffer memory buf) internal pure {... */\n    tag_137:\n        /* \"@chainlink/contracts/src/v0.8/vendor/solidity-cborutils/v2.0.0/CBOR.sol\":3674:3722  writeIndefiniteLengthType(buf, MAJOR_TYPE_ARRAY) */\n      tag_206\n        /* \"@chainlink/contracts/src/v0.8/vendor/solidity-cborutils/v2.0.0/CBOR.sol\":3700:3703  buf */\n      dup2\n        /* \"@chainlink/contracts/src/v0.8/vendor/solidity-cborutils/v2.0.0/CBOR.sol\":1047:1048  4 */\n      0x04\n        /* \"@chainlink/contracts/src/v0.8/vendor/solidity-cborutils/v2.0.0/CBOR.sol\":3674:3699  writeIndefiniteLengthType */\n      tag_207\n        /* \"@chainlink/contracts/src/v0.8/vendor/solidity-cborutils/v2.0.0/CBOR.sol\":3674:3722  writeIndefiniteLengthType(buf, MAJOR_TYPE_ARRAY) */\n      jump\t// in\n    tag_206:\n        /* \"@chainlink/contracts/src/v0.8/vendor/solidity-cborutils/v2.0.0/CBOR.sol\":3745:3746  1 */\n      0x01\n        /* \"@chainlink/contracts/src/v0.8/vendor/solidity-cborutils/v2.0.0/CBOR.sol\":3732:3735  buf */\n      dup2\n        /* \"@chainlink/contracts/src/v0.8/vendor/solidity-cborutils/v2.0.0/CBOR.sol\":3732:3741  buf.depth */\n      0x20\n      add\n        /* \"@chainlink/contracts/src/v0.8/vendor/solidity-cborutils/v2.0.0/CBOR.sol\":3732:3746  buf.depth += 1 */\n      dup2\n      dup2\n      mload\n      tag_208\n      swap2\n      swap1\n      tag_209\n      jump\t// in\n    tag_208:\n      swap2\n      pop\n      dup2\n      dup2\n      mstore\n      pop\n      pop\n        /* \"@chainlink/contracts/src/v0.8/vendor/solidity-cborutils/v2.0.0/CBOR.sol\":3607:3753  function startArray(CBORBuffer memory buf) internal pure {... */\n      pop\n      jump\t// out\n        /* \"@chainlink/contracts/src/v0.8/vendor/solidity-cborutils/v2.0.0/CBOR.sol\":4211:4365  function endSequence(CBORBuffer memory buf) internal pure {... */\n    tag_147:\n        /* \"@chainlink/contracts/src/v0.8/vendor/solidity-cborutils/v2.0.0/CBOR.sol\":4279:4334  writeIndefiniteLengthType(buf, MAJOR_TYPE_CONTENT_FREE) */\n      tag_211\n        /* \"@chainlink/contracts/src/v0.8/vendor/solidity-cborutils/v2.0.0/CBOR.sol\":4305:4308  buf */\n      dup2\n        /* \"@chainlink/contracts/src/v0.8/vendor/solidity-cborutils/v2.0.0/CBOR.sol\":1197:1198  7 */\n      0x07\n        /* \"@chainlink/contracts/src/v0.8/vendor/solidity-cborutils/v2.0.0/CBOR.sol\":4279:4304  writeIndefiniteLengthType */\n      tag_207\n        /* \"@chainlink/contracts/src/v0.8/vendor/solidity-cborutils/v2.0.0/CBOR.sol\":4279:4334  writeIndefiniteLengthType(buf, MAJOR_TYPE_CONTENT_FREE) */\n      jump\t// in\n    tag_211:\n        /* \"@chainlink/contracts/src/v0.8/vendor/solidity-cborutils/v2.0.0/CBOR.sol\":4357:4358  1 */\n      0x01\n        /* \"@chainlink/contracts/src/v0.8/vendor/solidity-cborutils/v2.0.0/CBOR.sol\":4344:4347  buf */\n      dup2\n        /* \"@chainlink/contracts/src/v0.8/vendor/solidity-cborutils/v2.0.0/CBOR.sol\":4344:4353  buf.depth */\n      0x20\n      add\n        /* \"@chainlink/contracts/src/v0.8/vendor/solidity-cborutils/v2.0.0/CBOR.sol\":4344:4358  buf.depth -= 1 */\n      dup2\n      dup2\n      mload\n      tag_212\n      swap2\n      swap1\n      tag_213\n      jump\t// in\n    tag_212:\n      swap2\n      pop\n      dup2\n      dup2\n      mstore\n      pop\n      pop\n        /* \"@chainlink/contracts/src/v0.8/vendor/solidity-cborutils/v2.0.0/CBOR.sol\":4211:4365  function endSequence(CBORBuffer memory buf) internal pure {... */\n      pop\n      jump\t// out\n        /* \"@chainlink/contracts/src/v0.8/vendor/solidity-cborutils/v2.0.0/CBOR.sol\":2828:3015  function writeBytes(CBORBuffer memory buf, bytes memory value) internal pure {... */\n    tag_160:\n        /* \"@chainlink/contracts/src/v0.8/vendor/solidity-cborutils/v2.0.0/CBOR.sol\":2915:2977  writeFixedNumeric(buf, MAJOR_TYPE_BYTES, uint64(value.length)) */\n      tag_215\n        /* \"@chainlink/contracts/src/v0.8/vendor/solidity-cborutils/v2.0.0/CBOR.sol\":2933:2936  buf */\n      dup3\n        /* \"@chainlink/contracts/src/v0.8/vendor/solidity-cborutils/v2.0.0/CBOR.sol\":948:949  2 */\n      0x02\n        /* \"@chainlink/contracts/src/v0.8/vendor/solidity-cborutils/v2.0.0/CBOR.sol\":2963:2968  value */\n      dup4\n        /* \"@chainlink/contracts/src/v0.8/vendor/solidity-cborutils/v2.0.0/CBOR.sol\":2963:2975  value.length */\n      mload\n        /* \"@chainlink/contracts/src/v0.8/vendor/solidity-cborutils/v2.0.0/CBOR.sol\":2915:2932  writeFixedNumeric */\n      tag_196\n        /* \"@chainlink/contracts/src/v0.8/vendor/solidity-cborutils/v2.0.0/CBOR.sol\":2915:2977  writeFixedNumeric(buf, MAJOR_TYPE_BYTES, uint64(value.length)) */\n      jump\t// in\n    tag_215:\n        /* \"@chainlink/contracts/src/v0.8/vendor/solidity-cborutils/v2.0.0/CBOR.sol\":2987:3008  buf.buf.append(value) */\n      tag_216\n        /* \"@chainlink/contracts/src/v0.8/vendor/solidity-cborutils/v2.0.0/CBOR.sol\":3002:3007  value */\n      dup2\n        /* \"@chainlink/contracts/src/v0.8/vendor/solidity-cborutils/v2.0.0/CBOR.sol\":2987:2990  buf */\n      dup4\n        /* \"@chainlink/contracts/src/v0.8/vendor/solidity-cborutils/v2.0.0/CBOR.sol\":2987:2994  buf.buf */\n      0x00\n      add\n      mload\n        /* \"@chainlink/contracts/src/v0.8/vendor/solidity-cborutils/v2.0.0/CBOR.sol\":2987:3001  buf.buf.append */\n      tag_198\n      swap1\n        /* \"@chainlink/contracts/src/v0.8/vendor/solidity-cborutils/v2.0.0/CBOR.sol\":2987:3008  buf.buf.append(value) */\n      swap2\n      swap1\n      0xffffffff\n      and\n      jump\t// in\n    tag_216:\n      pop\n        /* \"@chainlink/contracts/src/v0.8/vendor/solidity-cborutils/v2.0.0/CBOR.sol\":2828:3015  function writeBytes(CBORBuffer memory buf, bytes memory value) internal pure {... */\n      pop\n      pop\n      jump\t// out\n        /* \"@chainlink/contracts/src/v0.8/vendor/@ensdomains/buffer/v0.1.0/Buffer.sol\":1020:1575  function init(buffer memory buf, uint capacity) internal pure returns(buffer memory) {... */\n    tag_193:\n        /* \"@chainlink/contracts/src/v0.8/vendor/@ensdomains/buffer/v0.1.0/Buffer.sol\":1090:1103  buffer memory */\n      tag_217\n      tag_218\n      jump\t// in\n    tag_217:\n        /* \"@chainlink/contracts/src/v0.8/vendor/@ensdomains/buffer/v0.1.0/Buffer.sol\":1136:1137  0 */\n      0x00\n        /* \"@chainlink/contracts/src/v0.8/vendor/@ensdomains/buffer/v0.1.0/Buffer.sol\":1130:1132  32 */\n      0x20\n        /* \"@chainlink/contracts/src/v0.8/vendor/@ensdomains/buffer/v0.1.0/Buffer.sol\":1119:1127  capacity */\n      dup4\n        /* \"@chainlink/contracts/src/v0.8/vendor/@ensdomains/buffer/v0.1.0/Buffer.sol\":1119:1132  capacity % 32 */\n      tag_220\n      swap2\n      swap1\n      tag_221\n      jump\t// in\n    tag_220:\n        /* \"@chainlink/contracts/src/v0.8/vendor/@ensdomains/buffer/v0.1.0/Buffer.sol\":1119:1137  capacity % 32 != 0 */\n      eq\n        /* \"@chainlink/contracts/src/v0.8/vendor/@ensdomains/buffer/v0.1.0/Buffer.sol\":1115:1196  if (capacity % 32 != 0) {... */\n      tag_222\n      jumpi\n        /* \"@chainlink/contracts/src/v0.8/vendor/@ensdomains/buffer/v0.1.0/Buffer.sol\":1182:1184  32 */\n      0x20\n        /* \"@chainlink/contracts/src/v0.8/vendor/@ensdomains/buffer/v0.1.0/Buffer.sol\":1171:1179  capacity */\n      dup3\n        /* \"@chainlink/contracts/src/v0.8/vendor/@ensdomains/buffer/v0.1.0/Buffer.sol\":1171:1184  capacity % 32 */\n      tag_223\n      swap2\n      swap1\n      tag_221\n      jump\t// in\n    tag_223:\n        /* \"@chainlink/contracts/src/v0.8/vendor/@ensdomains/buffer/v0.1.0/Buffer.sol\":1165:1167  32 */\n      0x20\n        /* \"@chainlink/contracts/src/v0.8/vendor/@ensdomains/buffer/v0.1.0/Buffer.sol\":1165:1185  32 - (capacity % 32) */\n      tag_224\n      swap2\n      swap1\n      tag_213\n      jump\t// in\n    tag_224:\n        /* \"@chainlink/contracts/src/v0.8/vendor/@ensdomains/buffer/v0.1.0/Buffer.sol\":1153:1185  capacity += 32 - (capacity % 32) */\n      dup3\n      tag_225\n      swap2\n      swap1\n      tag_209\n      jump\t// in\n    tag_225:\n      swap2\n      pop\n        /* \"@chainlink/contracts/src/v0.8/vendor/@ensdomains/buffer/v0.1.0/Buffer.sol\":1115:1196  if (capacity % 32 != 0) {... */\n    tag_222:\n        /* \"@chainlink/contracts/src/v0.8/vendor/@ensdomains/buffer/v0.1.0/Buffer.sol\":1266:1274  capacity */\n      dup2\n        /* \"@chainlink/contracts/src/v0.8/vendor/@ensdomains/buffer/v0.1.0/Buffer.sol\":1251:1254  buf */\n      dup4\n        /* \"@chainlink/contracts/src/v0.8/vendor/@ensdomains/buffer/v0.1.0/Buffer.sol\":1251:1263  buf.capacity */\n      0x20\n      add\n        /* \"@chainlink/contracts/src/v0.8/vendor/@ensdomains/buffer/v0.1.0/Buffer.sol\":1251:1274  buf.capacity = capacity */\n      dup2\n      dup2\n      mstore\n      pop\n      pop\n        /* \"@chainlink/contracts/src/v0.8/vendor/@ensdomains/buffer/v0.1.0/Buffer.sol\":1324:1328  0x40 */\n      0x40\n        /* \"@chainlink/contracts/src/v0.8/vendor/@ensdomains/buffer/v0.1.0/Buffer.sol\":1318:1329  mload(0x40) */\n      mload\n        /* \"@chainlink/contracts/src/v0.8/vendor/@ensdomains/buffer/v0.1.0/Buffer.sol\":1354:1357  ptr */\n      dup1\n        /* \"@chainlink/contracts/src/v0.8/vendor/@ensdomains/buffer/v0.1.0/Buffer.sol\":1349:1352  buf */\n      dup5\n        /* \"@chainlink/contracts/src/v0.8/vendor/@ensdomains/buffer/v0.1.0/Buffer.sol\":1342:1358  mstore(buf, ptr) */\n      mstore\n        /* \"@chainlink/contracts/src/v0.8/vendor/@ensdomains/buffer/v0.1.0/Buffer.sol\":1383:1384  0 */\n      0x00\n        /* \"@chainlink/contracts/src/v0.8/vendor/@ensdomains/buffer/v0.1.0/Buffer.sol\":1378:1381  ptr */\n      dup2\n        /* \"@chainlink/contracts/src/v0.8/vendor/@ensdomains/buffer/v0.1.0/Buffer.sol\":1371:1385  mstore(ptr, 0) */\n      mstore\n        /* \"@chainlink/contracts/src/v0.8/vendor/@ensdomains/buffer/v0.1.0/Buffer.sol\":1426:1434  capacity */\n      dup3\n        /* \"@chainlink/contracts/src/v0.8/vendor/@ensdomains/buffer/v0.1.0/Buffer.sol\":1421:1424  ptr */\n      dup2\n        /* \"@chainlink/contracts/src/v0.8/vendor/@ensdomains/buffer/v0.1.0/Buffer.sol\":1417:1435  add(ptr, capacity) */\n      add\n        /* \"@chainlink/contracts/src/v0.8/vendor/@ensdomains/buffer/v0.1.0/Buffer.sol\":1413:1415  32 */\n      0x20\n        /* \"@chainlink/contracts/src/v0.8/vendor/@ensdomains/buffer/v0.1.0/Buffer.sol\":1409:1436  add(32, add(ptr, capacity)) */\n      add\n        /* \"@chainlink/contracts/src/v0.8/vendor/@ensdomains/buffer/v0.1.0/Buffer.sol\":1460:1463  ptr */\n      dup2\n        /* \"@chainlink/contracts/src/v0.8/vendor/@ensdomains/buffer/v0.1.0/Buffer.sol\":1455:1458  fpm */\n      dup2\n        /* \"@chainlink/contracts/src/v0.8/vendor/@ensdomains/buffer/v0.1.0/Buffer.sol\":1452:1464  lt(fpm, ptr) */\n      lt\n        /* \"@chainlink/contracts/src/v0.8/vendor/@ensdomains/buffer/v0.1.0/Buffer.sol\":1449:1509  if lt(fpm, ptr) {... */\n      iszero\n      tag_226\n      jumpi\n        /* \"@chainlink/contracts/src/v0.8/vendor/@ensdomains/buffer/v0.1.0/Buffer.sol\":1493:1494  0 */\n      0x00\n        /* \"@chainlink/contracts/src/v0.8/vendor/@ensdomains/buffer/v0.1.0/Buffer.sol\":1490:1491  0 */\n      dup1\n        /* \"@chainlink/contracts/src/v0.8/vendor/@ensdomains/buffer/v0.1.0/Buffer.sol\":1483:1495  revert(0, 0) */\n      revert\n        /* \"@chainlink/contracts/src/v0.8/vendor/@ensdomains/buffer/v0.1.0/Buffer.sol\":1449:1509  if lt(fpm, ptr) {... */\n    tag_226:\n        /* \"@chainlink/contracts/src/v0.8/vendor/@ensdomains/buffer/v0.1.0/Buffer.sol\":1535:1538  fpm */\n      dup1\n        /* \"@chainlink/contracts/src/v0.8/vendor/@ensdomains/buffer/v0.1.0/Buffer.sol\":1529:1533  0x40 */\n      0x40\n        /* \"@chainlink/contracts/src/v0.8/vendor/@ensdomains/buffer/v0.1.0/Buffer.sol\":1522:1539  mstore(0x40, fpm) */\n      mstore\n        /* \"@chainlink/contracts/src/v0.8/vendor/@ensdomains/buffer/v0.1.0/Buffer.sol\":1293:1549  {... */\n      pop\n      pop\n        /* \"@chainlink/contracts/src/v0.8/vendor/@ensdomains/buffer/v0.1.0/Buffer.sol\":1565:1568  buf */\n      dup3\n        /* \"@chainlink/contracts/src/v0.8/vendor/@ensdomains/buffer/v0.1.0/Buffer.sol\":1558:1568  return buf */\n      swap1\n      pop\n        /* \"@chainlink/contracts/src/v0.8/vendor/@ensdomains/buffer/v0.1.0/Buffer.sol\":1020:1575  function init(buffer memory buf, uint capacity) internal pure returns(buffer memory) {... */\n      swap3\n      swap2\n      pop\n      pop\n      jump\t// out\n        /* \"@chainlink/contracts/src/v0.8/vendor/solidity-cborutils/v2.0.0/CBOR.sol\":6156:6915  function writeFixedNumeric(... */\n    tag_196:\n        /* \"@chainlink/contracts/src/v0.8/vendor/solidity-cborutils/v2.0.0/CBOR.sol\":6299:6301  23 */\n      0x17\n        /* \"@chainlink/contracts/src/v0.8/vendor/solidity-cborutils/v2.0.0/CBOR.sol\":6290:6295  value */\n      dup2\n        /* \"@chainlink/contracts/src/v0.8/vendor/solidity-cborutils/v2.0.0/CBOR.sol\":6290:6301  value <= 23 */\n      0xffffffffffffffff\n      and\n      gt\n        /* \"@chainlink/contracts/src/v0.8/vendor/solidity-cborutils/v2.0.0/CBOR.sol\":6286:6909  if (value <= 23) {... */\n      tag_228\n      jumpi\n        /* \"@chainlink/contracts/src/v0.8/vendor/solidity-cborutils/v2.0.0/CBOR.sol\":6317:6365  buf.buf.appendUint8(uint8((major << 5) | value)) */\n      tag_229\n        /* \"@chainlink/contracts/src/v0.8/vendor/solidity-cborutils/v2.0.0/CBOR.sol\":6358:6363  value */\n      dup2\n        /* \"@chainlink/contracts/src/v0.8/vendor/solidity-cborutils/v2.0.0/CBOR.sol\":6353:6354  5 */\n      0x05\n        /* \"@chainlink/contracts/src/v0.8/vendor/solidity-cborutils/v2.0.0/CBOR.sol\":6344:6349  major */\n      dup5\n        /* \"@chainlink/contracts/src/v0.8/vendor/solidity-cborutils/v2.0.0/CBOR.sol\":6344:6354  major << 5 */\n      0xff\n      and\n      swap1\n      shl\n        /* \"@chainlink/contracts/src/v0.8/vendor/solidity-cborutils/v2.0.0/CBOR.sol\":6343:6363  (major << 5) | value */\n      0xff\n      and\n      or\n        /* \"@chainlink/contracts/src/v0.8/vendor/solidity-cborutils/v2.0.0/CBOR.sol\":6317:6320  buf */\n      dup5\n        /* \"@chainlink/contracts/src/v0.8/vendor/solidity-cborutils/v2.0.0/CBOR.sol\":6317:6324  buf.buf */\n      0x00\n      add\n      mload\n        /* \"@chainlink/contracts/src/v0.8/vendor/solidity-cborutils/v2.0.0/CBOR.sol\":6317:6336  buf.buf.appendUint8 */\n      tag_201\n      swap1\n        /* \"@chainlink/contracts/src/v0.8/vendor/solidity-cborutils/v2.0.0/CBOR.sol\":6317:6365  buf.buf.appendUint8(uint8((major << 5) | value)) */\n      swap2\n      swap1\n      0xffffffff\n      and\n      jump\t// in\n    tag_229:\n      pop\n        /* \"@chainlink/contracts/src/v0.8/vendor/solidity-cborutils/v2.0.0/CBOR.sol\":6286:6909  if (value <= 23) {... */\n      jump(tag_230)\n    tag_228:\n        /* \"@chainlink/contracts/src/v0.8/vendor/solidity-cborutils/v2.0.0/CBOR.sol\":6395:6399  0xFF */\n      0xff\n        /* \"@chainlink/contracts/src/v0.8/vendor/solidity-cborutils/v2.0.0/CBOR.sol\":6386:6391  value */\n      dup2\n        /* \"@chainlink/contracts/src/v0.8/vendor/solidity-cborutils/v2.0.0/CBOR.sol\":6386:6399  value <= 0xFF */\n      0xffffffffffffffff\n      and\n      gt\n        /* \"@chainlink/contracts/src/v0.8/vendor/solidity-cborutils/v2.0.0/CBOR.sol\":6382:6909  if (value <= 0xFF) {... */\n      tag_231\n      jumpi\n        /* \"@chainlink/contracts/src/v0.8/vendor/solidity-cborutils/v2.0.0/CBOR.sol\":6415:6460  buf.buf.appendUint8(uint8((major << 5) | 24)) */\n      tag_232\n        /* \"@chainlink/contracts/src/v0.8/vendor/solidity-cborutils/v2.0.0/CBOR.sol\":6456:6458  24 */\n      0x18\n        /* \"@chainlink/contracts/src/v0.8/vendor/solidity-cborutils/v2.0.0/CBOR.sol\":6451:6452  5 */\n      0x05\n        /* \"@chainlink/contracts/src/v0.8/vendor/solidity-cborutils/v2.0.0/CBOR.sol\":6442:6447  major */\n      dup5\n        /* \"@chainlink/contracts/src/v0.8/vendor/solidity-cborutils/v2.0.0/CBOR.sol\":6442:6452  major << 5 */\n      0xff\n      and\n      swap1\n      shl\n        /* \"@chainlink/contracts/src/v0.8/vendor/solidity-cborutils/v2.0.0/CBOR.sol\":6441:6458  (major << 5) | 24 */\n      or\n        /* \"@chainlink/contracts/src/v0.8/vendor/solidity-cborutils/v2.0.0/CBOR.sol\":6415:6418  buf */\n      dup5\n        /* \"@chainlink/contracts/src/v0.8/vendor/solidity-cborutils/v2.0.0/CBOR.sol\":6415:6422  buf.buf */\n      0x00\n      add\n      mload\n        /* \"@chainlink/contracts/src/v0.8/vendor/solidity-cborutils/v2.0.0/CBOR.sol\":6415:6434  buf.buf.appendUint8 */\n      tag_201\n      swap1\n        /* \"@chainlink/contracts/src/v0.8/vendor/solidity-cborutils/v2.0.0/CBOR.sol\":6415:6460  buf.buf.appendUint8(uint8((major << 5) | 24)) */\n      swap2\n      swap1\n      0xffffffff\n      and\n      jump\t// in\n    tag_232:\n      pop\n        /* \"@chainlink/contracts/src/v0.8/vendor/solidity-cborutils/v2.0.0/CBOR.sol\":6474:6501  buf.buf.appendInt(value, 1) */\n      tag_233\n        /* \"@chainlink/contracts/src/v0.8/vendor/solidity-cborutils/v2.0.0/CBOR.sol\":6492:6497  value */\n      dup2\n        /* \"@chainlink/contracts/src/v0.8/vendor/solidity-cborutils/v2.0.0/CBOR.sol\":6474:6501  buf.buf.appendInt(value, 1) */\n      0xffffffffffffffff\n      and\n        /* \"@chainlink/contracts/src/v0.8/vendor/solidity-cborutils/v2.0.0/CBOR.sol\":6499:6500  1 */\n      0x01\n        /* \"@chainlink/contracts/src/v0.8/vendor/solidity-cborutils/v2.0.0/CBOR.sol\":6474:6477  buf */\n      dup6\n        /* \"@chainlink/contracts/src/v0.8/vendor/solidity-cborutils/v2.0.0/CBOR.sol\":6474:6481  buf.buf */\n      0x00\n      add\n      mload\n        /* \"@chainlink/contracts/src/v0.8/vendor/solidity-cborutils/v2.0.0/CBOR.sol\":6474:6491  buf.buf.appendInt */\n      tag_234\n      swap1\n        /* \"@chainlink/contracts/src/v0.8/vendor/solidity-cborutils/v2.0.0/CBOR.sol\":6474:6501  buf.buf.appendInt(value, 1) */\n      swap3\n      swap2\n      swap1\n      0xffffffff\n      and\n      jump\t// in\n    tag_233:\n      pop\n        /* \"@chainlink/contracts/src/v0.8/vendor/solidity-cborutils/v2.0.0/CBOR.sol\":6382:6909  if (value <= 0xFF) {... */\n      jump(tag_235)\n    tag_231:\n        /* \"@chainlink/contracts/src/v0.8/vendor/solidity-cborutils/v2.0.0/CBOR.sol\":6531:6537  0xFFFF */\n      0xffff\n        /* \"@chainlink/contracts/src/v0.8/vendor/solidity-cborutils/v2.0.0/CBOR.sol\":6522:6527  value */\n      dup2\n        /* \"@chainlink/contracts/src/v0.8/vendor/solidity-cborutils/v2.0.0/CBOR.sol\":6522:6537  value <= 0xFFFF */\n      0xffffffffffffffff\n      and\n      gt\n        /* \"@chainlink/contracts/src/v0.8/vendor/solidity-cborutils/v2.0.0/CBOR.sol\":6518:6909  if (value <= 0xFFFF) {... */\n      tag_236\n      jumpi\n        /* \"@chainlink/contracts/src/v0.8/vendor/solidity-cborutils/v2.0.0/CBOR.sol\":6553:6598  buf.buf.appendUint8(uint8((major << 5) | 25)) */\n      tag_237\n        /* \"@chainlink/contracts/src/v0.8/vendor/solidity-cborutils/v2.0.0/CBOR.sol\":6594:6596  25 */\n      0x19\n        /* \"@chainlink/contracts/src/v0.8/vendor/solidity-cborutils/v2.0.0/CBOR.sol\":6589:6590  5 */\n      0x05\n        /* \"@chainlink/contracts/src/v0.8/vendor/solidity-cborutils/v2.0.0/CBOR.sol\":6580:6585  major */\n      dup5\n        /* \"@chainlink/contracts/src/v0.8/vendor/solidity-cborutils/v2.0.0/CBOR.sol\":6580:6590  major << 5 */\n      0xff\n      and\n      swap1\n      shl\n        /* \"@chainlink/contracts/src/v0.8/vendor/solidity-cborutils/v2.0.0/CBOR.sol\":6579:6596  (major << 5) | 25 */\n      or\n        /* \"@chainlink/contracts/src/v0.8/vendor/solidity-cborutils/v2.0.0/CBOR.sol\":6553:6556  buf */\n      dup5\n        /* \"@chainlink/contracts/src/v0.8/vendor/solidity-cborutils/v2.0.0/CBOR.sol\":6553:6560  buf.buf */\n      0x00\n      add\n      mload\n        /* \"@chainlink/contracts/src/v0.8/vendor/solidity-cborutils/v2.0.0/CBOR.sol\":6553:6572  buf.buf.appendUint8 */\n      tag_201\n      swap1\n        /* \"@chainlink/contracts/src/v0.8/vendor/solidity-cborutils/v2.0.0/CBOR.sol\":6553:6598  buf.buf.appendUint8(uint8((major << 5) | 25)) */\n      swap2\n      swap1\n      0xffffffff\n      and\n      jump\t// in\n    tag_237:\n      pop\n        /* \"@chainlink/contracts/src/v0.8/vendor/solidity-cborutils/v2.0.0/CBOR.sol\":6612:6639  buf.buf.appendInt(value, 2) */\n      tag_238\n        /* \"@chainlink/contracts/src/v0.8/vendor/solidity-cborutils/v2.0.0/CBOR.sol\":6630:6635  value */\n      dup2\n        /* \"@chainlink/contracts/src/v0.8/vendor/solidity-cborutils/v2.0.0/CBOR.sol\":6612:6639  buf.buf.appendInt(value, 2) */\n      0xffffffffffffffff\n      and\n        /* \"@chainlink/contracts/src/v0.8/vendor/solidity-cborutils/v2.0.0/CBOR.sol\":6637:6638  2 */\n      0x02\n        /* \"@chainlink/contracts/src/v0.8/vendor/solidity-cborutils/v2.0.0/CBOR.sol\":6612:6615  buf */\n      dup6\n        /* \"@chainlink/contracts/src/v0.8/vendor/solidity-cborutils/v2.0.0/CBOR.sol\":6612:6619  buf.buf */\n      0x00\n      add\n      mload\n        /* \"@chainlink/contracts/src/v0.8/vendor/solidity-cborutils/v2.0.0/CBOR.sol\":6612:6629  buf.buf.appendInt */\n      tag_234\n      swap1\n        /* \"@chainlink/contracts/src/v0.8/vendor/solidity-cborutils/v2.0.0/CBOR.sol\":6612:6639  buf.buf.appendInt(value, 2) */\n      swap3\n      swap2\n      swap1\n      0xffffffff\n      and\n      jump\t// in\n    tag_238:\n      pop\n        /* \"@chainlink/contracts/src/v0.8/vendor/solidity-cborutils/v2.0.0/CBOR.sol\":6518:6909  if (value <= 0xFFFF) {... */\n      jump(tag_239)\n    tag_236:\n        /* \"@chainlink/contracts/src/v0.8/vendor/solidity-cborutils/v2.0.0/CBOR.sol\":6669:6679  0xFFFFFFFF */\n      0xffffffff\n        /* \"@chainlink/contracts/src/v0.8/vendor/solidity-cborutils/v2.0.0/CBOR.sol\":6660:6665  value */\n      dup2\n        /* \"@chainlink/contracts/src/v0.8/vendor/solidity-cborutils/v2.0.0/CBOR.sol\":6660:6679  value <= 0xFFFFFFFF */\n      0xffffffffffffffff\n      and\n      gt\n        /* \"@chainlink/contracts/src/v0.8/vendor/solidity-cborutils/v2.0.0/CBOR.sol\":6656:6909  if (value <= 0xFFFFFFFF) {... */\n      tag_240\n      jumpi\n        /* \"@chainlink/contracts/src/v0.8/vendor/solidity-cborutils/v2.0.0/CBOR.sol\":6695:6740  buf.buf.appendUint8(uint8((major << 5) | 26)) */\n      tag_241\n        /* \"@chainlink/contracts/src/v0.8/vendor/solidity-cborutils/v2.0.0/CBOR.sol\":6736:6738  26 */\n      0x1a\n        /* \"@chainlink/contracts/src/v0.8/vendor/solidity-cborutils/v2.0.0/CBOR.sol\":6731:6732  5 */\n      0x05\n        /* \"@chainlink/contracts/src/v0.8/vendor/solidity-cborutils/v2.0.0/CBOR.sol\":6722:6727  major */\n      dup5\n        /* \"@chainlink/contracts/src/v0.8/vendor/solidity-cborutils/v2.0.0/CBOR.sol\":6722:6732  major << 5 */\n      0xff\n      and\n      swap1\n      shl\n        /* \"@chainlink/contracts/src/v0.8/vendor/solidity-cborutils/v2.0.0/CBOR.sol\":6721:6738  (major << 5) | 26 */\n      or\n        /* \"@chainlink/contracts/src/v0.8/vendor/solidity-cborutils/v2.0.0/CBOR.sol\":6695:6698  buf */\n      dup5\n        /* \"@chainlink/contracts/src/v0.8/vendor/solidity-cborutils/v2.0.0/CBOR.sol\":6695:6702  buf.buf */\n      0x00\n      add\n      mload\n        /* \"@chainlink/contracts/src/v0.8/vendor/solidity-cborutils/v2.0.0/CBOR.sol\":6695:6714  buf.buf.appendUint8 */\n      tag_201\n      swap1\n        /* \"@chainlink/contracts/src/v0.8/vendor/solidity-cborutils/v2.0.0/CBOR.sol\":6695:6740  buf.buf.appendUint8(uint8((major << 5) | 26)) */\n      swap2\n      swap1\n      0xffffffff\n      and\n      jump\t// in\n    tag_241:\n      pop\n        /* \"@chainlink/contracts/src/v0.8/vendor/solidity-cborutils/v2.0.0/CBOR.sol\":6754:6781  buf.buf.appendInt(value, 4) */\n      tag_242\n        /* \"@chainlink/contracts/src/v0.8/vendor/solidity-cborutils/v2.0.0/CBOR.sol\":6772:6777  value */\n      dup2\n        /* \"@chainlink/contracts/src/v0.8/vendor/solidity-cborutils/v2.0.0/CBOR.sol\":6754:6781  buf.buf.appendInt(value, 4) */\n      0xffffffffffffffff\n      and\n        /* \"@chainlink/contracts/src/v0.8/vendor/solidity-cborutils/v2.0.0/CBOR.sol\":6779:6780  4 */\n      0x04\n        /* \"@chainlink/contracts/src/v0.8/vendor/solidity-cborutils/v2.0.0/CBOR.sol\":6754:6757  buf */\n      dup6\n        /* \"@chainlink/contracts/src/v0.8/vendor/solidity-cborutils/v2.0.0/CBOR.sol\":6754:6761  buf.buf */\n      0x00\n      add\n      mload\n        /* \"@chainlink/contracts/src/v0.8/vendor/solidity-cborutils/v2.0.0/CBOR.sol\":6754:6771  buf.buf.appendInt */\n      tag_234\n      swap1\n        /* \"@chainlink/contracts/src/v0.8/vendor/solidity-cborutils/v2.0.0/CBOR.sol\":6754:6781  buf.buf.appendInt(value, 4) */\n      swap3\n      swap2\n      swap1\n      0xffffffff\n      and\n      jump\t// in\n    tag_242:\n      pop\n        /* \"@chainlink/contracts/src/v0.8/vendor/solidity-cborutils/v2.0.0/CBOR.sol\":6656:6909  if (value <= 0xFFFFFFFF) {... */\n      jump(tag_243)\n    tag_240:\n        /* \"@chainlink/contracts/src/v0.8/vendor/solidity-cborutils/v2.0.0/CBOR.sol\":6812:6857  buf.buf.appendUint8(uint8((major << 5) | 27)) */\n      tag_244\n        /* \"@chainlink/contracts/src/v0.8/vendor/solidity-cborutils/v2.0.0/CBOR.sol\":6853:6855  27 */\n      0x1b\n        /* \"@chainlink/contracts/src/v0.8/vendor/solidity-cborutils/v2.0.0/CBOR.sol\":6848:6849  5 */\n      0x05\n        /* \"@chainlink/contracts/src/v0.8/vendor/solidity-cborutils/v2.0.0/CBOR.sol\":6839:6844  major */\n      dup5\n        /* \"@chainlink/contracts/src/v0.8/vendor/solidity-cborutils/v2.0.0/CBOR.sol\":6839:6849  major << 5 */\n      0xff\n      and\n      swap1\n      shl\n        /* \"@chainlink/contracts/src/v0.8/vendor/solidity-cborutils/v2.0.0/CBOR.sol\":6838:6855  (major << 5) | 27 */\n      or\n        /* \"@chainlink/contracts/src/v0.8/vendor/solidity-cborutils/v2.0.0/CBOR.sol\":6812:6815  buf */\n      dup5\n        /* \"@chainlink/contracts/src/v0.8/vendor/solidity-cborutils/v2.0.0/CBOR.sol\":6812:6819  buf.buf */\n      0x00\n      add\n      mload\n        /* \"@chainlink/contracts/src/v0.8/vendor/solidity-cborutils/v2.0.0/CBOR.sol\":6812:6831  buf.buf.appendUint8 */\n      tag_201\n      swap1\n        /* \"@chainlink/contracts/src/v0.8/vendor/solidity-cborutils/v2.0.0/CBOR.sol\":6812:6857  buf.buf.appendUint8(uint8((major << 5) | 27)) */\n      swap2\n      swap1\n      0xffffffff\n      and\n      jump\t// in\n    tag_244:\n      pop\n        /* \"@chainlink/contracts/src/v0.8/vendor/solidity-cborutils/v2.0.0/CBOR.sol\":6871:6898  buf.buf.appendInt(value, 8) */\n      tag_245\n        /* \"@chainlink/contracts/src/v0.8/vendor/solidity-cborutils/v2.0.0/CBOR.sol\":6889:6894  value */\n      dup2\n        /* \"@chainlink/contracts/src/v0.8/vendor/solidity-cborutils/v2.0.0/CBOR.sol\":6871:6898  buf.buf.appendInt(value, 8) */\n      0xffffffffffffffff\n      and\n        /* \"@chainlink/contracts/src/v0.8/vendor/solidity-cborutils/v2.0.0/CBOR.sol\":6896:6897  8 */\n      0x08\n        /* \"@chainlink/contracts/src/v0.8/vendor/solidity-cborutils/v2.0.0/CBOR.sol\":6871:6874  buf */\n      dup6\n        /* \"@chainlink/contracts/src/v0.8/vendor/solidity-cborutils/v2.0.0/CBOR.sol\":6871:6878  buf.buf */\n      0x00\n      add\n      mload\n        /* \"@chainlink/contracts/src/v0.8/vendor/solidity-cborutils/v2.0.0/CBOR.sol\":6871:6888  buf.buf.appendInt */\n      tag_234\n      swap1\n        /* \"@chainlink/contracts/src/v0.8/vendor/solidity-cborutils/v2.0.0/CBOR.sol\":6871:6898  buf.buf.appendInt(value, 8) */\n      swap3\n      swap2\n      swap1\n      0xffffffff\n      and\n      jump\t// in\n    tag_245:\n      pop\n        /* \"@chainlink/contracts/src/v0.8/vendor/solidity-cborutils/v2.0.0/CBOR.sol\":6656:6909  if (value <= 0xFFFFFFFF) {... */\n    tag_243:\n        /* \"@chainlink/contracts/src/v0.8/vendor/solidity-cborutils/v2.0.0/CBOR.sol\":6518:6909  if (value <= 0xFFFF) {... */\n    tag_239:\n        /* \"@chainlink/contracts/src/v0.8/vendor/solidity-cborutils/v2.0.0/CBOR.sol\":6382:6909  if (value <= 0xFF) {... */\n    tag_235:\n        /* \"@chainlink/contracts/src/v0.8/vendor/solidity-cborutils/v2.0.0/CBOR.sol\":6286:6909  if (value <= 23) {... */\n    tag_230:\n        /* \"@chainlink/contracts/src/v0.8/vendor/solidity-cborutils/v2.0.0/CBOR.sol\":6156:6915  function writeFixedNumeric(... */\n      pop\n      pop\n      pop\n      jump\t// out\n        /* \"@chainlink/contracts/src/v0.8/vendor/@ensdomains/buffer/v0.1.0/Buffer.sol\":4539:4685  function append(buffer memory buf, bytes memory data) internal pure returns (buffer memory) {... */\n    tag_198:\n        /* \"@chainlink/contracts/src/v0.8/vendor/@ensdomains/buffer/v0.1.0/Buffer.sol\":4616:4629  buffer memory */\n      tag_246\n      tag_218\n      jump\t// in\n    tag_246:\n        /* \"@chainlink/contracts/src/v0.8/vendor/@ensdomains/buffer/v0.1.0/Buffer.sol\":4648:4678  append(buf, data, data.length) */\n      tag_248\n        /* \"@chainlink/contracts/src/v0.8/vendor/@ensdomains/buffer/v0.1.0/Buffer.sol\":4655:4658  buf */\n      dup4\n        /* \"@chainlink/contracts/src/v0.8/vendor/@ensdomains/buffer/v0.1.0/Buffer.sol\":4660:4664  data */\n      dup4\n        /* \"@chainlink/contracts/src/v0.8/vendor/@ensdomains/buffer/v0.1.0/Buffer.sol\":4666:4670  data */\n      dup5\n        /* \"@chainlink/contracts/src/v0.8/vendor/@ensdomains/buffer/v0.1.0/Buffer.sol\":4666:4677  data.length */\n      mload\n        /* \"@chainlink/contracts/src/v0.8/vendor/@ensdomains/buffer/v0.1.0/Buffer.sol\":4648:4654  append */\n      tag_249\n        /* \"@chainlink/contracts/src/v0.8/vendor/@ensdomains/buffer/v0.1.0/Buffer.sol\":4648:4678  append(buf, data, data.length) */\n      jump\t// in\n    tag_248:\n        /* \"@chainlink/contracts/src/v0.8/vendor/@ensdomains/buffer/v0.1.0/Buffer.sol\":4641:4678  return append(buf, data, data.length) */\n      swap1\n      pop\n        /* \"@chainlink/contracts/src/v0.8/vendor/@ensdomains/buffer/v0.1.0/Buffer.sol\":4539:4685  function append(buffer memory buf, bytes memory data) internal pure returns (buffer memory) {... */\n      swap3\n      swap2\n      pop\n      pop\n      jump\t// out\n        /* \"@chainlink/contracts/src/v0.8/vendor/@ensdomains/buffer/v0.1.0/Buffer.sol\":4948:5647  function appendUint8(buffer memory buf, uint8 data) internal pure returns(buffer memory) {... */\n    tag_201:\n        /* \"@chainlink/contracts/src/v0.8/vendor/@ensdomains/buffer/v0.1.0/Buffer.sol\":5022:5035  buffer memory */\n      tag_250\n      tag_218\n      jump\t// in\n    tag_250:\n        /* \"@chainlink/contracts/src/v0.8/vendor/@ensdomains/buffer/v0.1.0/Buffer.sol\":5047:5055  uint off */\n      0x00\n        /* \"@chainlink/contracts/src/v0.8/vendor/@ensdomains/buffer/v0.1.0/Buffer.sol\":5058:5061  buf */\n      dup4\n        /* \"@chainlink/contracts/src/v0.8/vendor/@ensdomains/buffer/v0.1.0/Buffer.sol\":5058:5065  buf.buf */\n      0x00\n      add\n      mload\n        /* \"@chainlink/contracts/src/v0.8/vendor/@ensdomains/buffer/v0.1.0/Buffer.sol\":5058:5072  buf.buf.length */\n      mload\n        /* \"@chainlink/contracts/src/v0.8/vendor/@ensdomains/buffer/v0.1.0/Buffer.sol\":5047:5072  uint off = buf.buf.length */\n      swap1\n      pop\n        /* \"@chainlink/contracts/src/v0.8/vendor/@ensdomains/buffer/v0.1.0/Buffer.sol\":5082:5097  uint offPlusOne */\n      0x00\n        /* \"@chainlink/contracts/src/v0.8/vendor/@ensdomains/buffer/v0.1.0/Buffer.sol\":5106:5107  1 */\n      0x01\n        /* \"@chainlink/contracts/src/v0.8/vendor/@ensdomains/buffer/v0.1.0/Buffer.sol\":5100:5103  off */\n      dup3\n        /* \"@chainlink/contracts/src/v0.8/vendor/@ensdomains/buffer/v0.1.0/Buffer.sol\":5100:5107  off + 1 */\n      tag_252\n      swap2\n      swap1\n      tag_209\n      jump\t// in\n    tag_252:\n        /* \"@chainlink/contracts/src/v0.8/vendor/@ensdomains/buffer/v0.1.0/Buffer.sol\":5082:5107  uint offPlusOne = off + 1 */\n      swap1\n      pop\n        /* \"@chainlink/contracts/src/v0.8/vendor/@ensdomains/buffer/v0.1.0/Buffer.sol\":5128:5131  buf */\n      dup5\n        /* \"@chainlink/contracts/src/v0.8/vendor/@ensdomains/buffer/v0.1.0/Buffer.sol\":5128:5140  buf.capacity */\n      0x20\n      add\n      mload\n        /* \"@chainlink/contracts/src/v0.8/vendor/@ensdomains/buffer/v0.1.0/Buffer.sol\":5121:5124  off */\n      dup3\n        /* \"@chainlink/contracts/src/v0.8/vendor/@ensdomains/buffer/v0.1.0/Buffer.sol\":5121:5140  off >= buf.capacity */\n      lt\n        /* \"@chainlink/contracts/src/v0.8/vendor/@ensdomains/buffer/v0.1.0/Buffer.sol\":5117:5194  if (off >= buf.capacity) {... */\n      tag_253\n      jumpi\n        /* \"@chainlink/contracts/src/v0.8/vendor/@ensdomains/buffer/v0.1.0/Buffer.sol\":5156:5183  resize(buf, offPlusOne * 2) */\n      tag_254\n        /* \"@chainlink/contracts/src/v0.8/vendor/@ensdomains/buffer/v0.1.0/Buffer.sol\":5163:5166  buf */\n      dup6\n        /* \"@chainlink/contracts/src/v0.8/vendor/@ensdomains/buffer/v0.1.0/Buffer.sol\":5181:5182  2 */\n      0x02\n        /* \"@chainlink/contracts/src/v0.8/vendor/@ensdomains/buffer/v0.1.0/Buffer.sol\":5168:5178  offPlusOne */\n      dup4\n        /* \"@chainlink/contracts/src/v0.8/vendor/@ensdomains/buffer/v0.1.0/Buffer.sol\":5168:5182  offPlusOne * 2 */\n      tag_255\n      swap2\n      swap1\n      tag_256\n      jump\t// in\n    tag_255:\n        /* \"@chainlink/contracts/src/v0.8/vendor/@ensdomains/buffer/v0.1.0/Buffer.sol\":5156:5162  resize */\n      tag_257\n        /* \"@chainlink/contracts/src/v0.8/vendor/@ensdomains/buffer/v0.1.0/Buffer.sol\":5156:5183  resize(buf, offPlusOne * 2) */\n      jump\t// in\n    tag_254:\n        /* \"@chainlink/contracts/src/v0.8/vendor/@ensdomains/buffer/v0.1.0/Buffer.sol\":5117:5194  if (off >= buf.capacity) {... */\n    tag_253:\n        /* \"@chainlink/contracts/src/v0.8/vendor/@ensdomains/buffer/v0.1.0/Buffer.sol\":5296:5299  buf */\n      dup5\n        /* \"@chainlink/contracts/src/v0.8/vendor/@ensdomains/buffer/v0.1.0/Buffer.sol\":5290:5300  mload(buf) */\n      mload\n        /* \"@chainlink/contracts/src/v0.8/vendor/@ensdomains/buffer/v0.1.0/Buffer.sol\":5417:5419  32 */\n      0x20\n        /* \"@chainlink/contracts/src/v0.8/vendor/@ensdomains/buffer/v0.1.0/Buffer.sol\":5411:5414  off */\n      dup4\n        /* \"@chainlink/contracts/src/v0.8/vendor/@ensdomains/buffer/v0.1.0/Buffer.sol\":5403:5409  bufptr */\n      dup3\n        /* \"@chainlink/contracts/src/v0.8/vendor/@ensdomains/buffer/v0.1.0/Buffer.sol\":5399:5415  add(bufptr, off) */\n      add\n        /* \"@chainlink/contracts/src/v0.8/vendor/@ensdomains/buffer/v0.1.0/Buffer.sol\":5395:5420  add(add(bufptr, off), 32) */\n      add\n        /* \"@chainlink/contracts/src/v0.8/vendor/@ensdomains/buffer/v0.1.0/Buffer.sol\":5447:5451  data */\n      dup6\n        /* \"@chainlink/contracts/src/v0.8/vendor/@ensdomains/buffer/v0.1.0/Buffer.sol\":5441:5445  dest */\n      dup2\n        /* \"@chainlink/contracts/src/v0.8/vendor/@ensdomains/buffer/v0.1.0/Buffer.sol\":5433:5452  mstore8(dest, data) */\n      mstore8\n        /* \"@chainlink/contracts/src/v0.8/vendor/@ensdomains/buffer/v0.1.0/Buffer.sol\":5543:5549  bufptr */\n      dup2\n        /* \"@chainlink/contracts/src/v0.8/vendor/@ensdomains/buffer/v0.1.0/Buffer.sol\":5537:5550  mload(bufptr) */\n      mload\n        /* \"@chainlink/contracts/src/v0.8/vendor/@ensdomains/buffer/v0.1.0/Buffer.sol\":5525:5535  offPlusOne */\n      dup4\n        /* \"@chainlink/contracts/src/v0.8/vendor/@ensdomains/buffer/v0.1.0/Buffer.sol\":5522:5551  gt(offPlusOne, mload(bufptr)) */\n      gt\n        /* \"@chainlink/contracts/src/v0.8/vendor/@ensdomains/buffer/v0.1.0/Buffer.sol\":5519:5610  if gt(offPlusOne, mload(bufptr)) {... */\n      iszero\n      tag_258\n      jumpi\n        /* \"@chainlink/contracts/src/v0.8/vendor/@ensdomains/buffer/v0.1.0/Buffer.sol\":5585:5595  offPlusOne */\n      dup3\n        /* \"@chainlink/contracts/src/v0.8/vendor/@ensdomains/buffer/v0.1.0/Buffer.sol\":5577:5583  bufptr */\n      dup3\n        /* \"@chainlink/contracts/src/v0.8/vendor/@ensdomains/buffer/v0.1.0/Buffer.sol\":5570:5596  mstore(bufptr, offPlusOne) */\n      mstore\n        /* \"@chainlink/contracts/src/v0.8/vendor/@ensdomains/buffer/v0.1.0/Buffer.sol\":5519:5610  if gt(offPlusOne, mload(bufptr)) {... */\n    tag_258:\n        /* \"@chainlink/contracts/src/v0.8/vendor/@ensdomains/buffer/v0.1.0/Buffer.sol\":5213:5620  {... */\n      pop\n      pop\n        /* \"@chainlink/contracts/src/v0.8/vendor/@ensdomains/buffer/v0.1.0/Buffer.sol\":5637:5640  buf */\n      dup5\n        /* \"@chainlink/contracts/src/v0.8/vendor/@ensdomains/buffer/v0.1.0/Buffer.sol\":5630:5640  return buf */\n      swap3\n      pop\n      pop\n      pop\n        /* \"@chainlink/contracts/src/v0.8/vendor/@ensdomains/buffer/v0.1.0/Buffer.sol\":4948:5647  function appendUint8(buffer memory buf, uint8 data) internal pure returns(buffer memory) {... */\n      swap3\n      swap2\n      pop\n      pop\n      jump\t// out\n        /* \"@chainlink/contracts/src/v0.8/vendor/solidity-cborutils/v2.0.0/CBOR.sol\":6921:7087  function writeIndefiniteLengthType(CBORBuffer memory buf, uint8 major)... */\n    tag_207:\n        /* \"@chainlink/contracts/src/v0.8/vendor/solidity-cborutils/v2.0.0/CBOR.sol\":7035:7080  buf.buf.appendUint8(uint8((major << 5) | 31)) */\n      tag_260\n        /* \"@chainlink/contracts/src/v0.8/vendor/solidity-cborutils/v2.0.0/CBOR.sol\":7076:7078  31 */\n      0x1f\n        /* \"@chainlink/contracts/src/v0.8/vendor/solidity-cborutils/v2.0.0/CBOR.sol\":7071:7072  5 */\n      0x05\n        /* \"@chainlink/contracts/src/v0.8/vendor/solidity-cborutils/v2.0.0/CBOR.sol\":7062:7067  major */\n      dup4\n        /* \"@chainlink/contracts/src/v0.8/vendor/solidity-cborutils/v2.0.0/CBOR.sol\":7062:7072  major << 5 */\n      0xff\n      and\n      swap1\n      shl\n        /* \"@chainlink/contracts/src/v0.8/vendor/solidity-cborutils/v2.0.0/CBOR.sol\":7061:7078  (major << 5) | 31 */\n      or\n        /* \"@chainlink/contracts/src/v0.8/vendor/solidity-cborutils/v2.0.0/CBOR.sol\":7035:7038  buf */\n      dup4\n        /* \"@chainlink/contracts/src/v0.8/vendor/solidity-cborutils/v2.0.0/CBOR.sol\":7035:7042  buf.buf */\n      0x00\n      add\n      mload\n        /* \"@chainlink/contracts/src/v0.8/vendor/solidity-cborutils/v2.0.0/CBOR.sol\":7035:7054  buf.buf.appendUint8 */\n      tag_201\n      swap1\n        /* \"@chainlink/contracts/src/v0.8/vendor/solidity-cborutils/v2.0.0/CBOR.sol\":7035:7080  buf.buf.appendUint8(uint8((major << 5) | 31)) */\n      swap2\n      swap1\n      0xffffffff\n      and\n      jump\t// in\n    tag_260:\n      pop\n        /* \"@chainlink/contracts/src/v0.8/vendor/solidity-cborutils/v2.0.0/CBOR.sol\":6921:7087  function writeIndefiniteLengthType(CBORBuffer memory buf, uint8 major)... */\n      pop\n      pop\n      jump\t// out\n        /* \"@chainlink/contracts/src/v0.8/vendor/@ensdomains/buffer/v0.1.0/Buffer.sol\":8083:8878  function appendInt(buffer memory buf, uint data, uint len) internal pure returns(buffer memory) {... */\n    tag_234:\n        /* \"@chainlink/contracts/src/v0.8/vendor/@ensdomains/buffer/v0.1.0/Buffer.sol\":8164:8177  buffer memory */\n      tag_261\n      tag_218\n      jump\t// in\n    tag_261:\n        /* \"@chainlink/contracts/src/v0.8/vendor/@ensdomains/buffer/v0.1.0/Buffer.sol\":8189:8197  uint off */\n      0x00\n        /* \"@chainlink/contracts/src/v0.8/vendor/@ensdomains/buffer/v0.1.0/Buffer.sol\":8200:8203  buf */\n      dup5\n        /* \"@chainlink/contracts/src/v0.8/vendor/@ensdomains/buffer/v0.1.0/Buffer.sol\":8200:8207  buf.buf */\n      0x00\n      add\n      mload\n        /* \"@chainlink/contracts/src/v0.8/vendor/@ensdomains/buffer/v0.1.0/Buffer.sol\":8200:8214  buf.buf.length */\n      mload\n        /* \"@chainlink/contracts/src/v0.8/vendor/@ensdomains/buffer/v0.1.0/Buffer.sol\":8189:8214  uint off = buf.buf.length */\n      swap1\n      pop\n        /* \"@chainlink/contracts/src/v0.8/vendor/@ensdomains/buffer/v0.1.0/Buffer.sol\":8224:8240  uint newCapacity */\n      0x00\n        /* \"@chainlink/contracts/src/v0.8/vendor/@ensdomains/buffer/v0.1.0/Buffer.sol\":8249:8252  off */\n      dup2\n        /* \"@chainlink/contracts/src/v0.8/vendor/@ensdomains/buffer/v0.1.0/Buffer.sol\":8243:8246  len */\n      dup5\n        /* \"@chainlink/contracts/src/v0.8/vendor/@ensdomains/buffer/v0.1.0/Buffer.sol\":8243:8252  len + off */\n      tag_263\n      swap2\n      swap1\n      tag_209\n      jump\t// in\n    tag_263:\n        /* \"@chainlink/contracts/src/v0.8/vendor/@ensdomains/buffer/v0.1.0/Buffer.sol\":8224:8252  uint newCapacity = len + off */\n      swap1\n      pop\n        /* \"@chainlink/contracts/src/v0.8/vendor/@ensdomains/buffer/v0.1.0/Buffer.sol\":8280:8283  buf */\n      dup6\n        /* \"@chainlink/contracts/src/v0.8/vendor/@ensdomains/buffer/v0.1.0/Buffer.sol\":8280:8292  buf.capacity */\n      0x20\n      add\n      mload\n        /* \"@chainlink/contracts/src/v0.8/vendor/@ensdomains/buffer/v0.1.0/Buffer.sol\":8266:8277  newCapacity */\n      dup2\n        /* \"@chainlink/contracts/src/v0.8/vendor/@ensdomains/buffer/v0.1.0/Buffer.sol\":8266:8292  newCapacity > buf.capacity */\n      gt\n        /* \"@chainlink/contracts/src/v0.8/vendor/@ensdomains/buffer/v0.1.0/Buffer.sol\":8262:8347  if (newCapacity > buf.capacity) {... */\n      iszero\n      tag_264\n      jumpi\n        /* \"@chainlink/contracts/src/v0.8/vendor/@ensdomains/buffer/v0.1.0/Buffer.sol\":8308:8336  resize(buf, newCapacity * 2) */\n      tag_265\n        /* \"@chainlink/contracts/src/v0.8/vendor/@ensdomains/buffer/v0.1.0/Buffer.sol\":8315:8318  buf */\n      dup7\n        /* \"@chainlink/contracts/src/v0.8/vendor/@ensdomains/buffer/v0.1.0/Buffer.sol\":8334:8335  2 */\n      0x02\n        /* \"@chainlink/contracts/src/v0.8/vendor/@ensdomains/buffer/v0.1.0/Buffer.sol\":8320:8331  newCapacity */\n      dup4\n        /* \"@chainlink/contracts/src/v0.8/vendor/@ensdomains/buffer/v0.1.0/Buffer.sol\":8320:8335  newCapacity * 2 */\n      tag_266\n      swap2\n      swap1\n      tag_256\n      jump\t// in\n    tag_266:\n        /* \"@chainlink/contracts/src/v0.8/vendor/@ensdomains/buffer/v0.1.0/Buffer.sol\":8308:8314  resize */\n      tag_257\n        /* \"@chainlink/contracts/src/v0.8/vendor/@ensdomains/buffer/v0.1.0/Buffer.sol\":8308:8336  resize(buf, newCapacity * 2) */\n      jump\t// in\n    tag_265:\n        /* \"@chainlink/contracts/src/v0.8/vendor/@ensdomains/buffer/v0.1.0/Buffer.sol\":8262:8347  if (newCapacity > buf.capacity) {... */\n    tag_264:\n        /* \"@chainlink/contracts/src/v0.8/vendor/@ensdomains/buffer/v0.1.0/Buffer.sol\":8357:8366  uint mask */\n      0x00\n        /* \"@chainlink/contracts/src/v0.8/vendor/@ensdomains/buffer/v0.1.0/Buffer.sol\":8384:8385  1 */\n      0x01\n        /* \"@chainlink/contracts/src/v0.8/vendor/@ensdomains/buffer/v0.1.0/Buffer.sol\":8377:8380  len */\n      dup6\n        /* \"@chainlink/contracts/src/v0.8/vendor/@ensdomains/buffer/v0.1.0/Buffer.sol\":8370:8373  256 */\n      0x0100\n        /* \"@chainlink/contracts/src/v0.8/vendor/@ensdomains/buffer/v0.1.0/Buffer.sol\":8370:8380  256 ** len */\n      tag_267\n      swap2\n      swap1\n      tag_268\n      jump\t// in\n    tag_267:\n        /* \"@chainlink/contracts/src/v0.8/vendor/@ensdomains/buffer/v0.1.0/Buffer.sol\":8369:8385  (256 ** len) - 1 */\n      tag_269\n      swap2\n      swap1\n      tag_213\n      jump\t// in\n    tag_269:\n        /* \"@chainlink/contracts/src/v0.8/vendor/@ensdomains/buffer/v0.1.0/Buffer.sol\":8357:8385  uint mask = (256 ** len) - 1 */\n      swap1\n      pop\n        /* \"@chainlink/contracts/src/v0.8/vendor/@ensdomains/buffer/v0.1.0/Buffer.sol\":8487:8490  buf */\n      dup7\n        /* \"@chainlink/contracts/src/v0.8/vendor/@ensdomains/buffer/v0.1.0/Buffer.sol\":8481:8491  mload(buf) */\n      mload\n        /* \"@chainlink/contracts/src/v0.8/vendor/@ensdomains/buffer/v0.1.0/Buffer.sol\":8606:8617  newCapacity */\n      dup3\n        /* \"@chainlink/contracts/src/v0.8/vendor/@ensdomains/buffer/v0.1.0/Buffer.sol\":8598:8604  bufptr */\n      dup2\n        /* \"@chainlink/contracts/src/v0.8/vendor/@ensdomains/buffer/v0.1.0/Buffer.sol\":8594:8618  add(bufptr, newCapacity) */\n      add\n        /* \"@chainlink/contracts/src/v0.8/vendor/@ensdomains/buffer/v0.1.0/Buffer.sol\":8676:8680  data */\n      dup8\n        /* \"@chainlink/contracts/src/v0.8/vendor/@ensdomains/buffer/v0.1.0/Buffer.sol\":8668:8672  mask */\n      dup4\n        /* \"@chainlink/contracts/src/v0.8/vendor/@ensdomains/buffer/v0.1.0/Buffer.sol\":8664:8673  not(mask) */\n      not\n        /* \"@chainlink/contracts/src/v0.8/vendor/@ensdomains/buffer/v0.1.0/Buffer.sol\":8657:8661  dest */\n      dup3\n        /* \"@chainlink/contracts/src/v0.8/vendor/@ensdomains/buffer/v0.1.0/Buffer.sol\":8651:8662  mload(dest) */\n      mload\n        /* \"@chainlink/contracts/src/v0.8/vendor/@ensdomains/buffer/v0.1.0/Buffer.sol\":8647:8674  and(mload(dest), not(mask)) */\n      and\n        /* \"@chainlink/contracts/src/v0.8/vendor/@ensdomains/buffer/v0.1.0/Buffer.sol\":8644:8681  or(and(mload(dest), not(mask)), data) */\n      or\n        /* \"@chainlink/contracts/src/v0.8/vendor/@ensdomains/buffer/v0.1.0/Buffer.sol\":8638:8642  dest */\n      dup2\n        /* \"@chainlink/contracts/src/v0.8/vendor/@ensdomains/buffer/v0.1.0/Buffer.sol\":8631:8682  mstore(dest, or(and(mload(dest), not(mask)), data)) */\n      mstore\n        /* \"@chainlink/contracts/src/v0.8/vendor/@ensdomains/buffer/v0.1.0/Buffer.sol\":8774:8780  bufptr */\n      dup2\n        /* \"@chainlink/contracts/src/v0.8/vendor/@ensdomains/buffer/v0.1.0/Buffer.sol\":8768:8781  mload(bufptr) */\n      mload\n        /* \"@chainlink/contracts/src/v0.8/vendor/@ensdomains/buffer/v0.1.0/Buffer.sol\":8755:8766  newCapacity */\n      dup5\n        /* \"@chainlink/contracts/src/v0.8/vendor/@ensdomains/buffer/v0.1.0/Buffer.sol\":8752:8782  gt(newCapacity, mload(bufptr)) */\n      gt\n        /* \"@chainlink/contracts/src/v0.8/vendor/@ensdomains/buffer/v0.1.0/Buffer.sol\":8749:8842  if gt(newCapacity, mload(bufptr)) {... */\n      iszero\n      tag_270\n      jumpi\n        /* \"@chainlink/contracts/src/v0.8/vendor/@ensdomains/buffer/v0.1.0/Buffer.sol\":8816:8827  newCapacity */\n      dup4\n        /* \"@chainlink/contracts/src/v0.8/vendor/@ensdomains/buffer/v0.1.0/Buffer.sol\":8808:8814  bufptr */\n      dup3\n        /* \"@chainlink/contracts/src/v0.8/vendor/@ensdomains/buffer/v0.1.0/Buffer.sol\":8801:8828  mstore(bufptr, newCapacity) */\n      mstore\n        /* \"@chainlink/contracts/src/v0.8/vendor/@ensdomains/buffer/v0.1.0/Buffer.sol\":8749:8842  if gt(newCapacity, mload(bufptr)) {... */\n    tag_270:\n        /* \"@chainlink/contracts/src/v0.8/vendor/@ensdomains/buffer/v0.1.0/Buffer.sol\":8404:8852  {... */\n      pop\n      pop\n        /* \"@chainlink/contracts/src/v0.8/vendor/@ensdomains/buffer/v0.1.0/Buffer.sol\":8868:8871  buf */\n      dup7\n        /* \"@chainlink/contracts/src/v0.8/vendor/@ensdomains/buffer/v0.1.0/Buffer.sol\":8861:8871  return buf */\n      swap4\n      pop\n      pop\n      pop\n      pop\n        /* \"@chainlink/contracts/src/v0.8/vendor/@ensdomains/buffer/v0.1.0/Buffer.sol\":8083:8878  function appendInt(buffer memory buf, uint data, uint len) internal pure returns(buffer memory) {... */\n      swap4\n      swap3\n      pop\n      pop\n      pop\n      jump\t// out\n        /* \"@chainlink/contracts/src/v0.8/vendor/@ensdomains/buffer/v0.1.0/Buffer.sol\":2844:4271  function append(buffer memory buf, bytes memory data, uint len) internal pure returns(buffer memory) {... */\n    tag_249:\n        /* \"@chainlink/contracts/src/v0.8/vendor/@ensdomains/buffer/v0.1.0/Buffer.sol\":2930:2943  buffer memory */\n      tag_271\n      tag_218\n      jump\t// in\n    tag_271:\n        /* \"@chainlink/contracts/src/v0.8/vendor/@ensdomains/buffer/v0.1.0/Buffer.sol\":2970:2974  data */\n      dup3\n        /* \"@chainlink/contracts/src/v0.8/vendor/@ensdomains/buffer/v0.1.0/Buffer.sol\":2970:2981  data.length */\n      mload\n        /* \"@chainlink/contracts/src/v0.8/vendor/@ensdomains/buffer/v0.1.0/Buffer.sol\":2963:2966  len */\n      dup3\n        /* \"@chainlink/contracts/src/v0.8/vendor/@ensdomains/buffer/v0.1.0/Buffer.sol\":2963:2981  len <= data.length */\n      gt\n      iszero\n        /* \"@chainlink/contracts/src/v0.8/vendor/@ensdomains/buffer/v0.1.0/Buffer.sol\":2955:2982  require(len <= data.length) */\n      tag_273\n      jumpi\n      0x00\n      dup1\n      revert\n    tag_273:\n        /* \"@chainlink/contracts/src/v0.8/vendor/@ensdomains/buffer/v0.1.0/Buffer.sol\":2993:3001  uint off */\n      0x00\n        /* \"@chainlink/contracts/src/v0.8/vendor/@ensdomains/buffer/v0.1.0/Buffer.sol\":3004:3007  buf */\n      dup5\n        /* \"@chainlink/contracts/src/v0.8/vendor/@ensdomains/buffer/v0.1.0/Buffer.sol\":3004:3011  buf.buf */\n      0x00\n      add\n      mload\n        /* \"@chainlink/contracts/src/v0.8/vendor/@ensdomains/buffer/v0.1.0/Buffer.sol\":3004:3018  buf.buf.length */\n      mload\n        /* \"@chainlink/contracts/src/v0.8/vendor/@ensdomains/buffer/v0.1.0/Buffer.sol\":2993:3018  uint off = buf.buf.length */\n      swap1\n      pop\n        /* \"@chainlink/contracts/src/v0.8/vendor/@ensdomains/buffer/v0.1.0/Buffer.sol\":3028:3044  uint newCapacity */\n      0x00\n        /* \"@chainlink/contracts/src/v0.8/vendor/@ensdomains/buffer/v0.1.0/Buffer.sol\":3053:3056  len */\n      dup4\n        /* \"@chainlink/contracts/src/v0.8/vendor/@ensdomains/buffer/v0.1.0/Buffer.sol\":3047:3050  off */\n      dup3\n        /* \"@chainlink/contracts/src/v0.8/vendor/@ensdomains/buffer/v0.1.0/Buffer.sol\":3047:3056  off + len */\n      tag_274\n      swap2\n      swap1\n      tag_209\n      jump\t// in\n    tag_274:\n        /* \"@chainlink/contracts/src/v0.8/vendor/@ensdomains/buffer/v0.1.0/Buffer.sol\":3028:3056  uint newCapacity = off + len */\n      swap1\n      pop\n        /* \"@chainlink/contracts/src/v0.8/vendor/@ensdomains/buffer/v0.1.0/Buffer.sol\":3084:3087  buf */\n      dup6\n        /* \"@chainlink/contracts/src/v0.8/vendor/@ensdomains/buffer/v0.1.0/Buffer.sol\":3084:3096  buf.capacity */\n      0x20\n      add\n      mload\n        /* \"@chainlink/contracts/src/v0.8/vendor/@ensdomains/buffer/v0.1.0/Buffer.sol\":3070:3081  newCapacity */\n      dup2\n        /* \"@chainlink/contracts/src/v0.8/vendor/@ensdomains/buffer/v0.1.0/Buffer.sol\":3070:3096  newCapacity > buf.capacity */\n      gt\n        /* \"@chainlink/contracts/src/v0.8/vendor/@ensdomains/buffer/v0.1.0/Buffer.sol\":3066:3151  if (newCapacity > buf.capacity) {... */\n      iszero\n      tag_275\n      jumpi\n        /* \"@chainlink/contracts/src/v0.8/vendor/@ensdomains/buffer/v0.1.0/Buffer.sol\":3112:3140  resize(buf, newCapacity * 2) */\n      tag_276\n        /* \"@chainlink/contracts/src/v0.8/vendor/@ensdomains/buffer/v0.1.0/Buffer.sol\":3119:3122  buf */\n      dup7\n        /* \"@chainlink/contracts/src/v0.8/vendor/@ensdomains/buffer/v0.1.0/Buffer.sol\":3138:3139  2 */\n      0x02\n        /* \"@chainlink/contracts/src/v0.8/vendor/@ensdomains/buffer/v0.1.0/Buffer.sol\":3124:3135  newCapacity */\n      dup4\n        /* \"@chainlink/contracts/src/v0.8/vendor/@ensdomains/buffer/v0.1.0/Buffer.sol\":3124:3139  newCapacity * 2 */\n      tag_277\n      swap2\n      swap1\n      tag_256\n      jump\t// in\n    tag_277:\n        /* \"@chainlink/contracts/src/v0.8/vendor/@ensdomains/buffer/v0.1.0/Buffer.sol\":3112:3118  resize */\n      tag_257\n        /* \"@chainlink/contracts/src/v0.8/vendor/@ensdomains/buffer/v0.1.0/Buffer.sol\":3112:3140  resize(buf, newCapacity * 2) */\n      jump\t// in\n    tag_276:\n        /* \"@chainlink/contracts/src/v0.8/vendor/@ensdomains/buffer/v0.1.0/Buffer.sol\":3066:3151  if (newCapacity > buf.capacity) {... */\n    tag_275:\n        /* \"@chainlink/contracts/src/v0.8/vendor/@ensdomains/buffer/v0.1.0/Buffer.sol\":3161:3170  uint dest */\n      0x00\n        /* \"@chainlink/contracts/src/v0.8/vendor/@ensdomains/buffer/v0.1.0/Buffer.sol\":3180:3188  uint src */\n      dup1\n        /* \"@chainlink/contracts/src/v0.8/vendor/@ensdomains/buffer/v0.1.0/Buffer.sol\":3290:3293  buf */\n      dup8\n        /* \"@chainlink/contracts/src/v0.8/vendor/@ensdomains/buffer/v0.1.0/Buffer.sol\":3284:3294  mload(buf) */\n      mload\n        /* \"@chainlink/contracts/src/v0.8/vendor/@ensdomains/buffer/v0.1.0/Buffer.sol\":3373:3379  bufptr */\n      dup1\n        /* \"@chainlink/contracts/src/v0.8/vendor/@ensdomains/buffer/v0.1.0/Buffer.sol\":3367:3380  mload(bufptr) */\n      mload\n        /* \"@chainlink/contracts/src/v0.8/vendor/@ensdomains/buffer/v0.1.0/Buffer.sol\":3501:3504  off */\n      dup6\n        /* \"@chainlink/contracts/src/v0.8/vendor/@ensdomains/buffer/v0.1.0/Buffer.sol\":3496:3498  32 */\n      0x20\n        /* \"@chainlink/contracts/src/v0.8/vendor/@ensdomains/buffer/v0.1.0/Buffer.sol\":3488:3494  bufptr */\n      dup4\n        /* \"@chainlink/contracts/src/v0.8/vendor/@ensdomains/buffer/v0.1.0/Buffer.sol\":3484:3499  add(bufptr, 32) */\n      add\n        /* \"@chainlink/contracts/src/v0.8/vendor/@ensdomains/buffer/v0.1.0/Buffer.sol\":3480:3505  add(add(bufptr, 32), off) */\n      add\n        /* \"@chainlink/contracts/src/v0.8/vendor/@ensdomains/buffer/v0.1.0/Buffer.sol\":3472:3505  dest := add(add(bufptr, 32), off) */\n      swap4\n      pop\n        /* \"@chainlink/contracts/src/v0.8/vendor/@ensdomains/buffer/v0.1.0/Buffer.sol\":3595:3601  buflen */\n      dup1\n        /* \"@chainlink/contracts/src/v0.8/vendor/@ensdomains/buffer/v0.1.0/Buffer.sol\":3582:3593  newCapacity */\n      dup6\n        /* \"@chainlink/contracts/src/v0.8/vendor/@ensdomains/buffer/v0.1.0/Buffer.sol\":3579:3602  gt(newCapacity, buflen) */\n      gt\n        /* \"@chainlink/contracts/src/v0.8/vendor/@ensdomains/buffer/v0.1.0/Buffer.sol\":3576:3662  if gt(newCapacity, buflen) {... */\n      iszero\n      tag_278\n      jumpi\n        /* \"@chainlink/contracts/src/v0.8/vendor/@ensdomains/buffer/v0.1.0/Buffer.sol\":3636:3647  newCapacity */\n      dup5\n        /* \"@chainlink/contracts/src/v0.8/vendor/@ensdomains/buffer/v0.1.0/Buffer.sol\":3628:3634  bufptr */\n      dup3\n        /* \"@chainlink/contracts/src/v0.8/vendor/@ensdomains/buffer/v0.1.0/Buffer.sol\":3621:3648  mstore(bufptr, newCapacity) */\n      mstore\n        /* \"@chainlink/contracts/src/v0.8/vendor/@ensdomains/buffer/v0.1.0/Buffer.sol\":3576:3662  if gt(newCapacity, buflen) {... */\n    tag_278:\n        /* \"@chainlink/contracts/src/v0.8/vendor/@ensdomains/buffer/v0.1.0/Buffer.sol\":3692:3694  32 */\n      0x20\n        /* \"@chainlink/contracts/src/v0.8/vendor/@ensdomains/buffer/v0.1.0/Buffer.sol\":3686:3690  data */\n      dup10\n        /* \"@chainlink/contracts/src/v0.8/vendor/@ensdomains/buffer/v0.1.0/Buffer.sol\":3682:3695  add(data, 32) */\n      add\n        /* \"@chainlink/contracts/src/v0.8/vendor/@ensdomains/buffer/v0.1.0/Buffer.sol\":3675:3695  src := add(data, 32) */\n      swap3\n      pop\n        /* \"@chainlink/contracts/src/v0.8/vendor/@ensdomains/buffer/v0.1.0/Buffer.sol\":3207:3705  {... */\n      pop\n      pop\n        /* \"@chainlink/contracts/src/v0.8/vendor/@ensdomains/buffer/v0.1.0/Buffer.sol\":3765:3930  for (; len >= 32; len -= 32) {... */\n    tag_279:\n        /* \"@chainlink/contracts/src/v0.8/vendor/@ensdomains/buffer/v0.1.0/Buffer.sol\":3779:3781  32 */\n      0x20\n        /* \"@chainlink/contracts/src/v0.8/vendor/@ensdomains/buffer/v0.1.0/Buffer.sol\":3772:3775  len */\n      dup7\n        /* \"@chainlink/contracts/src/v0.8/vendor/@ensdomains/buffer/v0.1.0/Buffer.sol\":3772:3781  len >= 32 */\n      lt\n        /* \"@chainlink/contracts/src/v0.8/vendor/@ensdomains/buffer/v0.1.0/Buffer.sol\":3765:3930  for (; len >= 32; len -= 32) {... */\n      tag_280\n      jumpi\n        /* \"@chainlink/contracts/src/v0.8/vendor/@ensdomains/buffer/v0.1.0/Buffer.sol\":3854:3857  src */\n      dup1\n        /* \"@chainlink/contracts/src/v0.8/vendor/@ensdomains/buffer/v0.1.0/Buffer.sol\":3848:3858  mload(src) */\n      mload\n        /* \"@chainlink/contracts/src/v0.8/vendor/@ensdomains/buffer/v0.1.0/Buffer.sol\":3842:3846  dest */\n      dup3\n        /* \"@chainlink/contracts/src/v0.8/vendor/@ensdomains/buffer/v0.1.0/Buffer.sol\":3835:3859  mstore(dest, mload(src)) */\n      mstore\n        /* \"@chainlink/contracts/src/v0.8/vendor/@ensdomains/buffer/v0.1.0/Buffer.sol\":3894:3896  32 */\n      0x20\n        /* \"@chainlink/contracts/src/v0.8/vendor/@ensdomains/buffer/v0.1.0/Buffer.sol\":3886:3896  dest += 32 */\n      dup3\n      tag_282\n      swap2\n      swap1\n      tag_209\n      jump\t// in\n    tag_282:\n      swap2\n      pop\n        /* \"@chainlink/contracts/src/v0.8/vendor/@ensdomains/buffer/v0.1.0/Buffer.sol\":3917:3919  32 */\n      0x20\n        /* \"@chainlink/contracts/src/v0.8/vendor/@ensdomains/buffer/v0.1.0/Buffer.sol\":3910:3919  src += 32 */\n      dup2\n      tag_283\n      swap2\n      swap1\n      tag_209\n      jump\t// in\n    tag_283:\n      swap1\n      pop\n        /* \"@chainlink/contracts/src/v0.8/vendor/@ensdomains/buffer/v0.1.0/Buffer.sol\":3790:3792  32 */\n      0x20\n        /* \"@chainlink/contracts/src/v0.8/vendor/@ensdomains/buffer/v0.1.0/Buffer.sol\":3783:3792  len -= 32 */\n      dup7\n      tag_284\n      swap2\n      swap1\n      tag_213\n      jump\t// in\n    tag_284:\n      swap6\n      pop\n        /* \"@chainlink/contracts/src/v0.8/vendor/@ensdomains/buffer/v0.1.0/Buffer.sol\":3765:3930  for (; len >= 32; len -= 32) {... */\n      jump(tag_279)\n    tag_280:\n        /* \"@chainlink/contracts/src/v0.8/vendor/@ensdomains/buffer/v0.1.0/Buffer.sol\":3996:4005  uint mask */\n      0x00\n        /* \"@chainlink/contracts/src/v0.8/vendor/@ensdomains/buffer/v0.1.0/Buffer.sol\":4030:4031  1 */\n      0x01\n        /* \"@chainlink/contracts/src/v0.8/vendor/@ensdomains/buffer/v0.1.0/Buffer.sol\":4022:4025  len */\n      dup8\n        /* \"@chainlink/contracts/src/v0.8/vendor/@ensdomains/buffer/v0.1.0/Buffer.sol\":4017:4019  32 */\n      0x20\n        /* \"@chainlink/contracts/src/v0.8/vendor/@ensdomains/buffer/v0.1.0/Buffer.sol\":4017:4025  32 - len */\n      sub\n        /* \"@chainlink/contracts/src/v0.8/vendor/@ensdomains/buffer/v0.1.0/Buffer.sol\":4009:4012  256 */\n      0x0100\n        /* \"@chainlink/contracts/src/v0.8/vendor/@ensdomains/buffer/v0.1.0/Buffer.sol\":4009:4026  256 ** (32 - len) */\n      exp\n        /* \"@chainlink/contracts/src/v0.8/vendor/@ensdomains/buffer/v0.1.0/Buffer.sol\":4008:4031  (256 ** (32 - len)) - 1 */\n      sub\n        /* \"@chainlink/contracts/src/v0.8/vendor/@ensdomains/buffer/v0.1.0/Buffer.sol\":3996:4031  uint mask = (256 ** (32 - len)) - 1 */\n      swap1\n      pop\n        /* \"@chainlink/contracts/src/v0.8/vendor/@ensdomains/buffer/v0.1.0/Buffer.sol\":4107:4111  mask */\n      dup1\n        /* \"@chainlink/contracts/src/v0.8/vendor/@ensdomains/buffer/v0.1.0/Buffer.sol\":4103:4112  not(mask) */\n      not\n        /* \"@chainlink/contracts/src/v0.8/vendor/@ensdomains/buffer/v0.1.0/Buffer.sol\":4097:4100  src */\n      dup3\n        /* \"@chainlink/contracts/src/v0.8/vendor/@ensdomains/buffer/v0.1.0/Buffer.sol\":4091:4101  mload(src) */\n      mload\n        /* \"@chainlink/contracts/src/v0.8/vendor/@ensdomains/buffer/v0.1.0/Buffer.sol\":4087:4113  and(mload(src), not(mask)) */\n      and\n        /* \"@chainlink/contracts/src/v0.8/vendor/@ensdomains/buffer/v0.1.0/Buffer.sol\":4163:4167  mask */\n      dup2\n        /* \"@chainlink/contracts/src/v0.8/vendor/@ensdomains/buffer/v0.1.0/Buffer.sol\":4156:4160  dest */\n      dup5\n        /* \"@chainlink/contracts/src/v0.8/vendor/@ensdomains/buffer/v0.1.0/Buffer.sol\":4150:4161  mload(dest) */\n      mload\n        /* \"@chainlink/contracts/src/v0.8/vendor/@ensdomains/buffer/v0.1.0/Buffer.sol\":4146:4168  and(mload(dest), mask) */\n      and\n        /* \"@chainlink/contracts/src/v0.8/vendor/@ensdomains/buffer/v0.1.0/Buffer.sol\":4211:4218  srcpart */\n      dup2\n        /* \"@chainlink/contracts/src/v0.8/vendor/@ensdomains/buffer/v0.1.0/Buffer.sol\":4201:4209  destpart */\n      dup2\n        /* \"@chainlink/contracts/src/v0.8/vendor/@ensdomains/buffer/v0.1.0/Buffer.sol\":4198:4219  or(destpart, srcpart) */\n      or\n        /* \"@chainlink/contracts/src/v0.8/vendor/@ensdomains/buffer/v0.1.0/Buffer.sol\":4192:4196  dest */\n      dup6\n        /* \"@chainlink/contracts/src/v0.8/vendor/@ensdomains/buffer/v0.1.0/Buffer.sol\":4185:4220  mstore(dest, or(destpart, srcpart)) */\n      mstore\n        /* \"@chainlink/contracts/src/v0.8/vendor/@ensdomains/buffer/v0.1.0/Buffer.sol\":4054:4234  {... */\n      pop\n      pop\n      pop\n        /* \"@chainlink/contracts/src/v0.8/vendor/@ensdomains/buffer/v0.1.0/Buffer.sol\":4261:4264  buf */\n      dup8\n        /* \"@chainlink/contracts/src/v0.8/vendor/@ensdomains/buffer/v0.1.0/Buffer.sol\":4254:4264  return buf */\n      swap5\n      pop\n      pop\n      pop\n      pop\n      pop\n        /* \"@chainlink/contracts/src/v0.8/vendor/@ensdomains/buffer/v0.1.0/Buffer.sol\":2844:4271  function append(buffer memory buf, bytes memory data, uint len) internal pure returns(buffer memory) {... */\n      swap4\n      swap3\n      pop\n      pop\n      pop\n      jump\t// out\n        /* \"@chainlink/contracts/src/v0.8/vendor/@ensdomains/buffer/v0.1.0/Buffer.sol\":2004:2171  function resize(buffer memory buf, uint capacity) private pure {... */\n    tag_257:\n        /* \"@chainlink/contracts/src/v0.8/vendor/@ensdomains/buffer/v0.1.0/Buffer.sol\":2077:2096  bytes memory oldbuf */\n      0x00\n        /* \"@chainlink/contracts/src/v0.8/vendor/@ensdomains/buffer/v0.1.0/Buffer.sol\":2099:2102  buf */\n      dup3\n        /* \"@chainlink/contracts/src/v0.8/vendor/@ensdomains/buffer/v0.1.0/Buffer.sol\":2099:2106  buf.buf */\n      0x00\n      add\n      mload\n        /* \"@chainlink/contracts/src/v0.8/vendor/@ensdomains/buffer/v0.1.0/Buffer.sol\":2077:2106  bytes memory oldbuf = buf.buf */\n      swap1\n      pop\n        /* \"@chainlink/contracts/src/v0.8/vendor/@ensdomains/buffer/v0.1.0/Buffer.sol\":2116:2135  init(buf, capacity) */\n      tag_286\n        /* \"@chainlink/contracts/src/v0.8/vendor/@ensdomains/buffer/v0.1.0/Buffer.sol\":2121:2124  buf */\n      dup4\n        /* \"@chainlink/contracts/src/v0.8/vendor/@ensdomains/buffer/v0.1.0/Buffer.sol\":2126:2134  capacity */\n      dup4\n        /* \"@chainlink/contracts/src/v0.8/vendor/@ensdomains/buffer/v0.1.0/Buffer.sol\":2116:2120  init */\n      tag_193\n        /* \"@chainlink/contracts/src/v0.8/vendor/@ensdomains/buffer/v0.1.0/Buffer.sol\":2116:2135  init(buf, capacity) */\n      jump\t// in\n    tag_286:\n      pop\n        /* \"@chainlink/contracts/src/v0.8/vendor/@ensdomains/buffer/v0.1.0/Buffer.sol\":2145:2164  append(buf, oldbuf) */\n      tag_287\n        /* \"@chainlink/contracts/src/v0.8/vendor/@ensdomains/buffer/v0.1.0/Buffer.sol\":2152:2155  buf */\n      dup4\n        /* \"@chainlink/contracts/src/v0.8/vendor/@ensdomains/buffer/v0.1.0/Buffer.sol\":2157:2163  oldbuf */\n      dup3\n        /* \"@chainlink/contracts/src/v0.8/vendor/@ensdomains/buffer/v0.1.0/Buffer.sol\":2145:2151  append */\n      tag_198\n        /* \"@chainlink/contracts/src/v0.8/vendor/@ensdomains/buffer/v0.1.0/Buffer.sol\":2145:2164  append(buf, oldbuf) */\n      jump\t// in\n    tag_287:\n      pop\n        /* \"@chainlink/contracts/src/v0.8/vendor/@ensdomains/buffer/v0.1.0/Buffer.sol\":2067:2171  {... */\n      pop\n        /* \"@chainlink/contracts/src/v0.8/vendor/@ensdomains/buffer/v0.1.0/Buffer.sol\":2004:2171  function resize(buffer memory buf, uint capacity) private pure {... */\n      pop\n      pop\n      jump\t// out\n    tag_77:\n      mload(0x40)\n      dup1\n      0xe0\n      add\n      0x40\n      mstore\n      dup1\n      0x00\n      0x02\n      dup2\n      gt\n      iszero\n      tag_288\n      jumpi\n      tag_289\n      tag_126\n      jump\t// in\n    tag_289:\n    tag_288:\n      dup2\n      mstore\n      0x20\n      add\n      0x00\n      0x02\n      dup2\n      gt\n      iszero\n      tag_290\n      jumpi\n      tag_291\n      tag_126\n      jump\t// in\n    tag_291:\n    tag_290:\n      dup2\n      mstore\n      0x20\n      add\n      0x00\n      dup1\n      dup2\n      gt\n      iszero\n      tag_292\n      jumpi\n      tag_293\n      tag_126\n      jump\t// in\n    tag_293:\n    tag_292:\n      dup2\n      mstore\n      0x20\n      add\n      0x60\n      dup2\n      mstore\n      0x20\n      add\n      0x60\n      dup2\n      mstore\n      0x20\n      add\n      0x60\n      dup2\n      mstore\n      0x20\n      add\n      0x60\n      dup2\n      mstore\n      pop\n      swap1\n      jump\t// out\n    tag_190:\n      mload(0x40)\n      dup1\n      0x40\n      add\n      0x40\n      mstore\n      dup1\n      tag_294\n      tag_218\n      jump\t// in\n    tag_294:\n      dup2\n      mstore\n      0x20\n      add\n      0x00\n      dup2\n      mstore\n      pop\n      swap1\n      jump\t// out\n    tag_218:\n      mload(0x40)\n      dup1\n      0x40\n      add\n      0x40\n      mstore\n      dup1\n      0x60\n      dup2\n      mstore\n      0x20\n      add\n      0x00\n      dup2\n      mstore\n      pop\n      swap1\n      jump\t// out\n        /* \"#utility.yul\":7:82   */\n    tag_295:\n        /* \"#utility.yul\":40:46   */\n      0x00\n        /* \"#utility.yul\":73:75   */\n      0x40\n        /* \"#utility.yul\":67:76   */\n      mload\n        /* \"#utility.yul\":57:76   */\n      swap1\n      pop\n        /* \"#utility.yul\":7:82   */\n      swap1\n      jump\t// out\n        /* \"#utility.yul\":88:205   */\n    tag_296:\n        /* \"#utility.yul\":197:198   */\n      0x00\n        /* \"#utility.yul\":194:195   */\n      dup1\n        /* \"#utility.yul\":187:199   */\n      revert\n        /* \"#utility.yul\":211:328   */\n    tag_297:\n        /* \"#utility.yul\":320:321   */\n      0x00\n        /* \"#utility.yul\":317:318   */\n      dup1\n        /* \"#utility.yul\":310:322   */\n      revert\n        /* \"#utility.yul\":334:411   */\n    tag_298:\n        /* \"#utility.yul\":371:378   */\n      0x00\n        /* \"#utility.yul\":400:405   */\n      dup2\n        /* \"#utility.yul\":389:405   */\n      swap1\n      pop\n        /* \"#utility.yul\":334:411   */\n      swap2\n      swap1\n      pop\n      jump\t// out\n        /* \"#utility.yul\":417:539   */\n    tag_299:\n        /* \"#utility.yul\":490:514   */\n      tag_361\n        /* \"#utility.yul\":508:513   */\n      dup2\n        /* \"#utility.yul\":490:514   */\n      tag_298\n      jump\t// in\n    tag_361:\n        /* \"#utility.yul\":483:488   */\n      dup2\n        /* \"#utility.yul\":480:515   */\n      eq\n        /* \"#utility.yul\":470:533   */\n      tag_362\n      jumpi\n        /* \"#utility.yul\":529:530   */\n      0x00\n        /* \"#utility.yul\":526:527   */\n      dup1\n        /* \"#utility.yul\":519:531   */\n      revert\n        /* \"#utility.yul\":470:533   */\n    tag_362:\n        /* \"#utility.yul\":417:539   */\n      pop\n      jump\t// out\n        /* \"#utility.yul\":545:684   */\n    tag_300:\n        /* \"#utility.yul\":591:596   */\n      0x00\n        /* \"#utility.yul\":629:635   */\n      dup2\n        /* \"#utility.yul\":616:636   */\n      calldataload\n        /* \"#utility.yul\":607:636   */\n      swap1\n      pop\n        /* \"#utility.yul\":645:678   */\n      tag_364\n        /* \"#utility.yul\":672:677   */\n      dup2\n        /* \"#utility.yul\":645:678   */\n      tag_299\n      jump\t// in\n    tag_364:\n        /* \"#utility.yul\":545:684   */\n      swap3\n      swap2\n      pop\n      pop\n      jump\t// out\n        /* \"#utility.yul\":690:807   */\n    tag_301:\n        /* \"#utility.yul\":799:800   */\n      0x00\n        /* \"#utility.yul\":796:797   */\n      dup1\n        /* \"#utility.yul\":789:801   */\n      revert\n        /* \"#utility.yul\":813:930   */\n    tag_302:\n        /* \"#utility.yul\":922:923   */\n      0x00\n        /* \"#utility.yul\":919:920   */\n      dup1\n        /* \"#utility.yul\":912:924   */\n      revert\n        /* \"#utility.yul\":936:1038   */\n    tag_303:\n        /* \"#utility.yul\":977:983   */\n      0x00\n        /* \"#utility.yul\":1028:1030   */\n      0x1f\n        /* \"#utility.yul\":1024:1031   */\n      not\n        /* \"#utility.yul\":1019:1021   */\n      0x1f\n        /* \"#utility.yul\":1012:1017   */\n      dup4\n        /* \"#utility.yul\":1008:1022   */\n      add\n        /* \"#utility.yul\":1004:1032   */\n      and\n        /* \"#utility.yul\":994:1032   */\n      swap1\n      pop\n        /* \"#utility.yul\":936:1038   */\n      swap2\n      swap1\n      pop\n      jump\t// out\n        /* \"#utility.yul\":1044:1224   */\n    tag_70:\n        /* \"#utility.yul\":1092:1169   */\n      0x4e487b7100000000000000000000000000000000000000000000000000000000\n        /* \"#utility.yul\":1089:1090   */\n      0x00\n        /* \"#utility.yul\":1082:1170   */\n      mstore\n        /* \"#utility.yul\":1189:1193   */\n      0x41\n        /* \"#utility.yul\":1186:1187   */\n      0x04\n        /* \"#utility.yul\":1179:1194   */\n      mstore\n        /* \"#utility.yul\":1213:1217   */\n      0x24\n        /* \"#utility.yul\":1210:1211   */\n      0x00\n        /* \"#utility.yul\":1203:1218   */\n      revert\n        /* \"#utility.yul\":1230:1511   */\n    tag_304:\n        /* \"#utility.yul\":1313:1340   */\n      tag_370\n        /* \"#utility.yul\":1335:1339   */\n      dup3\n        /* \"#utility.yul\":1313:1340   */\n      tag_303\n      jump\t// in\n    tag_370:\n        /* \"#utility.yul\":1305:1311   */\n      dup2\n        /* \"#utility.yul\":1301:1341   */\n      add\n        /* \"#utility.yul\":1443:1449   */\n      dup2\n        /* \"#utility.yul\":1431:1441   */\n      dup2\n        /* \"#utility.yul\":1428:1450   */\n      lt\n        /* \"#utility.yul\":1407:1425   */\n      0xffffffffffffffff\n        /* \"#utility.yul\":1395:1405   */\n      dup3\n        /* \"#utility.yul\":1392:1426   */\n      gt\n        /* \"#utility.yul\":1389:1451   */\n      or\n        /* \"#utility.yul\":1386:1474   */\n      iszero\n      tag_371\n      jumpi\n        /* \"#utility.yul\":1454:1472   */\n      tag_372\n      tag_70\n      jump\t// in\n    tag_372:\n        /* \"#utility.yul\":1386:1474   */\n    tag_371:\n        /* \"#utility.yul\":1494:1504   */\n      dup1\n        /* \"#utility.yul\":1490:1492   */\n      0x40\n        /* \"#utility.yul\":1483:1505   */\n      mstore\n        /* \"#utility.yul\":1273:1511   */\n      pop\n        /* \"#utility.yul\":1230:1511   */\n      pop\n      pop\n      jump\t// out\n        /* \"#utility.yul\":1517:1646   */\n    tag_305:\n        /* \"#utility.yul\":1551:1557   */\n      0x00\n        /* \"#utility.yul\":1578:1598   */\n      tag_374\n      tag_295\n      jump\t// in\n    tag_374:\n        /* \"#utility.yul\":1568:1598   */\n      swap1\n      pop\n        /* \"#utility.yul\":1607:1640   */\n      tag_375\n        /* \"#utility.yul\":1635:1639   */\n      dup3\n        /* \"#utility.yul\":1627:1633   */\n      dup3\n        /* \"#utility.yul\":1607:1640   */\n      tag_304\n      jump\t// in\n    tag_375:\n        /* \"#utility.yul\":1517:1646   */\n      swap2\n      swap1\n      pop\n      jump\t// out\n        /* \"#utility.yul\":1652:1959   */\n    tag_306:\n        /* \"#utility.yul\":1713:1717   */\n      0x00\n        /* \"#utility.yul\":1803:1821   */\n      0xffffffffffffffff\n        /* \"#utility.yul\":1795:1801   */\n      dup3\n        /* \"#utility.yul\":1792:1822   */\n      gt\n        /* \"#utility.yul\":1789:1845   */\n      iszero\n      tag_377\n      jumpi\n        /* \"#utility.yul\":1825:1843   */\n      tag_378\n      tag_70\n      jump\t// in\n    tag_378:\n        /* \"#utility.yul\":1789:1845   */\n    tag_377:\n        /* \"#utility.yul\":1863:1892   */\n      tag_379\n        /* \"#utility.yul\":1885:1891   */\n      dup3\n        /* \"#utility.yul\":1863:1892   */\n      tag_303\n      jump\t// in\n    tag_379:\n        /* \"#utility.yul\":1855:1892   */\n      swap1\n      pop\n        /* \"#utility.yul\":1947:1951   */\n      0x20\n        /* \"#utility.yul\":1941:1945   */\n      dup2\n        /* \"#utility.yul\":1937:1952   */\n      add\n        /* \"#utility.yul\":1929:1952   */\n      swap1\n      pop\n        /* \"#utility.yul\":1652:1959   */\n      swap2\n      swap1\n      pop\n      jump\t// out\n        /* \"#utility.yul\":1965:2111   */\n    tag_307:\n        /* \"#utility.yul\":2062:2068   */\n      dup3\n        /* \"#utility.yul\":2057:2060   */\n      dup2\n        /* \"#utility.yul\":2052:2055   */\n      dup4\n        /* \"#utility.yul\":2039:2069   */\n      calldatacopy\n        /* \"#utility.yul\":2103:2104   */\n      0x00\n        /* \"#utility.yul\":2094:2100   */\n      dup4\n        /* \"#utility.yul\":2089:2092   */\n      dup4\n        /* \"#utility.yul\":2085:2101   */\n      add\n        /* \"#utility.yul\":2078:2105   */\n      mstore\n        /* \"#utility.yul\":1965:2111   */\n      pop\n      pop\n      pop\n      jump\t// out\n        /* \"#utility.yul\":2117:2540   */\n    tag_308:\n        /* \"#utility.yul\":2194:2199   */\n      0x00\n        /* \"#utility.yul\":2219:2284   */\n      tag_382\n        /* \"#utility.yul\":2235:2283   */\n      tag_383\n        /* \"#utility.yul\":2276:2282   */\n      dup5\n        /* \"#utility.yul\":2235:2283   */\n      tag_306\n      jump\t// in\n    tag_383:\n        /* \"#utility.yul\":2219:2284   */\n      tag_305\n      jump\t// in\n    tag_382:\n        /* \"#utility.yul\":2210:2284   */\n      swap1\n      pop\n        /* \"#utility.yul\":2307:2313   */\n      dup3\n        /* \"#utility.yul\":2300:2305   */\n      dup2\n        /* \"#utility.yul\":2293:2314   */\n      mstore\n        /* \"#utility.yul\":2345:2349   */\n      0x20\n        /* \"#utility.yul\":2338:2343   */\n      dup2\n        /* \"#utility.yul\":2334:2350   */\n      add\n        /* \"#utility.yul\":2383:2386   */\n      dup5\n        /* \"#utility.yul\":2374:2380   */\n      dup5\n        /* \"#utility.yul\":2369:2372   */\n      dup5\n        /* \"#utility.yul\":2365:2381   */\n      add\n        /* \"#utility.yul\":2362:2387   */\n      gt\n        /* \"#utility.yul\":2359:2471   */\n      iszero\n      tag_384\n      jumpi\n        /* \"#utility.yul\":2390:2469   */\n      tag_385\n      tag_302\n      jump\t// in\n    tag_385:\n        /* \"#utility.yul\":2359:2471   */\n    tag_384:\n        /* \"#utility.yul\":2480:2534   */\n      tag_386\n        /* \"#utility.yul\":2527:2533   */\n      dup5\n        /* \"#utility.yul\":2522:2525   */\n      dup3\n        /* \"#utility.yul\":2517:2520   */\n      dup6\n        /* \"#utility.yul\":2480:2534   */\n      tag_307\n      jump\t// in\n    tag_386:\n        /* \"#utility.yul\":2200:2540   */\n      pop\n        /* \"#utility.yul\":2117:2540   */\n      swap4\n      swap3\n      pop\n      pop\n      pop\n      jump\t// out\n        /* \"#utility.yul\":2559:2897   */\n    tag_309:\n        /* \"#utility.yul\":2614:2619   */\n      0x00\n        /* \"#utility.yul\":2663:2666   */\n      dup3\n        /* \"#utility.yul\":2656:2660   */\n      0x1f\n        /* \"#utility.yul\":2648:2654   */\n      dup4\n        /* \"#utility.yul\":2644:2661   */\n      add\n        /* \"#utility.yul\":2640:2667   */\n      slt\n        /* \"#utility.yul\":2630:2752   */\n      tag_388\n      jumpi\n        /* \"#utility.yul\":2671:2750   */\n      tag_389\n      tag_301\n      jump\t// in\n    tag_389:\n        /* \"#utility.yul\":2630:2752   */\n    tag_388:\n        /* \"#utility.yul\":2788:2794   */\n      dup2\n        /* \"#utility.yul\":2775:2795   */\n      calldataload\n        /* \"#utility.yul\":2813:2891   */\n      tag_390\n        /* \"#utility.yul\":2887:2890   */\n      dup5\n        /* \"#utility.yul\":2879:2885   */\n      dup3\n        /* \"#utility.yul\":2872:2876   */\n      0x20\n        /* \"#utility.yul\":2864:2870   */\n      dup7\n        /* \"#utility.yul\":2860:2877   */\n      add\n        /* \"#utility.yul\":2813:2891   */\n      tag_308\n      jump\t// in\n    tag_390:\n        /* \"#utility.yul\":2804:2891   */\n      swap2\n      pop\n        /* \"#utility.yul\":2620:2897   */\n      pop\n        /* \"#utility.yul\":2559:2897   */\n      swap3\n      swap2\n      pop\n      pop\n      jump\t// out\n        /* \"#utility.yul\":2903:3878   */\n    tag_15:\n        /* \"#utility.yul\":2998:3004   */\n      0x00\n        /* \"#utility.yul\":3006:3012   */\n      dup1\n        /* \"#utility.yul\":3014:3020   */\n      0x00\n        /* \"#utility.yul\":3063:3065   */\n      0x60\n        /* \"#utility.yul\":3051:3060   */\n      dup5\n        /* \"#utility.yul\":3042:3049   */\n      dup7\n        /* \"#utility.yul\":3038:3061   */\n      sub\n        /* \"#utility.yul\":3034:3066   */\n      slt\n        /* \"#utility.yul\":3031:3150   */\n      iszero\n      tag_392\n      jumpi\n        /* \"#utility.yul\":3069:3148   */\n      tag_393\n      tag_296\n      jump\t// in\n    tag_393:\n        /* \"#utility.yul\":3031:3150   */\n    tag_392:\n        /* \"#utility.yul\":3189:3190   */\n      0x00\n        /* \"#utility.yul\":3214:3267   */\n      tag_394\n        /* \"#utility.yul\":3259:3266   */\n      dup7\n        /* \"#utility.yul\":3250:3256   */\n      dup3\n        /* \"#utility.yul\":3239:3248   */\n      dup8\n        /* \"#utility.yul\":3235:3257   */\n      add\n        /* \"#utility.yul\":3214:3267   */\n      tag_300\n      jump\t// in\n    tag_394:\n        /* \"#utility.yul\":3204:3267   */\n      swap4\n      pop\n        /* \"#utility.yul\":3160:3277   */\n      pop\n        /* \"#utility.yul\":3344:3346   */\n      0x20\n        /* \"#utility.yul\":3333:3342   */\n      dup5\n        /* \"#utility.yul\":3329:3347   */\n      add\n        /* \"#utility.yul\":3316:3348   */\n      calldataload\n        /* \"#utility.yul\":3375:3393   */\n      0xffffffffffffffff\n        /* \"#utility.yul\":3367:3373   */\n      dup2\n        /* \"#utility.yul\":3364:3394   */\n      gt\n        /* \"#utility.yul\":3361:3478   */\n      iszero\n      tag_395\n      jumpi\n        /* \"#utility.yul\":3397:3476   */\n      tag_396\n      tag_297\n      jump\t// in\n    tag_396:\n        /* \"#utility.yul\":3361:3478   */\n    tag_395:\n        /* \"#utility.yul\":3502:3564   */\n      tag_397\n        /* \"#utility.yul\":3556:3563   */\n      dup7\n        /* \"#utility.yul\":3547:3553   */\n      dup3\n        /* \"#utility.yul\":3536:3545   */\n      dup8\n        /* \"#utility.yul\":3532:3554   */\n      add\n        /* \"#utility.yul\":3502:3564   */\n      tag_309\n      jump\t// in\n    tag_397:\n        /* \"#utility.yul\":3492:3564   */\n      swap3\n      pop\n        /* \"#utility.yul\":3287:3574   */\n      pop\n        /* \"#utility.yul\":3641:3643   */\n      0x40\n        /* \"#utility.yul\":3630:3639   */\n      dup5\n        /* \"#utility.yul\":3626:3644   */\n      add\n        /* \"#utility.yul\":3613:3645   */\n      calldataload\n        /* \"#utility.yul\":3672:3690   */\n      0xffffffffffffffff\n        /* \"#utility.yul\":3664:3670   */\n      dup2\n        /* \"#utility.yul\":3661:3691   */\n      gt\n        /* \"#utility.yul\":3658:3775   */\n      iszero\n      tag_398\n      jumpi\n        /* \"#utility.yul\":3694:3773   */\n      tag_399\n      tag_297\n      jump\t// in\n    tag_399:\n        /* \"#utility.yul\":3658:3775   */\n    tag_398:\n        /* \"#utility.yul\":3799:3861   */\n      tag_400\n        /* \"#utility.yul\":3853:3860   */\n      dup7\n        /* \"#utility.yul\":3844:3850   */\n      dup3\n        /* \"#utility.yul\":3833:3842   */\n      dup8\n        /* \"#utility.yul\":3829:3851   */\n      add\n        /* \"#utility.yul\":3799:3861   */\n      tag_309\n      jump\t// in\n    tag_400:\n        /* \"#utility.yul\":3789:3861   */\n      swap2\n      pop\n        /* \"#utility.yul\":3584:3871   */\n      pop\n        /* \"#utility.yul\":2903:3878   */\n      swap3\n      pop\n      swap3\n      pop\n      swap3\n      jump\t// out\n        /* \"#utility.yul\":3884:3982   */\n    tag_310:\n        /* \"#utility.yul\":3935:3941   */\n      0x00\n        /* \"#utility.yul\":3969:3974   */\n      dup2\n        /* \"#utility.yul\":3963:3975   */\n      mload\n        /* \"#utility.yul\":3953:3975   */\n      swap1\n      pop\n        /* \"#utility.yul\":3884:3982   */\n      swap2\n      swap1\n      pop\n      jump\t// out\n        /* \"#utility.yul\":3988:4156   */\n    tag_311:\n        /* \"#utility.yul\":4071:4082   */\n      0x00\n        /* \"#utility.yul\":4105:4111   */\n      dup3\n        /* \"#utility.yul\":4100:4103   */\n      dup3\n        /* \"#utility.yul\":4093:4112   */\n      mstore\n        /* \"#utility.yul\":4145:4149   */\n      0x20\n        /* \"#utility.yul\":4140:4143   */\n      dup3\n        /* \"#utility.yul\":4136:4150   */\n      add\n        /* \"#utility.yul\":4121:4150   */\n      swap1\n      pop\n        /* \"#utility.yul\":3988:4156   */\n      swap3\n      swap2\n      pop\n      pop\n      jump\t// out\n        /* \"#utility.yul\":4162:4408   */\n    tag_312:\n        /* \"#utility.yul\":4243:4244   */\n      0x00\n        /* \"#utility.yul\":4253:4366   */\n    tag_404:\n        /* \"#utility.yul\":4267:4273   */\n      dup4\n        /* \"#utility.yul\":4264:4265   */\n      dup2\n        /* \"#utility.yul\":4261:4274   */\n      lt\n        /* \"#utility.yul\":4253:4366   */\n      iszero\n      tag_406\n      jumpi\n        /* \"#utility.yul\":4352:4353   */\n      dup1\n        /* \"#utility.yul\":4347:4350   */\n      dup3\n        /* \"#utility.yul\":4343:4354   */\n      add\n        /* \"#utility.yul\":4337:4355   */\n      mload\n        /* \"#utility.yul\":4333:4334   */\n      dup2\n        /* \"#utility.yul\":4328:4331   */\n      dup5\n        /* \"#utility.yul\":4324:4335   */\n      add\n        /* \"#utility.yul\":4317:4356   */\n      mstore\n        /* \"#utility.yul\":4289:4291   */\n      0x20\n        /* \"#utility.yul\":4286:4287   */\n      dup2\n        /* \"#utility.yul\":4282:4292   */\n      add\n        /* \"#utility.yul\":4277:4292   */\n      swap1\n      pop\n        /* \"#utility.yul\":4253:4366   */\n      jump(tag_404)\n    tag_406:\n        /* \"#utility.yul\":4400:4401   */\n      0x00\n        /* \"#utility.yul\":4391:4397   */\n      dup5\n        /* \"#utility.yul\":4386:4389   */\n      dup5\n        /* \"#utility.yul\":4382:4398   */\n      add\n        /* \"#utility.yul\":4375:4402   */\n      mstore\n        /* \"#utility.yul\":4224:4408   */\n      pop\n        /* \"#utility.yul\":4162:4408   */\n      pop\n      pop\n      pop\n      jump\t// out\n        /* \"#utility.yul\":4414:4787   */\n    tag_313:\n        /* \"#utility.yul\":4500:4503   */\n      0x00\n        /* \"#utility.yul\":4528:4566   */\n      tag_408\n        /* \"#utility.yul\":4560:4565   */\n      dup3\n        /* \"#utility.yul\":4528:4566   */\n      tag_310\n      jump\t// in\n    tag_408:\n        /* \"#utility.yul\":4582:4652   */\n      tag_409\n        /* \"#utility.yul\":4645:4651   */\n      dup2\n        /* \"#utility.yul\":4640:4643   */\n      dup6\n        /* \"#utility.yul\":4582:4652   */\n      tag_311\n      jump\t// in\n    tag_409:\n        /* \"#utility.yul\":4575:4652   */\n      swap4\n      pop\n        /* \"#utility.yul\":4661:4726   */\n      tag_410\n        /* \"#utility.yul\":4719:4725   */\n      dup2\n        /* \"#utility.yul\":4714:4717   */\n      dup6\n        /* \"#utility.yul\":4707:4711   */\n      0x20\n        /* \"#utility.yul\":4700:4705   */\n      dup7\n        /* \"#utility.yul\":4696:4712   */\n      add\n        /* \"#utility.yul\":4661:4726   */\n      tag_312\n      jump\t// in\n    tag_410:\n        /* \"#utility.yul\":4751:4780   */\n      tag_411\n        /* \"#utility.yul\":4773:4779   */\n      dup2\n        /* \"#utility.yul\":4751:4780   */\n      tag_303\n      jump\t// in\n    tag_411:\n        /* \"#utility.yul\":4746:4749   */\n      dup5\n        /* \"#utility.yul\":4742:4781   */\n      add\n        /* \"#utility.yul\":4735:4781   */\n      swap2\n      pop\n        /* \"#utility.yul\":4504:4787   */\n      pop\n        /* \"#utility.yul\":4414:4787   */\n      swap3\n      swap2\n      pop\n      pop\n      jump\t// out\n        /* \"#utility.yul\":4793:5102   */\n    tag_20:\n        /* \"#utility.yul\":4904:4908   */\n      0x00\n        /* \"#utility.yul\":4942:4944   */\n      0x20\n        /* \"#utility.yul\":4931:4940   */\n      dup3\n        /* \"#utility.yul\":4927:4945   */\n      add\n        /* \"#utility.yul\":4919:4945   */\n      swap1\n      pop\n        /* \"#utility.yul\":4991:5000   */\n      dup2\n        /* \"#utility.yul\":4985:4989   */\n      dup2\n        /* \"#utility.yul\":4981:5001   */\n      sub\n        /* \"#utility.yul\":4977:4978   */\n      0x00\n        /* \"#utility.yul\":4966:4975   */\n      dup4\n        /* \"#utility.yul\":4962:4979   */\n      add\n        /* \"#utility.yul\":4955:5002   */\n      mstore\n        /* \"#utility.yul\":5019:5095   */\n      tag_413\n        /* \"#utility.yul\":5090:5094   */\n      dup2\n        /* \"#utility.yul\":5081:5087   */\n      dup5\n        /* \"#utility.yul\":5019:5095   */\n      tag_313\n      jump\t// in\n    tag_413:\n        /* \"#utility.yul\":5011:5095   */\n      swap1\n      pop\n        /* \"#utility.yul\":4793:5102   */\n      swap3\n      swap2\n      pop\n      pop\n      jump\t// out\n        /* \"#utility.yul\":5108:5207   */\n    tag_314:\n        /* \"#utility.yul\":5160:5166   */\n      0x00\n        /* \"#utility.yul\":5194:5199   */\n      dup2\n        /* \"#utility.yul\":5188:5200   */\n      mload\n        /* \"#utility.yul\":5178:5200   */\n      swap1\n      pop\n        /* \"#utility.yul\":5108:5207   */\n      swap2\n      swap1\n      pop\n      jump\t// out\n        /* \"#utility.yul\":5213:5382   */\n    tag_315:\n        /* \"#utility.yul\":5297:5308   */\n      0x00\n        /* \"#utility.yul\":5331:5337   */\n      dup3\n        /* \"#utility.yul\":5326:5329   */\n      dup3\n        /* \"#utility.yul\":5319:5338   */\n      mstore\n        /* \"#utility.yul\":5371:5375   */\n      0x20\n        /* \"#utility.yul\":5366:5369   */\n      dup3\n        /* \"#utility.yul\":5362:5376   */\n      add\n        /* \"#utility.yul\":5347:5376   */\n      swap1\n      pop\n        /* \"#utility.yul\":5213:5382   */\n      swap3\n      swap2\n      pop\n      pop\n      jump\t// out\n        /* \"#utility.yul\":5388:5765   */\n    tag_316:\n        /* \"#utility.yul\":5476:5479   */\n      0x00\n        /* \"#utility.yul\":5504:5543   */\n      tag_417\n        /* \"#utility.yul\":5537:5542   */\n      dup3\n        /* \"#utility.yul\":5504:5543   */\n      tag_314\n      jump\t// in\n    tag_417:\n        /* \"#utility.yul\":5559:5630   */\n      tag_418\n        /* \"#utility.yul\":5623:5629   */\n      dup2\n        /* \"#utility.yul\":5618:5621   */\n      dup6\n        /* \"#utility.yul\":5559:5630   */\n      tag_315\n      jump\t// in\n    tag_418:\n        /* \"#utility.yul\":5552:5630   */\n      swap4\n      pop\n        /* \"#utility.yul\":5639:5704   */\n      tag_419\n        /* \"#utility.yul\":5697:5703   */\n      dup2\n        /* \"#utility.yul\":5692:5695   */\n      dup6\n        /* \"#utility.yul\":5685:5689   */\n      0x20\n        /* \"#utility.yul\":5678:5683   */\n      dup7\n        /* \"#utility.yul\":5674:5690   */\n      add\n        /* \"#utility.yul\":5639:5704   */\n      tag_312\n      jump\t// in\n    tag_419:\n        /* \"#utility.yul\":5729:5758   */\n      tag_420\n        /* \"#utility.yul\":5751:5757   */\n      dup2\n        /* \"#utility.yul\":5729:5758   */\n      tag_303\n      jump\t// in\n    tag_420:\n        /* \"#utility.yul\":5724:5727   */\n      dup5\n        /* \"#utility.yul\":5720:5759   */\n      add\n        /* \"#utility.yul\":5713:5759   */\n      swap2\n      pop\n        /* \"#utility.yul\":5480:5765   */\n      pop\n        /* \"#utility.yul\":5388:5765   */\n      swap3\n      swap2\n      pop\n      pop\n      jump\t// out\n        /* \"#utility.yul\":5771:6084   */\n    tag_27:\n        /* \"#utility.yul\":5884:5888   */\n      0x00\n        /* \"#utility.yul\":5922:5924   */\n      0x20\n        /* \"#utility.yul\":5911:5920   */\n      dup3\n        /* \"#utility.yul\":5907:5925   */\n      add\n        /* \"#utility.yul\":5899:5925   */\n      swap1\n      pop\n        /* \"#utility.yul\":5971:5980   */\n      dup2\n        /* \"#utility.yul\":5965:5969   */\n      dup2\n        /* \"#utility.yul\":5961:5981   */\n      sub\n        /* \"#utility.yul\":5957:5958   */\n      0x00\n        /* \"#utility.yul\":5946:5955   */\n      dup4\n        /* \"#utility.yul\":5942:5959   */\n      add\n        /* \"#utility.yul\":5935:5982   */\n      mstore\n        /* \"#utility.yul\":5999:6077   */\n      tag_422\n        /* \"#utility.yul\":6072:6076   */\n      dup2\n        /* \"#utility.yul\":6063:6069   */\n      dup5\n        /* \"#utility.yul\":5999:6077   */\n      tag_316\n      jump\t// in\n    tag_422:\n        /* \"#utility.yul\":5991:6077   */\n      swap1\n      pop\n        /* \"#utility.yul\":5771:6084   */\n      swap3\n      swap2\n      pop\n      pop\n      jump\t// out\n        /* \"#utility.yul\":6090:6191   */\n    tag_317:\n        /* \"#utility.yul\":6126:6133   */\n      0x00\n        /* \"#utility.yul\":6166:6184   */\n      0xffffffffffffffff\n        /* \"#utility.yul\":6159:6164   */\n      dup3\n        /* \"#utility.yul\":6155:6185   */\n      and\n        /* \"#utility.yul\":6144:6185   */\n      swap1\n      pop\n        /* \"#utility.yul\":6090:6191   */\n      swap2\n      swap1\n      pop\n      jump\t// out\n        /* \"#utility.yul\":6197:6312   */\n    tag_318:\n        /* \"#utility.yul\":6282:6305   */\n      tag_425\n        /* \"#utility.yul\":6299:6304   */\n      dup2\n        /* \"#utility.yul\":6282:6305   */\n      tag_317\n      jump\t// in\n    tag_425:\n        /* \"#utility.yul\":6277:6280   */\n      dup3\n        /* \"#utility.yul\":6270:6306   */\n      mstore\n        /* \"#utility.yul\":6197:6312   */\n      pop\n      pop\n      jump\t// out\n        /* \"#utility.yul\":6318:6536   */\n    tag_31:\n        /* \"#utility.yul\":6409:6413   */\n      0x00\n        /* \"#utility.yul\":6447:6449   */\n      0x20\n        /* \"#utility.yul\":6436:6445   */\n      dup3\n        /* \"#utility.yul\":6432:6450   */\n      add\n        /* \"#utility.yul\":6424:6450   */\n      swap1\n      pop\n        /* \"#utility.yul\":6460:6529   */\n      tag_427\n        /* \"#utility.yul\":6526:6527   */\n      0x00\n        /* \"#utility.yul\":6515:6524   */\n      dup4\n        /* \"#utility.yul\":6511:6528   */\n      add\n        /* \"#utility.yul\":6502:6508   */\n      dup5\n        /* \"#utility.yul\":6460:6529   */\n      tag_318\n      jump\t// in\n    tag_427:\n        /* \"#utility.yul\":6318:6536   */\n      swap3\n      swap2\n      pop\n      pop\n      jump\t// out\n        /* \"#utility.yul\":6542:6850   */\n    tag_319:\n        /* \"#utility.yul\":6604:6608   */\n      0x00\n        /* \"#utility.yul\":6694:6712   */\n      0xffffffffffffffff\n        /* \"#utility.yul\":6686:6692   */\n      dup3\n        /* \"#utility.yul\":6683:6713   */\n      gt\n        /* \"#utility.yul\":6680:6736   */\n      iszero\n      tag_429\n      jumpi\n        /* \"#utility.yul\":6716:6734   */\n      tag_430\n      tag_70\n      jump\t// in\n    tag_430:\n        /* \"#utility.yul\":6680:6736   */\n    tag_429:\n        /* \"#utility.yul\":6754:6783   */\n      tag_431\n        /* \"#utility.yul\":6776:6782   */\n      dup3\n        /* \"#utility.yul\":6754:6783   */\n      tag_303\n      jump\t// in\n    tag_431:\n        /* \"#utility.yul\":6746:6783   */\n      swap1\n      pop\n        /* \"#utility.yul\":6838:6842   */\n      0x20\n        /* \"#utility.yul\":6832:6836   */\n      dup2\n        /* \"#utility.yul\":6828:6843   */\n      add\n        /* \"#utility.yul\":6820:6843   */\n      swap1\n      pop\n        /* \"#utility.yul\":6542:6850   */\n      swap2\n      swap1\n      pop\n      jump\t// out\n        /* \"#utility.yul\":6856:7281   */\n    tag_320:\n        /* \"#utility.yul\":6934:6939   */\n      0x00\n        /* \"#utility.yul\":6959:7025   */\n      tag_433\n        /* \"#utility.yul\":6975:7024   */\n      tag_434\n        /* \"#utility.yul\":7017:7023   */\n      dup5\n        /* \"#utility.yul\":6975:7024   */\n      tag_319\n      jump\t// in\n    tag_434:\n        /* \"#utility.yul\":6959:7025   */\n      tag_305\n      jump\t// in\n    tag_433:\n        /* \"#utility.yul\":6950:7025   */\n      swap1\n      pop\n        /* \"#utility.yul\":7048:7054   */\n      dup3\n        /* \"#utility.yul\":7041:7046   */\n      dup2\n        /* \"#utility.yul\":7034:7055   */\n      mstore\n        /* \"#utility.yul\":7086:7090   */\n      0x20\n        /* \"#utility.yul\":7079:7084   */\n      dup2\n        /* \"#utility.yul\":7075:7091   */\n      add\n        /* \"#utility.yul\":7124:7127   */\n      dup5\n        /* \"#utility.yul\":7115:7121   */\n      dup5\n        /* \"#utility.yul\":7110:7113   */\n      dup5\n        /* \"#utility.yul\":7106:7122   */\n      add\n        /* \"#utility.yul\":7103:7128   */\n      gt\n        /* \"#utility.yul\":7100:7212   */\n      iszero\n      tag_435\n      jumpi\n        /* \"#utility.yul\":7131:7210   */\n      tag_436\n      tag_302\n      jump\t// in\n    tag_436:\n        /* \"#utility.yul\":7100:7212   */\n    tag_435:\n        /* \"#utility.yul\":7221:7275   */\n      tag_437\n        /* \"#utility.yul\":7268:7274   */\n      dup5\n        /* \"#utility.yul\":7263:7266   */\n      dup3\n        /* \"#utility.yul\":7258:7261   */\n      dup6\n        /* \"#utility.yul\":7221:7275   */\n      tag_307\n      jump\t// in\n    tag_437:\n        /* \"#utility.yul\":6940:7281   */\n      pop\n        /* \"#utility.yul\":6856:7281   */\n      swap4\n      swap3\n      pop\n      pop\n      pop\n      jump\t// out\n        /* \"#utility.yul\":7301:7641   */\n    tag_321:\n        /* \"#utility.yul\":7357:7362   */\n      0x00\n        /* \"#utility.yul\":7406:7409   */\n      dup3\n        /* \"#utility.yul\":7399:7403   */\n      0x1f\n        /* \"#utility.yul\":7391:7397   */\n      dup4\n        /* \"#utility.yul\":7387:7404   */\n      add\n        /* \"#utility.yul\":7383:7410   */\n      slt\n        /* \"#utility.yul\":7373:7495   */\n      tag_439\n      jumpi\n        /* \"#utility.yul\":7414:7493   */\n      tag_440\n      tag_301\n      jump\t// in\n    tag_440:\n        /* \"#utility.yul\":7373:7495   */\n    tag_439:\n        /* \"#utility.yul\":7531:7537   */\n      dup2\n        /* \"#utility.yul\":7518:7538   */\n      calldataload\n        /* \"#utility.yul\":7556:7635   */\n      tag_441\n        /* \"#utility.yul\":7631:7634   */\n      dup5\n        /* \"#utility.yul\":7623:7629   */\n      dup3\n        /* \"#utility.yul\":7616:7620   */\n      0x20\n        /* \"#utility.yul\":7608:7614   */\n      dup7\n        /* \"#utility.yul\":7604:7621   */\n      add\n        /* \"#utility.yul\":7556:7635   */\n      tag_320\n      jump\t// in\n    tag_441:\n        /* \"#utility.yul\":7547:7635   */\n      swap2\n      pop\n        /* \"#utility.yul\":7363:7641   */\n      pop\n        /* \"#utility.yul\":7301:7641   */\n      swap3\n      swap2\n      pop\n      pop\n      jump\t// out\n        /* \"#utility.yul\":7647:8156   */\n    tag_34:\n        /* \"#utility.yul\":7716:7722   */\n      0x00\n        /* \"#utility.yul\":7765:7767   */\n      0x20\n        /* \"#utility.yul\":7753:7762   */\n      dup3\n        /* \"#utility.yul\":7744:7751   */\n      dup5\n        /* \"#utility.yul\":7740:7763   */\n      sub\n        /* \"#utility.yul\":7736:7768   */\n      slt\n        /* \"#utility.yul\":7733:7852   */\n      iszero\n      tag_443\n      jumpi\n        /* \"#utility.yul\":7771:7850   */\n      tag_444\n      tag_296\n      jump\t// in\n    tag_444:\n        /* \"#utility.yul\":7733:7852   */\n    tag_443:\n        /* \"#utility.yul\":7919:7920   */\n      0x00\n        /* \"#utility.yul\":7908:7917   */\n      dup3\n        /* \"#utility.yul\":7904:7921   */\n      add\n        /* \"#utility.yul\":7891:7922   */\n      calldataload\n        /* \"#utility.yul\":7949:7967   */\n      0xffffffffffffffff\n        /* \"#utility.yul\":7941:7947   */\n      dup2\n        /* \"#utility.yul\":7938:7968   */\n      gt\n        /* \"#utility.yul\":7935:8052   */\n      iszero\n      tag_445\n      jumpi\n        /* \"#utility.yul\":7971:8050   */\n      tag_446\n      tag_297\n      jump\t// in\n    tag_446:\n        /* \"#utility.yul\":7935:8052   */\n    tag_445:\n        /* \"#utility.yul\":8076:8139   */\n      tag_447\n        /* \"#utility.yul\":8131:8138   */\n      dup5\n        /* \"#utility.yul\":8122:8128   */\n      dup3\n        /* \"#utility.yul\":8111:8120   */\n      dup6\n        /* \"#utility.yul\":8107:8129   */\n      add\n        /* \"#utility.yul\":8076:8139   */\n      tag_321\n      jump\t// in\n    tag_447:\n        /* \"#utility.yul\":8066:8139   */\n      swap2\n      pop\n        /* \"#utility.yul\":7862:8149   */\n      pop\n        /* \"#utility.yul\":7647:8156   */\n      swap3\n      swap2\n      pop\n      pop\n      jump\t// out\n        /* \"#utility.yul\":8162:8280   */\n    tag_322:\n        /* \"#utility.yul\":8249:8273   */\n      tag_449\n        /* \"#utility.yul\":8267:8272   */\n      dup2\n        /* \"#utility.yul\":8249:8273   */\n      tag_298\n      jump\t// in\n    tag_449:\n        /* \"#utility.yul\":8244:8247   */\n      dup3\n        /* \"#utility.yul\":8237:8274   */\n      mstore\n        /* \"#utility.yul\":8162:8280   */\n      pop\n      pop\n      jump\t// out\n        /* \"#utility.yul\":8286:8508   */\n    tag_37:\n        /* \"#utility.yul\":8379:8383   */\n      0x00\n        /* \"#utility.yul\":8417:8419   */\n      0x20\n        /* \"#utility.yul\":8406:8415   */\n      dup3\n        /* \"#utility.yul\":8402:8420   */\n      add\n        /* \"#utility.yul\":8394:8420   */\n      swap1\n      pop\n        /* \"#utility.yul\":8430:8501   */\n      tag_451\n        /* \"#utility.yul\":8498:8499   */\n      0x00\n        /* \"#utility.yul\":8487:8496   */\n      dup4\n        /* \"#utility.yul\":8483:8500   */\n      add\n        /* \"#utility.yul\":8474:8480   */\n      dup5\n        /* \"#utility.yul\":8430:8501   */\n      tag_322\n      jump\t// in\n    tag_451:\n        /* \"#utility.yul\":8286:8508   */\n      swap3\n      swap2\n      pop\n      pop\n      jump\t// out\n        /* \"#utility.yul\":8514:8694   */\n    tag_323:\n        /* \"#utility.yul\":8562:8639   */\n      0x4e487b7100000000000000000000000000000000000000000000000000000000\n        /* \"#utility.yul\":8559:8560   */\n      0x00\n        /* \"#utility.yul\":8552:8640   */\n      mstore\n        /* \"#utility.yul\":8659:8663   */\n      0x22\n        /* \"#utility.yul\":8656:8657   */\n      0x04\n        /* \"#utility.yul\":8649:8664   */\n      mstore\n        /* \"#utility.yul\":8683:8687   */\n      0x24\n        /* \"#utility.yul\":8680:8681   */\n      0x00\n        /* \"#utility.yul\":8673:8688   */\n      revert\n        /* \"#utility.yul\":8700:9020   */\n    tag_52:\n        /* \"#utility.yul\":8744:8750   */\n      0x00\n        /* \"#utility.yul\":8781:8782   */\n      0x02\n        /* \"#utility.yul\":8775:8779   */\n      dup3\n        /* \"#utility.yul\":8771:8783   */\n      div\n        /* \"#utility.yul\":8761:8783   */\n      swap1\n      pop\n        /* \"#utility.yul\":8828:8829   */\n      0x01\n        /* \"#utility.yul\":8822:8826   */\n      dup3\n        /* \"#utility.yul\":8818:8830   */\n      and\n        /* \"#utility.yul\":8849:8867   */\n      dup1\n        /* \"#utility.yul\":8839:8920   */\n      tag_454\n      jumpi\n        /* \"#utility.yul\":8905:8909   */\n      0x7f\n        /* \"#utility.yul\":8897:8903   */\n      dup3\n        /* \"#utility.yul\":8893:8910   */\n      and\n        /* \"#utility.yul\":8883:8910   */\n      swap2\n      pop\n        /* \"#utility.yul\":8839:8920   */\n    tag_454:\n        /* \"#utility.yul\":8967:8969   */\n      0x20\n        /* \"#utility.yul\":8959:8965   */\n      dup3\n        /* \"#utility.yul\":8956:8970   */\n      lt\n        /* \"#utility.yul\":8936:8954   */\n      dup2\n        /* \"#utility.yul\":8933:8971   */\n      sub\n        /* \"#utility.yul\":8930:9014   */\n      tag_455\n      jumpi\n        /* \"#utility.yul\":8986:9004   */\n      tag_456\n      tag_323\n      jump\t// in\n    tag_456:\n        /* \"#utility.yul\":8930:9014   */\n    tag_455:\n        /* \"#utility.yul\":8751:9020   */\n      pop\n        /* \"#utility.yul\":8700:9020   */\n      swap2\n      swap1\n      pop\n      jump\t// out\n        /* \"#utility.yul\":9026:9206   */\n    tag_75:\n        /* \"#utility.yul\":9074:9151   */\n      0x4e487b7100000000000000000000000000000000000000000000000000000000\n        /* \"#utility.yul\":9071:9072   */\n      0x00\n        /* \"#utility.yul\":9064:9152   */\n      mstore\n        /* \"#utility.yul\":9171:9175   */\n      0x32\n        /* \"#utility.yul\":9168:9169   */\n      0x04\n        /* \"#utility.yul\":9161:9176   */\n      mstore\n        /* \"#utility.yul\":9195:9199   */\n      0x24\n        /* \"#utility.yul\":9192:9193   */\n      0x00\n        /* \"#utility.yul\":9185:9200   */\n      revert\n        /* \"#utility.yul\":9212:9353   */\n    tag_324:\n        /* \"#utility.yul\":9261:9265   */\n      0x00\n        /* \"#utility.yul\":9284:9287   */\n      dup2\n        /* \"#utility.yul\":9276:9287   */\n      swap1\n      pop\n        /* \"#utility.yul\":9307:9310   */\n      dup2\n        /* \"#utility.yul\":9304:9305   */\n      0x00\n        /* \"#utility.yul\":9297:9311   */\n      mstore\n        /* \"#utility.yul\":9341:9345   */\n      0x20\n        /* \"#utility.yul\":9338:9339   */\n      0x00\n        /* \"#utility.yul\":9328:9346   */\n      keccak256\n        /* \"#utility.yul\":9320:9346   */\n      swap1\n      pop\n        /* \"#utility.yul\":9212:9353   */\n      swap2\n      swap1\n      pop\n      jump\t// out\n        /* \"#utility.yul\":9359:9452   */\n    tag_325:\n        /* \"#utility.yul\":9396:9402   */\n      0x00\n        /* \"#utility.yul\":9443:9445   */\n      0x20\n        /* \"#utility.yul\":9438:9440   */\n      0x1f\n        /* \"#utility.yul\":9431:9436   */\n      dup4\n        /* \"#utility.yul\":9427:9441   */\n      add\n        /* \"#utility.yul\":9423:9446   */\n      div\n        /* \"#utility.yul\":9413:9446   */\n      swap1\n      pop\n        /* \"#utility.yul\":9359:9452   */\n      swap2\n      swap1\n      pop\n      jump\t// out\n        /* \"#utility.yul\":9458:9565   */\n    tag_326:\n        /* \"#utility.yul\":9502:9510   */\n      0x00\n        /* \"#utility.yul\":9552:9557   */\n      dup3\n        /* \"#utility.yul\":9546:9550   */\n      dup3\n        /* \"#utility.yul\":9542:9558   */\n      shl\n        /* \"#utility.yul\":9521:9558   */\n      swap1\n      pop\n        /* \"#utility.yul\":9458:9565   */\n      swap3\n      swap2\n      pop\n      pop\n      jump\t// out\n        /* \"#utility.yul\":9571:9964   */\n    tag_327:\n        /* \"#utility.yul\":9640:9646   */\n      0x00\n        /* \"#utility.yul\":9690:9691   */\n      0x08\n        /* \"#utility.yul\":9678:9688   */\n      dup4\n        /* \"#utility.yul\":9674:9692   */\n      mul\n        /* \"#utility.yul\":9713:9810   */\n      tag_462\n        /* \"#utility.yul\":9743:9809   */\n      0xffffffffffffffffffffffffffffffffffffffffffffffffffffffffffffffff\n        /* \"#utility.yul\":9732:9741   */\n      dup3\n        /* \"#utility.yul\":9713:9810   */\n      tag_326\n      jump\t// in\n    tag_462:\n        /* \"#utility.yul\":9831:9870   */\n      tag_463\n        /* \"#utility.yul\":9861:9869   */\n      dup7\n        /* \"#utility.yul\":9850:9859   */\n      dup4\n        /* \"#utility.yul\":9831:9870   */\n      tag_326\n      jump\t// in\n    tag_463:\n        /* \"#utility.yul\":9819:9870   */\n      swap6\n      pop\n        /* \"#utility.yul\":9903:9907   */\n      dup1\n        /* \"#utility.yul\":9899:9908   */\n      not\n        /* \"#utility.yul\":9892:9897   */\n      dup5\n        /* \"#utility.yul\":9888:9909   */\n      and\n        /* \"#utility.yul\":9879:9909   */\n      swap4\n      pop\n        /* \"#utility.yul\":9952:9956   */\n      dup1\n        /* \"#utility.yul\":9942:9950   */\n      dup7\n        /* \"#utility.yul\":9938:9957   */\n      and\n        /* \"#utility.yul\":9931:9936   */\n      dup5\n        /* \"#utility.yul\":9928:9958   */\n      or\n        /* \"#utility.yul\":9918:9958   */\n      swap3\n      pop\n        /* \"#utility.yul\":9647:9964   */\n      pop\n      pop\n        /* \"#utility.yul\":9571:9964   */\n      swap4\n      swap3\n      pop\n      pop\n      pop\n      jump\t// out\n        /* \"#utility.yul\":9970:10047   */\n    tag_328:\n        /* \"#utility.yul\":10007:10014   */\n      0x00\n        /* \"#utility.yul\":10036:10041   */\n      dup2\n        /* \"#utility.yul\":10025:10041   */\n      swap1\n      pop\n        /* \"#utility.yul\":9970:10047   */\n      swap2\n      swap1\n      pop\n      jump\t// out\n        /* \"#utility.yul\":10053:10113   */\n    tag_329:\n        /* \"#utility.yul\":10081:10084   */\n      0x00\n        /* \"#utility.yul\":10102:10107   */\n      dup2\n        /* \"#utility.yul\":10095:10107   */\n      swap1\n      pop\n        /* \"#utility.yul\":10053:10113   */\n      swap2\n      swap1\n      pop\n      jump\t// out\n        /* \"#utility.yul\":10119:10261   */\n    tag_330:\n        /* \"#utility.yul\":10169:10178   */\n      0x00\n        /* \"#utility.yul\":10202:10255   */\n      tag_467\n        /* \"#utility.yul\":10220:10254   */\n      tag_468\n        /* \"#utility.yul\":10229:10253   */\n      tag_469\n        /* \"#utility.yul\":10247:10252   */\n      dup5\n        /* \"#utility.yul\":10229:10253   */\n      tag_328\n      jump\t// in\n    tag_469:\n        /* \"#utility.yul\":10220:10254   */\n      tag_329\n      jump\t// in\n    tag_468:\n        /* \"#utility.yul\":10202:10255   */\n      tag_328\n      jump\t// in\n    tag_467:\n        /* \"#utility.yul\":10189:10255   */\n      swap1\n      pop\n        /* \"#utility.yul\":10119:10261   */\n      swap2\n      swap1\n      pop\n      jump\t// out\n        /* \"#utility.yul\":10267:10342   */\n    tag_331:\n        /* \"#utility.yul\":10310:10313   */\n      0x00\n        /* \"#utility.yul\":10331:10336   */\n      dup2\n        /* \"#utility.yul\":10324:10336   */\n      swap1\n      pop\n        /* \"#utility.yul\":10267:10342   */\n      swap2\n      swap1\n      pop\n      jump\t// out\n        /* \"#utility.yul\":10348:10617   */\n    tag_332:\n        /* \"#utility.yul\":10458:10497   */\n      tag_472\n        /* \"#utility.yul\":10489:10496   */\n      dup4\n        /* \"#utility.yul\":10458:10497   */\n      tag_330\n      jump\t// in\n    tag_472:\n        /* \"#utility.yul\":10519:10610   */\n      tag_473\n        /* \"#utility.yul\":10568:10609   */\n      tag_474\n        /* \"#utility.yul\":10592:10608   */\n      dup3\n        /* \"#utility.yul\":10568:10609   */\n      tag_331\n      jump\t// in\n    tag_474:\n        /* \"#utility.yul\":10560:10566   */\n      dup5\n        /* \"#utility.yul\":10553:10557   */\n      dup5\n        /* \"#utility.yul\":10547:10558   */\n      sload\n        /* \"#utility.yul\":10519:10610   */\n      tag_327\n      jump\t// in\n    tag_473:\n        /* \"#utility.yul\":10513:10517   */\n      dup3\n        /* \"#utility.yul\":10506:10611   */\n      sstore\n        /* \"#utility.yul\":10424:10617   */\n      pop\n        /* \"#utility.yul\":10348:10617   */\n      pop\n      pop\n      pop\n      jump\t// out\n        /* \"#utility.yul\":10623:10696   */\n    tag_333:\n        /* \"#utility.yul\":10668:10671   */\n      0x00\n        /* \"#utility.yul\":10623:10696   */\n      swap1\n      jump\t// out\n        /* \"#utility.yul\":10702:10891   */\n    tag_334:\n        /* \"#utility.yul\":10779:10811   */\n      tag_477\n      tag_333\n      jump\t// in\n    tag_477:\n        /* \"#utility.yul\":10820:10885   */\n      tag_478\n        /* \"#utility.yul\":10878:10884   */\n      dup2\n        /* \"#utility.yul\":10870:10876   */\n      dup5\n        /* \"#utility.yul\":10864:10868   */\n      dup5\n        /* \"#utility.yul\":10820:10885   */\n      tag_332\n      jump\t// in\n    tag_478:\n        /* \"#utility.yul\":10755:10891   */\n      pop\n        /* \"#utility.yul\":10702:10891   */\n      pop\n      pop\n      jump\t// out\n        /* \"#utility.yul\":10897:11083   */\n    tag_335:\n        /* \"#utility.yul\":10957:11077   */\n    tag_480:\n        /* \"#utility.yul\":10974:10977   */\n      dup2\n        /* \"#utility.yul\":10967:10972   */\n      dup2\n        /* \"#utility.yul\":10964:10978   */\n      lt\n        /* \"#utility.yul\":10957:11077   */\n      iszero\n      tag_482\n      jumpi\n        /* \"#utility.yul\":11028:11067   */\n      tag_483\n        /* \"#utility.yul\":11065:11066   */\n      0x00\n        /* \"#utility.yul\":11058:11063   */\n      dup3\n        /* \"#utility.yul\":11028:11067   */\n      tag_334\n      jump\t// in\n    tag_483:\n        /* \"#utility.yul\":11001:11002   */\n      0x01\n        /* \"#utility.yul\":10994:10999   */\n      dup2\n        /* \"#utility.yul\":10990:11003   */\n      add\n        /* \"#utility.yul\":10981:11003   */\n      swap1\n      pop\n        /* \"#utility.yul\":10957:11077   */\n      jump(tag_480)\n    tag_482:\n        /* \"#utility.yul\":10897:11083   */\n      pop\n      pop\n      jump\t// out\n        /* \"#utility.yul\":11089:11632   */\n    tag_336:\n        /* \"#utility.yul\":11190:11192   */\n      0x1f\n        /* \"#utility.yul\":11185:11188   */\n      dup3\n        /* \"#utility.yul\":11182:11193   */\n      gt\n        /* \"#utility.yul\":11179:11625   */\n      iszero\n      tag_485\n      jumpi\n        /* \"#utility.yul\":11224:11262   */\n      tag_486\n        /* \"#utility.yul\":11256:11261   */\n      dup2\n        /* \"#utility.yul\":11224:11262   */\n      tag_324\n      jump\t// in\n    tag_486:\n        /* \"#utility.yul\":11308:11337   */\n      tag_487\n        /* \"#utility.yul\":11326:11336   */\n      dup5\n        /* \"#utility.yul\":11308:11337   */\n      tag_325\n      jump\t// in\n    tag_487:\n        /* \"#utility.yul\":11298:11306   */\n      dup2\n        /* \"#utility.yul\":11294:11338   */\n      add\n        /* \"#utility.yul\":11491:11493   */\n      0x20\n        /* \"#utility.yul\":11479:11489   */\n      dup6\n        /* \"#utility.yul\":11476:11494   */\n      lt\n        /* \"#utility.yul\":11473:11522   */\n      iszero\n      tag_488\n      jumpi\n        /* \"#utility.yul\":11512:11520   */\n      dup2\n        /* \"#utility.yul\":11497:11520   */\n      swap1\n      pop\n        /* \"#utility.yul\":11473:11522   */\n    tag_488:\n        /* \"#utility.yul\":11535:11615   */\n      tag_489\n        /* \"#utility.yul\":11591:11613   */\n      tag_490\n        /* \"#utility.yul\":11609:11612   */\n      dup6\n        /* \"#utility.yul\":11591:11613   */\n      tag_325\n      jump\t// in\n    tag_490:\n        /* \"#utility.yul\":11581:11589   */\n      dup4\n        /* \"#utility.yul\":11577:11614   */\n      add\n        /* \"#utility.yul\":11564:11575   */\n      dup3\n        /* \"#utility.yul\":11535:11615   */\n      tag_335\n      jump\t// in\n    tag_489:\n        /* \"#utility.yul\":11194:11625   */\n      pop\n      pop\n        /* \"#utility.yul\":11179:11625   */\n    tag_485:\n        /* \"#utility.yul\":11089:11632   */\n      pop\n      pop\n      pop\n      jump\t// out\n        /* \"#utility.yul\":11638:11755   */\n    tag_337:\n        /* \"#utility.yul\":11692:11700   */\n      0x00\n        /* \"#utility.yul\":11742:11747   */\n      dup3\n        /* \"#utility.yul\":11736:11740   */\n      dup3\n        /* \"#utility.yul\":11732:11748   */\n      shr\n        /* \"#utility.yul\":11711:11748   */\n      swap1\n      pop\n        /* \"#utility.yul\":11638:11755   */\n      swap3\n      swap2\n      pop\n      pop\n      jump\t// out\n        /* \"#utility.yul\":11761:11930   */\n    tag_338:\n        /* \"#utility.yul\":11805:11811   */\n      0x00\n        /* \"#utility.yul\":11838:11889   */\n      tag_493\n        /* \"#utility.yul\":11886:11887   */\n      0x00\n        /* \"#utility.yul\":11882:11888   */\n      not\n        /* \"#utility.yul\":11874:11879   */\n      dup5\n        /* \"#utility.yul\":11871:11872   */\n      0x08\n        /* \"#utility.yul\":11867:11880   */\n      mul\n        /* \"#utility.yul\":11838:11889   */\n      tag_337\n      jump\t// in\n    tag_493:\n        /* \"#utility.yul\":11834:11890   */\n      not\n        /* \"#utility.yul\":11919:11923   */\n      dup1\n        /* \"#utility.yul\":11913:11917   */\n      dup4\n        /* \"#utility.yul\":11909:11924   */\n      and\n        /* \"#utility.yul\":11899:11924   */\n      swap2\n      pop\n        /* \"#utility.yul\":11812:11930   */\n      pop\n        /* \"#utility.yul\":11761:11930   */\n      swap3\n      swap2\n      pop\n      pop\n      jump\t// out\n        /* \"#utility.yul\":11935:12230   */\n    tag_339:\n        /* \"#utility.yul\":12011:12015   */\n      0x00\n        /* \"#utility.yul\":12157:12186   */\n      tag_495\n        /* \"#utility.yul\":12182:12185   */\n      dup4\n        /* \"#utility.yul\":12176:12180   */\n      dup4\n        /* \"#utility.yul\":12157:12186   */\n      tag_338\n      jump\t// in\n    tag_495:\n        /* \"#utility.yul\":12149:12186   */\n      swap2\n      pop\n        /* \"#utility.yul\":12219:12222   */\n      dup3\n        /* \"#utility.yul\":12216:12217   */\n      0x02\n        /* \"#utility.yul\":12212:12223   */\n      mul\n        /* \"#utility.yul\":12206:12210   */\n      dup3\n        /* \"#utility.yul\":12203:12224   */\n      or\n        /* \"#utility.yul\":12195:12224   */\n      swap1\n      pop\n        /* \"#utility.yul\":11935:12230   */\n      swap3\n      swap2\n      pop\n      pop\n      jump\t// out\n        /* \"#utility.yul\":12235:13630   */\n    tag_93:\n        /* \"#utility.yul\":12352:12389   */\n      tag_497\n        /* \"#utility.yul\":12385:12388   */\n      dup3\n        /* \"#utility.yul\":12352:12389   */\n      tag_314\n      jump\t// in\n    tag_497:\n        /* \"#utility.yul\":12454:12472   */\n      0xffffffffffffffff\n        /* \"#utility.yul\":12446:12452   */\n      dup2\n        /* \"#utility.yul\":12443:12473   */\n      gt\n        /* \"#utility.yul\":12440:12496   */\n      iszero\n      tag_498\n      jumpi\n        /* \"#utility.yul\":12476:12494   */\n      tag_499\n      tag_70\n      jump\t// in\n    tag_499:\n        /* \"#utility.yul\":12440:12496   */\n    tag_498:\n        /* \"#utility.yul\":12520:12558   */\n      tag_500\n        /* \"#utility.yul\":12552:12556   */\n      dup3\n        /* \"#utility.yul\":12546:12557   */\n      sload\n        /* \"#utility.yul\":12520:12558   */\n      tag_52\n      jump\t// in\n    tag_500:\n        /* \"#utility.yul\":12605:12672   */\n      tag_501\n        /* \"#utility.yul\":12665:12671   */\n      dup3\n        /* \"#utility.yul\":12657:12663   */\n      dup3\n        /* \"#utility.yul\":12651:12655   */\n      dup6\n        /* \"#utility.yul\":12605:12672   */\n      tag_336\n      jump\t// in\n    tag_501:\n        /* \"#utility.yul\":12699:12700   */\n      0x00\n        /* \"#utility.yul\":12723:12727   */\n      0x20\n        /* \"#utility.yul\":12710:12727   */\n      swap1\n      pop\n        /* \"#utility.yul\":12755:12757   */\n      0x1f\n        /* \"#utility.yul\":12747:12753   */\n      dup4\n        /* \"#utility.yul\":12744:12758   */\n      gt\n        /* \"#utility.yul\":12772:12773   */\n      0x01\n        /* \"#utility.yul\":12767:13385   */\n      dup2\n      eq\n      tag_503\n      jumpi\n        /* \"#utility.yul\":13429:13430   */\n      0x00\n        /* \"#utility.yul\":13446:13452   */\n      dup5\n        /* \"#utility.yul\":13443:13520   */\n      iszero\n      tag_504\n      jumpi\n        /* \"#utility.yul\":13495:13504   */\n      dup3\n        /* \"#utility.yul\":13490:13493   */\n      dup8\n        /* \"#utility.yul\":13486:13505   */\n      add\n        /* \"#utility.yul\":13480:13506   */\n      mload\n        /* \"#utility.yul\":13471:13506   */\n      swap1\n      pop\n        /* \"#utility.yul\":13443:13520   */\n    tag_504:\n        /* \"#utility.yul\":13546:13613   */\n      tag_505\n        /* \"#utility.yul\":13606:13612   */\n      dup6\n        /* \"#utility.yul\":13599:13604   */\n      dup3\n        /* \"#utility.yul\":13546:13613   */\n      tag_339\n      jump\t// in\n    tag_505:\n        /* \"#utility.yul\":13540:13544   */\n      dup7\n        /* \"#utility.yul\":13533:13614   */\n      sstore\n        /* \"#utility.yul\":13402:13624   */\n      pop\n        /* \"#utility.yul\":12737:13624   */\n      jump(tag_502)\n        /* \"#utility.yul\":12767:13385   */\n    tag_503:\n        /* \"#utility.yul\":12819:12823   */\n      0x1f\n        /* \"#utility.yul\":12815:12824   */\n      not\n        /* \"#utility.yul\":12807:12813   */\n      dup5\n        /* \"#utility.yul\":12803:12825   */\n      and\n        /* \"#utility.yul\":12853:12890   */\n      tag_506\n        /* \"#utility.yul\":12885:12889   */\n      dup7\n        /* \"#utility.yul\":12853:12890   */\n      tag_324\n      jump\t// in\n    tag_506:\n        /* \"#utility.yul\":12912:12913   */\n      0x00\n        /* \"#utility.yul\":12926:13134   */\n    tag_507:\n        /* \"#utility.yul\":12940:12947   */\n      dup3\n        /* \"#utility.yul\":12937:12938   */\n      dup2\n        /* \"#utility.yul\":12934:12948   */\n      lt\n        /* \"#utility.yul\":12926:13134   */\n      iszero\n      tag_509\n      jumpi\n        /* \"#utility.yul\":13019:13028   */\n      dup5\n        /* \"#utility.yul\":13014:13017   */\n      dup10\n        /* \"#utility.yul\":13010:13029   */\n      add\n        /* \"#utility.yul\":13004:13030   */\n      mload\n        /* \"#utility.yul\":12996:13002   */\n      dup3\n        /* \"#utility.yul\":12989:13031   */\n      sstore\n        /* \"#utility.yul\":13070:13071   */\n      0x01\n        /* \"#utility.yul\":13062:13068   */\n      dup3\n        /* \"#utility.yul\":13058:13072   */\n      add\n        /* \"#utility.yul\":13048:13072   */\n      swap2\n      pop\n        /* \"#utility.yul\":13117:13119   */\n      0x20\n        /* \"#utility.yul\":13106:13115   */\n      dup6\n        /* \"#utility.yul\":13102:13120   */\n      add\n        /* \"#utility.yul\":13089:13120   */\n      swap5\n      pop\n        /* \"#utility.yul\":12963:12967   */\n      0x20\n        /* \"#utility.yul\":12960:12961   */\n      dup2\n        /* \"#utility.yul\":12956:12968   */\n      add\n        /* \"#utility.yul\":12951:12968   */\n      swap1\n      pop\n        /* \"#utility.yul\":12926:13134   */\n      jump(tag_507)\n    tag_509:\n        /* \"#utility.yul\":13162:13168   */\n      dup7\n        /* \"#utility.yul\":13153:13160   */\n      dup4\n        /* \"#utility.yul\":13150:13169   */\n      lt\n        /* \"#utility.yul\":13147:13326   */\n      iszero\n      tag_510\n      jumpi\n        /* \"#utility.yul\":13220:13229   */\n      dup5\n        /* \"#utility.yul\":13215:13218   */\n      dup10\n        /* \"#utility.yul\":13211:13230   */\n      add\n        /* \"#utility.yul\":13205:13231   */\n      mload\n        /* \"#utility.yul\":13263:13311   */\n      tag_511\n        /* \"#utility.yul\":13305:13309   */\n      0x1f\n        /* \"#utility.yul\":13297:13303   */\n      dup10\n        /* \"#utility.yul\":13293:13310   */\n      and\n        /* \"#utility.yul\":13282:13291   */\n      dup3\n        /* \"#utility.yul\":13263:13311   */\n      tag_338\n      jump\t// in\n    tag_511:\n        /* \"#utility.yul\":13255:13261   */\n      dup4\n        /* \"#utility.yul\":13248:13312   */\n      sstore\n        /* \"#utility.yul\":13170:13326   */\n      pop\n        /* \"#utility.yul\":13147:13326   */\n    tag_510:\n        /* \"#utility.yul\":13372:13373   */\n      0x01\n        /* \"#utility.yul\":13368:13369   */\n      0x02\n        /* \"#utility.yul\":13360:13366   */\n      dup9\n        /* \"#utility.yul\":13356:13370   */\n      mul\n        /* \"#utility.yul\":13352:13374   */\n      add\n        /* \"#utility.yul\":13346:13350   */\n      dup9\n        /* \"#utility.yul\":13339:13375   */\n      sstore\n        /* \"#utility.yul\":12774:13385   */\n      pop\n      pop\n      pop\n        /* \"#utility.yul\":12737:13624   */\n    tag_502:\n      pop\n        /* \"#utility.yul\":12327:13630   */\n      pop\n      pop\n      pop\n        /* \"#utility.yul\":12235:13630   */\n      pop\n      pop\n      jump\t// out\n        /* \"#utility.yul\":13636:13776   */\n    tag_340:\n        /* \"#utility.yul\":13684:13688   */\n      0x00\n        /* \"#utility.yul\":13707:13710   */\n      dup2\n        /* \"#utility.yul\":13699:13710   */\n      swap1\n      pop\n        /* \"#utility.yul\":13730:13733   */\n      dup2\n        /* \"#utility.yul\":13727:13728   */\n      0x00\n        /* \"#utility.yul\":13720:13734   */\n      mstore\n        /* \"#utility.yul\":13764:13768   */\n      0x20\n        /* \"#utility.yul\":13761:13762   */\n      0x00\n        /* \"#utility.yul\":13751:13769   */\n      keccak256\n        /* \"#utility.yul\":13743:13769   */\n      swap1\n      pop\n        /* \"#utility.yul\":13636:13776   */\n      swap2\n      swap1\n      pop\n      jump\t// out\n        /* \"#utility.yul\":13782:14323   */\n    tag_341:\n        /* \"#utility.yul\":13882:13884   */\n      0x1f\n        /* \"#utility.yul\":13877:13880   */\n      dup3\n        /* \"#utility.yul\":13874:13885   */\n      gt\n        /* \"#utility.yul\":13871:14316   */\n      iszero\n      tag_514\n      jumpi\n        /* \"#utility.yul\":13916:13953   */\n      tag_515\n        /* \"#utility.yul\":13947:13952   */\n      dup2\n        /* \"#utility.yul\":13916:13953   */\n      tag_340\n      jump\t// in\n    tag_515:\n        /* \"#utility.yul\":13999:14028   */\n      tag_516\n        /* \"#utility.yul\":14017:14027   */\n      dup5\n        /* \"#utility.yul\":13999:14028   */\n      tag_325\n      jump\t// in\n    tag_516:\n        /* \"#utility.yul\":13989:13997   */\n      dup2\n        /* \"#utility.yul\":13985:14029   */\n      add\n        /* \"#utility.yul\":14182:14184   */\n      0x20\n        /* \"#utility.yul\":14170:14180   */\n      dup6\n        /* \"#utility.yul\":14167:14185   */\n      lt\n        /* \"#utility.yul\":14164:14213   */\n      iszero\n      tag_517\n      jumpi\n        /* \"#utility.yul\":14203:14211   */\n      dup2\n        /* \"#utility.yul\":14188:14211   */\n      swap1\n      pop\n        /* \"#utility.yul\":14164:14213   */\n    tag_517:\n        /* \"#utility.yul\":14226:14306   */\n      tag_518\n        /* \"#utility.yul\":14282:14304   */\n      tag_519\n        /* \"#utility.yul\":14300:14303   */\n      dup6\n        /* \"#utility.yul\":14282:14304   */\n      tag_325\n      jump\t// in\n    tag_519:\n        /* \"#utility.yul\":14272:14280   */\n      dup4\n        /* \"#utility.yul\":14268:14305   */\n      add\n        /* \"#utility.yul\":14255:14266   */\n      dup3\n        /* \"#utility.yul\":14226:14306   */\n      tag_335\n      jump\t// in\n    tag_518:\n        /* \"#utility.yul\":13886:14316   */\n      pop\n      pop\n        /* \"#utility.yul\":13871:14316   */\n    tag_514:\n        /* \"#utility.yul\":13782:14323   */\n      pop\n      pop\n      pop\n      jump\t// out\n        /* \"#utility.yul\":14329:15719   */\n    tag_108:\n        /* \"#utility.yul\":14444:14480   */\n      tag_521\n        /* \"#utility.yul\":14476:14479   */\n      dup3\n        /* \"#utility.yul\":14444:14480   */\n      tag_310\n      jump\t// in\n    tag_521:\n        /* \"#utility.yul\":14545:14563   */\n      0xffffffffffffffff\n        /* \"#utility.yul\":14537:14543   */\n      dup2\n        /* \"#utility.yul\":14534:14564   */\n      gt\n        /* \"#utility.yul\":14531:14587   */\n      iszero\n      tag_522\n      jumpi\n        /* \"#utility.yul\":14567:14585   */\n      tag_523\n      tag_70\n      jump\t// in\n    tag_523:\n        /* \"#utility.yul\":14531:14587   */\n    tag_522:\n        /* \"#utility.yul\":14611:14649   */\n      tag_524\n        /* \"#utility.yul\":14643:14647   */\n      dup3\n        /* \"#utility.yul\":14637:14648   */\n      sload\n        /* \"#utility.yul\":14611:14649   */\n      tag_52\n      jump\t// in\n    tag_524:\n        /* \"#utility.yul\":14696:14762   */\n      tag_525\n        /* \"#utility.yul\":14755:14761   */\n      dup3\n        /* \"#utility.yul\":14747:14753   */\n      dup3\n        /* \"#utility.yul\":14741:14745   */\n      dup6\n        /* \"#utility.yul\":14696:14762   */\n      tag_341\n      jump\t// in\n    tag_525:\n        /* \"#utility.yul\":14789:14790   */\n      0x00\n        /* \"#utility.yul\":14813:14817   */\n      0x20\n        /* \"#utility.yul\":14800:14817   */\n      swap1\n      pop\n        /* \"#utility.yul\":14845:14847   */\n      0x1f\n        /* \"#utility.yul\":14837:14843   */\n      dup4\n        /* \"#utility.yul\":14834:14848   */\n      gt\n        /* \"#utility.yul\":14862:14863   */\n      0x01\n        /* \"#utility.yul\":14857:15474   */\n      dup2\n      eq\n      tag_527\n      jumpi\n        /* \"#utility.yul\":15518:15519   */\n      0x00\n        /* \"#utility.yul\":15535:15541   */\n      dup5\n        /* \"#utility.yul\":15532:15609   */\n      iszero\n      tag_528\n      jumpi\n        /* \"#utility.yul\":15584:15593   */\n      dup3\n        /* \"#utility.yul\":15579:15582   */\n      dup8\n        /* \"#utility.yul\":15575:15594   */\n      add\n        /* \"#utility.yul\":15569:15595   */\n      mload\n        /* \"#utility.yul\":15560:15595   */\n      swap1\n      pop\n        /* \"#utility.yul\":15532:15609   */\n    tag_528:\n        /* \"#utility.yul\":15635:15702   */\n      tag_529\n        /* \"#utility.yul\":15695:15701   */\n      dup6\n        /* \"#utility.yul\":15688:15693   */\n      dup3\n        /* \"#utility.yul\":15635:15702   */\n      tag_339\n      jump\t// in\n    tag_529:\n        /* \"#utility.yul\":15629:15633   */\n      dup7\n        /* \"#utility.yul\":15622:15703   */\n      sstore\n        /* \"#utility.yul\":15491:15713   */\n      pop\n        /* \"#utility.yul\":14827:15713   */\n      jump(tag_526)\n        /* \"#utility.yul\":14857:15474   */\n    tag_527:\n        /* \"#utility.yul\":14909:14913   */\n      0x1f\n        /* \"#utility.yul\":14905:14914   */\n      not\n        /* \"#utility.yul\":14897:14903   */\n      dup5\n        /* \"#utility.yul\":14893:14915   */\n      and\n        /* \"#utility.yul\":14943:14979   */\n      tag_530\n        /* \"#utility.yul\":14974:14978   */\n      dup7\n        /* \"#utility.yul\":14943:14979   */\n      tag_340\n      jump\t// in\n    tag_530:\n        /* \"#utility.yul\":15001:15002   */\n      0x00\n        /* \"#utility.yul\":15015:15223   */\n    tag_531:\n        /* \"#utility.yul\":15029:15036   */\n      dup3\n        /* \"#utility.yul\":15026:15027   */\n      dup2\n        /* \"#utility.yul\":15023:15037   */\n      lt\n        /* \"#utility.yul\":15015:15223   */\n      iszero\n      tag_533\n      jumpi\n        /* \"#utility.yul\":15108:15117   */\n      dup5\n        /* \"#utility.yul\":15103:15106   */\n      dup10\n        /* \"#utility.yul\":15099:15118   */\n      add\n        /* \"#utility.yul\":15093:15119   */\n      mload\n        /* \"#utility.yul\":15085:15091   */\n      dup3\n        /* \"#utility.yul\":15078:15120   */\n      sstore\n        /* \"#utility.yul\":15159:15160   */\n      0x01\n        /* \"#utility.yul\":15151:15157   */\n      dup3\n        /* \"#utility.yul\":15147:15161   */\n      add\n        /* \"#utility.yul\":15137:15161   */\n      swap2\n      pop\n        /* \"#utility.yul\":15206:15208   */\n      0x20\n        /* \"#utility.yul\":15195:15204   */\n      dup6\n        /* \"#utility.yul\":15191:15209   */\n      add\n        /* \"#utility.yul\":15178:15209   */\n      swap5\n      pop\n        /* \"#utility.yul\":15052:15056   */\n      0x20\n        /* \"#utility.yul\":15049:15050   */\n      dup2\n        /* \"#utility.yul\":15045:15057   */\n      add\n        /* \"#utility.yul\":15040:15057   */\n      swap1\n      pop\n        /* \"#utility.yul\":15015:15223   */\n      jump(tag_531)\n    tag_533:\n        /* \"#utility.yul\":15251:15257   */\n      dup7\n        /* \"#utility.yul\":15242:15249   */\n      dup4\n        /* \"#utility.yul\":15239:15258   */\n      lt\n        /* \"#utility.yul\":15236:15415   */\n      iszero\n      tag_534\n      jumpi\n        /* \"#utility.yul\":15309:15318   */\n      dup5\n        /* \"#utility.yul\":15304:15307   */\n      dup10\n        /* \"#utility.yul\":15300:15319   */\n      add\n        /* \"#utility.yul\":15294:15320   */\n      mload\n        /* \"#utility.yul\":15352:15400   */\n      tag_535\n        /* \"#utility.yul\":15394:15398   */\n      0x1f\n        /* \"#utility.yul\":15386:15392   */\n      dup10\n        /* \"#utility.yul\":15382:15399   */\n      and\n        /* \"#utility.yul\":15371:15380   */\n      dup3\n        /* \"#utility.yul\":15352:15400   */\n      tag_338\n      jump\t// in\n    tag_535:\n        /* \"#utility.yul\":15344:15350   */\n      dup4\n        /* \"#utility.yul\":15337:15401   */\n      sstore\n        /* \"#utility.yul\":15259:15415   */\n      pop\n        /* \"#utility.yul\":15236:15415   */\n    tag_534:\n        /* \"#utility.yul\":15461:15462   */\n      0x01\n        /* \"#utility.yul\":15457:15458   */\n      0x02\n        /* \"#utility.yul\":15449:15455   */\n      dup9\n        /* \"#utility.yul\":15445:15459   */\n      mul\n        /* \"#utility.yul\":15441:15463   */\n      add\n        /* \"#utility.yul\":15435:15439   */\n      dup9\n        /* \"#utility.yul\":15428:15464   */\n      sstore\n        /* \"#utility.yul\":14864:15474   */\n      pop\n      pop\n      pop\n        /* \"#utility.yul\":14827:15713   */\n    tag_526:\n      pop\n        /* \"#utility.yul\":14419:15719   */\n      pop\n      pop\n      pop\n        /* \"#utility.yul\":14329:15719   */\n      pop\n      pop\n      jump\t// out\n        /* \"#utility.yul\":15749:16580   */\n    tag_342:\n        /* \"#utility.yul\":15834:15837   */\n      0x00\n        /* \"#utility.yul\":15871:15876   */\n      dup2\n        /* \"#utility.yul\":15865:15877   */\n      sload\n        /* \"#utility.yul\":15900:15936   */\n      tag_537\n        /* \"#utility.yul\":15926:15935   */\n      dup2\n        /* \"#utility.yul\":15900:15936   */\n      tag_52\n      jump\t// in\n    tag_537:\n        /* \"#utility.yul\":15952:16023   */\n      tag_538\n        /* \"#utility.yul\":16016:16022   */\n      dup2\n        /* \"#utility.yul\":16011:16014   */\n      dup7\n        /* \"#utility.yul\":15952:16023   */\n      tag_315\n      jump\t// in\n    tag_538:\n        /* \"#utility.yul\":15945:16023   */\n      swap5\n      pop\n        /* \"#utility.yul\":16054:16055   */\n      0x01\n        /* \"#utility.yul\":16043:16052   */\n      dup3\n        /* \"#utility.yul\":16039:16056   */\n      and\n        /* \"#utility.yul\":16070:16071   */\n      0x00\n        /* \"#utility.yul\":16065:16229   */\n      dup2\n      eq\n      tag_540\n      jumpi\n        /* \"#utility.yul\":16243:16244   */\n      0x01\n        /* \"#utility.yul\":16238:16574   */\n      dup2\n      eq\n      tag_541\n      jumpi\n        /* \"#utility.yul\":16032:16574   */\n      jump(tag_539)\n        /* \"#utility.yul\":16065:16229   */\n    tag_540:\n        /* \"#utility.yul\":16149:16153   */\n      0xff\n        /* \"#utility.yul\":16145:16154   */\n      not\n        /* \"#utility.yul\":16134:16143   */\n      dup4\n        /* \"#utility.yul\":16130:16155   */\n      and\n        /* \"#utility.yul\":16125:16128   */\n      dup7\n        /* \"#utility.yul\":16118:16156   */\n      mstore\n        /* \"#utility.yul\":16209:16215   */\n      dup2\n        /* \"#utility.yul\":16202:16216   */\n      iszero\n        /* \"#utility.yul\":16195:16217   */\n      iszero\n        /* \"#utility.yul\":16189:16193   */\n      0x20\n        /* \"#utility.yul\":16185:16218   */\n      mul\n        /* \"#utility.yul\":16180:16183   */\n      dup7\n        /* \"#utility.yul\":16176:16219   */\n      add\n        /* \"#utility.yul\":16169:16219   */\n      swap4\n      pop\n        /* \"#utility.yul\":16065:16229   */\n      jump(tag_539)\n        /* \"#utility.yul\":16238:16574   */\n    tag_541:\n        /* \"#utility.yul\":16305:16343   */\n      tag_542\n        /* \"#utility.yul\":16337:16342   */\n      dup6\n        /* \"#utility.yul\":16305:16343   */\n      tag_324\n      jump\t// in\n    tag_542:\n        /* \"#utility.yul\":16365:16366   */\n      0x00\n        /* \"#utility.yul\":16379:16533   */\n    tag_543:\n        /* \"#utility.yul\":16393:16399   */\n      dup4\n        /* \"#utility.yul\":16390:16391   */\n      dup2\n        /* \"#utility.yul\":16387:16400   */\n      lt\n        /* \"#utility.yul\":16379:16533   */\n      iszero\n      tag_545\n      jumpi\n        /* \"#utility.yul\":16467:16474   */\n      dup2\n        /* \"#utility.yul\":16461:16475   */\n      sload\n        /* \"#utility.yul\":16457:16458   */\n      dup2\n        /* \"#utility.yul\":16452:16455   */\n      dup10\n        /* \"#utility.yul\":16448:16459   */\n      add\n        /* \"#utility.yul\":16441:16476   */\n      mstore\n        /* \"#utility.yul\":16517:16518   */\n      0x01\n        /* \"#utility.yul\":16508:16515   */\n      dup3\n        /* \"#utility.yul\":16504:16519   */\n      add\n        /* \"#utility.yul\":16493:16519   */\n      swap2\n      pop\n        /* \"#utility.yul\":16415:16419   */\n      0x20\n        /* \"#utility.yul\":16412:16413   */\n      dup2\n        /* \"#utility.yul\":16408:16420   */\n      add\n        /* \"#utility.yul\":16403:16420   */\n      swap1\n      pop\n        /* \"#utility.yul\":16379:16533   */\n      jump(tag_543)\n    tag_545:\n        /* \"#utility.yul\":16562:16563   */\n      dup1\n        /* \"#utility.yul\":16557:16560   */\n      dup9\n        /* \"#utility.yul\":16553:16564   */\n      add\n        /* \"#utility.yul\":16546:16564   */\n      swap6\n      pop\n        /* \"#utility.yul\":16245:16574   */\n      pop\n      pop\n        /* \"#utility.yul\":16032:16574   */\n    tag_539:\n      pop\n        /* \"#utility.yul\":15838:16580   */\n      pop\n      pop\n        /* \"#utility.yul\":15749:16580   */\n      swap3\n      swap2\n      pop\n      pop\n      jump\t// out\n        /* \"#utility.yul\":16608:17435   */\n    tag_343:\n        /* \"#utility.yul\":16691:16694   */\n      0x00\n        /* \"#utility.yul\":16728:16733   */\n      dup2\n        /* \"#utility.yul\":16722:16734   */\n      sload\n        /* \"#utility.yul\":16757:16793   */\n      tag_547\n        /* \"#utility.yul\":16783:16792   */\n      dup2\n        /* \"#utility.yul\":16757:16793   */\n      tag_52\n      jump\t// in\n    tag_547:\n        /* \"#utility.yul\":16809:16879   */\n      tag_548\n        /* \"#utility.yul\":16872:16878   */\n      dup2\n        /* \"#utility.yul\":16867:16870   */\n      dup7\n        /* \"#utility.yul\":16809:16879   */\n      tag_311\n      jump\t// in\n    tag_548:\n        /* \"#utility.yul\":16802:16879   */\n      swap5\n      pop\n        /* \"#utility.yul\":16910:16911   */\n      0x01\n        /* \"#utility.yul\":16899:16908   */\n      dup3\n        /* \"#utility.yul\":16895:16912   */\n      and\n        /* \"#utility.yul\":16926:16927   */\n      0x00\n        /* \"#utility.yul\":16921:17085   */\n      dup2\n      eq\n      tag_550\n      jumpi\n        /* \"#utility.yul\":17099:17100   */\n      0x01\n        /* \"#utility.yul\":17094:17429   */\n      dup2\n      eq\n      tag_551\n      jumpi\n        /* \"#utility.yul\":16888:17429   */\n      jump(tag_549)\n        /* \"#utility.yul\":16921:17085   */\n    tag_550:\n        /* \"#utility.yul\":17005:17009   */\n      0xff\n        /* \"#utility.yul\":17001:17010   */\n      not\n        /* \"#utility.yul\":16990:16999   */\n      dup4\n        /* \"#utility.yul\":16986:17011   */\n      and\n        /* \"#utility.yul\":16981:16984   */\n      dup7\n        /* \"#utility.yul\":16974:17012   */\n      mstore\n        /* \"#utility.yul\":17065:17071   */\n      dup2\n        /* \"#utility.yul\":17058:17072   */\n      iszero\n        /* \"#utility.yul\":17051:17073   */\n      iszero\n        /* \"#utility.yul\":17045:17049   */\n      0x20\n        /* \"#utility.yul\":17041:17074   */\n      mul\n        /* \"#utility.yul\":17036:17039   */\n      dup7\n        /* \"#utility.yul\":17032:17075   */\n      add\n        /* \"#utility.yul\":17025:17075   */\n      swap4\n      pop\n        /* \"#utility.yul\":16921:17085   */\n      jump(tag_549)\n        /* \"#utility.yul\":17094:17429   */\n    tag_551:\n        /* \"#utility.yul\":17161:17198   */\n      tag_552\n        /* \"#utility.yul\":17192:17197   */\n      dup6\n        /* \"#utility.yul\":17161:17198   */\n      tag_340\n      jump\t// in\n    tag_552:\n        /* \"#utility.yul\":17220:17221   */\n      0x00\n        /* \"#utility.yul\":17234:17388   */\n    tag_553:\n        /* \"#utility.yul\":17248:17254   */\n      dup4\n        /* \"#utility.yul\":17245:17246   */\n      dup2\n        /* \"#utility.yul\":17242:17255   */\n      lt\n        /* \"#utility.yul\":17234:17388   */\n      iszero\n      tag_555\n      jumpi\n        /* \"#utility.yul\":17322:17329   */\n      dup2\n        /* \"#utility.yul\":17316:17330   */\n      sload\n        /* \"#utility.yul\":17312:17313   */\n      dup2\n        /* \"#utility.yul\":17307:17310   */\n      dup10\n        /* \"#utility.yul\":17303:17314   */\n      add\n        /* \"#utility.yul\":17296:17331   */\n      mstore\n        /* \"#utility.yul\":17372:17373   */\n      0x01\n        /* \"#utility.yul\":17363:17370   */\n      dup3\n        /* \"#utility.yul\":17359:17374   */\n      add\n        /* \"#utility.yul\":17348:17374   */\n      swap2\n      pop\n        /* \"#utility.yul\":17270:17274   */\n      0x20\n        /* \"#utility.yul\":17267:17268   */\n      dup2\n        /* \"#utility.yul\":17263:17275   */\n      add\n        /* \"#utility.yul\":17258:17275   */\n      swap1\n      pop\n        /* \"#utility.yul\":17234:17388   */\n      jump(tag_553)\n    tag_555:\n        /* \"#utility.yul\":17417:17418   */\n      dup1\n        /* \"#utility.yul\":17412:17415   */\n      dup9\n        /* \"#utility.yul\":17408:17419   */\n      add\n        /* \"#utility.yul\":17401:17419   */\n      swap6\n      pop\n        /* \"#utility.yul\":17101:17429   */\n      pop\n      pop\n        /* \"#utility.yul\":16888:17429   */\n    tag_549:\n      pop\n        /* \"#utility.yul\":16695:17435   */\n      pop\n      pop\n        /* \"#utility.yul\":16608:17435   */\n      swap3\n      swap2\n      pop\n      pop\n      jump\t// out\n        /* \"#utility.yul\":17441:18130   */\n    tag_112:\n        /* \"#utility.yul\":17637:17641   */\n      0x00\n        /* \"#utility.yul\":17675:17677   */\n      0x60\n        /* \"#utility.yul\":17664:17673   */\n      dup3\n        /* \"#utility.yul\":17660:17678   */\n      add\n        /* \"#utility.yul\":17652:17678   */\n      swap1\n      pop\n        /* \"#utility.yul\":17724:17733   */\n      dup2\n        /* \"#utility.yul\":17718:17722   */\n      dup2\n        /* \"#utility.yul\":17714:17734   */\n      sub\n        /* \"#utility.yul\":17710:17711   */\n      0x00\n        /* \"#utility.yul\":17699:17708   */\n      dup4\n        /* \"#utility.yul\":17695:17712   */\n      add\n        /* \"#utility.yul\":17688:17735   */\n      mstore\n        /* \"#utility.yul\":17752:17827   */\n      tag_557\n        /* \"#utility.yul\":17822:17826   */\n      dup2\n        /* \"#utility.yul\":17813:17819   */\n      dup7\n        /* \"#utility.yul\":17752:17827   */\n      tag_342\n      jump\t// in\n    tag_557:\n        /* \"#utility.yul\":17744:17827   */\n      swap1\n      pop\n        /* \"#utility.yul\":17874:17883   */\n      dup2\n        /* \"#utility.yul\":17868:17872   */\n      dup2\n        /* \"#utility.yul\":17864:17884   */\n      sub\n        /* \"#utility.yul\":17859:17861   */\n      0x20\n        /* \"#utility.yul\":17848:17857   */\n      dup4\n        /* \"#utility.yul\":17844:17862   */\n      add\n        /* \"#utility.yul\":17837:17885   */\n      mstore\n        /* \"#utility.yul\":17902:17975   */\n      tag_558\n        /* \"#utility.yul\":17970:17974   */\n      dup2\n        /* \"#utility.yul\":17961:17967   */\n      dup6\n        /* \"#utility.yul\":17902:17975   */\n      tag_343\n      jump\t// in\n    tag_558:\n        /* \"#utility.yul\":17894:17975   */\n      swap1\n      pop\n        /* \"#utility.yul\":18022:18031   */\n      dup2\n        /* \"#utility.yul\":18016:18020   */\n      dup2\n        /* \"#utility.yul\":18012:18032   */\n      sub\n        /* \"#utility.yul\":18007:18009   */\n      0x40\n        /* \"#utility.yul\":17996:18005   */\n      dup4\n        /* \"#utility.yul\":17992:18010   */\n      add\n        /* \"#utility.yul\":17985:18033   */\n      mstore\n        /* \"#utility.yul\":18050:18123   */\n      tag_559\n        /* \"#utility.yul\":18118:18122   */\n      dup2\n        /* \"#utility.yul\":18109:18115   */\n      dup5\n        /* \"#utility.yul\":18050:18123   */\n      tag_343\n      jump\t// in\n    tag_559:\n        /* \"#utility.yul\":18042:18123   */\n      swap1\n      pop\n        /* \"#utility.yul\":17441:18130   */\n      swap5\n      swap4\n      pop\n      pop\n      pop\n      pop\n      jump\t// out\n        /* \"#utility.yul\":18136:18316   */\n    tag_126:\n        /* \"#utility.yul\":18184:18261   */\n      0x4e487b7100000000000000000000000000000000000000000000000000000000\n        /* \"#utility.yul\":18181:18182   */\n      0x00\n        /* \"#utility.yul\":18174:18262   */\n      mstore\n        /* \"#utility.yul\":18281:18285   */\n      0x21\n        /* \"#utility.yul\":18278:18279   */\n      0x04\n        /* \"#utility.yul\":18271:18286   */\n      mstore\n        /* \"#utility.yul\":18305:18309   */\n      0x24\n        /* \"#utility.yul\":18302:18303   */\n      0x00\n        /* \"#utility.yul\":18295:18310   */\n      revert\n        /* \"#utility.yul\":18322:18502   */\n    tag_344:\n        /* \"#utility.yul\":18370:18447   */\n      0x4e487b7100000000000000000000000000000000000000000000000000000000\n        /* \"#utility.yul\":18367:18368   */\n      0x00\n        /* \"#utility.yul\":18360:18448   */\n      mstore\n        /* \"#utility.yul\":18467:18471   */\n      0x11\n        /* \"#utility.yul\":18464:18465   */\n      0x04\n        /* \"#utility.yul\":18457:18472   */\n      mstore\n        /* \"#utility.yul\":18491:18495   */\n      0x24\n        /* \"#utility.yul\":18488:18489   */\n      0x00\n        /* \"#utility.yul\":18481:18496   */\n      revert\n        /* \"#utility.yul\":18508:18741   */\n    tag_145:\n        /* \"#utility.yul\":18547:18550   */\n      0x00\n        /* \"#utility.yul\":18570:18594   */\n      tag_563\n        /* \"#utility.yul\":18588:18593   */\n      dup3\n        /* \"#utility.yul\":18570:18594   */\n      tag_328\n      jump\t// in\n    tag_563:\n        /* \"#utility.yul\":18561:18594   */\n      swap2\n      pop\n        /* \"#utility.yul\":18616:18682   */\n      0xffffffffffffffffffffffffffffffffffffffffffffffffffffffffffffffff\n        /* \"#utility.yul\":18609:18614   */\n      dup3\n        /* \"#utility.yul\":18606:18683   */\n      sub\n        /* \"#utility.yul\":18603:18706   */\n      tag_564\n      jumpi\n        /* \"#utility.yul\":18686:18704   */\n      tag_565\n      tag_344\n      jump\t// in\n    tag_565:\n        /* \"#utility.yul\":18603:18706   */\n    tag_564:\n        /* \"#utility.yul\":18733:18734   */\n      0x01\n        /* \"#utility.yul\":18726:18731   */\n      dup3\n        /* \"#utility.yul\":18722:18735   */\n      add\n        /* \"#utility.yul\":18715:18735   */\n      swap1\n      pop\n        /* \"#utility.yul\":18508:18741   */\n      swap2\n      swap1\n      pop\n      jump\t// out\n        /* \"#utility.yul\":18747:18836   */\n    tag_345:\n        /* \"#utility.yul\":18783:18790   */\n      0x00\n        /* \"#utility.yul\":18823:18829   */\n      0xffff\n        /* \"#utility.yul\":18816:18821   */\n      dup3\n        /* \"#utility.yul\":18812:18830   */\n      and\n        /* \"#utility.yul\":18801:18830   */\n      swap1\n      pop\n        /* \"#utility.yul\":18747:18836   */\n      swap2\n      swap1\n      pop\n      jump\t// out\n        /* \"#utility.yul\":18842:18957   */\n    tag_346:\n        /* \"#utility.yul\":18927:18950   */\n      tag_568\n        /* \"#utility.yul\":18944:18949   */\n      dup2\n        /* \"#utility.yul\":18927:18950   */\n      tag_345\n      jump\t// in\n    tag_568:\n        /* \"#utility.yul\":18922:18925   */\n      dup3\n        /* \"#utility.yul\":18915:18951   */\n      mstore\n        /* \"#utility.yul\":18842:18957   */\n      pop\n      pop\n      jump\t// out\n        /* \"#utility.yul\":18963:19056   */\n    tag_347:\n        /* \"#utility.yul\":18999:19006   */\n      0x00\n        /* \"#utility.yul\":19039:19049   */\n      0xffffffff\n        /* \"#utility.yul\":19032:19037   */\n      dup3\n        /* \"#utility.yul\":19028:19050   */\n      and\n        /* \"#utility.yul\":19017:19050   */\n      swap1\n      pop\n        /* \"#utility.yul\":18963:19056   */\n      swap2\n      swap1\n      pop\n      jump\t// out\n        /* \"#utility.yul\":19062:19177   */\n    tag_348:\n        /* \"#utility.yul\":19147:19170   */\n      tag_571\n        /* \"#utility.yul\":19164:19169   */\n      dup2\n        /* \"#utility.yul\":19147:19170   */\n      tag_347\n      jump\t// in\n    tag_571:\n        /* \"#utility.yul\":19142:19145   */\n      dup3\n        /* \"#utility.yul\":19135:19171   */\n      mstore\n        /* \"#utility.yul\":19062:19177   */\n      pop\n      pop\n      jump\t// out\n        /* \"#utility.yul\":19183:19922   */\n    tag_174:\n        /* \"#utility.yul\":19400:19404   */\n      0x00\n        /* \"#utility.yul\":19438:19441   */\n      0xa0\n        /* \"#utility.yul\":19427:19436   */\n      dup3\n        /* \"#utility.yul\":19423:19442   */\n      add\n        /* \"#utility.yul\":19415:19442   */\n      swap1\n      pop\n        /* \"#utility.yul\":19452:19521   */\n      tag_573\n        /* \"#utility.yul\":19518:19519   */\n      0x00\n        /* \"#utility.yul\":19507:19516   */\n      dup4\n        /* \"#utility.yul\":19503:19520   */\n      add\n        /* \"#utility.yul\":19494:19500   */\n      dup9\n        /* \"#utility.yul\":19452:19521   */\n      tag_318\n      jump\t// in\n    tag_573:\n        /* \"#utility.yul\":19568:19577   */\n      dup2\n        /* \"#utility.yul\":19562:19566   */\n      dup2\n        /* \"#utility.yul\":19558:19578   */\n      sub\n        /* \"#utility.yul\":19553:19555   */\n      0x20\n        /* \"#utility.yul\":19542:19551   */\n      dup4\n        /* \"#utility.yul\":19538:19556   */\n      add\n        /* \"#utility.yul\":19531:19579   */\n      mstore\n        /* \"#utility.yul\":19596:19672   */\n      tag_574\n        /* \"#utility.yul\":19667:19671   */\n      dup2\n        /* \"#utility.yul\":19658:19664   */\n      dup8\n        /* \"#utility.yul\":19596:19672   */\n      tag_313\n      jump\t// in\n    tag_574:\n        /* \"#utility.yul\":19588:19672   */\n      swap1\n      pop\n        /* \"#utility.yul\":19682:19752   */\n      tag_575\n        /* \"#utility.yul\":19748:19750   */\n      0x40\n        /* \"#utility.yul\":19737:19746   */\n      dup4\n        /* \"#utility.yul\":19733:19751   */\n      add\n        /* \"#utility.yul\":19724:19730   */\n      dup7\n        /* \"#utility.yul\":19682:19752   */\n      tag_346\n      jump\t// in\n    tag_575:\n        /* \"#utility.yul\":19762:19832   */\n      tag_576\n        /* \"#utility.yul\":19828:19830   */\n      0x60\n        /* \"#utility.yul\":19817:19826   */\n      dup4\n        /* \"#utility.yul\":19813:19831   */\n      add\n        /* \"#utility.yul\":19804:19810   */\n      dup6\n        /* \"#utility.yul\":19762:19832   */\n      tag_348\n      jump\t// in\n    tag_576:\n        /* \"#utility.yul\":19842:19915   */\n      tag_577\n        /* \"#utility.yul\":19910:19913   */\n      0x80\n        /* \"#utility.yul\":19899:19908   */\n      dup4\n        /* \"#utility.yul\":19895:19914   */\n      add\n        /* \"#utility.yul\":19886:19892   */\n      dup5\n        /* \"#utility.yul\":19842:19915   */\n      tag_322\n      jump\t// in\n    tag_577:\n        /* \"#utility.yul\":19183:19922   */\n      swap7\n      swap6\n      pop\n      pop\n      pop\n      pop\n      pop\n      pop\n      jump\t// out\n        /* \"#utility.yul\":19928:20071   */\n    tag_349:\n        /* \"#utility.yul\":19985:19990   */\n      0x00\n        /* \"#utility.yul\":20016:20022   */\n      dup2\n        /* \"#utility.yul\":20010:20023   */\n      mload\n        /* \"#utility.yul\":20001:20023   */\n      swap1\n      pop\n        /* \"#utility.yul\":20032:20065   */\n      tag_579\n        /* \"#utility.yul\":20059:20064   */\n      dup2\n        /* \"#utility.yul\":20032:20065   */\n      tag_299\n      jump\t// in\n    tag_579:\n        /* \"#utility.yul\":19928:20071   */\n      swap3\n      swap2\n      pop\n      pop\n      jump\t// out\n        /* \"#utility.yul\":20077:20428   */\n    tag_178:\n        /* \"#utility.yul\":20147:20153   */\n      0x00\n        /* \"#utility.yul\":20196:20198   */\n      0x20\n        /* \"#utility.yul\":20184:20193   */\n      dup3\n        /* \"#utility.yul\":20175:20182   */\n      dup5\n        /* \"#utility.yul\":20171:20194   */\n      sub\n        /* \"#utility.yul\":20167:20199   */\n      slt\n        /* \"#utility.yul\":20164:20283   */\n      iszero\n      tag_581\n      jumpi\n        /* \"#utility.yul\":20202:20281   */\n      tag_582\n      tag_296\n      jump\t// in\n    tag_582:\n        /* \"#utility.yul\":20164:20283   */\n    tag_581:\n        /* \"#utility.yul\":20322:20323   */\n      0x00\n        /* \"#utility.yul\":20347:20411   */\n      tag_583\n        /* \"#utility.yul\":20403:20410   */\n      dup5\n        /* \"#utility.yul\":20394:20400   */\n      dup3\n        /* \"#utility.yul\":20383:20392   */\n      dup6\n        /* \"#utility.yul\":20379:20401   */\n      add\n        /* \"#utility.yul\":20347:20411   */\n      tag_349\n      jump\t// in\n    tag_583:\n        /* \"#utility.yul\":20337:20411   */\n      swap2\n      pop\n        /* \"#utility.yul\":20293:20421   */\n      pop\n        /* \"#utility.yul\":20077:20428   */\n      swap3\n      swap2\n      pop\n      pop\n      jump\t// out\n        /* \"#utility.yul\":20434:20552   */\n    tag_350:\n        /* \"#utility.yul\":20521:20545   */\n      tag_585\n        /* \"#utility.yul\":20539:20544   */\n      dup2\n        /* \"#utility.yul\":20521:20545   */\n      tag_328\n      jump\t// in\n    tag_585:\n        /* \"#utility.yul\":20516:20519   */\n      dup3\n        /* \"#utility.yul\":20509:20546   */\n      mstore\n        /* \"#utility.yul\":20434:20552   */\n      pop\n      pop\n      jump\t// out\n        /* \"#utility.yul\":20558:20780   */\n    tag_204:\n        /* \"#utility.yul\":20651:20655   */\n      0x00\n        /* \"#utility.yul\":20689:20691   */\n      0x20\n        /* \"#utility.yul\":20678:20687   */\n      dup3\n        /* \"#utility.yul\":20674:20692   */\n      add\n        /* \"#utility.yul\":20666:20692   */\n      swap1\n      pop\n        /* \"#utility.yul\":20702:20773   */\n      tag_587\n        /* \"#utility.yul\":20770:20771   */\n      0x00\n        /* \"#utility.yul\":20759:20768   */\n      dup4\n        /* \"#utility.yul\":20755:20772   */\n      add\n        /* \"#utility.yul\":20746:20752   */\n      dup5\n        /* \"#utility.yul\":20702:20773   */\n      tag_350\n      jump\t// in\n    tag_587:\n        /* \"#utility.yul\":20558:20780   */\n      swap3\n      swap2\n      pop\n      pop\n      jump\t// out\n        /* \"#utility.yul\":20786:20977   */\n    tag_209:\n        /* \"#utility.yul\":20826:20829   */\n      0x00\n        /* \"#utility.yul\":20845:20865   */\n      tag_589\n        /* \"#utility.yul\":20863:20864   */\n      dup3\n        /* \"#utility.yul\":20845:20865   */\n      tag_328\n      jump\t// in\n    tag_589:\n        /* \"#utility.yul\":20840:20865   */\n      swap2\n      pop\n        /* \"#utility.yul\":20879:20899   */\n      tag_590\n        /* \"#utility.yul\":20897:20898   */\n      dup4\n        /* \"#utility.yul\":20879:20899   */\n      tag_328\n      jump\t// in\n    tag_590:\n        /* \"#utility.yul\":20874:20899   */\n      swap3\n      pop\n        /* \"#utility.yul\":20922:20923   */\n      dup3\n        /* \"#utility.yul\":20919:20920   */\n      dup3\n        /* \"#utility.yul\":20915:20924   */\n      add\n        /* \"#utility.yul\":20908:20924   */\n      swap1\n      pop\n        /* \"#utility.yul\":20943:20946   */\n      dup1\n        /* \"#utility.yul\":20940:20941   */\n      dup3\n        /* \"#utility.yul\":20937:20947   */\n      gt\n        /* \"#utility.yul\":20934:20970   */\n      iszero\n      tag_591\n      jumpi\n        /* \"#utility.yul\":20950:20968   */\n      tag_592\n      tag_344\n      jump\t// in\n    tag_592:\n        /* \"#utility.yul\":20934:20970   */\n    tag_591:\n        /* \"#utility.yul\":20786:20977   */\n      swap3\n      swap2\n      pop\n      pop\n      jump\t// out\n        /* \"#utility.yul\":20983:21177   */\n    tag_213:\n        /* \"#utility.yul\":21023:21027   */\n      0x00\n        /* \"#utility.yul\":21043:21063   */\n      tag_594\n        /* \"#utility.yul\":21061:21062   */\n      dup3\n        /* \"#utility.yul\":21043:21063   */\n      tag_328\n      jump\t// in\n    tag_594:\n        /* \"#utility.yul\":21038:21063   */\n      swap2\n      pop\n        /* \"#utility.yul\":21077:21097   */\n      tag_595\n        /* \"#utility.yul\":21095:21096   */\n      dup4\n        /* \"#utility.yul\":21077:21097   */\n      tag_328\n      jump\t// in\n    tag_595:\n        /* \"#utility.yul\":21072:21097   */\n      swap3\n      pop\n        /* \"#utility.yul\":21121:21122   */\n      dup3\n        /* \"#utility.yul\":21118:21119   */\n      dup3\n        /* \"#utility.yul\":21114:21123   */\n      sub\n        /* \"#utility.yul\":21106:21123   */\n      swap1\n      pop\n        /* \"#utility.yul\":21145:21146   */\n      dup2\n        /* \"#utility.yul\":21139:21143   */\n      dup2\n        /* \"#utility.yul\":21136:21147   */\n      gt\n        /* \"#utility.yul\":21133:21170   */\n      iszero\n      tag_596\n      jumpi\n        /* \"#utility.yul\":21150:21168   */\n      tag_597\n      tag_344\n      jump\t// in\n    tag_597:\n        /* \"#utility.yul\":21133:21170   */\n    tag_596:\n        /* \"#utility.yul\":20983:21177   */\n      swap3\n      swap2\n      pop\n      pop\n      jump\t// out\n        /* \"#utility.yul\":21183:21363   */\n    tag_351:\n        /* \"#utility.yul\":21231:21308   */\n      0x4e487b7100000000000000000000000000000000000000000000000000000000\n        /* \"#utility.yul\":21228:21229   */\n      0x00\n        /* \"#utility.yul\":21221:21309   */\n      mstore\n        /* \"#utility.yul\":21328:21332   */\n      0x12\n        /* \"#utility.yul\":21325:21326   */\n      0x04\n        /* \"#utility.yul\":21318:21333   */\n      mstore\n        /* \"#utility.yul\":21352:21356   */\n      0x24\n        /* \"#utility.yul\":21349:21350   */\n      0x00\n        /* \"#utility.yul\":21342:21357   */\n      revert\n        /* \"#utility.yul\":21369:21545   */\n    tag_221:\n        /* \"#utility.yul\":21401:21402   */\n      0x00\n        /* \"#utility.yul\":21418:21438   */\n      tag_600\n        /* \"#utility.yul\":21436:21437   */\n      dup3\n        /* \"#utility.yul\":21418:21438   */\n      tag_328\n      jump\t// in\n    tag_600:\n        /* \"#utility.yul\":21413:21438   */\n      swap2\n      pop\n        /* \"#utility.yul\":21452:21472   */\n      tag_601\n        /* \"#utility.yul\":21470:21471   */\n      dup4\n        /* \"#utility.yul\":21452:21472   */\n      tag_328\n      jump\t// in\n    tag_601:\n        /* \"#utility.yul\":21447:21472   */\n      swap3\n      pop\n        /* \"#utility.yul\":21491:21492   */\n      dup3\n        /* \"#utility.yul\":21481:21516   */\n      tag_602\n      jumpi\n        /* \"#utility.yul\":21496:21514   */\n      tag_603\n      tag_351\n      jump\t// in\n    tag_603:\n        /* \"#utility.yul\":21481:21516   */\n    tag_602:\n        /* \"#utility.yul\":21537:21538   */\n      dup3\n        /* \"#utility.yul\":21534:21535   */\n      dup3\n        /* \"#utility.yul\":21530:21539   */\n      mod\n        /* \"#utility.yul\":21525:21539   */\n      swap1\n      pop\n        /* \"#utility.yul\":21369:21545   */\n      swap3\n      swap2\n      pop\n      pop\n      jump\t// out\n        /* \"#utility.yul\":21551:21961   */\n    tag_256:\n        /* \"#utility.yul\":21591:21598   */\n      0x00\n        /* \"#utility.yul\":21614:21634   */\n      tag_605\n        /* \"#utility.yul\":21632:21633   */\n      dup3\n        /* \"#utility.yul\":21614:21634   */\n      tag_328\n      jump\t// in\n    tag_605:\n        /* \"#utility.yul\":21609:21634   */\n      swap2\n      pop\n        /* \"#utility.yul\":21648:21668   */\n      tag_606\n        /* \"#utility.yul\":21666:21667   */\n      dup4\n        /* \"#utility.yul\":21648:21668   */\n      tag_328\n      jump\t// in\n    tag_606:\n        /* \"#utility.yul\":21643:21668   */\n      swap3\n      pop\n        /* \"#utility.yul\":21703:21704   */\n      dup3\n        /* \"#utility.yul\":21700:21701   */\n      dup3\n        /* \"#utility.yul\":21696:21705   */\n      mul\n        /* \"#utility.yul\":21725:21755   */\n      tag_607\n        /* \"#utility.yul\":21743:21754   */\n      dup2\n        /* \"#utility.yul\":21725:21755   */\n      tag_328\n      jump\t// in\n    tag_607:\n        /* \"#utility.yul\":21714:21755   */\n      swap2\n      pop\n        /* \"#utility.yul\":21904:21905   */\n      dup3\n        /* \"#utility.yul\":21895:21902   */\n      dup3\n        /* \"#utility.yul\":21891:21906   */\n      div\n        /* \"#utility.yul\":21888:21889   */\n      dup5\n        /* \"#utility.yul\":21885:21907   */\n      eq\n        /* \"#utility.yul\":21865:21866   */\n      dup4\n        /* \"#utility.yul\":21858:21867   */\n      iszero\n        /* \"#utility.yul\":21838:21921   */\n      or\n        /* \"#utility.yul\":21815:21954   */\n      tag_608\n      jumpi\n        /* \"#utility.yul\":21934:21952   */\n      tag_609\n      tag_344\n      jump\t// in\n    tag_609:\n        /* \"#utility.yul\":21815:21954   */\n    tag_608:\n        /* \"#utility.yul\":21599:21961   */\n      pop\n        /* \"#utility.yul\":21551:21961   */\n      swap3\n      swap2\n      pop\n      pop\n      jump\t// out\n        /* \"#utility.yul\":21967:22069   */\n    tag_352:\n        /* \"#utility.yul\":22009:22017   */\n      0x00\n        /* \"#utility.yul\":22056:22061   */\n      dup2\n        /* \"#utility.yul\":22053:22054   */\n      0x01\n        /* \"#utility.yul\":22049:22062   */\n      shr\n        /* \"#utility.yul\":22028:22062   */\n      swap1\n      pop\n        /* \"#utility.yul\":21967:22069   */\n      swap2\n      swap1\n      pop\n      jump\t// out\n        /* \"#utility.yul\":22075:22923   */\n    tag_353:\n        /* \"#utility.yul\":22136:22141   */\n      0x00\n        /* \"#utility.yul\":22143:22147   */\n      dup1\n        /* \"#utility.yul\":22167:22173   */\n      dup3\n        /* \"#utility.yul\":22158:22173   */\n      swap2\n      pop\n        /* \"#utility.yul\":22191:22196   */\n      dup4\n        /* \"#utility.yul\":22182:22196   */\n      swap1\n      pop\n        /* \"#utility.yul\":22205:22917   */\n    tag_612:\n        /* \"#utility.yul\":22226:22227   */\n      0x01\n        /* \"#utility.yul\":22216:22224   */\n      dup6\n        /* \"#utility.yul\":22213:22228   */\n      gt\n        /* \"#utility.yul\":22205:22917   */\n      iszero\n      tag_614\n      jumpi\n        /* \"#utility.yul\":22321:22325   */\n      dup1\n        /* \"#utility.yul\":22316:22319   */\n      dup7\n        /* \"#utility.yul\":22312:22326   */\n      div\n        /* \"#utility.yul\":22306:22310   */\n      dup2\n        /* \"#utility.yul\":22303:22327   */\n      gt\n        /* \"#utility.yul\":22300:22350   */\n      iszero\n      tag_615\n      jumpi\n        /* \"#utility.yul\":22330:22348   */\n      tag_616\n      tag_344\n      jump\t// in\n    tag_616:\n        /* \"#utility.yul\":22300:22350   */\n    tag_615:\n        /* \"#utility.yul\":22380:22381   */\n      0x01\n        /* \"#utility.yul\":22370:22378   */\n      dup6\n        /* \"#utility.yul\":22366:22382   */\n      and\n        /* \"#utility.yul\":22363:22814   */\n      iszero\n      tag_617\n      jumpi\n        /* \"#utility.yul\":22795:22799   */\n      dup1\n        /* \"#utility.yul\":22788:22793   */\n      dup3\n        /* \"#utility.yul\":22784:22800   */\n      mul\n        /* \"#utility.yul\":22775:22800   */\n      swap2\n      pop\n        /* \"#utility.yul\":22363:22814   */\n    tag_617:\n        /* \"#utility.yul\":22845:22849   */\n      dup1\n        /* \"#utility.yul\":22839:22843   */\n      dup2\n        /* \"#utility.yul\":22835:22850   */\n      mul\n        /* \"#utility.yul\":22827:22850   */\n      swap1\n      pop\n        /* \"#utility.yul\":22875:22907   */\n      tag_618\n        /* \"#utility.yul\":22898:22906   */\n      dup6\n        /* \"#utility.yul\":22875:22907   */\n      tag_352\n      jump\t// in\n    tag_618:\n        /* \"#utility.yul\":22863:22907   */\n      swap5\n      pop\n        /* \"#utility.yul\":22205:22917   */\n      jump(tag_612)\n    tag_614:\n        /* \"#utility.yul\":22075:22923   */\n      swap5\n      pop\n      swap5\n      swap3\n      pop\n      pop\n      pop\n      jump\t// out\n        /* \"#utility.yul\":22929:24002   */\n    tag_354:\n        /* \"#utility.yul\":22983:22988   */\n      0x00\n        /* \"#utility.yul\":23174:23182   */\n      dup3\n        /* \"#utility.yul\":23164:23204   */\n      tag_620\n      jumpi\n        /* \"#utility.yul\":23195:23196   */\n      0x01\n        /* \"#utility.yul\":23186:23196   */\n      swap1\n      pop\n        /* \"#utility.yul\":23197:23202   */\n      jump(tag_619)\n        /* \"#utility.yul\":23164:23204   */\n    tag_620:\n        /* \"#utility.yul\":23223:23227   */\n      dup2\n        /* \"#utility.yul\":23213:23249   */\n      tag_621\n      jumpi\n        /* \"#utility.yul\":23240:23241   */\n      0x00\n        /* \"#utility.yul\":23231:23241   */\n      swap1\n      pop\n        /* \"#utility.yul\":23242:23247   */\n      jump(tag_619)\n        /* \"#utility.yul\":23213:23249   */\n    tag_621:\n        /* \"#utility.yul\":23309:23313   */\n      dup2\n        /* \"#utility.yul\":23357:23358   */\n      0x01\n        /* \"#utility.yul\":23352:23379   */\n      dup2\n      eq\n      tag_623\n      jumpi\n        /* \"#utility.yul\":23393:23394   */\n      0x02\n        /* \"#utility.yul\":23388:23579   */\n      dup2\n      eq\n      tag_624\n      jumpi\n        /* \"#utility.yul\":23302:23579   */\n      jump(tag_622)\n        /* \"#utility.yul\":23352:23379   */\n    tag_623:\n        /* \"#utility.yul\":23370:23371   */\n      0x01\n        /* \"#utility.yul\":23361:23371   */\n      swap2\n      pop\n        /* \"#utility.yul\":23372:23377   */\n      pop\n      jump(tag_619)\n        /* \"#utility.yul\":23388:23579   */\n    tag_624:\n        /* \"#utility.yul\":23433:23436   */\n      0xff\n        /* \"#utility.yul\":23423:23431   */\n      dup5\n        /* \"#utility.yul\":23420:23437   */\n      gt\n        /* \"#utility.yul\":23417:23460   */\n      iszero\n      tag_625\n      jumpi\n        /* \"#utility.yul\":23440:23458   */\n      tag_626\n      tag_344\n      jump\t// in\n    tag_626:\n        /* \"#utility.yul\":23417:23460   */\n    tag_625:\n        /* \"#utility.yul\":23489:23497   */\n      dup4\n        /* \"#utility.yul\":23486:23487   */\n      0x02\n        /* \"#utility.yul\":23482:23498   */\n      exp\n        /* \"#utility.yul\":23473:23498   */\n      swap2\n      pop\n        /* \"#utility.yul\":23524:23527   */\n      dup5\n        /* \"#utility.yul\":23517:23522   */\n      dup3\n        /* \"#utility.yul\":23514:23528   */\n      gt\n        /* \"#utility.yul\":23511:23551   */\n      iszero\n      tag_627\n      jumpi\n        /* \"#utility.yul\":23531:23549   */\n      tag_628\n      tag_344\n      jump\t// in\n    tag_628:\n        /* \"#utility.yul\":23511:23551   */\n    tag_627:\n        /* \"#utility.yul\":23564:23569   */\n      pop\n      jump(tag_619)\n        /* \"#utility.yul\":23302:23579   */\n    tag_622:\n      pop\n        /* \"#utility.yul\":23688:23690   */\n      0x20\n        /* \"#utility.yul\":23678:23686   */\n      dup4\n        /* \"#utility.yul\":23675:23691   */\n      lt\n        /* \"#utility.yul\":23669:23672   */\n      0x0133\n        /* \"#utility.yul\":23663:23667   */\n      dup4\n        /* \"#utility.yul\":23660:23673   */\n      lt\n        /* \"#utility.yul\":23656:23692   */\n      and\n        /* \"#utility.yul\":23638:23640   */\n      0x4e\n        /* \"#utility.yul\":23628:23636   */\n      dup5\n        /* \"#utility.yul\":23625:23641   */\n      lt\n        /* \"#utility.yul\":23620:23622   */\n      0x0b\n        /* \"#utility.yul\":23614:23618   */\n      dup5\n        /* \"#utility.yul\":23611:23623   */\n      lt\n        /* \"#utility.yul\":23607:23642   */\n      and\n        /* \"#utility.yul\":23591:23702   */\n      or\n        /* \"#utility.yul\":23588:23834   */\n      iszero\n      tag_629\n      jumpi\n        /* \"#utility.yul\":23744:23752   */\n      dup3\n        /* \"#utility.yul\":23738:23742   */\n      dup3\n        /* \"#utility.yul\":23734:23753   */\n      exp\n        /* \"#utility.yul\":23725:23753   */\n      swap1\n      pop\n        /* \"#utility.yul\":23779:23782   */\n      dup4\n        /* \"#utility.yul\":23772:23777   */\n      dup2\n        /* \"#utility.yul\":23769:23783   */\n      gt\n        /* \"#utility.yul\":23766:23806   */\n      iszero\n      tag_630\n      jumpi\n        /* \"#utility.yul\":23786:23804   */\n      tag_631\n      tag_344\n      jump\t// in\n    tag_631:\n        /* \"#utility.yul\":23766:23806   */\n    tag_630:\n        /* \"#utility.yul\":23819:23824   */\n      jump(tag_619)\n        /* \"#utility.yul\":23588:23834   */\n    tag_629:\n        /* \"#utility.yul\":23859:23901   */\n      tag_632\n        /* \"#utility.yul\":23897:23900   */\n      dup5\n        /* \"#utility.yul\":23887:23895   */\n      dup5\n        /* \"#utility.yul\":23881:23885   */\n      dup5\n        /* \"#utility.yul\":23878:23879   */\n      0x01\n        /* \"#utility.yul\":23859:23901   */\n      tag_353\n      jump\t// in\n    tag_632:\n        /* \"#utility.yul\":23844:23901   */\n      swap3\n      pop\n      swap1\n      pop\n        /* \"#utility.yul\":23933:23937   */\n      dup2\n        /* \"#utility.yul\":23928:23931   */\n      dup5\n        /* \"#utility.yul\":23924:23938   */\n      div\n        /* \"#utility.yul\":23917:23922   */\n      dup2\n        /* \"#utility.yul\":23914:23939   */\n      gt\n        /* \"#utility.yul\":23911:23962   */\n      iszero\n      tag_633\n      jumpi\n        /* \"#utility.yul\":23942:23960   */\n      tag_634\n      tag_344\n      jump\t// in\n    tag_634:\n        /* \"#utility.yul\":23911:23962   */\n    tag_633:\n        /* \"#utility.yul\":23991:23995   */\n      dup2\n        /* \"#utility.yul\":23984:23989   */\n      dup2\n        /* \"#utility.yul\":23980:23996   */\n      mul\n        /* \"#utility.yul\":23971:23996   */\n      swap1\n      pop\n        /* \"#utility.yul\":22929:24002   */\n    tag_619:\n      swap4\n      swap3\n      pop\n      pop\n      pop\n      jump\t// out\n        /* \"#utility.yul\":24008:24293   */\n    tag_268:\n        /* \"#utility.yul\":24068:24073   */\n      0x00\n        /* \"#utility.yul\":24092:24115   */\n      tag_636\n        /* \"#utility.yul\":24110:24114   */\n      dup3\n        /* \"#utility.yul\":24092:24115   */\n      tag_328\n      jump\t// in\n    tag_636:\n        /* \"#utility.yul\":24084:24115   */\n      swap2\n      pop\n        /* \"#utility.yul\":24136:24163   */\n      tag_637\n        /* \"#utility.yul\":24154:24162   */\n      dup4\n        /* \"#utility.yul\":24136:24163   */\n      tag_328\n      jump\t// in\n    tag_637:\n        /* \"#utility.yul\":24124:24163   */\n      swap3\n      pop\n        /* \"#utility.yul\":24182:24286   */\n      tag_638\n        /* \"#utility.yul\":24219:24285   */\n      0xffffffffffffffffffffffffffffffffffffffffffffffffffffffffffffffff\n        /* \"#utility.yul\":24209:24217   */\n      dup5\n        /* \"#utility.yul\":24203:24207   */\n      dup5\n        /* \"#utility.yul\":24182:24286   */\n      tag_354\n      jump\t// in\n    tag_638:\n        /* \"#utility.yul\":24173:24286   */\n      swap1\n      pop\n        /* \"#utility.yul\":24008:24293   */\n      swap3\n      swap2\n      pop\n      pop\n      jump\t// out\n\n    auxdata: 0xa26469706673582212202cc390bc218c10883c1f1baead32dd0d9ae481178294c03e0d255e4a783f29bb64736f6c63430008130033\n}\n",
				"bytecode": {
					"linkReferences": {},
					"object": "60a060405273a9d587a00a31a52ed70d6026794a8fc5e2f5dcb0600360006101000a81548173ffffffffffffffffffffffffffffffffffffffff021916908373ffffffffffffffffffffffffffffffffffffffff1602179055507f66756e2d6176616c616e6368652d66756a692d3100000000000000000000000060001b600455620493e0600560006101000a81548163ffffffff021916908363ffffffff1602179055506040518061014001604052806101018152602001620027e8610101913960069081620000d1919062000407565b50348015620000df57600080fd5b50604051620028e9380380620028e9833981810160405281019062000105919062000538565b600360009054906101000a900473ffffffffffffffffffffffffffffffffffffffff168073ffffffffffffffffffffffffffffffffffffffff1660808173ffffffffffffffffffffffffffffffffffffffff16815250505080600560046101000a81548167ffffffffffffffff021916908367ffffffffffffffff160217905550506200056a565b600081519050919050565b7f4e487b7100000000000000000000000000000000000000000000000000000000600052604160045260246000fd5b7f4e487b7100000000000000000000000000000000000000000000000000000000600052602260045260246000fd5b600060028204905060018216806200020f57607f821691505b602082108103620002255762000224620001c7565b5b50919050565b60008190508160005260206000209050919050565b60006020601f8301049050919050565b600082821b905092915050565b6000600883026200028f7fffffffffffffffffffffffffffffffffffffffffffffffffffffffffffffffff8262000250565b6200029b868362000250565b95508019841693508086168417925050509392505050565b6000819050919050565b6000819050919050565b6000620002e8620002e2620002dc84620002b3565b620002bd565b620002b3565b9050919050565b6000819050919050565b6200030483620002c7565b6200031c6200031382620002ef565b8484546200025d565b825550505050565b600090565b6200033362000324565b62000340818484620002f9565b505050565b5b8181101562000368576200035c60008262000329565b60018101905062000346565b5050565b601f821115620003b75762000381816200022b565b6200038c8462000240565b810160208510156200039c578190505b620003b4620003ab8562000240565b83018262000345565b50505b505050565b600082821c905092915050565b6000620003dc60001984600802620003bc565b1980831691505092915050565b6000620003f78383620003c9565b9150826002028217905092915050565b62000412826200018d565b67ffffffffffffffff8111156200042e576200042d62000198565b5b6200043a8254620001f6565b620004478282856200036c565b600060209050601f8311600181146200047f57600084156200046a578287015190505b620004768582620003e9565b865550620004e6565b601f1984166200048f866200022b565b60005b82811015620004b95784890151825560018201915060208501945060208101905062000492565b86831015620004d95784890151620004d5601f891682620003c9565b8355505b6001600288020188555050505b505050505050565b600080fd5b600067ffffffffffffffff82169050919050565b6200051281620004f3565b81146200051e57600080fd5b50565b600081519050620005328162000507565b92915050565b600060208284031215620005515762000550620004ee565b5b6000620005618482850162000521565b91505092915050565b60805161225b6200058d600039600081816101b80152610c29015261225b6000f3fe608060405234801561001057600080fd5b50600436106100935760003560e01c80638ac00021116100665780638ac000211461010e57806394d029411461012c5780639fb517711461015c578063b1e217491461017a578063cd2b8d111461019857610093565b80630ca76175146100985780633944ea3a146100b45780634b0795a8146100d257806367e828bf146100f0575b600080fd5b6100b260048036038101906100ad9190611568565b6101b6565b005b6100bc610278565b6040516100c99190611672565b60405180910390f35b6100da610306565b6040516100e79190611672565b60405180910390f35b6100f8610394565b60405161010591906116e9565b60405180910390f35b610116610422565b604051610123919061172e565b60405180910390f35b610146600480360381019061014191906117ea565b61043c565b6040516101539190611842565b60405180910390f35b6101646105d3565b60405161017191906116e9565b60405180910390f35b610182610661565b60405161018f9190611842565b60405180910390f35b6101a0610667565b6040516101ad91906116e9565b60405180910390f35b7f000000000000000000000000000000000000000000000000000000000000000073ffffffffffffffffffffffffffffffffffffffff163373ffffffffffffffffffffffffffffffffffffffff161461023b576040517fc6829f8300000000000000000000000000000000000000000000000000000000815260040160405180910390fd5b6102468383836106f5565b827f85e1543bf2f84fe80c6badbce3648c8539ad1df4d2b3d822938ca0538be727e660405160405180910390a2505050565b600180546102859061188c565b80601f01602080910402602001604051908101604052809291908181526020018280546102b19061188c565b80156102fe5780601f106102d3576101008083540402835291602001916102fe565b820191906000526020600020905b8154815290600101906020018083116102e157829003601f168201915b505050505081565b600280546103139061188c565b80601f016020809104026020016040519081016040528092919081815260200182805461033f9061188c565b801561038c5780601f106103615761010080835404028352916020019161038c565b820191906000526020600020905b81548152906001019060200180831161036f57829003601f168201915b505050505081565b600680546103a19061188c565b80601f01602080910402602001604051908101604052809291908181526020018280546103cd9061188c565b801561041a5780601f106103ef5761010080835404028352916020019161041a565b820191906000526020600020905b8154815290600101906020018083116103fd57829003601f168201915b505050505081565b600560049054906101000a900467ffffffffffffffff1681565b600080600167ffffffffffffffff81111561045a5761045961143d565b5b60405190808252806020026020018201604052801561048d57816020015b60608152602001906001900390816104785790505b50905082816000815181106104a5576104a46118bd565b5b60200260200101819052506104b861132c565b610555600680546104c89061188c565b80601f01602080910402602001604051908101604052809291908181526020018280546104f49061188c565b80156105415780601f1061051657610100808354040283529160200191610541565b820191906000526020600020905b81548152906001019060200180831161052457829003601f168201915b5050505050826107af90919063ffffffff16565b6000825111156105735761057282826107c090919063ffffffff16565b5b6105b161057f82610808565b600560049054906101000a900467ffffffffffffffff16600560009054906101000a900463ffffffff16600454610c24565b60008190555083600790816105c69190611aa2565b5060005492505050919050565b600880546105e09061188c565b80601f016020809104026020016040519081016040528092919081815260200182805461060c9061188c565b80156106595780601f1061062e57610100808354040283529160200191610659565b820191906000526020600020905b81548152906001019060200180831161063c57829003601f168201915b505050505081565b60005481565b600780546106749061188c565b80601f01602080910402602001604051908101604052809291908181526020018280546106a09061188c565b80156106ed5780601f106106c2576101008083540402835291602001916106ed565b820191906000526020600020905b8154815290600101906020018083116106d057829003601f168201915b505050505081565b826000541461073b57826040517fd068bf5b0000000000000000000000000000000000000000000000000000000081526004016107329190611842565b60405180910390fd5b806002908161074a9190611bcf565b50816001908161075a9190611bcf565b50816008908161076a9190611aa2565b50827f160ed0aaffbef6885155188b91459cb5a97d5daadccf7561d8c46deea6641b506008600160026040516107a293929190611da9565b60405180910390a2505050565b6107bc8260008084610d07565b5050565b60008151036107fb576040517ffe936cb700000000000000000000000000000000000000000000000000000000815260040160405180910390fd5b808260a001819052505050565b60606000610817610100610db1565b90506108616040518060400160405280600c81526020017f636f64654c6f636174696f6e000000000000000000000000000000000000000081525082610dd890919063ffffffff16565b61088a8360000151600281111561087b5761087a611df5565b5b82610e0190919063ffffffff16565b6108d26040518060400160405280600881526020017f6c616e677561676500000000000000000000000000000000000000000000000081525082610dd890919063ffffffff16565b6108fb836040015160008111156108ec576108eb611df5565b5b82610e0190919063ffffffff16565b6109436040518060400160405280600681526020017f736f75726365000000000000000000000000000000000000000000000000000081525082610dd890919063ffffffff16565b61095a836060015182610dd890919063ffffffff16565b60008360a00151511115610a16576109b06040518060400160405280600481526020017f617267730000000000000000000000000000000000000000000000000000000081525082610dd890919063ffffffff16565b6109b981610e51565b60005b8360a0015151811015610a0b576109fa8460a0015182815181106109e3576109e26118bd565b5b602002602001015183610dd890919063ffffffff16565b80610a0490611e53565b90506109bc565b50610a1581610e79565b5b60008360800151511115610b575760006002811115610a3857610a37611df5565b5b83602001516002811115610a4f57610a4e611df5565b5b03610a86576040517fa80d31f700000000000000000000000000000000000000000000000000000000815260040160405180910390fd5b610ace6040518060400160405280600f81526020017f736563726574734c6f636174696f6e000000000000000000000000000000000081525082610dd890919063ffffffff16565b610af783602001516002811115610ae857610ae7611df5565b5b82610e0190919063ffffffff16565b610b3f6040518060400160405280600781526020017f736563726574730000000000000000000000000000000000000000000000000081525082610dd890919063ffffffff16565b610b56836080015182610ea190919063ffffffff16565b5b60008360c00151511115610c1357610bad6040518060400160405280600981526020017f627974657341726773000000000000000000000000000000000000000000000081525082610dd890919063ffffffff16565b610bb681610e51565b60005b8360c0015151811015610c0857610bf78460c001518281518110610be057610bdf6118bd565b5b602002602001015183610ea190919063ffffffff16565b80610c0190611e53565b9050610bb9565b50610c1281610e79565b5b806000015160000151915050919050565b6000807f000000000000000000000000000000000000000000000000000000000000000073ffffffffffffffffffffffffffffffffffffffff1663461d27628688600188886040518663ffffffff1660e01b8152600401610c89959493929190611ed7565b6020604051808303816000875af1158015610ca8573d6000803e3d6000fd5b505050506040513d601f19601f82011682018060405250810190610ccc9190611f46565b9050807f1131472297a800fee664d1d89cfa8f7676ff07189ecc53f80bbb5f4969099db860405160405180910390a280915050949350505050565b6000815103610d42576040517f22ce3edd00000000000000000000000000000000000000000000000000000000815260040160405180910390fd5b8284600001906002811115610d5a57610d59611df5565b5b90816002811115610d6e57610d6d611df5565b5b815250508184604001906000811115610d8a57610d89611df5565b5b90816000811115610d9e57610d9d611df5565b5b8152505080846060018190525050505050565b610db961139e565b610dc7816000015183610eca565b506000816020018181525050919050565b610de58260038351610f43565b610dfc8183600001516110ec90919063ffffffff16565b505050565b610e2360026005600660ff16901b17836000015161110890919063ffffffff16565b50610e4d8282604051602001610e399190611f82565b604051602081830303815290604052610ea1565b5050565b610e5c816004611172565b600181602001818151610e6f9190611f9d565b9150818152505050565b610e84816007611172565b600181602001818151610e979190611fd1565b9150818152505050565b610eae8260028351610f43565b610ec58183600001516110ec90919063ffffffff16565b505050565b610ed26113be565b6000602083610ee19190612034565b14610f0d57602082610ef39190612034565b6020610eff9190611fd1565b82610f0a9190611f9d565b91505b818360200181815250506040518084526000815282810160200181811015610f3457600080fd5b80604052505082905092915050565b60178167ffffffffffffffff1611610f7e57610f788160058460ff16901b60ff1617846000015161110890919063ffffffff16565b506110e7565b60ff8167ffffffffffffffff1611610fdc57610fb1601860058460ff16901b17846000015161110890919063ffffffff16565b50610fd68167ffffffffffffffff16600185600001516111989092919063ffffffff16565b506110e6565b61ffff8167ffffffffffffffff161161103b57611010601960058460ff16901b17846000015161110890919063ffffffff16565b506110358167ffffffffffffffff16600285600001516111989092919063ffffffff16565b506110e5565b63ffffffff8167ffffffffffffffff161161109c57611071601a60058460ff16901b17846000015161110890919063ffffffff16565b506110968167ffffffffffffffff16600485600001516111989092919063ffffffff16565b506110e4565b6110bd601b60058460ff16901b17846000015161110890919063ffffffff16565b506110e28167ffffffffffffffff16600885600001516111989092919063ffffffff16565b505b5b5b5b505050565b6110f46113be565b61110083838451611225565b905092915050565b6111106113be565b6000836000015151905060006001826111299190611f9d565b90508460200151821061114d5761114c856002836111479190612065565b611308565b5b84516020838201018581538151831115611165578282525b5050849250505092915050565b611193601f60058360ff16901b17836000015161110890919063ffffffff16565b505050565b6111a06113be565b60008460000151519050600081846111b89190611f9d565b905085602001518111156111dd576111dc866002836111d79190612065565b611308565b5b60006001856101006111ef91906121da565b6111f99190611fd1565b905086518281018783198251161781528151841115611216578382525b50508693505050509392505050565b61122d6113be565b825182111561123b57600080fd5b60008460000151519050600083826112539190611f9d565b9050856020015181111561127857611277866002836112729190612065565b611308565b5b60008087518051856020830101935080851115611293578482525b60208901925050505b602086106112da57805182526020826112b59190611f9d565b91506020816112c49190611f9d565b90506020866112d39190611fd1565b955061129c565b60006001876020036101000a0390508019825116818451168181178552505050879450505050509392505050565b60008260000151905061131b8383610eca565b5061132683826110ec565b50505050565b6040518060e001604052806000600281111561134b5761134a611df5565b5b81526020016000600281111561136457611363611df5565b5b815260200160008081111561137c5761137b611df5565b5b8152602001606081526020016060815260200160608152602001606081525090565b60405180604001604052806113b16113be565b8152602001600081525090565b604051806040016040528060608152602001600081525090565b6000604051905090565b600080fd5b600080fd5b6000819050919050565b6113ff816113ec565b811461140a57600080fd5b50565b60008135905061141c816113f6565b92915050565b600080fd5b600080fd5b6000601f19601f8301169050919050565b7f4e487b7100000000000000000000000000000000000000000000000000000000600052604160045260246000fd5b6114758261142c565b810181811067ffffffffffffffff821117156114945761149361143d565b5b80604052505050565b60006114a76113d8565b90506114b3828261146c565b919050565b600067ffffffffffffffff8211156114d3576114d261143d565b5b6114dc8261142c565b9050602081019050919050565b82818337600083830152505050565b600061150b611506846114b8565b61149d565b90508281526020810184848401111561152757611526611427565b5b6115328482856114e9565b509392505050565b600082601f83011261154f5761154e611422565b5b813561155f8482602086016114f8565b91505092915050565b600080600060608486031215611581576115806113e2565b5b600061158f8682870161140d565b935050602084013567ffffffffffffffff8111156115b0576115af6113e7565b5b6115bc8682870161153a565b925050604084013567ffffffffffffffff8111156115dd576115dc6113e7565b5b6115e98682870161153a565b9150509250925092565b600081519050919050565b600082825260208201905092915050565b60005b8381101561162d578082015181840152602081019050611612565b60008484015250505050565b6000611644826115f3565b61164e81856115fe565b935061165e81856020860161160f565b6116678161142c565b840191505092915050565b6000602082019050818103600083015261168c8184611639565b905092915050565b600081519050919050565b600082825260208201905092915050565b60006116bb82611694565b6116c5818561169f565b93506116d581856020860161160f565b6116de8161142c565b840191505092915050565b6000602082019050818103600083015261170381846116b0565b905092915050565b600067ffffffffffffffff82169050919050565b6117288161170b565b82525050565b6000602082019050611743600083018461171f565b92915050565b600067ffffffffffffffff8211156117645761176361143d565b5b61176d8261142c565b9050602081019050919050565b600061178d61178884611749565b61149d565b9050828152602081018484840111156117a9576117a8611427565b5b6117b48482856114e9565b509392505050565b600082601f8301126117d1576117d0611422565b5b81356117e184826020860161177a565b91505092915050565b600060208284031215611800576117ff6113e2565b5b600082013567ffffffffffffffff81111561181e5761181d6113e7565b5b61182a848285016117bc565b91505092915050565b61183c816113ec565b82525050565b60006020820190506118576000830184611833565b92915050565b7f4e487b7100000000000000000000000000000000000000000000000000000000600052602260045260246000fd5b600060028204905060018216806118a457607f821691505b6020821081036118b7576118b661185d565b5b50919050565b7f4e487b7100000000000000000000000000000000000000000000000000000000600052603260045260246000fd5b60008190508160005260206000209050919050565b60006020601f8301049050919050565b600082821b905092915050565b60006008830261194e7fffffffffffffffffffffffffffffffffffffffffffffffffffffffffffffffff82611911565b6119588683611911565b95508019841693508086168417925050509392505050565b6000819050919050565b6000819050919050565b600061199f61199a61199584611970565b61197a565b611970565b9050919050565b6000819050919050565b6119b983611984565b6119cd6119c5826119a6565b84845461191e565b825550505050565b600090565b6119e26119d5565b6119ed8184846119b0565b505050565b5b81811015611a1157611a066000826119da565b6001810190506119f3565b5050565b601f821115611a5657611a27816118ec565b611a3084611901565b81016020851015611a3f578190505b611a53611a4b85611901565b8301826119f2565b50505b505050565b600082821c905092915050565b6000611a7960001984600802611a5b565b1980831691505092915050565b6000611a928383611a68565b9150826002028217905092915050565b611aab82611694565b67ffffffffffffffff811115611ac457611ac361143d565b5b611ace825461188c565b611ad9828285611a15565b600060209050601f831160018114611b0c5760008415611afa578287015190505b611b048582611a86565b865550611b6c565b601f198416611b1a866118ec565b60005b82811015611b4257848901518255600182019150602085019450602081019050611b1d565b86831015611b5f5784890151611b5b601f891682611a68565b8355505b6001600288020188555050505b505050505050565b60008190508160005260206000209050919050565b601f821115611bca57611b9b81611b74565b611ba484611901565b81016020851015611bb3578190505b611bc7611bbf85611901565b8301826119f2565b50505b505050565b611bd8826115f3565b67ffffffffffffffff811115611bf157611bf061143d565b5b611bfb825461188c565b611c06828285611b89565b600060209050601f831160018114611c395760008415611c27578287015190505b611c318582611a86565b865550611c99565b601f198416611c4786611b74565b60005b82811015611c6f57848901518255600182019150602085019450602081019050611c4a565b86831015611c8c5784890151611c88601f891682611a68565b8355505b6001600288020188555050505b505050505050565b60008154611cae8161188c565b611cb8818661169f565b94506001821660008114611cd35760018114611ce957611d1c565b60ff198316865281151560200286019350611d1c565b611cf2856118ec565b60005b83811015611d1457815481890152600182019150602081019050611cf5565b808801955050505b50505092915050565b60008154611d328161188c565b611d3c81866115fe565b94506001821660008114611d575760018114611d6d57611da0565b60ff198316865281151560200286019350611da0565b611d7685611b74565b60005b83811015611d9857815481890152600182019150602081019050611d79565b808801955050505b50505092915050565b60006060820190508181036000830152611dc38186611ca1565b90508181036020830152611dd78185611d25565b90508181036040830152611deb8184611d25565b9050949350505050565b7f4e487b7100000000000000000000000000000000000000000000000000000000600052602160045260246000fd5b7f4e487b7100000000000000000000000000000000000000000000000000000000600052601160045260246000fd5b6000611e5e82611970565b91507fffffffffffffffffffffffffffffffffffffffffffffffffffffffffffffffff8203611e9057611e8f611e24565b5b600182019050919050565b600061ffff82169050919050565b611eb281611e9b565b82525050565b600063ffffffff82169050919050565b611ed181611eb8565b82525050565b600060a082019050611eec600083018861171f565b8181036020830152611efe8187611639565b9050611f0d6040830186611ea9565b611f1a6060830185611ec8565b611f276080830184611833565b9695505050505050565b600081519050611f40816113f6565b92915050565b600060208284031215611f5c57611f5b6113e2565b5b6000611f6a84828501611f31565b91505092915050565b611f7c81611970565b82525050565b6000602082019050611f976000830184611f73565b92915050565b6000611fa882611970565b9150611fb383611970565b9250828201905080821115611fcb57611fca611e24565b5b92915050565b6000611fdc82611970565b9150611fe783611970565b9250828203905081811115611fff57611ffe611e24565b5b92915050565b7f4e487b7100000000000000000000000000000000000000000000000000000000600052601260045260246000fd5b600061203f82611970565b915061204a83611970565b92508261205a57612059612005565b5b828206905092915050565b600061207082611970565b915061207b83611970565b925082820261208981611970565b915082820484148315176120a05761209f611e24565b5b5092915050565b60008160011c9050919050565b6000808291508390505b60018511156120fe578086048111156120da576120d9611e24565b5b60018516156120e95780820291505b80810290506120f7856120a7565b94506120be565b94509492505050565b60008261211757600190506121d3565b8161212557600090506121d3565b816001811461213b576002811461214557612174565b60019150506121d3565b60ff84111561215757612156611e24565b5b8360020a91508482111561216e5761216d611e24565b5b506121d3565b5060208310610133831016604e8410600b84101617156121a95782820a9050838111156121a4576121a3611e24565b5b6121d3565b6121b684848460016120b4565b925090508184048111156121cd576121cc611e24565b5b81810290505b9392505050565b60006121e582611970565b91506121f083611970565b925061221d7fffffffffffffffffffffffffffffffffffffffffffffffffffffffffffffffff8484612107565b90509291505056fea26469706673582212202cc390bc218c10883c1f1baead32dd0d9ae481178294c03e0d255e4a783f29bb64736f6c63430008130033636f6e73742063697479203d20617267735b305d3b636f6e737420617069526573706f6e7365203d2061776169742046756e6374696f6e732e6d616b654874747052657175657374287b75726c3a206068747470733a2f2f777474722e696e2f247b636974797d3f666f726d61743d33602c726573706f6e7365547970653a202774657874277d293b69662028617069526573706f6e73652e6572726f7229207b7468726f77204572726f72282752657175657374206661696c656427293b7d636f6e7374207b2064617461207d203d20617069526573706f6e73653b72657475726e2046756e6374696f6e732e656e636f6465537472696e672864617461293b",
					"opcodes": "PUSH1 0xA0 PUSH1 0x40 MSTORE PUSH20 0xA9D587A00A31A52ED70D6026794A8FC5E2F5DCB0 PUSH1 0x3 PUSH1 0x0 PUSH2 0x100 EXP DUP2 SLOAD DUP2 PUSH20 0xFFFFFFFFFFFFFFFFFFFFFFFFFFFFFFFFFFFFFFFF MUL NOT AND SWAP1 DUP4 PUSH20 0xFFFFFFFFFFFFFFFFFFFFFFFFFFFFFFFFFFFFFFFF AND MUL OR SWAP1 SSTORE POP PUSH32 0x66756E2D6176616C616E6368652D66756A692D31000000000000000000000000 PUSH1 0x0 SHL PUSH1 0x4 SSTORE PUSH3 0x493E0 PUSH1 0x5 PUSH1 0x0 PUSH2 0x100 EXP DUP2 SLOAD DUP2 PUSH4 0xFFFFFFFF MUL NOT AND SWAP1 DUP4 PUSH4 0xFFFFFFFF AND MUL OR SWAP1 SSTORE POP PUSH1 0x40 MLOAD DUP1 PUSH2 0x140 ADD PUSH1 0x40 MSTORE DUP1 PUSH2 0x101 DUP2 MSTORE PUSH1 0x20 ADD PUSH3 0x27E8 PUSH2 0x101 SWAP2 CODECOPY PUSH1 0x6 SWAP1 DUP2 PUSH3 0xD1 SWAP2 SWAP1 PUSH3 0x407 JUMP JUMPDEST POP CALLVALUE DUP1 ISZERO PUSH3 0xDF JUMPI PUSH1 0x0 DUP1 REVERT JUMPDEST POP PUSH1 0x40 MLOAD PUSH3 0x28E9 CODESIZE SUB DUP1 PUSH3 0x28E9 DUP4 CODECOPY DUP2 DUP2 ADD PUSH1 0x40 MSTORE DUP2 ADD SWAP1 PUSH3 0x105 SWAP2 SWAP1 PUSH3 0x538 JUMP JUMPDEST PUSH1 0x3 PUSH1 0x0 SWAP1 SLOAD SWAP1 PUSH2 0x100 EXP SWAP1 DIV PUSH20 0xFFFFFFFFFFFFFFFFFFFFFFFFFFFFFFFFFFFFFFFF AND DUP1 PUSH20 0xFFFFFFFFFFFFFFFFFFFFFFFFFFFFFFFFFFFFFFFF AND PUSH1 0x80 DUP2 PUSH20 0xFFFFFFFFFFFFFFFFFFFFFFFFFFFFFFFFFFFFFFFF AND DUP2 MSTORE POP POP POP DUP1 PUSH1 0x5 PUSH1 0x4 PUSH2 0x100 EXP DUP2 SLOAD DUP2 PUSH8 0xFFFFFFFFFFFFFFFF MUL NOT AND SWAP1 DUP4 PUSH8 0xFFFFFFFFFFFFFFFF AND MUL OR SWAP1 SSTORE POP POP PUSH3 0x56A JUMP JUMPDEST PUSH1 0x0 DUP2 MLOAD SWAP1 POP SWAP2 SWAP1 POP JUMP JUMPDEST PUSH32 0x4E487B7100000000000000000000000000000000000000000000000000000000 PUSH1 0x0 MSTORE PUSH1 0x41 PUSH1 0x4 MSTORE PUSH1 0x24 PUSH1 0x0 REVERT JUMPDEST PUSH32 0x4E487B7100000000000000000000000000000000000000000000000000000000 PUSH1 0x0 MSTORE PUSH1 0x22 PUSH1 0x4 MSTORE PUSH1 0x24 PUSH1 0x0 REVERT JUMPDEST PUSH1 0x0 PUSH1 0x2 DUP3 DIV SWAP1 POP PUSH1 0x1 DUP3 AND DUP1 PUSH3 0x20F JUMPI PUSH1 0x7F DUP3 AND SWAP2 POP JUMPDEST PUSH1 0x20 DUP3 LT DUP2 SUB PUSH3 0x225 JUMPI PUSH3 0x224 PUSH3 0x1C7 JUMP JUMPDEST JUMPDEST POP SWAP2 SWAP1 POP JUMP JUMPDEST PUSH1 0x0 DUP2 SWAP1 POP DUP2 PUSH1 0x0 MSTORE PUSH1 0x20 PUSH1 0x0 KECCAK256 SWAP1 POP SWAP2 SWAP1 POP JUMP JUMPDEST PUSH1 0x0 PUSH1 0x20 PUSH1 0x1F DUP4 ADD DIV SWAP1 POP SWAP2 SWAP1 POP JUMP JUMPDEST PUSH1 0x0 DUP3 DUP3 SHL SWAP1 POP SWAP3 SWAP2 POP POP JUMP JUMPDEST PUSH1 0x0 PUSH1 0x8 DUP4 MUL PUSH3 0x28F PUSH32 0xFFFFFFFFFFFFFFFFFFFFFFFFFFFFFFFFFFFFFFFFFFFFFFFFFFFFFFFFFFFFFFFF DUP3 PUSH3 0x250 JUMP JUMPDEST PUSH3 0x29B DUP7 DUP4 PUSH3 0x250 JUMP JUMPDEST SWAP6 POP DUP1 NOT DUP5 AND SWAP4 POP DUP1 DUP7 AND DUP5 OR SWAP3 POP POP POP SWAP4 SWAP3 POP POP POP JUMP JUMPDEST PUSH1 0x0 DUP2 SWAP1 POP SWAP2 SWAP1 POP JUMP JUMPDEST PUSH1 0x0 DUP2 SWAP1 POP SWAP2 SWAP1 POP JUMP JUMPDEST PUSH1 0x0 PUSH3 0x2E8 PUSH3 0x2E2 PUSH3 0x2DC DUP5 PUSH3 0x2B3 JUMP JUMPDEST PUSH3 0x2BD JUMP JUMPDEST PUSH3 0x2B3 JUMP JUMPDEST SWAP1 POP SWAP2 SWAP1 POP JUMP JUMPDEST PUSH1 0x0 DUP2 SWAP1 POP SWAP2 SWAP1 POP JUMP JUMPDEST PUSH3 0x304 DUP4 PUSH3 0x2C7 JUMP JUMPDEST PUSH3 0x31C PUSH3 0x313 DUP3 PUSH3 0x2EF JUMP JUMPDEST DUP5 DUP5 SLOAD PUSH3 0x25D JUMP JUMPDEST DUP3 SSTORE POP POP POP POP JUMP JUMPDEST PUSH1 0x0 SWAP1 JUMP JUMPDEST PUSH3 0x333 PUSH3 0x324 JUMP JUMPDEST PUSH3 0x340 DUP2 DUP5 DUP5 PUSH3 0x2F9 JUMP JUMPDEST POP POP POP JUMP JUMPDEST JUMPDEST DUP2 DUP2 LT ISZERO PUSH3 0x368 JUMPI PUSH3 0x35C PUSH1 0x0 DUP3 PUSH3 0x329 JUMP JUMPDEST PUSH1 0x1 DUP2 ADD SWAP1 POP PUSH3 0x346 JUMP JUMPDEST POP POP JUMP JUMPDEST PUSH1 0x1F DUP3 GT ISZERO PUSH3 0x3B7 JUMPI PUSH3 0x381 DUP2 PUSH3 0x22B JUMP JUMPDEST PUSH3 0x38C DUP5 PUSH3 0x240 JUMP JUMPDEST DUP2 ADD PUSH1 0x20 DUP6 LT ISZERO PUSH3 0x39C JUMPI DUP2 SWAP1 POP JUMPDEST PUSH3 0x3B4 PUSH3 0x3AB DUP6 PUSH3 0x240 JUMP JUMPDEST DUP4 ADD DUP3 PUSH3 0x345 JUMP JUMPDEST POP POP JUMPDEST POP POP POP JUMP JUMPDEST PUSH1 0x0 DUP3 DUP3 SHR SWAP1 POP SWAP3 SWAP2 POP POP JUMP JUMPDEST PUSH1 0x0 PUSH3 0x3DC PUSH1 0x0 NOT DUP5 PUSH1 0x8 MUL PUSH3 0x3BC JUMP JUMPDEST NOT DUP1 DUP4 AND SWAP2 POP POP SWAP3 SWAP2 POP POP JUMP JUMPDEST PUSH1 0x0 PUSH3 0x3F7 DUP4 DUP4 PUSH3 0x3C9 JUMP JUMPDEST SWAP2 POP DUP3 PUSH1 0x2 MUL DUP3 OR SWAP1 POP SWAP3 SWAP2 POP POP JUMP JUMPDEST PUSH3 0x412 DUP3 PUSH3 0x18D JUMP JUMPDEST PUSH8 0xFFFFFFFFFFFFFFFF DUP2 GT ISZERO PUSH3 0x42E JUMPI PUSH3 0x42D PUSH3 0x198 JUMP JUMPDEST JUMPDEST PUSH3 0x43A DUP3 SLOAD PUSH3 0x1F6 JUMP JUMPDEST PUSH3 0x447 DUP3 DUP3 DUP6 PUSH3 0x36C JUMP JUMPDEST PUSH1 0x0 PUSH1 0x20 SWAP1 POP PUSH1 0x1F DUP4 GT PUSH1 0x1 DUP2 EQ PUSH3 0x47F JUMPI PUSH1 0x0 DUP5 ISZERO PUSH3 0x46A JUMPI DUP3 DUP8 ADD MLOAD SWAP1 POP JUMPDEST PUSH3 0x476 DUP6 DUP3 PUSH3 0x3E9 JUMP JUMPDEST DUP7 SSTORE POP PUSH3 0x4E6 JUMP JUMPDEST PUSH1 0x1F NOT DUP5 AND PUSH3 0x48F DUP7 PUSH3 0x22B JUMP JUMPDEST PUSH1 0x0 JUMPDEST DUP3 DUP2 LT ISZERO PUSH3 0x4B9 JUMPI DUP5 DUP10 ADD MLOAD DUP3 SSTORE PUSH1 0x1 DUP3 ADD SWAP2 POP PUSH1 0x20 DUP6 ADD SWAP5 POP PUSH1 0x20 DUP2 ADD SWAP1 POP PUSH3 0x492 JUMP JUMPDEST DUP7 DUP4 LT ISZERO PUSH3 0x4D9 JUMPI DUP5 DUP10 ADD MLOAD PUSH3 0x4D5 PUSH1 0x1F DUP10 AND DUP3 PUSH3 0x3C9 JUMP JUMPDEST DUP4 SSTORE POP JUMPDEST PUSH1 0x1 PUSH1 0x2 DUP9 MUL ADD DUP9 SSTORE POP POP POP JUMPDEST POP POP POP POP POP POP JUMP JUMPDEST PUSH1 0x0 DUP1 REVERT JUMPDEST PUSH1 0x0 PUSH8 0xFFFFFFFFFFFFFFFF DUP3 AND SWAP1 POP SWAP2 SWAP1 POP JUMP JUMPDEST PUSH3 0x512 DUP2 PUSH3 0x4F3 JUMP JUMPDEST DUP2 EQ PUSH3 0x51E JUMPI PUSH1 0x0 DUP1 REVERT JUMPDEST POP JUMP JUMPDEST PUSH1 0x0 DUP2 MLOAD SWAP1 POP PUSH3 0x532 DUP2 PUSH3 0x507 JUMP JUMPDEST SWAP3 SWAP2 POP POP JUMP JUMPDEST PUSH1 0x0 PUSH1 0x20 DUP3 DUP5 SUB SLT ISZERO PUSH3 0x551 JUMPI PUSH3 0x550 PUSH3 0x4EE JUMP JUMPDEST JUMPDEST PUSH1 0x0 PUSH3 0x561 DUP5 DUP3 DUP6 ADD PUSH3 0x521 JUMP JUMPDEST SWAP2 POP POP SWAP3 SWAP2 POP POP JUMP JUMPDEST PUSH1 0x80 MLOAD PUSH2 0x225B PUSH3 0x58D PUSH1 0x0 CODECOPY PUSH1 0x0 DUP2 DUP2 PUSH2 0x1B8 ADD MSTORE PUSH2 0xC29 ADD MSTORE PUSH2 0x225B PUSH1 0x0 RETURN INVALID PUSH1 0x80 PUSH1 0x40 MSTORE CALLVALUE DUP1 ISZERO PUSH2 0x10 JUMPI PUSH1 0x0 DUP1 REVERT JUMPDEST POP PUSH1 0x4 CALLDATASIZE LT PUSH2 0x93 JUMPI PUSH1 0x0 CALLDATALOAD PUSH1 0xE0 SHR DUP1 PUSH4 0x8AC00021 GT PUSH2 0x66 JUMPI DUP1 PUSH4 0x8AC00021 EQ PUSH2 0x10E JUMPI DUP1 PUSH4 0x94D02941 EQ PUSH2 0x12C JUMPI DUP1 PUSH4 0x9FB51771 EQ PUSH2 0x15C JUMPI DUP1 PUSH4 0xB1E21749 EQ PUSH2 0x17A JUMPI DUP1 PUSH4 0xCD2B8D11 EQ PUSH2 0x198 JUMPI PUSH2 0x93 JUMP JUMPDEST DUP1 PUSH4 0xCA76175 EQ PUSH2 0x98 JUMPI DUP1 PUSH4 0x3944EA3A EQ PUSH2 0xB4 JUMPI DUP1 PUSH4 0x4B0795A8 EQ PUSH2 0xD2 JUMPI DUP1 PUSH4 0x67E828BF EQ PUSH2 0xF0 JUMPI JUMPDEST PUSH1 0x0 DUP1 REVERT JUMPDEST PUSH2 0xB2 PUSH1 0x4 DUP1 CALLDATASIZE SUB DUP2 ADD SWAP1 PUSH2 0xAD SWAP2 SWAP1 PUSH2 0x1568 JUMP JUMPDEST PUSH2 0x1B6 JUMP JUMPDEST STOP JUMPDEST PUSH2 0xBC PUSH2 0x278 JUMP JUMPDEST PUSH1 0x40 MLOAD PUSH2 0xC9 SWAP2 SWAP1 PUSH2 0x1672 JUMP JUMPDEST PUSH1 0x40 MLOAD DUP1 SWAP2 SUB SWAP1 RETURN JUMPDEST PUSH2 0xDA PUSH2 0x306 JUMP JUMPDEST PUSH1 0x40 MLOAD PUSH2 0xE7 SWAP2 SWAP1 PUSH2 0x1672 JUMP JUMPDEST PUSH1 0x40 MLOAD DUP1 SWAP2 SUB SWAP1 RETURN JUMPDEST PUSH2 0xF8 PUSH2 0x394 JUMP JUMPDEST PUSH1 0x40 MLOAD PUSH2 0x105 SWAP2 SWAP1 PUSH2 0x16E9 JUMP JUMPDEST PUSH1 0x40 MLOAD DUP1 SWAP2 SUB SWAP1 RETURN JUMPDEST PUSH2 0x116 PUSH2 0x422 JUMP JUMPDEST PUSH1 0x40 MLOAD PUSH2 0x123 SWAP2 SWAP1 PUSH2 0x172E JUMP JUMPDEST PUSH1 0x40 MLOAD DUP1 SWAP2 SUB SWAP1 RETURN JUMPDEST PUSH2 0x146 PUSH1 0x4 DUP1 CALLDATASIZE SUB DUP2 ADD SWAP1 PUSH2 0x141 SWAP2 SWAP1 PUSH2 0x17EA JUMP JUMPDEST PUSH2 0x43C JUMP JUMPDEST PUSH1 0x40 MLOAD PUSH2 0x153 SWAP2 SWAP1 PUSH2 0x1842 JUMP JUMPDEST PUSH1 0x40 MLOAD DUP1 SWAP2 SUB SWAP1 RETURN JUMPDEST PUSH2 0x164 PUSH2 0x5D3 JUMP JUMPDEST PUSH1 0x40 MLOAD PUSH2 0x171 SWAP2 SWAP1 PUSH2 0x16E9 JUMP JUMPDEST PUSH1 0x40 MLOAD DUP1 SWAP2 SUB SWAP1 RETURN JUMPDEST PUSH2 0x182 PUSH2 0x661 JUMP JUMPDEST PUSH1 0x40 MLOAD PUSH2 0x18F SWAP2 SWAP1 PUSH2 0x1842 JUMP JUMPDEST PUSH1 0x40 MLOAD DUP1 SWAP2 SUB SWAP1 RETURN JUMPDEST PUSH2 0x1A0 PUSH2 0x667 JUMP JUMPDEST PUSH1 0x40 MLOAD PUSH2 0x1AD SWAP2 SWAP1 PUSH2 0x16E9 JUMP JUMPDEST PUSH1 0x40 MLOAD DUP1 SWAP2 SUB SWAP1 RETURN JUMPDEST PUSH32 0x0 PUSH20 0xFFFFFFFFFFFFFFFFFFFFFFFFFFFFFFFFFFFFFFFF AND CALLER PUSH20 0xFFFFFFFFFFFFFFFFFFFFFFFFFFFFFFFFFFFFFFFF AND EQ PUSH2 0x23B JUMPI PUSH1 0x40 MLOAD PUSH32 0xC6829F8300000000000000000000000000000000000000000000000000000000 DUP2 MSTORE PUSH1 0x4 ADD PUSH1 0x40 MLOAD DUP1 SWAP2 SUB SWAP1 REVERT JUMPDEST PUSH2 0x246 DUP4 DUP4 DUP4 PUSH2 0x6F5 JUMP JUMPDEST DUP3 PUSH32 0x85E1543BF2F84FE80C6BADBCE3648C8539AD1DF4D2B3D822938CA0538BE727E6 PUSH1 0x40 MLOAD PUSH1 0x40 MLOAD DUP1 SWAP2 SUB SWAP1 LOG2 POP POP POP JUMP JUMPDEST PUSH1 0x1 DUP1 SLOAD PUSH2 0x285 SWAP1 PUSH2 0x188C JUMP JUMPDEST DUP1 PUSH1 0x1F ADD PUSH1 0x20 DUP1 SWAP2 DIV MUL PUSH1 0x20 ADD PUSH1 0x40 MLOAD SWAP1 DUP2 ADD PUSH1 0x40 MSTORE DUP1 SWAP3 SWAP2 SWAP1 DUP2 DUP2 MSTORE PUSH1 0x20 ADD DUP3 DUP1 SLOAD PUSH2 0x2B1 SWAP1 PUSH2 0x188C JUMP JUMPDEST DUP1 ISZERO PUSH2 0x2FE JUMPI DUP1 PUSH1 0x1F LT PUSH2 0x2D3 JUMPI PUSH2 0x100 DUP1 DUP4 SLOAD DIV MUL DUP4 MSTORE SWAP2 PUSH1 0x20 ADD SWAP2 PUSH2 0x2FE JUMP JUMPDEST DUP3 ADD SWAP2 SWAP1 PUSH1 0x0 MSTORE PUSH1 0x20 PUSH1 0x0 KECCAK256 SWAP1 JUMPDEST DUP2 SLOAD DUP2 MSTORE SWAP1 PUSH1 0x1 ADD SWAP1 PUSH1 0x20 ADD DUP1 DUP4 GT PUSH2 0x2E1 JUMPI DUP3 SWAP1 SUB PUSH1 0x1F AND DUP3 ADD SWAP2 JUMPDEST POP POP POP POP POP DUP2 JUMP JUMPDEST PUSH1 0x2 DUP1 SLOAD PUSH2 0x313 SWAP1 PUSH2 0x188C JUMP JUMPDEST DUP1 PUSH1 0x1F ADD PUSH1 0x20 DUP1 SWAP2 DIV MUL PUSH1 0x20 ADD PUSH1 0x40 MLOAD SWAP1 DUP2 ADD PUSH1 0x40 MSTORE DUP1 SWAP3 SWAP2 SWAP1 DUP2 DUP2 MSTORE PUSH1 0x20 ADD DUP3 DUP1 SLOAD PUSH2 0x33F SWAP1 PUSH2 0x188C JUMP JUMPDEST DUP1 ISZERO PUSH2 0x38C JUMPI DUP1 PUSH1 0x1F LT PUSH2 0x361 JUMPI PUSH2 0x100 DUP1 DUP4 SLOAD DIV MUL DUP4 MSTORE SWAP2 PUSH1 0x20 ADD SWAP2 PUSH2 0x38C JUMP JUMPDEST DUP3 ADD SWAP2 SWAP1 PUSH1 0x0 MSTORE PUSH1 0x20 PUSH1 0x0 KECCAK256 SWAP1 JUMPDEST DUP2 SLOAD DUP2 MSTORE SWAP1 PUSH1 0x1 ADD SWAP1 PUSH1 0x20 ADD DUP1 DUP4 GT PUSH2 0x36F JUMPI DUP3 SWAP1 SUB PUSH1 0x1F AND DUP3 ADD SWAP2 JUMPDEST POP POP POP POP POP DUP2 JUMP JUMPDEST PUSH1 0x6 DUP1 SLOAD PUSH2 0x3A1 SWAP1 PUSH2 0x188C JUMP JUMPDEST DUP1 PUSH1 0x1F ADD PUSH1 0x20 DUP1 SWAP2 DIV MUL PUSH1 0x20 ADD PUSH1 0x40 MLOAD SWAP1 DUP2 ADD PUSH1 0x40 MSTORE DUP1 SWAP3 SWAP2 SWAP1 DUP2 DUP2 MSTORE PUSH1 0x20 ADD DUP3 DUP1 SLOAD PUSH2 0x3CD SWAP1 PUSH2 0x188C JUMP JUMPDEST DUP1 ISZERO PUSH2 0x41A JUMPI DUP1 PUSH1 0x1F LT PUSH2 0x3EF JUMPI PUSH2 0x100 DUP1 DUP4 SLOAD DIV MUL DUP4 MSTORE SWAP2 PUSH1 0x20 ADD SWAP2 PUSH2 0x41A JUMP JUMPDEST DUP3 ADD SWAP2 SWAP1 PUSH1 0x0 MSTORE PUSH1 0x20 PUSH1 0x0 KECCAK256 SWAP1 JUMPDEST DUP2 SLOAD DUP2 MSTORE SWAP1 PUSH1 0x1 ADD SWAP1 PUSH1 0x20 ADD DUP1 DUP4 GT PUSH2 0x3FD JUMPI DUP3 SWAP1 SUB PUSH1 0x1F AND DUP3 ADD SWAP2 JUMPDEST POP POP POP POP POP DUP2 JUMP JUMPDEST PUSH1 0x5 PUSH1 0x4 SWAP1 SLOAD SWAP1 PUSH2 0x100 EXP SWAP1 DIV PUSH8 0xFFFFFFFFFFFFFFFF AND DUP2 JUMP JUMPDEST PUSH1 0x0 DUP1 PUSH1 0x1 PUSH8 0xFFFFFFFFFFFFFFFF DUP2 GT ISZERO PUSH2 0x45A JUMPI PUSH2 0x459 PUSH2 0x143D JUMP JUMPDEST JUMPDEST PUSH1 0x40 MLOAD SWAP1 DUP1 DUP3 MSTORE DUP1 PUSH1 0x20 MUL PUSH1 0x20 ADD DUP3 ADD PUSH1 0x40 MSTORE DUP1 ISZERO PUSH2 0x48D JUMPI DUP2 PUSH1 0x20 ADD JUMPDEST PUSH1 0x60 DUP2 MSTORE PUSH1 0x20 ADD SWAP1 PUSH1 0x1 SWAP1 SUB SWAP1 DUP2 PUSH2 0x478 JUMPI SWAP1 POP JUMPDEST POP SWAP1 POP DUP3 DUP2 PUSH1 0x0 DUP2 MLOAD DUP2 LT PUSH2 0x4A5 JUMPI PUSH2 0x4A4 PUSH2 0x18BD JUMP JUMPDEST JUMPDEST PUSH1 0x20 MUL PUSH1 0x20 ADD ADD DUP2 SWAP1 MSTORE POP PUSH2 0x4B8 PUSH2 0x132C JUMP JUMPDEST PUSH2 0x555 PUSH1 0x6 DUP1 SLOAD PUSH2 0x4C8 SWAP1 PUSH2 0x188C JUMP JUMPDEST DUP1 PUSH1 0x1F ADD PUSH1 0x20 DUP1 SWAP2 DIV MUL PUSH1 0x20 ADD PUSH1 0x40 MLOAD SWAP1 DUP2 ADD PUSH1 0x40 MSTORE DUP1 SWAP3 SWAP2 SWAP1 DUP2 DUP2 MSTORE PUSH1 0x20 ADD DUP3 DUP1 SLOAD PUSH2 0x4F4 SWAP1 PUSH2 0x188C JUMP JUMPDEST DUP1 ISZERO PUSH2 0x541 JUMPI DUP1 PUSH1 0x1F LT PUSH2 0x516 JUMPI PUSH2 0x100 DUP1 DUP4 SLOAD DIV MUL DUP4 MSTORE SWAP2 PUSH1 0x20 ADD SWAP2 PUSH2 0x541 JUMP JUMPDEST DUP3 ADD SWAP2 SWAP1 PUSH1 0x0 MSTORE PUSH1 0x20 PUSH1 0x0 KECCAK256 SWAP1 JUMPDEST DUP2 SLOAD DUP2 MSTORE SWAP1 PUSH1 0x1 ADD SWAP1 PUSH1 0x20 ADD DUP1 DUP4 GT PUSH2 0x524 JUMPI DUP3 SWAP1 SUB PUSH1 0x1F AND DUP3 ADD SWAP2 JUMPDEST POP POP POP POP POP DUP3 PUSH2 0x7AF SWAP1 SWAP2 SWAP1 PUSH4 0xFFFFFFFF AND JUMP JUMPDEST PUSH1 0x0 DUP3 MLOAD GT ISZERO PUSH2 0x573 JUMPI PUSH2 0x572 DUP3 DUP3 PUSH2 0x7C0 SWAP1 SWAP2 SWAP1 PUSH4 0xFFFFFFFF AND JUMP JUMPDEST JUMPDEST PUSH2 0x5B1 PUSH2 0x57F DUP3 PUSH2 0x808 JUMP JUMPDEST PUSH1 0x5 PUSH1 0x4 SWAP1 SLOAD SWAP1 PUSH2 0x100 EXP SWAP1 DIV PUSH8 0xFFFFFFFFFFFFFFFF AND PUSH1 0x5 PUSH1 0x0 SWAP1 SLOAD SWAP1 PUSH2 0x100 EXP SWAP1 DIV PUSH4 0xFFFFFFFF AND PUSH1 0x4 SLOAD PUSH2 0xC24 JUMP JUMPDEST PUSH1 0x0 DUP2 SWAP1 SSTORE POP DUP4 PUSH1 0x7 SWAP1 DUP2 PUSH2 0x5C6 SWAP2 SWAP1 PUSH2 0x1AA2 JUMP JUMPDEST POP PUSH1 0x0 SLOAD SWAP3 POP POP POP SWAP2 SWAP1 POP JUMP JUMPDEST PUSH1 0x8 DUP1 SLOAD PUSH2 0x5E0 SWAP1 PUSH2 0x188C JUMP JUMPDEST DUP1 PUSH1 0x1F ADD PUSH1 0x20 DUP1 SWAP2 DIV MUL PUSH1 0x20 ADD PUSH1 0x40 MLOAD SWAP1 DUP2 ADD PUSH1 0x40 MSTORE DUP1 SWAP3 SWAP2 SWAP1 DUP2 DUP2 MSTORE PUSH1 0x20 ADD DUP3 DUP1 SLOAD PUSH2 0x60C SWAP1 PUSH2 0x188C JUMP JUMPDEST DUP1 ISZERO PUSH2 0x659 JUMPI DUP1 PUSH1 0x1F LT PUSH2 0x62E JUMPI PUSH2 0x100 DUP1 DUP4 SLOAD DIV MUL DUP4 MSTORE SWAP2 PUSH1 0x20 ADD SWAP2 PUSH2 0x659 JUMP JUMPDEST DUP3 ADD SWAP2 SWAP1 PUSH1 0x0 MSTORE PUSH1 0x20 PUSH1 0x0 KECCAK256 SWAP1 JUMPDEST DUP2 SLOAD DUP2 MSTORE SWAP1 PUSH1 0x1 ADD SWAP1 PUSH1 0x20 ADD DUP1 DUP4 GT PUSH2 0x63C JUMPI DUP3 SWAP1 SUB PUSH1 0x1F AND DUP3 ADD SWAP2 JUMPDEST POP POP POP POP POP DUP2 JUMP JUMPDEST PUSH1 0x0 SLOAD DUP2 JUMP JUMPDEST PUSH1 0x7 DUP1 SLOAD PUSH2 0x674 SWAP1 PUSH2 0x188C JUMP JUMPDEST DUP1 PUSH1 0x1F ADD PUSH1 0x20 DUP1 SWAP2 DIV MUL PUSH1 0x20 ADD PUSH1 0x40 MLOAD SWAP1 DUP2 ADD PUSH1 0x40 MSTORE DUP1 SWAP3 SWAP2 SWAP1 DUP2 DUP2 MSTORE PUSH1 0x20 ADD DUP3 DUP1 SLOAD PUSH2 0x6A0 SWAP1 PUSH2 0x188C JUMP JUMPDEST DUP1 ISZERO PUSH2 0x6ED JUMPI DUP1 PUSH1 0x1F LT PUSH2 0x6C2 JUMPI PUSH2 0x100 DUP1 DUP4 SLOAD DIV MUL DUP4 MSTORE SWAP2 PUSH1 0x20 ADD SWAP2 PUSH2 0x6ED JUMP JUMPDEST DUP3 ADD SWAP2 SWAP1 PUSH1 0x0 MSTORE PUSH1 0x20 PUSH1 0x0 KECCAK256 SWAP1 JUMPDEST DUP2 SLOAD DUP2 MSTORE SWAP1 PUSH1 0x1 ADD SWAP1 PUSH1 0x20 ADD DUP1 DUP4 GT PUSH2 0x6D0 JUMPI DUP3 SWAP1 SUB PUSH1 0x1F AND DUP3 ADD SWAP2 JUMPDEST POP POP POP POP POP DUP2 JUMP JUMPDEST DUP3 PUSH1 0x0 SLOAD EQ PUSH2 0x73B JUMPI DUP3 PUSH1 0x40 MLOAD PUSH32 0xD068BF5B00000000000000000000000000000000000000000000000000000000 DUP2 MSTORE PUSH1 0x4 ADD PUSH2 0x732 SWAP2 SWAP1 PUSH2 0x1842 JUMP JUMPDEST PUSH1 0x40 MLOAD DUP1 SWAP2 SUB SWAP1 REVERT JUMPDEST DUP1 PUSH1 0x2 SWAP1 DUP2 PUSH2 0x74A SWAP2 SWAP1 PUSH2 0x1BCF JUMP JUMPDEST POP DUP2 PUSH1 0x1 SWAP1 DUP2 PUSH2 0x75A SWAP2 SWAP1 PUSH2 0x1BCF JUMP JUMPDEST POP DUP2 PUSH1 0x8 SWAP1 DUP2 PUSH2 0x76A SWAP2 SWAP1 PUSH2 0x1AA2 JUMP JUMPDEST POP DUP3 PUSH32 0x160ED0AAFFBEF6885155188B91459CB5A97D5DAADCCF7561D8C46DEEA6641B50 PUSH1 0x8 PUSH1 0x1 PUSH1 0x2 PUSH1 0x40 MLOAD PUSH2 0x7A2 SWAP4 SWAP3 SWAP2 SWAP1 PUSH2 0x1DA9 JUMP JUMPDEST PUSH1 0x40 MLOAD DUP1 SWAP2 SUB SWAP1 LOG2 POP POP POP JUMP JUMPDEST PUSH2 0x7BC DUP3 PUSH1 0x0 DUP1 DUP5 PUSH2 0xD07 JUMP JUMPDEST POP POP JUMP JUMPDEST PUSH1 0x0 DUP2 MLOAD SUB PUSH2 0x7FB JUMPI PUSH1 0x40 MLOAD PUSH32 0xFE936CB700000000000000000000000000000000000000000000000000000000 DUP2 MSTORE PUSH1 0x4 ADD PUSH1 0x40 MLOAD DUP1 SWAP2 SUB SWAP1 REVERT JUMPDEST DUP1 DUP3 PUSH1 0xA0 ADD DUP2 SWAP1 MSTORE POP POP POP JUMP JUMPDEST PUSH1 0x60 PUSH1 0x0 PUSH2 0x817 PUSH2 0x100 PUSH2 0xDB1 JUMP JUMPDEST SWAP1 POP PUSH2 0x861 PUSH1 0x40 MLOAD DUP1 PUSH1 0x40 ADD PUSH1 0x40 MSTORE DUP1 PUSH1 0xC DUP2 MSTORE PUSH1 0x20 ADD PUSH32 0x636F64654C6F636174696F6E0000000000000000000000000000000000000000 DUP2 MSTORE POP DUP3 PUSH2 0xDD8 SWAP1 SWAP2 SWAP1 PUSH4 0xFFFFFFFF AND JUMP JUMPDEST PUSH2 0x88A DUP4 PUSH1 0x0 ADD MLOAD PUSH1 0x2 DUP2 GT ISZERO PUSH2 0x87B JUMPI PUSH2 0x87A PUSH2 0x1DF5 JUMP JUMPDEST JUMPDEST DUP3 PUSH2 0xE01 SWAP1 SWAP2 SWAP1 PUSH4 0xFFFFFFFF AND JUMP JUMPDEST PUSH2 0x8D2 PUSH1 0x40 MLOAD DUP1 PUSH1 0x40 ADD PUSH1 0x40 MSTORE DUP1 PUSH1 0x8 DUP2 MSTORE PUSH1 0x20 ADD PUSH32 0x6C616E6775616765000000000000000000000000000000000000000000000000 DUP2 MSTORE POP DUP3 PUSH2 0xDD8 SWAP1 SWAP2 SWAP1 PUSH4 0xFFFFFFFF AND JUMP JUMPDEST PUSH2 0x8FB DUP4 PUSH1 0x40 ADD MLOAD PUSH1 0x0 DUP2 GT ISZERO PUSH2 0x8EC JUMPI PUSH2 0x8EB PUSH2 0x1DF5 JUMP JUMPDEST JUMPDEST DUP3 PUSH2 0xE01 SWAP1 SWAP2 SWAP1 PUSH4 0xFFFFFFFF AND JUMP JUMPDEST PUSH2 0x943 PUSH1 0x40 MLOAD DUP1 PUSH1 0x40 ADD PUSH1 0x40 MSTORE DUP1 PUSH1 0x6 DUP2 MSTORE PUSH1 0x20 ADD PUSH32 0x736F757263650000000000000000000000000000000000000000000000000000 DUP2 MSTORE POP DUP3 PUSH2 0xDD8 SWAP1 SWAP2 SWAP1 PUSH4 0xFFFFFFFF AND JUMP JUMPDEST PUSH2 0x95A DUP4 PUSH1 0x60 ADD MLOAD DUP3 PUSH2 0xDD8 SWAP1 SWAP2 SWAP1 PUSH4 0xFFFFFFFF AND JUMP JUMPDEST PUSH1 0x0 DUP4 PUSH1 0xA0 ADD MLOAD MLOAD GT ISZERO PUSH2 0xA16 JUMPI PUSH2 0x9B0 PUSH1 0x40 MLOAD DUP1 PUSH1 0x40 ADD PUSH1 0x40 MSTORE DUP1 PUSH1 0x4 DUP2 MSTORE PUSH1 0x20 ADD PUSH32 0x6172677300000000000000000000000000000000000000000000000000000000 DUP2 MSTORE POP DUP3 PUSH2 0xDD8 SWAP1 SWAP2 SWAP1 PUSH4 0xFFFFFFFF AND JUMP JUMPDEST PUSH2 0x9B9 DUP2 PUSH2 0xE51 JUMP JUMPDEST PUSH1 0x0 JUMPDEST DUP4 PUSH1 0xA0 ADD MLOAD MLOAD DUP2 LT ISZERO PUSH2 0xA0B JUMPI PUSH2 0x9FA DUP5 PUSH1 0xA0 ADD MLOAD DUP3 DUP2 MLOAD DUP2 LT PUSH2 0x9E3 JUMPI PUSH2 0x9E2 PUSH2 0x18BD JUMP JUMPDEST JUMPDEST PUSH1 0x20 MUL PUSH1 0x20 ADD ADD MLOAD DUP4 PUSH2 0xDD8 SWAP1 SWAP2 SWAP1 PUSH4 0xFFFFFFFF AND JUMP JUMPDEST DUP1 PUSH2 0xA04 SWAP1 PUSH2 0x1E53 JUMP JUMPDEST SWAP1 POP PUSH2 0x9BC JUMP JUMPDEST POP PUSH2 0xA15 DUP2 PUSH2 0xE79 JUMP JUMPDEST JUMPDEST PUSH1 0x0 DUP4 PUSH1 0x80 ADD MLOAD MLOAD GT ISZERO PUSH2 0xB57 JUMPI PUSH1 0x0 PUSH1 0x2 DUP2 GT ISZERO PUSH2 0xA38 JUMPI PUSH2 0xA37 PUSH2 0x1DF5 JUMP JUMPDEST JUMPDEST DUP4 PUSH1 0x20 ADD MLOAD PUSH1 0x2 DUP2 GT ISZERO PUSH2 0xA4F JUMPI PUSH2 0xA4E PUSH2 0x1DF5 JUMP JUMPDEST JUMPDEST SUB PUSH2 0xA86 JUMPI PUSH1 0x40 MLOAD PUSH32 0xA80D31F700000000000000000000000000000000000000000000000000000000 DUP2 MSTORE PUSH1 0x4 ADD PUSH1 0x40 MLOAD DUP1 SWAP2 SUB SWAP1 REVERT JUMPDEST PUSH2 0xACE PUSH1 0x40 MLOAD DUP1 PUSH1 0x40 ADD PUSH1 0x40 MSTORE DUP1 PUSH1 0xF DUP2 MSTORE PUSH1 0x20 ADD PUSH32 0x736563726574734C6F636174696F6E0000000000000000000000000000000000 DUP2 MSTORE POP DUP3 PUSH2 0xDD8 SWAP1 SWAP2 SWAP1 PUSH4 0xFFFFFFFF AND JUMP JUMPDEST PUSH2 0xAF7 DUP4 PUSH1 0x20 ADD MLOAD PUSH1 0x2 DUP2 GT ISZERO PUSH2 0xAE8 JUMPI PUSH2 0xAE7 PUSH2 0x1DF5 JUMP JUMPDEST JUMPDEST DUP3 PUSH2 0xE01 SWAP1 SWAP2 SWAP1 PUSH4 0xFFFFFFFF AND JUMP JUMPDEST PUSH2 0xB3F PUSH1 0x40 MLOAD DUP1 PUSH1 0x40 ADD PUSH1 0x40 MSTORE DUP1 PUSH1 0x7 DUP2 MSTORE PUSH1 0x20 ADD PUSH32 0x7365637265747300000000000000000000000000000000000000000000000000 DUP2 MSTORE POP DUP3 PUSH2 0xDD8 SWAP1 SWAP2 SWAP1 PUSH4 0xFFFFFFFF AND JUMP JUMPDEST PUSH2 0xB56 DUP4 PUSH1 0x80 ADD MLOAD DUP3 PUSH2 0xEA1 SWAP1 SWAP2 SWAP1 PUSH4 0xFFFFFFFF AND JUMP JUMPDEST JUMPDEST PUSH1 0x0 DUP4 PUSH1 0xC0 ADD MLOAD MLOAD GT ISZERO PUSH2 0xC13 JUMPI PUSH2 0xBAD PUSH1 0x40 MLOAD DUP1 PUSH1 0x40 ADD PUSH1 0x40 MSTORE DUP1 PUSH1 0x9 DUP2 MSTORE PUSH1 0x20 ADD PUSH32 0x6279746573417267730000000000000000000000000000000000000000000000 DUP2 MSTORE POP DUP3 PUSH2 0xDD8 SWAP1 SWAP2 SWAP1 PUSH4 0xFFFFFFFF AND JUMP JUMPDEST PUSH2 0xBB6 DUP2 PUSH2 0xE51 JUMP JUMPDEST PUSH1 0x0 JUMPDEST DUP4 PUSH1 0xC0 ADD MLOAD MLOAD DUP2 LT ISZERO PUSH2 0xC08 JUMPI PUSH2 0xBF7 DUP5 PUSH1 0xC0 ADD MLOAD DUP3 DUP2 MLOAD DUP2 LT PUSH2 0xBE0 JUMPI PUSH2 0xBDF PUSH2 0x18BD JUMP JUMPDEST JUMPDEST PUSH1 0x20 MUL PUSH1 0x20 ADD ADD MLOAD DUP4 PUSH2 0xEA1 SWAP1 SWAP2 SWAP1 PUSH4 0xFFFFFFFF AND JUMP JUMPDEST DUP1 PUSH2 0xC01 SWAP1 PUSH2 0x1E53 JUMP JUMPDEST SWAP1 POP PUSH2 0xBB9 JUMP JUMPDEST POP PUSH2 0xC12 DUP2 PUSH2 0xE79 JUMP JUMPDEST JUMPDEST DUP1 PUSH1 0x0 ADD MLOAD PUSH1 0x0 ADD MLOAD SWAP2 POP POP SWAP2 SWAP1 POP JUMP JUMPDEST PUSH1 0x0 DUP1 PUSH32 0x0 PUSH20 0xFFFFFFFFFFFFFFFFFFFFFFFFFFFFFFFFFFFFFFFF AND PUSH4 0x461D2762 DUP7 DUP9 PUSH1 0x1 DUP9 DUP9 PUSH1 0x40 MLOAD DUP7 PUSH4 0xFFFFFFFF AND PUSH1 0xE0 SHL DUP2 MSTORE PUSH1 0x4 ADD PUSH2 0xC89 SWAP6 SWAP5 SWAP4 SWAP3 SWAP2 SWAP1 PUSH2 0x1ED7 JUMP JUMPDEST PUSH1 0x20 PUSH1 0x40 MLOAD DUP1 DUP4 SUB DUP2 PUSH1 0x0 DUP8 GAS CALL ISZERO DUP1 ISZERO PUSH2 0xCA8 JUMPI RETURNDATASIZE PUSH1 0x0 DUP1 RETURNDATACOPY RETURNDATASIZE PUSH1 0x0 REVERT JUMPDEST POP POP POP POP PUSH1 0x40 MLOAD RETURNDATASIZE PUSH1 0x1F NOT PUSH1 0x1F DUP3 ADD AND DUP3 ADD DUP1 PUSH1 0x40 MSTORE POP DUP2 ADD SWAP1 PUSH2 0xCCC SWAP2 SWAP1 PUSH2 0x1F46 JUMP JUMPDEST SWAP1 POP DUP1 PUSH32 0x1131472297A800FEE664D1D89CFA8F7676FF07189ECC53F80BBB5F4969099DB8 PUSH1 0x40 MLOAD PUSH1 0x40 MLOAD DUP1 SWAP2 SUB SWAP1 LOG2 DUP1 SWAP2 POP POP SWAP5 SWAP4 POP POP POP POP JUMP JUMPDEST PUSH1 0x0 DUP2 MLOAD SUB PUSH2 0xD42 JUMPI PUSH1 0x40 MLOAD PUSH32 0x22CE3EDD00000000000000000000000000000000000000000000000000000000 DUP2 MSTORE PUSH1 0x4 ADD PUSH1 0x40 MLOAD DUP1 SWAP2 SUB SWAP1 REVERT JUMPDEST DUP3 DUP5 PUSH1 0x0 ADD SWAP1 PUSH1 0x2 DUP2 GT ISZERO PUSH2 0xD5A JUMPI PUSH2 0xD59 PUSH2 0x1DF5 JUMP JUMPDEST JUMPDEST SWAP1 DUP2 PUSH1 0x2 DUP2 GT ISZERO PUSH2 0xD6E JUMPI PUSH2 0xD6D PUSH2 0x1DF5 JUMP JUMPDEST JUMPDEST DUP2 MSTORE POP POP DUP2 DUP5 PUSH1 0x40 ADD SWAP1 PUSH1 0x0 DUP2 GT ISZERO PUSH2 0xD8A JUMPI PUSH2 0xD89 PUSH2 0x1DF5 JUMP JUMPDEST JUMPDEST SWAP1 DUP2 PUSH1 0x0 DUP2 GT ISZERO PUSH2 0xD9E JUMPI PUSH2 0xD9D PUSH2 0x1DF5 JUMP JUMPDEST JUMPDEST DUP2 MSTORE POP POP DUP1 DUP5 PUSH1 0x60 ADD DUP2 SWAP1 MSTORE POP POP POP POP POP JUMP JUMPDEST PUSH2 0xDB9 PUSH2 0x139E JUMP JUMPDEST PUSH2 0xDC7 DUP2 PUSH1 0x0 ADD MLOAD DUP4 PUSH2 0xECA JUMP JUMPDEST POP PUSH1 0x0 DUP2 PUSH1 0x20 ADD DUP2 DUP2 MSTORE POP POP SWAP2 SWAP1 POP JUMP JUMPDEST PUSH2 0xDE5 DUP3 PUSH1 0x3 DUP4 MLOAD PUSH2 0xF43 JUMP JUMPDEST PUSH2 0xDFC DUP2 DUP4 PUSH1 0x0 ADD MLOAD PUSH2 0x10EC SWAP1 SWAP2 SWAP1 PUSH4 0xFFFFFFFF AND JUMP JUMPDEST POP POP POP JUMP JUMPDEST PUSH2 0xE23 PUSH1 0x2 PUSH1 0x5 PUSH1 0x6 PUSH1 0xFF AND SWAP1 SHL OR DUP4 PUSH1 0x0 ADD MLOAD PUSH2 0x1108 SWAP1 SWAP2 SWAP1 PUSH4 0xFFFFFFFF AND JUMP JUMPDEST POP PUSH2 0xE4D DUP3 DUP3 PUSH1 0x40 MLOAD PUSH1 0x20 ADD PUSH2 0xE39 SWAP2 SWAP1 PUSH2 0x1F82 JUMP JUMPDEST PUSH1 0x40 MLOAD PUSH1 0x20 DUP2 DUP4 SUB SUB DUP2 MSTORE SWAP1 PUSH1 0x40 MSTORE PUSH2 0xEA1 JUMP JUMPDEST POP POP JUMP JUMPDEST PUSH2 0xE5C DUP2 PUSH1 0x4 PUSH2 0x1172 JUMP JUMPDEST PUSH1 0x1 DUP2 PUSH1 0x20 ADD DUP2 DUP2 MLOAD PUSH2 0xE6F SWAP2 SWAP1 PUSH2 0x1F9D JUMP JUMPDEST SWAP2 POP DUP2 DUP2 MSTORE POP POP POP JUMP JUMPDEST PUSH2 0xE84 DUP2 PUSH1 0x7 PUSH2 0x1172 JUMP JUMPDEST PUSH1 0x1 DUP2 PUSH1 0x20 ADD DUP2 DUP2 MLOAD PUSH2 0xE97 SWAP2 SWAP1 PUSH2 0x1FD1 JUMP JUMPDEST SWAP2 POP DUP2 DUP2 MSTORE POP POP POP JUMP JUMPDEST PUSH2 0xEAE DUP3 PUSH1 0x2 DUP4 MLOAD PUSH2 0xF43 JUMP JUMPDEST PUSH2 0xEC5 DUP2 DUP4 PUSH1 0x0 ADD MLOAD PUSH2 0x10EC SWAP1 SWAP2 SWAP1 PUSH4 0xFFFFFFFF AND JUMP JUMPDEST POP POP POP JUMP JUMPDEST PUSH2 0xED2 PUSH2 0x13BE JUMP JUMPDEST PUSH1 0x0 PUSH1 0x20 DUP4 PUSH2 0xEE1 SWAP2 SWAP1 PUSH2 0x2034 JUMP JUMPDEST EQ PUSH2 0xF0D JUMPI PUSH1 0x20 DUP3 PUSH2 0xEF3 SWAP2 SWAP1 PUSH2 0x2034 JUMP JUMPDEST PUSH1 0x20 PUSH2 0xEFF SWAP2 SWAP1 PUSH2 0x1FD1 JUMP JUMPDEST DUP3 PUSH2 0xF0A SWAP2 SWAP1 PUSH2 0x1F9D JUMP JUMPDEST SWAP2 POP JUMPDEST DUP2 DUP4 PUSH1 0x20 ADD DUP2 DUP2 MSTORE POP POP PUSH1 0x40 MLOAD DUP1 DUP5 MSTORE PUSH1 0x0 DUP2 MSTORE DUP3 DUP2 ADD PUSH1 0x20 ADD DUP2 DUP2 LT ISZERO PUSH2 0xF34 JUMPI PUSH1 0x0 DUP1 REVERT JUMPDEST DUP1 PUSH1 0x40 MSTORE POP POP DUP3 SWAP1 POP SWAP3 SWAP2 POP POP JUMP JUMPDEST PUSH1 0x17 DUP2 PUSH8 0xFFFFFFFFFFFFFFFF AND GT PUSH2 0xF7E JUMPI PUSH2 0xF78 DUP2 PUSH1 0x5 DUP5 PUSH1 0xFF AND SWAP1 SHL PUSH1 0xFF AND OR DUP5 PUSH1 0x0 ADD MLOAD PUSH2 0x1108 SWAP1 SWAP2 SWAP1 PUSH4 0xFFFFFFFF AND JUMP JUMPDEST POP PUSH2 0x10E7 JUMP JUMPDEST PUSH1 0xFF DUP2 PUSH8 0xFFFFFFFFFFFFFFFF AND GT PUSH2 0xFDC JUMPI PUSH2 0xFB1 PUSH1 0x18 PUSH1 0x5 DUP5 PUSH1 0xFF AND SWAP1 SHL OR DUP5 PUSH1 0x0 ADD MLOAD PUSH2 0x1108 SWAP1 SWAP2 SWAP1 PUSH4 0xFFFFFFFF AND JUMP JUMPDEST POP PUSH2 0xFD6 DUP2 PUSH8 0xFFFFFFFFFFFFFFFF AND PUSH1 0x1 DUP6 PUSH1 0x0 ADD MLOAD PUSH2 0x1198 SWAP1 SWAP3 SWAP2 SWAP1 PUSH4 0xFFFFFFFF AND JUMP JUMPDEST POP PUSH2 0x10E6 JUMP JUMPDEST PUSH2 0xFFFF DUP2 PUSH8 0xFFFFFFFFFFFFFFFF AND GT PUSH2 0x103B JUMPI PUSH2 0x1010 PUSH1 0x19 PUSH1 0x5 DUP5 PUSH1 0xFF AND SWAP1 SHL OR DUP5 PUSH1 0x0 ADD MLOAD PUSH2 0x1108 SWAP1 SWAP2 SWAP1 PUSH4 0xFFFFFFFF AND JUMP JUMPDEST POP PUSH2 0x1035 DUP2 PUSH8 0xFFFFFFFFFFFFFFFF AND PUSH1 0x2 DUP6 PUSH1 0x0 ADD MLOAD PUSH2 0x1198 SWAP1 SWAP3 SWAP2 SWAP1 PUSH4 0xFFFFFFFF AND JUMP JUMPDEST POP PUSH2 0x10E5 JUMP JUMPDEST PUSH4 0xFFFFFFFF DUP2 PUSH8 0xFFFFFFFFFFFFFFFF AND GT PUSH2 0x109C JUMPI PUSH2 0x1071 PUSH1 0x1A PUSH1 0x5 DUP5 PUSH1 0xFF AND SWAP1 SHL OR DUP5 PUSH1 0x0 ADD MLOAD PUSH2 0x1108 SWAP1 SWAP2 SWAP1 PUSH4 0xFFFFFFFF AND JUMP JUMPDEST POP PUSH2 0x1096 DUP2 PUSH8 0xFFFFFFFFFFFFFFFF AND PUSH1 0x4 DUP6 PUSH1 0x0 ADD MLOAD PUSH2 0x1198 SWAP1 SWAP3 SWAP2 SWAP1 PUSH4 0xFFFFFFFF AND JUMP JUMPDEST POP PUSH2 0x10E4 JUMP JUMPDEST PUSH2 0x10BD PUSH1 0x1B PUSH1 0x5 DUP5 PUSH1 0xFF AND SWAP1 SHL OR DUP5 PUSH1 0x0 ADD MLOAD PUSH2 0x1108 SWAP1 SWAP2 SWAP1 PUSH4 0xFFFFFFFF AND JUMP JUMPDEST POP PUSH2 0x10E2 DUP2 PUSH8 0xFFFFFFFFFFFFFFFF AND PUSH1 0x8 DUP6 PUSH1 0x0 ADD MLOAD PUSH2 0x1198 SWAP1 SWAP3 SWAP2 SWAP1 PUSH4 0xFFFFFFFF AND JUMP JUMPDEST POP JUMPDEST JUMPDEST JUMPDEST JUMPDEST POP POP POP JUMP JUMPDEST PUSH2 0x10F4 PUSH2 0x13BE JUMP JUMPDEST PUSH2 0x1100 DUP4 DUP4 DUP5 MLOAD PUSH2 0x1225 JUMP JUMPDEST SWAP1 POP SWAP3 SWAP2 POP POP JUMP JUMPDEST PUSH2 0x1110 PUSH2 0x13BE JUMP JUMPDEST PUSH1 0x0 DUP4 PUSH1 0x0 ADD MLOAD MLOAD SWAP1 POP PUSH1 0x0 PUSH1 0x1 DUP3 PUSH2 0x1129 SWAP2 SWAP1 PUSH2 0x1F9D JUMP JUMPDEST SWAP1 POP DUP5 PUSH1 0x20 ADD MLOAD DUP3 LT PUSH2 0x114D JUMPI PUSH2 0x114C DUP6 PUSH1 0x2 DUP4 PUSH2 0x1147 SWAP2 SWAP1 PUSH2 0x2065 JUMP JUMPDEST PUSH2 0x1308 JUMP JUMPDEST JUMPDEST DUP5 MLOAD PUSH1 0x20 DUP4 DUP3 ADD ADD DUP6 DUP2 MSTORE8 DUP2 MLOAD DUP4 GT ISZERO PUSH2 0x1165 JUMPI DUP3 DUP3 MSTORE JUMPDEST POP POP DUP5 SWAP3 POP POP POP SWAP3 SWAP2 POP POP JUMP JUMPDEST PUSH2 0x1193 PUSH1 0x1F PUSH1 0x5 DUP4 PUSH1 0xFF AND SWAP1 SHL OR DUP4 PUSH1 0x0 ADD MLOAD PUSH2 0x1108 SWAP1 SWAP2 SWAP1 PUSH4 0xFFFFFFFF AND JUMP JUMPDEST POP POP POP JUMP JUMPDEST PUSH2 0x11A0 PUSH2 0x13BE JUMP JUMPDEST PUSH1 0x0 DUP5 PUSH1 0x0 ADD MLOAD MLOAD SWAP1 POP PUSH1 0x0 DUP2 DUP5 PUSH2 0x11B8 SWAP2 SWAP1 PUSH2 0x1F9D JUMP JUMPDEST SWAP1 POP DUP6 PUSH1 0x20 ADD MLOAD DUP2 GT ISZERO PUSH2 0x11DD JUMPI PUSH2 0x11DC DUP7 PUSH1 0x2 DUP4 PUSH2 0x11D7 SWAP2 SWAP1 PUSH2 0x2065 JUMP JUMPDEST PUSH2 0x1308 JUMP JUMPDEST JUMPDEST PUSH1 0x0 PUSH1 0x1 DUP6 PUSH2 0x100 PUSH2 0x11EF SWAP2 SWAP1 PUSH2 0x21DA JUMP JUMPDEST PUSH2 0x11F9 SWAP2 SWAP1 PUSH2 0x1FD1 JUMP JUMPDEST SWAP1 POP DUP7 MLOAD DUP3 DUP2 ADD DUP8 DUP4 NOT DUP3 MLOAD AND OR DUP2 MSTORE DUP2 MLOAD DUP5 GT ISZERO PUSH2 0x1216 JUMPI DUP4 DUP3 MSTORE JUMPDEST POP POP DUP7 SWAP4 POP POP POP POP SWAP4 SWAP3 POP POP POP JUMP JUMPDEST PUSH2 0x122D PUSH2 0x13BE JUMP JUMPDEST DUP3 MLOAD DUP3 GT ISZERO PUSH2 0x123B JUMPI PUSH1 0x0 DUP1 REVERT JUMPDEST PUSH1 0x0 DUP5 PUSH1 0x0 ADD MLOAD MLOAD SWAP1 POP PUSH1 0x0 DUP4 DUP3 PUSH2 0x1253 SWAP2 SWAP1 PUSH2 0x1F9D JUMP JUMPDEST SWAP1 POP DUP6 PUSH1 0x20 ADD MLOAD DUP2 GT ISZERO PUSH2 0x1278 JUMPI PUSH2 0x1277 DUP7 PUSH1 0x2 DUP4 PUSH2 0x1272 SWAP2 SWAP1 PUSH2 0x2065 JUMP JUMPDEST PUSH2 0x1308 JUMP JUMPDEST JUMPDEST PUSH1 0x0 DUP1 DUP8 MLOAD DUP1 MLOAD DUP6 PUSH1 0x20 DUP4 ADD ADD SWAP4 POP DUP1 DUP6 GT ISZERO PUSH2 0x1293 JUMPI DUP5 DUP3 MSTORE JUMPDEST PUSH1 0x20 DUP10 ADD SWAP3 POP POP POP JUMPDEST PUSH1 0x20 DUP7 LT PUSH2 0x12DA JUMPI DUP1 MLOAD DUP3 MSTORE PUSH1 0x20 DUP3 PUSH2 0x12B5 SWAP2 SWAP1 PUSH2 0x1F9D JUMP JUMPDEST SWAP2 POP PUSH1 0x20 DUP2 PUSH2 0x12C4 SWAP2 SWAP1 PUSH2 0x1F9D JUMP JUMPDEST SWAP1 POP PUSH1 0x20 DUP7 PUSH2 0x12D3 SWAP2 SWAP1 PUSH2 0x1FD1 JUMP JUMPDEST SWAP6 POP PUSH2 0x129C JUMP JUMPDEST PUSH1 0x0 PUSH1 0x1 DUP8 PUSH1 0x20 SUB PUSH2 0x100 EXP SUB SWAP1 POP DUP1 NOT DUP3 MLOAD AND DUP2 DUP5 MLOAD AND DUP2 DUP2 OR DUP6 MSTORE POP POP POP DUP8 SWAP5 POP POP POP POP POP SWAP4 SWAP3 POP POP POP JUMP JUMPDEST PUSH1 0x0 DUP3 PUSH1 0x0 ADD MLOAD SWAP1 POP PUSH2 0x131B DUP4 DUP4 PUSH2 0xECA JUMP JUMPDEST POP PUSH2 0x1326 DUP4 DUP3 PUSH2 0x10EC JUMP JUMPDEST POP POP POP POP JUMP JUMPDEST PUSH1 0x40 MLOAD DUP1 PUSH1 0xE0 ADD PUSH1 0x40 MSTORE DUP1 PUSH1 0x0 PUSH1 0x2 DUP2 GT ISZERO PUSH2 0x134B JUMPI PUSH2 0x134A PUSH2 0x1DF5 JUMP JUMPDEST JUMPDEST DUP2 MSTORE PUSH1 0x20 ADD PUSH1 0x0 PUSH1 0x2 DUP2 GT ISZERO PUSH2 0x1364 JUMPI PUSH2 0x1363 PUSH2 0x1DF5 JUMP JUMPDEST JUMPDEST DUP2 MSTORE PUSH1 0x20 ADD PUSH1 0x0 DUP1 DUP2 GT ISZERO PUSH2 0x137C JUMPI PUSH2 0x137B PUSH2 0x1DF5 JUMP JUMPDEST JUMPDEST DUP2 MSTORE PUSH1 0x20 ADD PUSH1 0x60 DUP2 MSTORE PUSH1 0x20 ADD PUSH1 0x60 DUP2 MSTORE PUSH1 0x20 ADD PUSH1 0x60 DUP2 MSTORE PUSH1 0x20 ADD PUSH1 0x60 DUP2 MSTORE POP SWAP1 JUMP JUMPDEST PUSH1 0x40 MLOAD DUP1 PUSH1 0x40 ADD PUSH1 0x40 MSTORE DUP1 PUSH2 0x13B1 PUSH2 0x13BE JUMP JUMPDEST DUP2 MSTORE PUSH1 0x20 ADD PUSH1 0x0 DUP2 MSTORE POP SWAP1 JUMP JUMPDEST PUSH1 0x40 MLOAD DUP1 PUSH1 0x40 ADD PUSH1 0x40 MSTORE DUP1 PUSH1 0x60 DUP2 MSTORE PUSH1 0x20 ADD PUSH1 0x0 DUP2 MSTORE POP SWAP1 JUMP JUMPDEST PUSH1 0x0 PUSH1 0x40 MLOAD SWAP1 POP SWAP1 JUMP JUMPDEST PUSH1 0x0 DUP1 REVERT JUMPDEST PUSH1 0x0 DUP1 REVERT JUMPDEST PUSH1 0x0 DUP2 SWAP1 POP SWAP2 SWAP1 POP JUMP JUMPDEST PUSH2 0x13FF DUP2 PUSH2 0x13EC JUMP JUMPDEST DUP2 EQ PUSH2 0x140A JUMPI PUSH1 0x0 DUP1 REVERT JUMPDEST POP JUMP JUMPDEST PUSH1 0x0 DUP2 CALLDATALOAD SWAP1 POP PUSH2 0x141C DUP2 PUSH2 0x13F6 JUMP JUMPDEST SWAP3 SWAP2 POP POP JUMP JUMPDEST PUSH1 0x0 DUP1 REVERT JUMPDEST PUSH1 0x0 DUP1 REVERT JUMPDEST PUSH1 0x0 PUSH1 0x1F NOT PUSH1 0x1F DUP4 ADD AND SWAP1 POP SWAP2 SWAP1 POP JUMP JUMPDEST PUSH32 0x4E487B7100000000000000000000000000000000000000000000000000000000 PUSH1 0x0 MSTORE PUSH1 0x41 PUSH1 0x4 MSTORE PUSH1 0x24 PUSH1 0x0 REVERT JUMPDEST PUSH2 0x1475 DUP3 PUSH2 0x142C JUMP JUMPDEST DUP2 ADD DUP2 DUP2 LT PUSH8 0xFFFFFFFFFFFFFFFF DUP3 GT OR ISZERO PUSH2 0x1494 JUMPI PUSH2 0x1493 PUSH2 0x143D JUMP JUMPDEST JUMPDEST DUP1 PUSH1 0x40 MSTORE POP POP POP JUMP JUMPDEST PUSH1 0x0 PUSH2 0x14A7 PUSH2 0x13D8 JUMP JUMPDEST SWAP1 POP PUSH2 0x14B3 DUP3 DUP3 PUSH2 0x146C JUMP JUMPDEST SWAP2 SWAP1 POP JUMP JUMPDEST PUSH1 0x0 PUSH8 0xFFFFFFFFFFFFFFFF DUP3 GT ISZERO PUSH2 0x14D3 JUMPI PUSH2 0x14D2 PUSH2 0x143D JUMP JUMPDEST JUMPDEST PUSH2 0x14DC DUP3 PUSH2 0x142C JUMP JUMPDEST SWAP1 POP PUSH1 0x20 DUP2 ADD SWAP1 POP SWAP2 SWAP1 POP JUMP JUMPDEST DUP3 DUP2 DUP4 CALLDATACOPY PUSH1 0x0 DUP4 DUP4 ADD MSTORE POP POP POP JUMP JUMPDEST PUSH1 0x0 PUSH2 0x150B PUSH2 0x1506 DUP5 PUSH2 0x14B8 JUMP JUMPDEST PUSH2 0x149D JUMP JUMPDEST SWAP1 POP DUP3 DUP2 MSTORE PUSH1 0x20 DUP2 ADD DUP5 DUP5 DUP5 ADD GT ISZERO PUSH2 0x1527 JUMPI PUSH2 0x1526 PUSH2 0x1427 JUMP JUMPDEST JUMPDEST PUSH2 0x1532 DUP5 DUP3 DUP6 PUSH2 0x14E9 JUMP JUMPDEST POP SWAP4 SWAP3 POP POP POP JUMP JUMPDEST PUSH1 0x0 DUP3 PUSH1 0x1F DUP4 ADD SLT PUSH2 0x154F JUMPI PUSH2 0x154E PUSH2 0x1422 JUMP JUMPDEST JUMPDEST DUP2 CALLDATALOAD PUSH2 0x155F DUP5 DUP3 PUSH1 0x20 DUP7 ADD PUSH2 0x14F8 JUMP JUMPDEST SWAP2 POP POP SWAP3 SWAP2 POP POP JUMP JUMPDEST PUSH1 0x0 DUP1 PUSH1 0x0 PUSH1 0x60 DUP5 DUP7 SUB SLT ISZERO PUSH2 0x1581 JUMPI PUSH2 0x1580 PUSH2 0x13E2 JUMP JUMPDEST JUMPDEST PUSH1 0x0 PUSH2 0x158F DUP7 DUP3 DUP8 ADD PUSH2 0x140D JUMP JUMPDEST SWAP4 POP POP PUSH1 0x20 DUP5 ADD CALLDATALOAD PUSH8 0xFFFFFFFFFFFFFFFF DUP2 GT ISZERO PUSH2 0x15B0 JUMPI PUSH2 0x15AF PUSH2 0x13E7 JUMP JUMPDEST JUMPDEST PUSH2 0x15BC DUP7 DUP3 DUP8 ADD PUSH2 0x153A JUMP JUMPDEST SWAP3 POP POP PUSH1 0x40 DUP5 ADD CALLDATALOAD PUSH8 0xFFFFFFFFFFFFFFFF DUP2 GT ISZERO PUSH2 0x15DD JUMPI PUSH2 0x15DC PUSH2 0x13E7 JUMP JUMPDEST JUMPDEST PUSH2 0x15E9 DUP7 DUP3 DUP8 ADD PUSH2 0x153A JUMP JUMPDEST SWAP2 POP POP SWAP3 POP SWAP3 POP SWAP3 JUMP JUMPDEST PUSH1 0x0 DUP2 MLOAD SWAP1 POP SWAP2 SWAP1 POP JUMP JUMPDEST PUSH1 0x0 DUP3 DUP3 MSTORE PUSH1 0x20 DUP3 ADD SWAP1 POP SWAP3 SWAP2 POP POP JUMP JUMPDEST PUSH1 0x0 JUMPDEST DUP4 DUP2 LT ISZERO PUSH2 0x162D JUMPI DUP1 DUP3 ADD MLOAD DUP2 DUP5 ADD MSTORE PUSH1 0x20 DUP2 ADD SWAP1 POP PUSH2 0x1612 JUMP JUMPDEST PUSH1 0x0 DUP5 DUP5 ADD MSTORE POP POP POP POP JUMP JUMPDEST PUSH1 0x0 PUSH2 0x1644 DUP3 PUSH2 0x15F3 JUMP JUMPDEST PUSH2 0x164E DUP2 DUP6 PUSH2 0x15FE JUMP JUMPDEST SWAP4 POP PUSH2 0x165E DUP2 DUP6 PUSH1 0x20 DUP7 ADD PUSH2 0x160F JUMP JUMPDEST PUSH2 0x1667 DUP2 PUSH2 0x142C JUMP JUMPDEST DUP5 ADD SWAP2 POP POP SWAP3 SWAP2 POP POP JUMP JUMPDEST PUSH1 0x0 PUSH1 0x20 DUP3 ADD SWAP1 POP DUP2 DUP2 SUB PUSH1 0x0 DUP4 ADD MSTORE PUSH2 0x168C DUP2 DUP5 PUSH2 0x1639 JUMP JUMPDEST SWAP1 POP SWAP3 SWAP2 POP POP JUMP JUMPDEST PUSH1 0x0 DUP2 MLOAD SWAP1 POP SWAP2 SWAP1 POP JUMP JUMPDEST PUSH1 0x0 DUP3 DUP3 MSTORE PUSH1 0x20 DUP3 ADD SWAP1 POP SWAP3 SWAP2 POP POP JUMP JUMPDEST PUSH1 0x0 PUSH2 0x16BB DUP3 PUSH2 0x1694 JUMP JUMPDEST PUSH2 0x16C5 DUP2 DUP6 PUSH2 0x169F JUMP JUMPDEST SWAP4 POP PUSH2 0x16D5 DUP2 DUP6 PUSH1 0x20 DUP7 ADD PUSH2 0x160F JUMP JUMPDEST PUSH2 0x16DE DUP2 PUSH2 0x142C JUMP JUMPDEST DUP5 ADD SWAP2 POP POP SWAP3 SWAP2 POP POP JUMP JUMPDEST PUSH1 0x0 PUSH1 0x20 DUP3 ADD SWAP1 POP DUP2 DUP2 SUB PUSH1 0x0 DUP4 ADD MSTORE PUSH2 0x1703 DUP2 DUP5 PUSH2 0x16B0 JUMP JUMPDEST SWAP1 POP SWAP3 SWAP2 POP POP JUMP JUMPDEST PUSH1 0x0 PUSH8 0xFFFFFFFFFFFFFFFF DUP3 AND SWAP1 POP SWAP2 SWAP1 POP JUMP JUMPDEST PUSH2 0x1728 DUP2 PUSH2 0x170B JUMP JUMPDEST DUP3 MSTORE POP POP JUMP JUMPDEST PUSH1 0x0 PUSH1 0x20 DUP3 ADD SWAP1 POP PUSH2 0x1743 PUSH1 0x0 DUP4 ADD DUP5 PUSH2 0x171F JUMP JUMPDEST SWAP3 SWAP2 POP POP JUMP JUMPDEST PUSH1 0x0 PUSH8 0xFFFFFFFFFFFFFFFF DUP3 GT ISZERO PUSH2 0x1764 JUMPI PUSH2 0x1763 PUSH2 0x143D JUMP JUMPDEST JUMPDEST PUSH2 0x176D DUP3 PUSH2 0x142C JUMP JUMPDEST SWAP1 POP PUSH1 0x20 DUP2 ADD SWAP1 POP SWAP2 SWAP1 POP JUMP JUMPDEST PUSH1 0x0 PUSH2 0x178D PUSH2 0x1788 DUP5 PUSH2 0x1749 JUMP JUMPDEST PUSH2 0x149D JUMP JUMPDEST SWAP1 POP DUP3 DUP2 MSTORE PUSH1 0x20 DUP2 ADD DUP5 DUP5 DUP5 ADD GT ISZERO PUSH2 0x17A9 JUMPI PUSH2 0x17A8 PUSH2 0x1427 JUMP JUMPDEST JUMPDEST PUSH2 0x17B4 DUP5 DUP3 DUP6 PUSH2 0x14E9 JUMP JUMPDEST POP SWAP4 SWAP3 POP POP POP JUMP JUMPDEST PUSH1 0x0 DUP3 PUSH1 0x1F DUP4 ADD SLT PUSH2 0x17D1 JUMPI PUSH2 0x17D0 PUSH2 0x1422 JUMP JUMPDEST JUMPDEST DUP2 CALLDATALOAD PUSH2 0x17E1 DUP5 DUP3 PUSH1 0x20 DUP7 ADD PUSH2 0x177A JUMP JUMPDEST SWAP2 POP POP SWAP3 SWAP2 POP POP JUMP JUMPDEST PUSH1 0x0 PUSH1 0x20 DUP3 DUP5 SUB SLT ISZERO PUSH2 0x1800 JUMPI PUSH2 0x17FF PUSH2 0x13E2 JUMP JUMPDEST JUMPDEST PUSH1 0x0 DUP3 ADD CALLDATALOAD PUSH8 0xFFFFFFFFFFFFFFFF DUP2 GT ISZERO PUSH2 0x181E JUMPI PUSH2 0x181D PUSH2 0x13E7 JUMP JUMPDEST JUMPDEST PUSH2 0x182A DUP5 DUP3 DUP6 ADD PUSH2 0x17BC JUMP JUMPDEST SWAP2 POP POP SWAP3 SWAP2 POP POP JUMP JUMPDEST PUSH2 0x183C DUP2 PUSH2 0x13EC JUMP JUMPDEST DUP3 MSTORE POP POP JUMP JUMPDEST PUSH1 0x0 PUSH1 0x20 DUP3 ADD SWAP1 POP PUSH2 0x1857 PUSH1 0x0 DUP4 ADD DUP5 PUSH2 0x1833 JUMP JUMPDEST SWAP3 SWAP2 POP POP JUMP JUMPDEST PUSH32 0x4E487B7100000000000000000000000000000000000000000000000000000000 PUSH1 0x0 MSTORE PUSH1 0x22 PUSH1 0x4 MSTORE PUSH1 0x24 PUSH1 0x0 REVERT JUMPDEST PUSH1 0x0 PUSH1 0x2 DUP3 DIV SWAP1 POP PUSH1 0x1 DUP3 AND DUP1 PUSH2 0x18A4 JUMPI PUSH1 0x7F DUP3 AND SWAP2 POP JUMPDEST PUSH1 0x20 DUP3 LT DUP2 SUB PUSH2 0x18B7 JUMPI PUSH2 0x18B6 PUSH2 0x185D JUMP JUMPDEST JUMPDEST POP SWAP2 SWAP1 POP JUMP JUMPDEST PUSH32 0x4E487B7100000000000000000000000000000000000000000000000000000000 PUSH1 0x0 MSTORE PUSH1 0x32 PUSH1 0x4 MSTORE PUSH1 0x24 PUSH1 0x0 REVERT JUMPDEST PUSH1 0x0 DUP2 SWAP1 POP DUP2 PUSH1 0x0 MSTORE PUSH1 0x20 PUSH1 0x0 KECCAK256 SWAP1 POP SWAP2 SWAP1 POP JUMP JUMPDEST PUSH1 0x0 PUSH1 0x20 PUSH1 0x1F DUP4 ADD DIV SWAP1 POP SWAP2 SWAP1 POP JUMP JUMPDEST PUSH1 0x0 DUP3 DUP3 SHL SWAP1 POP SWAP3 SWAP2 POP POP JUMP JUMPDEST PUSH1 0x0 PUSH1 0x8 DUP4 MUL PUSH2 0x194E PUSH32 0xFFFFFFFFFFFFFFFFFFFFFFFFFFFFFFFFFFFFFFFFFFFFFFFFFFFFFFFFFFFFFFFF DUP3 PUSH2 0x1911 JUMP JUMPDEST PUSH2 0x1958 DUP7 DUP4 PUSH2 0x1911 JUMP JUMPDEST SWAP6 POP DUP1 NOT DUP5 AND SWAP4 POP DUP1 DUP7 AND DUP5 OR SWAP3 POP POP POP SWAP4 SWAP3 POP POP POP JUMP JUMPDEST PUSH1 0x0 DUP2 SWAP1 POP SWAP2 SWAP1 POP JUMP JUMPDEST PUSH1 0x0 DUP2 SWAP1 POP SWAP2 SWAP1 POP JUMP JUMPDEST PUSH1 0x0 PUSH2 0x199F PUSH2 0x199A PUSH2 0x1995 DUP5 PUSH2 0x1970 JUMP JUMPDEST PUSH2 0x197A JUMP JUMPDEST PUSH2 0x1970 JUMP JUMPDEST SWAP1 POP SWAP2 SWAP1 POP JUMP JUMPDEST PUSH1 0x0 DUP2 SWAP1 POP SWAP2 SWAP1 POP JUMP JUMPDEST PUSH2 0x19B9 DUP4 PUSH2 0x1984 JUMP JUMPDEST PUSH2 0x19CD PUSH2 0x19C5 DUP3 PUSH2 0x19A6 JUMP JUMPDEST DUP5 DUP5 SLOAD PUSH2 0x191E JUMP JUMPDEST DUP3 SSTORE POP POP POP POP JUMP JUMPDEST PUSH1 0x0 SWAP1 JUMP JUMPDEST PUSH2 0x19E2 PUSH2 0x19D5 JUMP JUMPDEST PUSH2 0x19ED DUP2 DUP5 DUP5 PUSH2 0x19B0 JUMP JUMPDEST POP POP POP JUMP JUMPDEST JUMPDEST DUP2 DUP2 LT ISZERO PUSH2 0x1A11 JUMPI PUSH2 0x1A06 PUSH1 0x0 DUP3 PUSH2 0x19DA JUMP JUMPDEST PUSH1 0x1 DUP2 ADD SWAP1 POP PUSH2 0x19F3 JUMP JUMPDEST POP POP JUMP JUMPDEST PUSH1 0x1F DUP3 GT ISZERO PUSH2 0x1A56 JUMPI PUSH2 0x1A27 DUP2 PUSH2 0x18EC JUMP JUMPDEST PUSH2 0x1A30 DUP5 PUSH2 0x1901 JUMP JUMPDEST DUP2 ADD PUSH1 0x20 DUP6 LT ISZERO PUSH2 0x1A3F JUMPI DUP2 SWAP1 POP JUMPDEST PUSH2 0x1A53 PUSH2 0x1A4B DUP6 PUSH2 0x1901 JUMP JUMPDEST DUP4 ADD DUP3 PUSH2 0x19F2 JUMP JUMPDEST POP POP JUMPDEST POP POP POP JUMP JUMPDEST PUSH1 0x0 DUP3 DUP3 SHR SWAP1 POP SWAP3 SWAP2 POP POP JUMP JUMPDEST PUSH1 0x0 PUSH2 0x1A79 PUSH1 0x0 NOT DUP5 PUSH1 0x8 MUL PUSH2 0x1A5B JUMP JUMPDEST NOT DUP1 DUP4 AND SWAP2 POP POP SWAP3 SWAP2 POP POP JUMP JUMPDEST PUSH1 0x0 PUSH2 0x1A92 DUP4 DUP4 PUSH2 0x1A68 JUMP JUMPDEST SWAP2 POP DUP3 PUSH1 0x2 MUL DUP3 OR SWAP1 POP SWAP3 SWAP2 POP POP JUMP JUMPDEST PUSH2 0x1AAB DUP3 PUSH2 0x1694 JUMP JUMPDEST PUSH8 0xFFFFFFFFFFFFFFFF DUP2 GT ISZERO PUSH2 0x1AC4 JUMPI PUSH2 0x1AC3 PUSH2 0x143D JUMP JUMPDEST JUMPDEST PUSH2 0x1ACE DUP3 SLOAD PUSH2 0x188C JUMP JUMPDEST PUSH2 0x1AD9 DUP3 DUP3 DUP6 PUSH2 0x1A15 JUMP JUMPDEST PUSH1 0x0 PUSH1 0x20 SWAP1 POP PUSH1 0x1F DUP4 GT PUSH1 0x1 DUP2 EQ PUSH2 0x1B0C JUMPI PUSH1 0x0 DUP5 ISZERO PUSH2 0x1AFA JUMPI DUP3 DUP8 ADD MLOAD SWAP1 POP JUMPDEST PUSH2 0x1B04 DUP6 DUP3 PUSH2 0x1A86 JUMP JUMPDEST DUP7 SSTORE POP PUSH2 0x1B6C JUMP JUMPDEST PUSH1 0x1F NOT DUP5 AND PUSH2 0x1B1A DUP7 PUSH2 0x18EC JUMP JUMPDEST PUSH1 0x0 JUMPDEST DUP3 DUP2 LT ISZERO PUSH2 0x1B42 JUMPI DUP5 DUP10 ADD MLOAD DUP3 SSTORE PUSH1 0x1 DUP3 ADD SWAP2 POP PUSH1 0x20 DUP6 ADD SWAP5 POP PUSH1 0x20 DUP2 ADD SWAP1 POP PUSH2 0x1B1D JUMP JUMPDEST DUP7 DUP4 LT ISZERO PUSH2 0x1B5F JUMPI DUP5 DUP10 ADD MLOAD PUSH2 0x1B5B PUSH1 0x1F DUP10 AND DUP3 PUSH2 0x1A68 JUMP JUMPDEST DUP4 SSTORE POP JUMPDEST PUSH1 0x1 PUSH1 0x2 DUP9 MUL ADD DUP9 SSTORE POP POP POP JUMPDEST POP POP POP POP POP POP JUMP JUMPDEST PUSH1 0x0 DUP2 SWAP1 POP DUP2 PUSH1 0x0 MSTORE PUSH1 0x20 PUSH1 0x0 KECCAK256 SWAP1 POP SWAP2 SWAP1 POP JUMP JUMPDEST PUSH1 0x1F DUP3 GT ISZERO PUSH2 0x1BCA JUMPI PUSH2 0x1B9B DUP2 PUSH2 0x1B74 JUMP JUMPDEST PUSH2 0x1BA4 DUP5 PUSH2 0x1901 JUMP JUMPDEST DUP2 ADD PUSH1 0x20 DUP6 LT ISZERO PUSH2 0x1BB3 JUMPI DUP2 SWAP1 POP JUMPDEST PUSH2 0x1BC7 PUSH2 0x1BBF DUP6 PUSH2 0x1901 JUMP JUMPDEST DUP4 ADD DUP3 PUSH2 0x19F2 JUMP JUMPDEST POP POP JUMPDEST POP POP POP JUMP JUMPDEST PUSH2 0x1BD8 DUP3 PUSH2 0x15F3 JUMP JUMPDEST PUSH8 0xFFFFFFFFFFFFFFFF DUP2 GT ISZERO PUSH2 0x1BF1 JUMPI PUSH2 0x1BF0 PUSH2 0x143D JUMP JUMPDEST JUMPDEST PUSH2 0x1BFB DUP3 SLOAD PUSH2 0x188C JUMP JUMPDEST PUSH2 0x1C06 DUP3 DUP3 DUP6 PUSH2 0x1B89 JUMP JUMPDEST PUSH1 0x0 PUSH1 0x20 SWAP1 POP PUSH1 0x1F DUP4 GT PUSH1 0x1 DUP2 EQ PUSH2 0x1C39 JUMPI PUSH1 0x0 DUP5 ISZERO PUSH2 0x1C27 JUMPI DUP3 DUP8 ADD MLOAD SWAP1 POP JUMPDEST PUSH2 0x1C31 DUP6 DUP3 PUSH2 0x1A86 JUMP JUMPDEST DUP7 SSTORE POP PUSH2 0x1C99 JUMP JUMPDEST PUSH1 0x1F NOT DUP5 AND PUSH2 0x1C47 DUP7 PUSH2 0x1B74 JUMP JUMPDEST PUSH1 0x0 JUMPDEST DUP3 DUP2 LT ISZERO PUSH2 0x1C6F JUMPI DUP5 DUP10 ADD MLOAD DUP3 SSTORE PUSH1 0x1 DUP3 ADD SWAP2 POP PUSH1 0x20 DUP6 ADD SWAP5 POP PUSH1 0x20 DUP2 ADD SWAP1 POP PUSH2 0x1C4A JUMP JUMPDEST DUP7 DUP4 LT ISZERO PUSH2 0x1C8C JUMPI DUP5 DUP10 ADD MLOAD PUSH2 0x1C88 PUSH1 0x1F DUP10 AND DUP3 PUSH2 0x1A68 JUMP JUMPDEST DUP4 SSTORE POP JUMPDEST PUSH1 0x1 PUSH1 0x2 DUP9 MUL ADD DUP9 SSTORE POP POP POP JUMPDEST POP POP POP POP POP POP JUMP JUMPDEST PUSH1 0x0 DUP2 SLOAD PUSH2 0x1CAE DUP2 PUSH2 0x188C JUMP JUMPDEST PUSH2 0x1CB8 DUP2 DUP7 PUSH2 0x169F JUMP JUMPDEST SWAP5 POP PUSH1 0x1 DUP3 AND PUSH1 0x0 DUP2 EQ PUSH2 0x1CD3 JUMPI PUSH1 0x1 DUP2 EQ PUSH2 0x1CE9 JUMPI PUSH2 0x1D1C JUMP JUMPDEST PUSH1 0xFF NOT DUP4 AND DUP7 MSTORE DUP2 ISZERO ISZERO PUSH1 0x20 MUL DUP7 ADD SWAP4 POP PUSH2 0x1D1C JUMP JUMPDEST PUSH2 0x1CF2 DUP6 PUSH2 0x18EC JUMP JUMPDEST PUSH1 0x0 JUMPDEST DUP4 DUP2 LT ISZERO PUSH2 0x1D14 JUMPI DUP2 SLOAD DUP2 DUP10 ADD MSTORE PUSH1 0x1 DUP3 ADD SWAP2 POP PUSH1 0x20 DUP2 ADD SWAP1 POP PUSH2 0x1CF5 JUMP JUMPDEST DUP1 DUP9 ADD SWAP6 POP POP POP JUMPDEST POP POP POP SWAP3 SWAP2 POP POP JUMP JUMPDEST PUSH1 0x0 DUP2 SLOAD PUSH2 0x1D32 DUP2 PUSH2 0x188C JUMP JUMPDEST PUSH2 0x1D3C DUP2 DUP7 PUSH2 0x15FE JUMP JUMPDEST SWAP5 POP PUSH1 0x1 DUP3 AND PUSH1 0x0 DUP2 EQ PUSH2 0x1D57 JUMPI PUSH1 0x1 DUP2 EQ PUSH2 0x1D6D JUMPI PUSH2 0x1DA0 JUMP JUMPDEST PUSH1 0xFF NOT DUP4 AND DUP7 MSTORE DUP2 ISZERO ISZERO PUSH1 0x20 MUL DUP7 ADD SWAP4 POP PUSH2 0x1DA0 JUMP JUMPDEST PUSH2 0x1D76 DUP6 PUSH2 0x1B74 JUMP JUMPDEST PUSH1 0x0 JUMPDEST DUP4 DUP2 LT ISZERO PUSH2 0x1D98 JUMPI DUP2 SLOAD DUP2 DUP10 ADD MSTORE PUSH1 0x1 DUP3 ADD SWAP2 POP PUSH1 0x20 DUP2 ADD SWAP1 POP PUSH2 0x1D79 JUMP JUMPDEST DUP1 DUP9 ADD SWAP6 POP POP POP JUMPDEST POP POP POP SWAP3 SWAP2 POP POP JUMP JUMPDEST PUSH1 0x0 PUSH1 0x60 DUP3 ADD SWAP1 POP DUP2 DUP2 SUB PUSH1 0x0 DUP4 ADD MSTORE PUSH2 0x1DC3 DUP2 DUP7 PUSH2 0x1CA1 JUMP JUMPDEST SWAP1 POP DUP2 DUP2 SUB PUSH1 0x20 DUP4 ADD MSTORE PUSH2 0x1DD7 DUP2 DUP6 PUSH2 0x1D25 JUMP JUMPDEST SWAP1 POP DUP2 DUP2 SUB PUSH1 0x40 DUP4 ADD MSTORE PUSH2 0x1DEB DUP2 DUP5 PUSH2 0x1D25 JUMP JUMPDEST SWAP1 POP SWAP5 SWAP4 POP POP POP POP JUMP JUMPDEST PUSH32 0x4E487B7100000000000000000000000000000000000000000000000000000000 PUSH1 0x0 MSTORE PUSH1 0x21 PUSH1 0x4 MSTORE PUSH1 0x24 PUSH1 0x0 REVERT JUMPDEST PUSH32 0x4E487B7100000000000000000000000000000000000000000000000000000000 PUSH1 0x0 MSTORE PUSH1 0x11 PUSH1 0x4 MSTORE PUSH1 0x24 PUSH1 0x0 REVERT JUMPDEST PUSH1 0x0 PUSH2 0x1E5E DUP3 PUSH2 0x1970 JUMP JUMPDEST SWAP2 POP PUSH32 0xFFFFFFFFFFFFFFFFFFFFFFFFFFFFFFFFFFFFFFFFFFFFFFFFFFFFFFFFFFFFFFFF DUP3 SUB PUSH2 0x1E90 JUMPI PUSH2 0x1E8F PUSH2 0x1E24 JUMP JUMPDEST JUMPDEST PUSH1 0x1 DUP3 ADD SWAP1 POP SWAP2 SWAP1 POP JUMP JUMPDEST PUSH1 0x0 PUSH2 0xFFFF DUP3 AND SWAP1 POP SWAP2 SWAP1 POP JUMP JUMPDEST PUSH2 0x1EB2 DUP2 PUSH2 0x1E9B JUMP JUMPDEST DUP3 MSTORE POP POP JUMP JUMPDEST PUSH1 0x0 PUSH4 0xFFFFFFFF DUP3 AND SWAP1 POP SWAP2 SWAP1 POP JUMP JUMPDEST PUSH2 0x1ED1 DUP2 PUSH2 0x1EB8 JUMP JUMPDEST DUP3 MSTORE POP POP JUMP JUMPDEST PUSH1 0x0 PUSH1 0xA0 DUP3 ADD SWAP1 POP PUSH2 0x1EEC PUSH1 0x0 DUP4 ADD DUP9 PUSH2 0x171F JUMP JUMPDEST DUP2 DUP2 SUB PUSH1 0x20 DUP4 ADD MSTORE PUSH2 0x1EFE DUP2 DUP8 PUSH2 0x1639 JUMP JUMPDEST SWAP1 POP PUSH2 0x1F0D PUSH1 0x40 DUP4 ADD DUP7 PUSH2 0x1EA9 JUMP JUMPDEST PUSH2 0x1F1A PUSH1 0x60 DUP4 ADD DUP6 PUSH2 0x1EC8 JUMP JUMPDEST PUSH2 0x1F27 PUSH1 0x80 DUP4 ADD DUP5 PUSH2 0x1833 JUMP JUMPDEST SWAP7 SWAP6 POP POP POP POP POP POP JUMP JUMPDEST PUSH1 0x0 DUP2 MLOAD SWAP1 POP PUSH2 0x1F40 DUP2 PUSH2 0x13F6 JUMP JUMPDEST SWAP3 SWAP2 POP POP JUMP JUMPDEST PUSH1 0x0 PUSH1 0x20 DUP3 DUP5 SUB SLT ISZERO PUSH2 0x1F5C JUMPI PUSH2 0x1F5B PUSH2 0x13E2 JUMP JUMPDEST JUMPDEST PUSH1 0x0 PUSH2 0x1F6A DUP5 DUP3 DUP6 ADD PUSH2 0x1F31 JUMP JUMPDEST SWAP2 POP POP SWAP3 SWAP2 POP POP JUMP JUMPDEST PUSH2 0x1F7C DUP2 PUSH2 0x1970 JUMP JUMPDEST DUP3 MSTORE POP POP JUMP JUMPDEST PUSH1 0x0 PUSH1 0x20 DUP3 ADD SWAP1 POP PUSH2 0x1F97 PUSH1 0x0 DUP4 ADD DUP5 PUSH2 0x1F73 JUMP JUMPDEST SWAP3 SWAP2 POP POP JUMP JUMPDEST PUSH1 0x0 PUSH2 0x1FA8 DUP3 PUSH2 0x1970 JUMP JUMPDEST SWAP2 POP PUSH2 0x1FB3 DUP4 PUSH2 0x1970 JUMP JUMPDEST SWAP3 POP DUP3 DUP3 ADD SWAP1 POP DUP1 DUP3 GT ISZERO PUSH2 0x1FCB JUMPI PUSH2 0x1FCA PUSH2 0x1E24 JUMP JUMPDEST JUMPDEST SWAP3 SWAP2 POP POP JUMP JUMPDEST PUSH1 0x0 PUSH2 0x1FDC DUP3 PUSH2 0x1970 JUMP JUMPDEST SWAP2 POP PUSH2 0x1FE7 DUP4 PUSH2 0x1970 JUMP JUMPDEST SWAP3 POP DUP3 DUP3 SUB SWAP1 POP DUP2 DUP2 GT ISZERO PUSH2 0x1FFF JUMPI PUSH2 0x1FFE PUSH2 0x1E24 JUMP JUMPDEST JUMPDEST SWAP3 SWAP2 POP POP JUMP JUMPDEST PUSH32 0x4E487B7100000000000000000000000000000000000000000000000000000000 PUSH1 0x0 MSTORE PUSH1 0x12 PUSH1 0x4 MSTORE PUSH1 0x24 PUSH1 0x0 REVERT JUMPDEST PUSH1 0x0 PUSH2 0x203F DUP3 PUSH2 0x1970 JUMP JUMPDEST SWAP2 POP PUSH2 0x204A DUP4 PUSH2 0x1970 JUMP JUMPDEST SWAP3 POP DUP3 PUSH2 0x205A JUMPI PUSH2 0x2059 PUSH2 0x2005 JUMP JUMPDEST JUMPDEST DUP3 DUP3 MOD SWAP1 POP SWAP3 SWAP2 POP POP JUMP JUMPDEST PUSH1 0x0 PUSH2 0x2070 DUP3 PUSH2 0x1970 JUMP JUMPDEST SWAP2 POP PUSH2 0x207B DUP4 PUSH2 0x1970 JUMP JUMPDEST SWAP3 POP DUP3 DUP3 MUL PUSH2 0x2089 DUP2 PUSH2 0x1970 JUMP JUMPDEST SWAP2 POP DUP3 DUP3 DIV DUP5 EQ DUP4 ISZERO OR PUSH2 0x20A0 JUMPI PUSH2 0x209F PUSH2 0x1E24 JUMP JUMPDEST JUMPDEST POP SWAP3 SWAP2 POP POP JUMP JUMPDEST PUSH1 0x0 DUP2 PUSH1 0x1 SHR SWAP1 POP SWAP2 SWAP1 POP JUMP JUMPDEST PUSH1 0x0 DUP1 DUP3 SWAP2 POP DUP4 SWAP1 POP JUMPDEST PUSH1 0x1 DUP6 GT ISZERO PUSH2 0x20FE JUMPI DUP1 DUP7 DIV DUP2 GT ISZERO PUSH2 0x20DA JUMPI PUSH2 0x20D9 PUSH2 0x1E24 JUMP JUMPDEST JUMPDEST PUSH1 0x1 DUP6 AND ISZERO PUSH2 0x20E9 JUMPI DUP1 DUP3 MUL SWAP2 POP JUMPDEST DUP1 DUP2 MUL SWAP1 POP PUSH2 0x20F7 DUP6 PUSH2 0x20A7 JUMP JUMPDEST SWAP5 POP PUSH2 0x20BE JUMP JUMPDEST SWAP5 POP SWAP5 SWAP3 POP POP POP JUMP JUMPDEST PUSH1 0x0 DUP3 PUSH2 0x2117 JUMPI PUSH1 0x1 SWAP1 POP PUSH2 0x21D3 JUMP JUMPDEST DUP2 PUSH2 0x2125 JUMPI PUSH1 0x0 SWAP1 POP PUSH2 0x21D3 JUMP JUMPDEST DUP2 PUSH1 0x1 DUP2 EQ PUSH2 0x213B JUMPI PUSH1 0x2 DUP2 EQ PUSH2 0x2145 JUMPI PUSH2 0x2174 JUMP JUMPDEST PUSH1 0x1 SWAP2 POP POP PUSH2 0x21D3 JUMP JUMPDEST PUSH1 0xFF DUP5 GT ISZERO PUSH2 0x2157 JUMPI PUSH2 0x2156 PUSH2 0x1E24 JUMP JUMPDEST JUMPDEST DUP4 PUSH1 0x2 EXP SWAP2 POP DUP5 DUP3 GT ISZERO PUSH2 0x216E JUMPI PUSH2 0x216D PUSH2 0x1E24 JUMP JUMPDEST JUMPDEST POP PUSH2 0x21D3 JUMP JUMPDEST POP PUSH1 0x20 DUP4 LT PUSH2 0x133 DUP4 LT AND PUSH1 0x4E DUP5 LT PUSH1 0xB DUP5 LT AND OR ISZERO PUSH2 0x21A9 JUMPI DUP3 DUP3 EXP SWAP1 POP DUP4 DUP2 GT ISZERO PUSH2 0x21A4 JUMPI PUSH2 0x21A3 PUSH2 0x1E24 JUMP JUMPDEST JUMPDEST PUSH2 0x21D3 JUMP JUMPDEST PUSH2 0x21B6 DUP5 DUP5 DUP5 PUSH1 0x1 PUSH2 0x20B4 JUMP JUMPDEST SWAP3 POP SWAP1 POP DUP2 DUP5 DIV DUP2 GT ISZERO PUSH2 0x21CD JUMPI PUSH2 0x21CC PUSH2 0x1E24 JUMP JUMPDEST JUMPDEST DUP2 DUP2 MUL SWAP1 POP JUMPDEST SWAP4 SWAP3 POP POP POP JUMP JUMPDEST PUSH1 0x0 PUSH2 0x21E5 DUP3 PUSH2 0x1970 JUMP JUMPDEST SWAP2 POP PUSH2 0x21F0 DUP4 PUSH2 0x1970 JUMP JUMPDEST SWAP3 POP PUSH2 0x221D PUSH32 0xFFFFFFFFFFFFFFFFFFFFFFFFFFFFFFFFFFFFFFFFFFFFFFFFFFFFFFFFFFFFFFFF DUP5 DUP5 PUSH2 0x2107 JUMP JUMPDEST SWAP1 POP SWAP3 SWAP2 POP POP JUMP INVALID LOG2 PUSH5 0x6970667358 0x22 SLT KECCAK256 0x2C 0xC3 SWAP1 0xBC 0x21 DUP13 LT DUP9 EXTCODECOPY 0x1F SHL 0xAE 0xAD ORIGIN 0xDD 0xD SWAP11 0xE4 DUP2 OR DUP3 SWAP5 0xC0 RETURNDATACOPY 0xD 0x25 0x5E 0x4A PUSH25 0x3F29BB64736F6C63430008130033636F6E7374206369747920 RETURNDATASIZE KECCAK256 PUSH2 0x7267 PUSH20 0x5B305D3B636F6E737420617069526573706F6E73 PUSH6 0x203D20617761 PUSH10 0x742046756E6374696F6E PUSH20 0x2E6D616B654874747052657175657374287B7572 PUSH13 0x3A206068747470733A2F2F7774 PUSH21 0x722E696E2F247B636974797D3F666F726D61743D33 PUSH1 0x2C PUSH19 0x6573706F6E7365547970653A20277465787427 PUSH30 0x293B69662028617069526573706F6E73652E6572726F7229207B7468726F PUSH24 0x204572726F72282752657175657374206661696C65642729 EXTCODESIZE PUSH30 0x636F6E7374207B2064617461207D203D20617069526573706F6E73653B72 PUSH6 0x7475726E2046 PUSH22 0x6E6374696F6E732E656E636F6465537472696E672864 PUSH2 0x7461 0x29 EXTCODESIZE "
				},
				"gasEstimates": {
					"creation": {
						"codeDepositCost": "1759000",
						"executionCost": "infinite",
						"totalCost": "infinite"
					},
					"external": {
						"getTemperature(string)": "infinite",
						"handleOracleFulfillment(bytes32,bytes,bytes)": "infinite",
						"lastCity()": "infinite",
						"lastTemperature()": "infinite",
						"s_lastError()": "infinite",
						"s_lastRequestId()": "2495",
						"s_lastResponse()": "infinite",
						"s_subscriptionId()": "2521",
						"source()": "infinite"
					},
					"internal": {
						"fulfillRequest(bytes32,bytes memory,bytes memory)": "infinite"
					}
				},
				"methodIdentifiers": {
					"getTemperature(string)": "94d02941",
					"handleOracleFulfillment(bytes32,bytes,bytes)": "0ca76175",
					"lastCity()": "cd2b8d11",
					"lastTemperature()": "9fb51771",
					"s_lastError()": "4b0795a8",
					"s_lastRequestId()": "b1e21749",
					"s_lastResponse()": "3944ea3a",
					"s_subscriptionId()": "8ac00021",
					"source()": "67e828bf"
				}
			},
			"storageLayout": {
				"storage": [
					{
						"astId": 2457,
						"contract": "TemperatureFunctions.sol:TemperatureFunctions",
						"label": "s_lastRequestId",
						"offset": 0,
						"slot": "0",
						"type": "t_bytes32"
					},
					{
						"astId": 2459,
						"contract": "TemperatureFunctions.sol:TemperatureFunctions",
						"label": "s_lastResponse",
						"offset": 0,
						"slot": "1",
						"type": "t_bytes_storage"
					},
					{
						"astId": 2461,
						"contract": "TemperatureFunctions.sol:TemperatureFunctions",
						"label": "s_lastError",
						"offset": 0,
						"slot": "2",
						"type": "t_bytes_storage"
					},
					{
						"astId": 2478,
						"contract": "TemperatureFunctions.sol:TemperatureFunctions",
						"label": "router",
						"offset": 0,
						"slot": "3",
						"type": "t_address"
					},
					{
						"astId": 2481,
						"contract": "TemperatureFunctions.sol:TemperatureFunctions",
						"label": "donID",
						"offset": 0,
						"slot": "4",
						"type": "t_bytes32"
					},
					{
						"astId": 2484,
						"contract": "TemperatureFunctions.sol:TemperatureFunctions",
						"label": "gasLimit",
						"offset": 0,
						"slot": "5",
						"type": "t_uint32"
					},
					{
						"astId": 2486,
						"contract": "TemperatureFunctions.sol:TemperatureFunctions",
						"label": "s_subscriptionId",
						"offset": 4,
						"slot": "5",
						"type": "t_uint64"
					},
					{
						"astId": 2489,
						"contract": "TemperatureFunctions.sol:TemperatureFunctions",
						"label": "source",
						"offset": 0,
						"slot": "6",
						"type": "t_string_storage"
					},
					{
						"astId": 2491,
						"contract": "TemperatureFunctions.sol:TemperatureFunctions",
						"label": "lastCity",
						"offset": 0,
						"slot": "7",
						"type": "t_string_storage"
					},
					{
						"astId": 2493,
						"contract": "TemperatureFunctions.sol:TemperatureFunctions",
						"label": "lastTemperature",
						"offset": 0,
						"slot": "8",
						"type": "t_string_storage"
					}
				],
				"types": {
					"t_address": {
						"encoding": "inplace",
						"label": "address",
						"numberOfBytes": "20"
					},
					"t_bytes32": {
						"encoding": "inplace",
						"label": "bytes32",
						"numberOfBytes": "32"
					},
					"t_bytes_storage": {
						"encoding": "bytes",
						"label": "bytes",
						"numberOfBytes": "32"
					},
					"t_string_storage": {
						"encoding": "bytes",
						"label": "string",
						"numberOfBytes": "32"
					},
					"t_uint32": {
						"encoding": "inplace",
						"label": "uint32",
						"numberOfBytes": "4"
					},
					"t_uint64": {
						"encoding": "inplace",
						"label": "uint64",
						"numberOfBytes": "8"
					}
				}
			},
			"userdoc": {
				"kind": "user",
				"methods": {
					"handleOracleFulfillment(bytes32,bytes,bytes)": {
						"notice": "Chainlink Functions response handler called by the Functions Router during fullilment from the designated transmitter node in an OCR round."
					}
				},
				"version": 1
			}
		}
	}
}