{
	"TokenShop.sol": {
		"TokenShop": {
			"abi": [
				{
					"inputs": [
						{
							"internalType": "address",
							"name": "tokenAddress",
							"type": "address"
						}
					],
					"stateMutability": "nonpayable",
					"type": "constructor"
				},
				{
					"inputs": [],
					"name": "getChainlinkDataFeedLatestAnswer",
					"outputs": [
						{
							"internalType": "int256",
							"name": "",
							"type": "int256"
						}
					],
					"stateMutability": "view",
					"type": "function"
				},
				{
					"inputs": [],
					"name": "minter",
					"outputs": [
						{
							"internalType": "contract TokenInterface",
							"name": "",
							"type": "address"
						}
					],
					"stateMutability": "view",
					"type": "function"
				},
				{
					"inputs": [],
					"name": "owner",
					"outputs": [
						{
							"internalType": "address",
							"name": "",
							"type": "address"
						}
					],
					"stateMutability": "view",
					"type": "function"
				},
				{
					"inputs": [
						{
							"internalType": "uint256",
							"name": "amountETH",
							"type": "uint256"
						}
					],
					"name": "tokenAmount",
					"outputs": [
						{
							"internalType": "uint256",
							"name": "",
							"type": "uint256"
						}
					],
					"stateMutability": "view",
					"type": "function"
				},
				{
					"inputs": [],
					"name": "tokenPrice",
					"outputs": [
						{
							"internalType": "uint256",
							"name": "",
							"type": "uint256"
						}
					],
					"stateMutability": "view",
					"type": "function"
				},
				{
					"inputs": [],
					"name": "withdraw",
					"outputs": [],
					"stateMutability": "nonpayable",
					"type": "function"
				},
				{
					"stateMutability": "payable",
					"type": "receive"
				}
			],
			"devdoc": {
				"kind": "dev",
				"methods": {},
				"version": 1
			},
			"evm": {
				"assembly": "    /* \"TokenShop.sol\":235:2023  contract TokenShop {... */\n  mstore(0x40, 0x80)\n    /* \"TokenShop.sol\":377:380  200 */\n  0xc8\n    /* \"TokenShop.sol\":349:380  uint256 public tokenPrice = 200 */\n  0x02\n  sstore\n    /* \"TokenShop.sol\":464:818  constructor(address tokenAddress) {... */\n  callvalue\n  dup1\n  iszero\n  tag_1\n  jumpi\n  0x00\n  dup1\n  revert\ntag_1:\n  pop\n  mload(0x40)\n  sub(codesize, bytecodeSize)\n  dup1\n  bytecodeSize\n  dup4\n  codecopy\n  dup2\n  dup2\n  add\n  0x40\n  mstore\n  dup2\n  add\n  swap1\n  tag_2\n  swap2\n  swap1\n  tag_3\n  jump\t// in\ntag_2:\n    /* \"TokenShop.sol\":533:545  tokenAddress */\n  dup1\n    /* \"TokenShop.sol\":509:515  minter */\n  0x01\n  0x00\n    /* \"TokenShop.sol\":509:546  minter = TokenInterface(tokenAddress) */\n  0x0100\n  exp\n  dup2\n  sload\n  dup2\n  0xffffffffffffffffffffffffffffffffffffffff\n  mul\n  not\n  and\n  swap1\n  dup4\n  0xffffffffffffffffffffffffffffffffffffffff\n  and\n  mul\n  or\n  swap1\n  sstore\n  pop\n    /* \"TokenShop.sol\":738:780  0x694AA1769357215DE4FAC081bf1f309aDC325306 */\n  0x694aa1769357215de4fac081bf1f309adc325306\n    /* \"TokenShop.sol\":704:713  priceFeed */\n  0x00\n  dup1\n    /* \"TokenShop.sol\":704:781  priceFeed = AggregatorV3Interface(0x694AA1769357215DE4FAC081bf1f309aDC325306) */\n  0x0100\n  exp\n  dup2\n  sload\n  dup2\n  0xffffffffffffffffffffffffffffffffffffffff\n  mul\n  not\n  and\n  swap1\n  dup4\n  0xffffffffffffffffffffffffffffffffffffffff\n  and\n  mul\n  or\n  swap1\n  sstore\n  pop\n    /* \"TokenShop.sol\":800:810  msg.sender */\n  caller\n    /* \"TokenShop.sol\":792:797  owner */\n  0x03\n  0x00\n    /* \"TokenShop.sol\":792:810  owner = msg.sender */\n  0x0100\n  exp\n  dup2\n  sload\n  dup2\n  0xffffffffffffffffffffffffffffffffffffffff\n  mul\n  not\n  and\n  swap1\n  dup4\n  0xffffffffffffffffffffffffffffffffffffffff\n  and\n  mul\n  or\n  swap1\n  sstore\n  pop\n    /* \"TokenShop.sol\":464:818  constructor(address tokenAddress) {... */\n  pop\n    /* \"TokenShop.sol\":235:2023  contract TokenShop {... */\n  jump(tag_6)\n    /* \"#utility.yul\":88:205   */\ntag_8:\n    /* \"#utility.yul\":197:198   */\n  0x00\n    /* \"#utility.yul\":194:195   */\n  dup1\n    /* \"#utility.yul\":187:199   */\n  revert\n    /* \"#utility.yul\":334:460   */\ntag_10:\n    /* \"#utility.yul\":371:378   */\n  0x00\n    /* \"#utility.yul\":411:453   */\n  0xffffffffffffffffffffffffffffffffffffffff\n    /* \"#utility.yul\":404:409   */\n  dup3\n    /* \"#utility.yul\":400:454   */\n  and\n    /* \"#utility.yul\":389:454   */\n  swap1\n  pop\n    /* \"#utility.yul\":334:460   */\n  swap2\n  swap1\n  pop\n  jump\t// out\n    /* \"#utility.yul\":466:562   */\ntag_11:\n    /* \"#utility.yul\":503:510   */\n  0x00\n    /* \"#utility.yul\":532:556   */\n  tag_20\n    /* \"#utility.yul\":550:555   */\n  dup3\n    /* \"#utility.yul\":532:556   */\n  tag_10\n  jump\t// in\ntag_20:\n    /* \"#utility.yul\":521:556   */\n  swap1\n  pop\n    /* \"#utility.yul\":466:562   */\n  swap2\n  swap1\n  pop\n  jump\t// out\n    /* \"#utility.yul\":568:690   */\ntag_12:\n    /* \"#utility.yul\":641:665   */\n  tag_22\n    /* \"#utility.yul\":659:664   */\n  dup2\n    /* \"#utility.yul\":641:665   */\n  tag_11\n  jump\t// in\ntag_22:\n    /* \"#utility.yul\":634:639   */\n  dup2\n    /* \"#utility.yul\":631:666   */\n  eq\n    /* \"#utility.yul\":621:684   */\n  tag_23\n  jumpi\n    /* \"#utility.yul\":680:681   */\n  0x00\n    /* \"#utility.yul\":677:678   */\n  dup1\n    /* \"#utility.yul\":670:682   */\n  revert\n    /* \"#utility.yul\":621:684   */\ntag_23:\n    /* \"#utility.yul\":568:690   */\n  pop\n  jump\t// out\n    /* \"#utility.yul\":696:839   */\ntag_13:\n    /* \"#utility.yul\":753:758   */\n  0x00\n    /* \"#utility.yul\":784:790   */\n  dup2\n    /* \"#utility.yul\":778:791   */\n  mload\n    /* \"#utility.yul\":769:791   */\n  swap1\n  pop\n    /* \"#utility.yul\":800:833   */\n  tag_25\n    /* \"#utility.yul\":827:832   */\n  dup2\n    /* \"#utility.yul\":800:833   */\n  tag_12\n  jump\t// in\ntag_25:\n    /* \"#utility.yul\":696:839   */\n  swap3\n  swap2\n  pop\n  pop\n  jump\t// out\n    /* \"#utility.yul\":845:1196   */\ntag_3:\n    /* \"#utility.yul\":915:921   */\n  0x00\n    /* \"#utility.yul\":964:966   */\n  0x20\n    /* \"#utility.yul\":952:961   */\n  dup3\n    /* \"#utility.yul\":943:950   */\n  dup5\n    /* \"#utility.yul\":939:962   */\n  sub\n    /* \"#utility.yul\":935:967   */\n  slt\n    /* \"#utility.yul\":932:1051   */\n  iszero\n  tag_27\n  jumpi\n    /* \"#utility.yul\":970:1049   */\n  tag_28\n  tag_8\n  jump\t// in\ntag_28:\n    /* \"#utility.yul\":932:1051   */\ntag_27:\n    /* \"#utility.yul\":1090:1091   */\n  0x00\n    /* \"#utility.yul\":1115:1179   */\n  tag_29\n    /* \"#utility.yul\":1171:1178   */\n  dup5\n    /* \"#utility.yul\":1162:1168   */\n  dup3\n    /* \"#utility.yul\":1151:1160   */\n  dup6\n    /* \"#utility.yul\":1147:1169   */\n  add\n    /* \"#utility.yul\":1115:1179   */\n  tag_13\n  jump\t// in\ntag_29:\n    /* \"#utility.yul\":1105:1179   */\n  swap2\n  pop\n    /* \"#utility.yul\":1061:1189   */\n  pop\n    /* \"#utility.yul\":845:1196   */\n  swap3\n  swap2\n  pop\n  pop\n  jump\t// out\n    /* \"TokenShop.sol\":235:2023  contract TokenShop {... */\ntag_6:\n  dataSize(sub_0)\n  dup1\n  dataOffset(sub_0)\n  0x00\n  codecopy\n  0x00\n  return\nstop\n\nsub_0: assembly {\n        /* \"TokenShop.sol\":235:2023  contract TokenShop {... */\n      mstore(0x40, 0x80)\n      jumpi(tag_1, lt(calldatasize, 0x04))\n      shr(0xe0, calldataload(0x00))\n      dup1\n      0x07546172\n      eq\n      tag_3\n      jumpi\n      dup1\n      0x3ccfd60b\n      eq\n      tag_4\n      jumpi\n      dup1\n      0x45ab331e\n      eq\n      tag_5\n      jumpi\n      dup1\n      0x7ff9b596\n      eq\n      tag_6\n      jumpi\n      dup1\n      0x8da5cb5b\n      eq\n      tag_7\n      jumpi\n      dup1\n      0xbea4dfb5\n      eq\n      tag_8\n      jumpi\n      jump(tag_2)\n    tag_1:\n      jumpi(tag_2, calldatasize)\n        /* \"TokenShop.sol\":1717:1736  uint256 amountToken */\n      0x00\n        /* \"TokenShop.sol\":1739:1761  tokenAmount(msg.value) */\n      tag_11\n        /* \"TokenShop.sol\":1751:1760  msg.value */\n      callvalue\n        /* \"TokenShop.sol\":1739:1750  tokenAmount */\n      tag_12\n        /* \"TokenShop.sol\":1739:1761  tokenAmount(msg.value) */\n      jump\t// in\n    tag_11:\n        /* \"TokenShop.sol\":1717:1761  uint256 amountToken = tokenAmount(msg.value) */\n      swap1\n      pop\n        /* \"TokenShop.sol\":1772:1778  minter */\n      0x01\n      0x00\n      swap1\n      sload\n      swap1\n      0x0100\n      exp\n      swap1\n      div\n      0xffffffffffffffffffffffffffffffffffffffff\n      and\n        /* \"TokenShop.sol\":1772:1783  minter.mint */\n      0xffffffffffffffffffffffffffffffffffffffff\n      and\n      0x40c10f19\n        /* \"TokenShop.sol\":1784:1794  msg.sender */\n      caller\n        /* \"TokenShop.sol\":1796:1807  amountToken */\n      dup4\n        /* \"TokenShop.sol\":1772:1808  minter.mint(msg.sender, amountToken) */\n      mload(0x40)\n      dup4\n      0xffffffff\n      and\n      0xe0\n      shl\n      dup2\n      mstore\n      0x04\n      add\n      tag_13\n      swap3\n      swap2\n      swap1\n      tag_14\n      jump\t// in\n    tag_13:\n      0x00\n      mload(0x40)\n      dup1\n      dup4\n      sub\n      dup2\n      0x00\n      dup8\n      dup1\n      extcodesize\n      iszero\n      dup1\n      iszero\n      tag_15\n      jumpi\n      0x00\n      dup1\n      revert\n    tag_15:\n      pop\n      gas\n      call\n      iszero\n      dup1\n      iszero\n      tag_17\n      jumpi\n      returndatasize\n      0x00\n      dup1\n      returndatacopy\n      revert(0x00, returndatasize)\n    tag_17:\n      stop\n        /* \"TokenShop.sol\":235:2023  contract TokenShop {... */\n    tag_2:\n      0x00\n      dup1\n      revert\n        /* \"TokenShop.sol\":314:342  TokenInterface public minter */\n    tag_3:\n      callvalue\n      dup1\n      iszero\n      tag_18\n      jumpi\n      0x00\n      dup1\n      revert\n    tag_18:\n      pop\n      tag_19\n      tag_20\n      jump\t// in\n    tag_19:\n      mload(0x40)\n      tag_21\n      swap2\n      swap1\n      tag_22\n      jump\t// in\n    tag_21:\n      mload(0x40)\n      dup1\n      swap2\n      sub\n      swap1\n      return\n        /* \"TokenShop.sol\":1912:2016  function withdraw() external onlyOwner {... */\n    tag_4:\n      callvalue\n      dup1\n      iszero\n      tag_23\n      jumpi\n      0x00\n      dup1\n      revert\n    tag_23:\n      pop\n      tag_24\n      tag_25\n      jump\t// in\n    tag_24:\n      stop\n        /* \"TokenShop.sol\":1201:1670  function tokenAmount(uint256 amountETH) public view returns (uint256) {... */\n    tag_5:\n      callvalue\n      dup1\n      iszero\n      tag_26\n      jumpi\n      0x00\n      dup1\n      revert\n    tag_26:\n      pop\n      tag_27\n      0x04\n      dup1\n      calldatasize\n      sub\n      dup2\n      add\n      swap1\n      tag_28\n      swap2\n      swap1\n      tag_29\n      jump\t// in\n    tag_28:\n      tag_12\n      jump\t// in\n    tag_27:\n      mload(0x40)\n      tag_30\n      swap2\n      swap1\n      tag_31\n      jump\t// in\n    tag_30:\n      mload(0x40)\n      dup1\n      swap2\n      sub\n      swap1\n      return\n        /* \"TokenShop.sol\":349:380  uint256 public tokenPrice = 200 */\n    tag_6:\n      callvalue\n      dup1\n      iszero\n      tag_32\n      jumpi\n      0x00\n      dup1\n      revert\n    tag_32:\n      pop\n      tag_33\n      tag_34\n      jump\t// in\n    tag_33:\n      mload(0x40)\n      tag_35\n      swap2\n      swap1\n      tag_31\n      jump\t// in\n    tag_35:\n      mload(0x40)\n      dup1\n      swap2\n      sub\n      swap1\n      return\n        /* \"TokenShop.sol\":431:451  address public owner */\n    tag_7:\n      callvalue\n      dup1\n      iszero\n      tag_36\n      jumpi\n      0x00\n      dup1\n      revert\n    tag_36:\n      pop\n      tag_37\n      tag_38\n      jump\t// in\n    tag_37:\n      mload(0x40)\n      tag_39\n      swap2\n      swap1\n      tag_40\n      jump\t// in\n    tag_39:\n      mload(0x40)\n      dup1\n      swap2\n      sub\n      swap1\n      return\n        /* \"TokenShop.sol\":876:1193  function getChainlinkDataFeedLatestAnswer() public view returns (int) {... */\n    tag_8:\n      callvalue\n      dup1\n      iszero\n      tag_41\n      jumpi\n      0x00\n      dup1\n      revert\n    tag_41:\n      pop\n      tag_42\n      tag_43\n      jump\t// in\n    tag_42:\n      mload(0x40)\n      tag_44\n      swap2\n      swap1\n      tag_45\n      jump\t// in\n    tag_44:\n      mload(0x40)\n      dup1\n      swap2\n      sub\n      swap1\n      return\n        /* \"TokenShop.sol\":1201:1670  function tokenAmount(uint256 amountETH) public view returns (uint256) {... */\n    tag_12:\n        /* \"TokenShop.sol\":1262:1269  uint256 */\n      0x00\n        /* \"TokenShop.sol\":1329:1343  uint256 ethUsd */\n      dup1\n        /* \"TokenShop.sol\":1354:1388  getChainlinkDataFeedLatestAnswer() */\n      tag_47\n        /* \"TokenShop.sol\":1354:1386  getChainlinkDataFeedLatestAnswer */\n      tag_43\n        /* \"TokenShop.sol\":1354:1388  getChainlinkDataFeedLatestAnswer() */\n      jump\t// in\n    tag_47:\n        /* \"TokenShop.sol\":1329:1389  uint256 ethUsd = uint256(getChainlinkDataFeedLatestAnswer()) */\n      swap1\n      pop\n        /* \"TokenShop.sol\":1430:1447  uint256 amountUSD */\n      0x00\n        /* \"TokenShop.sol\":1471:1477  10**18 */\n      0x0de0b6b3a7640000\n        /* \"TokenShop.sol\":1462:1468  ethUsd */\n      dup3\n        /* \"TokenShop.sol\":1450:1459  amountETH */\n      dup6\n        /* \"TokenShop.sol\":1450:1468  amountETH * ethUsd */\n      tag_48\n      swap2\n      swap1\n      tag_49\n      jump\t// in\n    tag_48:\n        /* \"TokenShop.sol\":1450:1477  amountETH * ethUsd / 10**18 */\n      tag_50\n      swap2\n      swap1\n      tag_51\n      jump\t// in\n    tag_50:\n        /* \"TokenShop.sol\":1430:1477  uint256 amountUSD = amountETH * ethUsd / 10**18 */\n      swap1\n      pop\n        /* \"TokenShop.sol\":1514:1533  uint256 amountToken */\n      0x00\n        /* \"TokenShop.sol\":1561:1570  10**(8/2) */\n      0x2710\n        /* \"TokenShop.sol\":1548:1558  tokenPrice */\n      sload(0x02)\n        /* \"TokenShop.sol\":1536:1545  amountUSD */\n      dup4\n        /* \"TokenShop.sol\":1536:1558  amountUSD / tokenPrice */\n      tag_52\n      swap2\n      swap1\n      tag_51\n      jump\t// in\n    tag_52:\n        /* \"TokenShop.sol\":1536:1570  amountUSD / tokenPrice / 10**(8/2) */\n      tag_53\n      swap2\n      swap1\n      tag_51\n      jump\t// in\n    tag_53:\n        /* \"TokenShop.sol\":1514:1570  uint256 amountToken = amountUSD / tokenPrice / 10**(8/2) */\n      swap1\n      pop\n        /* \"TokenShop.sol\":1651:1662  amountToken */\n      dup1\n        /* \"TokenShop.sol\":1644:1662  return amountToken */\n      swap4\n      pop\n      pop\n      pop\n      pop\n        /* \"TokenShop.sol\":1201:1670  function tokenAmount(uint256 amountETH) public view returns (uint256) {... */\n      swap2\n      swap1\n      pop\n      jump\t// out\n        /* \"TokenShop.sol\":314:342  TokenInterface public minter */\n    tag_20:\n      0x01\n      0x00\n      swap1\n      sload\n      swap1\n      0x0100\n      exp\n      swap1\n      div\n      0xffffffffffffffffffffffffffffffffffffffff\n      and\n      dup2\n      jump\t// out\n        /* \"TokenShop.sol\":1912:2016  function withdraw() external onlyOwner {... */\n    tag_25:\n        /* \"TokenShop.sol\":1878:1883  owner */\n      0x03\n      0x00\n      swap1\n      sload\n      swap1\n      0x0100\n      exp\n      swap1\n      div\n      0xffffffffffffffffffffffffffffffffffffffff\n      and\n        /* \"TokenShop.sol\":1864:1883  msg.sender == owner */\n      0xffffffffffffffffffffffffffffffffffffffff\n      and\n        /* \"TokenShop.sol\":1864:1874  msg.sender */\n      caller\n        /* \"TokenShop.sol\":1864:1883  msg.sender == owner */\n      0xffffffffffffffffffffffffffffffffffffffff\n      and\n      eq\n        /* \"TokenShop.sol\":1856:1884  require(msg.sender == owner) */\n      tag_55\n      jumpi\n      0x00\n      dup1\n      revert\n    tag_55:\n        /* \"TokenShop.sol\":1970:1975  owner */\n      0x03\n      0x00\n      swap1\n      sload\n      swap1\n      0x0100\n      exp\n      swap1\n      div\n      0xffffffffffffffffffffffffffffffffffffffff\n      and\n        /* \"TokenShop.sol\":1962:1985  payable(owner).transfer */\n      0xffffffffffffffffffffffffffffffffffffffff\n      and\n        /* \"TokenShop.sol\":1962:2008  payable(owner).transfer(address(this).balance) */\n      0x08fc\n        /* \"TokenShop.sol\":1986:2007  address(this).balance */\n      selfbalance\n        /* \"TokenShop.sol\":1962:2008  payable(owner).transfer(address(this).balance) */\n      swap1\n      dup2\n      iszero\n      mul\n      swap1\n      mload(0x40)\n      0x00\n      mload(0x40)\n      dup1\n      dup4\n      sub\n      dup2\n      dup6\n      dup9\n      dup9\n      call\n      swap4\n      pop\n      pop\n      pop\n      pop\n      iszero\n      dup1\n      iszero\n      tag_58\n      jumpi\n      returndatasize\n      0x00\n      dup1\n      returndatacopy\n      revert(0x00, returndatasize)\n    tag_58:\n      pop\n        /* \"TokenShop.sol\":1912:2016  function withdraw() external onlyOwner {... */\n      jump\t// out\n        /* \"TokenShop.sol\":349:380  uint256 public tokenPrice = 200 */\n    tag_34:\n      sload(0x02)\n      dup2\n      jump\t// out\n        /* \"TokenShop.sol\":431:451  address public owner */\n    tag_38:\n      0x03\n      0x00\n      swap1\n      sload\n      swap1\n      0x0100\n      exp\n      swap1\n      div\n      0xffffffffffffffffffffffffffffffffffffffff\n      and\n      dup2\n      jump\t// out\n        /* \"TokenShop.sol\":876:1193  function getChainlinkDataFeedLatestAnswer() public view returns (int) {... */\n    tag_43:\n        /* \"TokenShop.sol\":941:944  int */\n      0x00\n        /* \"TokenShop.sol\":1005:1014  int price */\n      dup1\n        /* \"TokenShop.sol\":1135:1144  priceFeed */\n      0x00\n      dup1\n      sload\n      swap1\n      0x0100\n      exp\n      swap1\n      div\n      0xffffffffffffffffffffffffffffffffffffffff\n      and\n        /* \"TokenShop.sol\":1135:1160  priceFeed.latestRoundData */\n      0xffffffffffffffffffffffffffffffffffffffff\n      and\n      0xfeaf968c\n        /* \"TokenShop.sol\":1135:1162  priceFeed.latestRoundData() */\n      mload(0x40)\n      dup2\n      0xffffffff\n      and\n      0xe0\n      shl\n      dup2\n      mstore\n      0x04\n      add\n      0xa0\n      mload(0x40)\n      dup1\n      dup4\n      sub\n      dup2\n      dup7\n      gas\n      staticcall\n      iszero\n      dup1\n      iszero\n      tag_61\n      jumpi\n      returndatasize\n      0x00\n      dup1\n      returndatacopy\n      revert(0x00, returndatasize)\n    tag_61:\n      pop\n      pop\n      pop\n      pop\n      mload(0x40)\n      returndatasize\n      not(0x1f)\n      0x1f\n      dup3\n      add\n      and\n      dup3\n      add\n      dup1\n      0x40\n      mstore\n      pop\n      dup2\n      add\n      swap1\n      tag_62\n      swap2\n      swap1\n      tag_63\n      jump\t// in\n    tag_62:\n        /* \"TokenShop.sol\":957:1162  (... */\n      pop\n      pop\n      pop\n      swap2\n      pop\n      pop\n        /* \"TokenShop.sol\":1180:1185  price */\n      dup1\n        /* \"TokenShop.sol\":1173:1185  return price */\n      swap2\n      pop\n      pop\n        /* \"TokenShop.sol\":876:1193  function getChainlinkDataFeedLatestAnswer() public view returns (int) {... */\n      swap1\n      jump\t// out\n        /* \"#utility.yul\":7:133   */\n    tag_64:\n        /* \"#utility.yul\":44:51   */\n      0x00\n        /* \"#utility.yul\":84:126   */\n      0xffffffffffffffffffffffffffffffffffffffff\n        /* \"#utility.yul\":77:82   */\n      dup3\n        /* \"#utility.yul\":73:127   */\n      and\n        /* \"#utility.yul\":62:127   */\n      swap1\n      pop\n        /* \"#utility.yul\":7:133   */\n      swap2\n      swap1\n      pop\n      jump\t// out\n        /* \"#utility.yul\":139:235   */\n    tag_65:\n        /* \"#utility.yul\":176:183   */\n      0x00\n        /* \"#utility.yul\":205:229   */\n      tag_92\n        /* \"#utility.yul\":223:228   */\n      dup3\n        /* \"#utility.yul\":205:229   */\n      tag_64\n      jump\t// in\n    tag_92:\n        /* \"#utility.yul\":194:229   */\n      swap1\n      pop\n        /* \"#utility.yul\":139:235   */\n      swap2\n      swap1\n      pop\n      jump\t// out\n        /* \"#utility.yul\":241:359   */\n    tag_66:\n        /* \"#utility.yul\":328:352   */\n      tag_94\n        /* \"#utility.yul\":346:351   */\n      dup2\n        /* \"#utility.yul\":328:352   */\n      tag_65\n      jump\t// in\n    tag_94:\n        /* \"#utility.yul\":323:326   */\n      dup3\n        /* \"#utility.yul\":316:353   */\n      mstore\n        /* \"#utility.yul\":241:359   */\n      pop\n      pop\n      jump\t// out\n        /* \"#utility.yul\":365:442   */\n    tag_67:\n        /* \"#utility.yul\":402:409   */\n      0x00\n        /* \"#utility.yul\":431:436   */\n      dup2\n        /* \"#utility.yul\":420:436   */\n      swap1\n      pop\n        /* \"#utility.yul\":365:442   */\n      swap2\n      swap1\n      pop\n      jump\t// out\n        /* \"#utility.yul\":448:566   */\n    tag_68:\n        /* \"#utility.yul\":535:559   */\n      tag_97\n        /* \"#utility.yul\":553:558   */\n      dup2\n        /* \"#utility.yul\":535:559   */\n      tag_67\n      jump\t// in\n    tag_97:\n        /* \"#utility.yul\":530:533   */\n      dup3\n        /* \"#utility.yul\":523:560   */\n      mstore\n        /* \"#utility.yul\":448:566   */\n      pop\n      pop\n      jump\t// out\n        /* \"#utility.yul\":572:904   */\n    tag_14:\n        /* \"#utility.yul\":693:697   */\n      0x00\n        /* \"#utility.yul\":731:733   */\n      0x40\n        /* \"#utility.yul\":720:729   */\n      dup3\n        /* \"#utility.yul\":716:734   */\n      add\n        /* \"#utility.yul\":708:734   */\n      swap1\n      pop\n        /* \"#utility.yul\":744:815   */\n      tag_99\n        /* \"#utility.yul\":812:813   */\n      0x00\n        /* \"#utility.yul\":801:810   */\n      dup4\n        /* \"#utility.yul\":797:814   */\n      add\n        /* \"#utility.yul\":788:794   */\n      dup6\n        /* \"#utility.yul\":744:815   */\n      tag_66\n      jump\t// in\n    tag_99:\n        /* \"#utility.yul\":825:897   */\n      tag_100\n        /* \"#utility.yul\":893:895   */\n      0x20\n        /* \"#utility.yul\":882:891   */\n      dup4\n        /* \"#utility.yul\":878:896   */\n      add\n        /* \"#utility.yul\":869:875   */\n      dup5\n        /* \"#utility.yul\":825:897   */\n      tag_68\n      jump\t// in\n    tag_100:\n        /* \"#utility.yul\":572:904   */\n      swap4\n      swap3\n      pop\n      pop\n      pop\n      jump\t// out\n        /* \"#utility.yul\":910:970   */\n    tag_69:\n        /* \"#utility.yul\":938:941   */\n      0x00\n        /* \"#utility.yul\":959:964   */\n      dup2\n        /* \"#utility.yul\":952:964   */\n      swap1\n      pop\n        /* \"#utility.yul\":910:970   */\n      swap2\n      swap1\n      pop\n      jump\t// out\n        /* \"#utility.yul\":976:1118   */\n    tag_70:\n        /* \"#utility.yul\":1026:1035   */\n      0x00\n        /* \"#utility.yul\":1059:1112   */\n      tag_103\n        /* \"#utility.yul\":1077:1111   */\n      tag_104\n        /* \"#utility.yul\":1086:1110   */\n      tag_105\n        /* \"#utility.yul\":1104:1109   */\n      dup5\n        /* \"#utility.yul\":1086:1110   */\n      tag_64\n      jump\t// in\n    tag_105:\n        /* \"#utility.yul\":1077:1111   */\n      tag_69\n      jump\t// in\n    tag_104:\n        /* \"#utility.yul\":1059:1112   */\n      tag_64\n      jump\t// in\n    tag_103:\n        /* \"#utility.yul\":1046:1112   */\n      swap1\n      pop\n        /* \"#utility.yul\":976:1118   */\n      swap2\n      swap1\n      pop\n      jump\t// out\n        /* \"#utility.yul\":1124:1250   */\n    tag_71:\n        /* \"#utility.yul\":1174:1183   */\n      0x00\n        /* \"#utility.yul\":1207:1244   */\n      tag_107\n        /* \"#utility.yul\":1238:1243   */\n      dup3\n        /* \"#utility.yul\":1207:1244   */\n      tag_70\n      jump\t// in\n    tag_107:\n        /* \"#utility.yul\":1194:1244   */\n      swap1\n      pop\n        /* \"#utility.yul\":1124:1250   */\n      swap2\n      swap1\n      pop\n      jump\t// out\n        /* \"#utility.yul\":1256:1403   */\n    tag_72:\n        /* \"#utility.yul\":1327:1336   */\n      0x00\n        /* \"#utility.yul\":1360:1397   */\n      tag_109\n        /* \"#utility.yul\":1391:1396   */\n      dup3\n        /* \"#utility.yul\":1360:1397   */\n      tag_71\n      jump\t// in\n    tag_109:\n        /* \"#utility.yul\":1347:1397   */\n      swap1\n      pop\n        /* \"#utility.yul\":1256:1403   */\n      swap2\n      swap1\n      pop\n      jump\t// out\n        /* \"#utility.yul\":1409:1582   */\n    tag_73:\n        /* \"#utility.yul\":1517:1575   */\n      tag_111\n        /* \"#utility.yul\":1569:1574   */\n      dup2\n        /* \"#utility.yul\":1517:1575   */\n      tag_72\n      jump\t// in\n    tag_111:\n        /* \"#utility.yul\":1512:1515   */\n      dup3\n        /* \"#utility.yul\":1505:1576   */\n      mstore\n        /* \"#utility.yul\":1409:1582   */\n      pop\n      pop\n      jump\t// out\n        /* \"#utility.yul\":1588:1852   */\n    tag_22:\n        /* \"#utility.yul\":1702:1706   */\n      0x00\n        /* \"#utility.yul\":1740:1742   */\n      0x20\n        /* \"#utility.yul\":1729:1738   */\n      dup3\n        /* \"#utility.yul\":1725:1743   */\n      add\n        /* \"#utility.yul\":1717:1743   */\n      swap1\n      pop\n        /* \"#utility.yul\":1753:1845   */\n      tag_113\n        /* \"#utility.yul\":1842:1843   */\n      0x00\n        /* \"#utility.yul\":1831:1840   */\n      dup4\n        /* \"#utility.yul\":1827:1844   */\n      add\n        /* \"#utility.yul\":1818:1824   */\n      dup5\n        /* \"#utility.yul\":1753:1845   */\n      tag_73\n      jump\t// in\n    tag_113:\n        /* \"#utility.yul\":1588:1852   */\n      swap3\n      swap2\n      pop\n      pop\n      jump\t// out\n        /* \"#utility.yul\":1939:2056   */\n    tag_75:\n        /* \"#utility.yul\":2048:2049   */\n      0x00\n        /* \"#utility.yul\":2045:2046   */\n      dup1\n        /* \"#utility.yul\":2038:2050   */\n      revert\n        /* \"#utility.yul\":2185:2307   */\n    tag_77:\n        /* \"#utility.yul\":2258:2282   */\n      tag_118\n        /* \"#utility.yul\":2276:2281   */\n      dup2\n        /* \"#utility.yul\":2258:2282   */\n      tag_67\n      jump\t// in\n    tag_118:\n        /* \"#utility.yul\":2251:2256   */\n      dup2\n        /* \"#utility.yul\":2248:2283   */\n      eq\n        /* \"#utility.yul\":2238:2301   */\n      tag_119\n      jumpi\n        /* \"#utility.yul\":2297:2298   */\n      0x00\n        /* \"#utility.yul\":2294:2295   */\n      dup1\n        /* \"#utility.yul\":2287:2299   */\n      revert\n        /* \"#utility.yul\":2238:2301   */\n    tag_119:\n        /* \"#utility.yul\":2185:2307   */\n      pop\n      jump\t// out\n        /* \"#utility.yul\":2313:2452   */\n    tag_78:\n        /* \"#utility.yul\":2359:2364   */\n      0x00\n        /* \"#utility.yul\":2397:2403   */\n      dup2\n        /* \"#utility.yul\":2384:2404   */\n      calldataload\n        /* \"#utility.yul\":2375:2404   */\n      swap1\n      pop\n        /* \"#utility.yul\":2413:2446   */\n      tag_121\n        /* \"#utility.yul\":2440:2445   */\n      dup2\n        /* \"#utility.yul\":2413:2446   */\n      tag_77\n      jump\t// in\n    tag_121:\n        /* \"#utility.yul\":2313:2452   */\n      swap3\n      swap2\n      pop\n      pop\n      jump\t// out\n        /* \"#utility.yul\":2458:2787   */\n    tag_29:\n        /* \"#utility.yul\":2517:2523   */\n      0x00\n        /* \"#utility.yul\":2566:2568   */\n      0x20\n        /* \"#utility.yul\":2554:2563   */\n      dup3\n        /* \"#utility.yul\":2545:2552   */\n      dup5\n        /* \"#utility.yul\":2541:2564   */\n      sub\n        /* \"#utility.yul\":2537:2569   */\n      slt\n        /* \"#utility.yul\":2534:2653   */\n      iszero\n      tag_123\n      jumpi\n        /* \"#utility.yul\":2572:2651   */\n      tag_124\n      tag_75\n      jump\t// in\n    tag_124:\n        /* \"#utility.yul\":2534:2653   */\n    tag_123:\n        /* \"#utility.yul\":2692:2693   */\n      0x00\n        /* \"#utility.yul\":2717:2770   */\n      tag_125\n        /* \"#utility.yul\":2762:2769   */\n      dup5\n        /* \"#utility.yul\":2753:2759   */\n      dup3\n        /* \"#utility.yul\":2742:2751   */\n      dup6\n        /* \"#utility.yul\":2738:2760   */\n      add\n        /* \"#utility.yul\":2717:2770   */\n      tag_78\n      jump\t// in\n    tag_125:\n        /* \"#utility.yul\":2707:2770   */\n      swap2\n      pop\n        /* \"#utility.yul\":2663:2780   */\n      pop\n        /* \"#utility.yul\":2458:2787   */\n      swap3\n      swap2\n      pop\n      pop\n      jump\t// out\n        /* \"#utility.yul\":2793:3015   */\n    tag_31:\n        /* \"#utility.yul\":2886:2890   */\n      0x00\n        /* \"#utility.yul\":2924:2926   */\n      0x20\n        /* \"#utility.yul\":2913:2922   */\n      dup3\n        /* \"#utility.yul\":2909:2927   */\n      add\n        /* \"#utility.yul\":2901:2927   */\n      swap1\n      pop\n        /* \"#utility.yul\":2937:3008   */\n      tag_127\n        /* \"#utility.yul\":3005:3006   */\n      0x00\n        /* \"#utility.yul\":2994:3003   */\n      dup4\n        /* \"#utility.yul\":2990:3007   */\n      add\n        /* \"#utility.yul\":2981:2987   */\n      dup5\n        /* \"#utility.yul\":2937:3008   */\n      tag_68\n      jump\t// in\n    tag_127:\n        /* \"#utility.yul\":2793:3015   */\n      swap3\n      swap2\n      pop\n      pop\n      jump\t// out\n        /* \"#utility.yul\":3021:3243   */\n    tag_40:\n        /* \"#utility.yul\":3114:3118   */\n      0x00\n        /* \"#utility.yul\":3152:3154   */\n      0x20\n        /* \"#utility.yul\":3141:3150   */\n      dup3\n        /* \"#utility.yul\":3137:3155   */\n      add\n        /* \"#utility.yul\":3129:3155   */\n      swap1\n      pop\n        /* \"#utility.yul\":3165:3236   */\n      tag_129\n        /* \"#utility.yul\":3233:3234   */\n      0x00\n        /* \"#utility.yul\":3222:3231   */\n      dup4\n        /* \"#utility.yul\":3218:3235   */\n      add\n        /* \"#utility.yul\":3209:3215   */\n      dup5\n        /* \"#utility.yul\":3165:3236   */\n      tag_66\n      jump\t// in\n    tag_129:\n        /* \"#utility.yul\":3021:3243   */\n      swap3\n      swap2\n      pop\n      pop\n      jump\t// out\n        /* \"#utility.yul\":3249:3325   */\n    tag_79:\n        /* \"#utility.yul\":3285:3292   */\n      0x00\n        /* \"#utility.yul\":3314:3319   */\n      dup2\n        /* \"#utility.yul\":3303:3319   */\n      swap1\n      pop\n        /* \"#utility.yul\":3249:3325   */\n      swap2\n      swap1\n      pop\n      jump\t// out\n        /* \"#utility.yul\":3331:3446   */\n    tag_80:\n        /* \"#utility.yul\":3416:3439   */\n      tag_132\n        /* \"#utility.yul\":3433:3438   */\n      dup2\n        /* \"#utility.yul\":3416:3439   */\n      tag_79\n      jump\t// in\n    tag_132:\n        /* \"#utility.yul\":3411:3414   */\n      dup3\n        /* \"#utility.yul\":3404:3440   */\n      mstore\n        /* \"#utility.yul\":3331:3446   */\n      pop\n      pop\n      jump\t// out\n        /* \"#utility.yul\":3452:3670   */\n    tag_45:\n        /* \"#utility.yul\":3543:3547   */\n      0x00\n        /* \"#utility.yul\":3581:3583   */\n      0x20\n        /* \"#utility.yul\":3570:3579   */\n      dup3\n        /* \"#utility.yul\":3566:3584   */\n      add\n        /* \"#utility.yul\":3558:3584   */\n      swap1\n      pop\n        /* \"#utility.yul\":3594:3663   */\n      tag_134\n        /* \"#utility.yul\":3660:3661   */\n      0x00\n        /* \"#utility.yul\":3649:3658   */\n      dup4\n        /* \"#utility.yul\":3645:3662   */\n      add\n        /* \"#utility.yul\":3636:3642   */\n      dup5\n        /* \"#utility.yul\":3594:3663   */\n      tag_80\n      jump\t// in\n    tag_134:\n        /* \"#utility.yul\":3452:3670   */\n      swap3\n      swap2\n      pop\n      pop\n      jump\t// out\n        /* \"#utility.yul\":3676:3856   */\n    tag_81:\n        /* \"#utility.yul\":3724:3801   */\n      0x4e487b7100000000000000000000000000000000000000000000000000000000\n        /* \"#utility.yul\":3721:3722   */\n      0x00\n        /* \"#utility.yul\":3714:3802   */\n      mstore\n        /* \"#utility.yul\":3821:3825   */\n      0x11\n        /* \"#utility.yul\":3818:3819   */\n      0x04\n        /* \"#utility.yul\":3811:3826   */\n      mstore\n        /* \"#utility.yul\":3845:3849   */\n      0x24\n        /* \"#utility.yul\":3842:3843   */\n      0x00\n        /* \"#utility.yul\":3835:3850   */\n      revert\n        /* \"#utility.yul\":3862:4272   */\n    tag_49:\n        /* \"#utility.yul\":3902:3909   */\n      0x00\n        /* \"#utility.yul\":3925:3945   */\n      tag_137\n        /* \"#utility.yul\":3943:3944   */\n      dup3\n        /* \"#utility.yul\":3925:3945   */\n      tag_67\n      jump\t// in\n    tag_137:\n        /* \"#utility.yul\":3920:3945   */\n      swap2\n      pop\n        /* \"#utility.yul\":3959:3979   */\n      tag_138\n        /* \"#utility.yul\":3977:3978   */\n      dup4\n        /* \"#utility.yul\":3959:3979   */\n      tag_67\n      jump\t// in\n    tag_138:\n        /* \"#utility.yul\":3954:3979   */\n      swap3\n      pop\n        /* \"#utility.yul\":4014:4015   */\n      dup3\n        /* \"#utility.yul\":4011:4012   */\n      dup3\n        /* \"#utility.yul\":4007:4016   */\n      mul\n        /* \"#utility.yul\":4036:4066   */\n      tag_139\n        /* \"#utility.yul\":4054:4065   */\n      dup2\n        /* \"#utility.yul\":4036:4066   */\n      tag_67\n      jump\t// in\n    tag_139:\n        /* \"#utility.yul\":4025:4066   */\n      swap2\n      pop\n        /* \"#utility.yul\":4215:4216   */\n      dup3\n        /* \"#utility.yul\":4206:4213   */\n      dup3\n        /* \"#utility.yul\":4202:4217   */\n      div\n        /* \"#utility.yul\":4199:4200   */\n      dup5\n        /* \"#utility.yul\":4196:4218   */\n      eq\n        /* \"#utility.yul\":4176:4177   */\n      dup4\n        /* \"#utility.yul\":4169:4178   */\n      iszero\n        /* \"#utility.yul\":4149:4232   */\n      or\n        /* \"#utility.yul\":4126:4265   */\n      tag_140\n      jumpi\n        /* \"#utility.yul\":4245:4263   */\n      tag_141\n      tag_81\n      jump\t// in\n    tag_141:\n        /* \"#utility.yul\":4126:4265   */\n    tag_140:\n        /* \"#utility.yul\":3910:4272   */\n      pop\n        /* \"#utility.yul\":3862:4272   */\n      swap3\n      swap2\n      pop\n      pop\n      jump\t// out\n        /* \"#utility.yul\":4278:4458   */\n    tag_82:\n        /* \"#utility.yul\":4326:4403   */\n      0x4e487b7100000000000000000000000000000000000000000000000000000000\n        /* \"#utility.yul\":4323:4324   */\n      0x00\n        /* \"#utility.yul\":4316:4404   */\n      mstore\n        /* \"#utility.yul\":4423:4427   */\n      0x12\n        /* \"#utility.yul\":4420:4421   */\n      0x04\n        /* \"#utility.yul\":4413:4428   */\n      mstore\n        /* \"#utility.yul\":4447:4451   */\n      0x24\n        /* \"#utility.yul\":4444:4445   */\n      0x00\n        /* \"#utility.yul\":4437:4452   */\n      revert\n        /* \"#utility.yul\":4464:4649   */\n    tag_51:\n        /* \"#utility.yul\":4504:4505   */\n      0x00\n        /* \"#utility.yul\":4521:4541   */\n      tag_144\n        /* \"#utility.yul\":4539:4540   */\n      dup3\n        /* \"#utility.yul\":4521:4541   */\n      tag_67\n      jump\t// in\n    tag_144:\n        /* \"#utility.yul\":4516:4541   */\n      swap2\n      pop\n        /* \"#utility.yul\":4555:4575   */\n      tag_145\n        /* \"#utility.yul\":4573:4574   */\n      dup4\n        /* \"#utility.yul\":4555:4575   */\n      tag_67\n      jump\t// in\n    tag_145:\n        /* \"#utility.yul\":4550:4575   */\n      swap3\n      pop\n        /* \"#utility.yul\":4594:4595   */\n      dup3\n        /* \"#utility.yul\":4584:4619   */\n      tag_146\n      jumpi\n        /* \"#utility.yul\":4599:4617   */\n      tag_147\n      tag_82\n      jump\t// in\n    tag_147:\n        /* \"#utility.yul\":4584:4619   */\n    tag_146:\n        /* \"#utility.yul\":4641:4642   */\n      dup3\n        /* \"#utility.yul\":4638:4639   */\n      dup3\n        /* \"#utility.yul\":4634:4643   */\n      div\n        /* \"#utility.yul\":4629:4643   */\n      swap1\n      pop\n        /* \"#utility.yul\":4464:4649   */\n      swap3\n      swap2\n      pop\n      pop\n      jump\t// out\n        /* \"#utility.yul\":4655:4760   */\n    tag_83:\n        /* \"#utility.yul\":4691:4698   */\n      0x00\n        /* \"#utility.yul\":4731:4753   */\n      0xffffffffffffffffffff\n        /* \"#utility.yul\":4724:4729   */\n      dup3\n        /* \"#utility.yul\":4720:4754   */\n      and\n        /* \"#utility.yul\":4709:4754   */\n      swap1\n      pop\n        /* \"#utility.yul\":4655:4760   */\n      swap2\n      swap1\n      pop\n      jump\t// out\n        /* \"#utility.yul\":4766:4886   */\n    tag_84:\n        /* \"#utility.yul\":4838:4861   */\n      tag_150\n        /* \"#utility.yul\":4855:4860   */\n      dup2\n        /* \"#utility.yul\":4838:4861   */\n      tag_83\n      jump\t// in\n    tag_150:\n        /* \"#utility.yul\":4831:4836   */\n      dup2\n        /* \"#utility.yul\":4828:4862   */\n      eq\n        /* \"#utility.yul\":4818:4880   */\n      tag_151\n      jumpi\n        /* \"#utility.yul\":4876:4877   */\n      0x00\n        /* \"#utility.yul\":4873:4874   */\n      dup1\n        /* \"#utility.yul\":4866:4878   */\n      revert\n        /* \"#utility.yul\":4818:4880   */\n    tag_151:\n        /* \"#utility.yul\":4766:4886   */\n      pop\n      jump\t// out\n        /* \"#utility.yul\":4892:5033   */\n    tag_85:\n        /* \"#utility.yul\":4948:4953   */\n      0x00\n        /* \"#utility.yul\":4979:4985   */\n      dup2\n        /* \"#utility.yul\":4973:4986   */\n      mload\n        /* \"#utility.yul\":4964:4986   */\n      swap1\n      pop\n        /* \"#utility.yul\":4995:5027   */\n      tag_153\n        /* \"#utility.yul\":5021:5026   */\n      dup2\n        /* \"#utility.yul\":4995:5027   */\n      tag_84\n      jump\t// in\n    tag_153:\n        /* \"#utility.yul\":4892:5033   */\n      swap3\n      swap2\n      pop\n      pop\n      jump\t// out\n        /* \"#utility.yul\":5039:5159   */\n    tag_86:\n        /* \"#utility.yul\":5111:5134   */\n      tag_155\n        /* \"#utility.yul\":5128:5133   */\n      dup2\n        /* \"#utility.yul\":5111:5134   */\n      tag_79\n      jump\t// in\n    tag_155:\n        /* \"#utility.yul\":5104:5109   */\n      dup2\n        /* \"#utility.yul\":5101:5135   */\n      eq\n        /* \"#utility.yul\":5091:5153   */\n      tag_156\n      jumpi\n        /* \"#utility.yul\":5149:5150   */\n      0x00\n        /* \"#utility.yul\":5146:5147   */\n      dup1\n        /* \"#utility.yul\":5139:5151   */\n      revert\n        /* \"#utility.yul\":5091:5153   */\n    tag_156:\n        /* \"#utility.yul\":5039:5159   */\n      pop\n      jump\t// out\n        /* \"#utility.yul\":5165:5306   */\n    tag_87:\n        /* \"#utility.yul\":5221:5226   */\n      0x00\n        /* \"#utility.yul\":5252:5258   */\n      dup2\n        /* \"#utility.yul\":5246:5259   */\n      mload\n        /* \"#utility.yul\":5237:5259   */\n      swap1\n      pop\n        /* \"#utility.yul\":5268:5300   */\n      tag_158\n        /* \"#utility.yul\":5294:5299   */\n      dup2\n        /* \"#utility.yul\":5268:5300   */\n      tag_86\n      jump\t// in\n    tag_158:\n        /* \"#utility.yul\":5165:5306   */\n      swap3\n      swap2\n      pop\n      pop\n      jump\t// out\n        /* \"#utility.yul\":5312:5455   */\n    tag_88:\n        /* \"#utility.yul\":5369:5374   */\n      0x00\n        /* \"#utility.yul\":5400:5406   */\n      dup2\n        /* \"#utility.yul\":5394:5407   */\n      mload\n        /* \"#utility.yul\":5385:5407   */\n      swap1\n      pop\n        /* \"#utility.yul\":5416:5449   */\n      tag_160\n        /* \"#utility.yul\":5443:5448   */\n      dup2\n        /* \"#utility.yul\":5416:5449   */\n      tag_77\n      jump\t// in\n    tag_160:\n        /* \"#utility.yul\":5312:5455   */\n      swap3\n      swap2\n      pop\n      pop\n      jump\t// out\n        /* \"#utility.yul\":5461:6432   */\n    tag_63:\n        /* \"#utility.yul\":5564:5570   */\n      0x00\n        /* \"#utility.yul\":5572:5578   */\n      dup1\n        /* \"#utility.yul\":5580:5586   */\n      0x00\n        /* \"#utility.yul\":5588:5594   */\n      dup1\n        /* \"#utility.yul\":5596:5602   */\n      0x00\n        /* \"#utility.yul\":5645:5648   */\n      0xa0\n        /* \"#utility.yul\":5633:5642   */\n      dup7\n        /* \"#utility.yul\":5624:5631   */\n      dup9\n        /* \"#utility.yul\":5620:5643   */\n      sub\n        /* \"#utility.yul\":5616:5649   */\n      slt\n        /* \"#utility.yul\":5613:5733   */\n      iszero\n      tag_162\n      jumpi\n        /* \"#utility.yul\":5652:5731   */\n      tag_163\n      tag_75\n      jump\t// in\n    tag_163:\n        /* \"#utility.yul\":5613:5733   */\n    tag_162:\n        /* \"#utility.yul\":5772:5773   */\n      0x00\n        /* \"#utility.yul\":5797:5860   */\n      tag_164\n        /* \"#utility.yul\":5852:5859   */\n      dup9\n        /* \"#utility.yul\":5843:5849   */\n      dup3\n        /* \"#utility.yul\":5832:5841   */\n      dup10\n        /* \"#utility.yul\":5828:5850   */\n      add\n        /* \"#utility.yul\":5797:5860   */\n      tag_85\n      jump\t// in\n    tag_164:\n        /* \"#utility.yul\":5787:5860   */\n      swap6\n      pop\n        /* \"#utility.yul\":5743:5870   */\n      pop\n        /* \"#utility.yul\":5909:5911   */\n      0x20\n        /* \"#utility.yul\":5935:5998   */\n      tag_165\n        /* \"#utility.yul\":5990:5997   */\n      dup9\n        /* \"#utility.yul\":5981:5987   */\n      dup3\n        /* \"#utility.yul\":5970:5979   */\n      dup10\n        /* \"#utility.yul\":5966:5988   */\n      add\n        /* \"#utility.yul\":5935:5998   */\n      tag_87\n      jump\t// in\n    tag_165:\n        /* \"#utility.yul\":5925:5998   */\n      swap5\n      pop\n        /* \"#utility.yul\":5880:6008   */\n      pop\n        /* \"#utility.yul\":6047:6049   */\n      0x40\n        /* \"#utility.yul\":6073:6137   */\n      tag_166\n        /* \"#utility.yul\":6129:6136   */\n      dup9\n        /* \"#utility.yul\":6120:6126   */\n      dup3\n        /* \"#utility.yul\":6109:6118   */\n      dup10\n        /* \"#utility.yul\":6105:6127   */\n      add\n        /* \"#utility.yul\":6073:6137   */\n      tag_88\n      jump\t// in\n    tag_166:\n        /* \"#utility.yul\":6063:6137   */\n      swap4\n      pop\n        /* \"#utility.yul\":6018:6147   */\n      pop\n        /* \"#utility.yul\":6186:6188   */\n      0x60\n        /* \"#utility.yul\":6212:6276   */\n      tag_167\n        /* \"#utility.yul\":6268:6275   */\n      dup9\n        /* \"#utility.yul\":6259:6265   */\n      dup3\n        /* \"#utility.yul\":6248:6257   */\n      dup10\n        /* \"#utility.yul\":6244:6266   */\n      add\n        /* \"#utility.yul\":6212:6276   */\n      tag_88\n      jump\t// in\n    tag_167:\n        /* \"#utility.yul\":6202:6276   */\n      swap3\n      pop\n        /* \"#utility.yul\":6157:6286   */\n      pop\n        /* \"#utility.yul\":6325:6328   */\n      0x80\n        /* \"#utility.yul\":6352:6415   */\n      tag_168\n        /* \"#utility.yul\":6407:6414   */\n      dup9\n        /* \"#utility.yul\":6398:6404   */\n      dup3\n        /* \"#utility.yul\":6387:6396   */\n      dup10\n        /* \"#utility.yul\":6383:6405   */\n      add\n        /* \"#utility.yul\":6352:6415   */\n      tag_85\n      jump\t// in\n    tag_168:\n        /* \"#utility.yul\":6342:6415   */\n      swap2\n      pop\n        /* \"#utility.yul\":6296:6425   */\n      pop\n        /* \"#utility.yul\":5461:6432   */\n      swap3\n      swap6\n      pop\n      swap3\n      swap6\n      swap1\n      swap4\n      pop\n      jump\t// out\n\n    auxdata: 0xa2646970667358221220eda294a3ef449a41c7cddbe40d5f103eb0f89a8c6da2e318063991db34c7730464736f6c63430008150033\n}\n",
				"bytecode": {
					"linkReferences": {},
					"object": "608060405260c8600255348015610014575f80fd5b506040516109373803806109378339818101604052810190610036919061016d565b8060015f6101000a81548173ffffffffffffffffffffffffffffffffffffffff021916908373ffffffffffffffffffffffffffffffffffffffff16021790555073694aa1769357215de4fac081bf1f309adc3253065f806101000a81548173ffffffffffffffffffffffffffffffffffffffff021916908373ffffffffffffffffffffffffffffffffffffffff1602179055503360035f6101000a81548173ffffffffffffffffffffffffffffffffffffffff021916908373ffffffffffffffffffffffffffffffffffffffff16021790555050610198565b5f80fd5b5f73ffffffffffffffffffffffffffffffffffffffff82169050919050565b5f61013c82610113565b9050919050565b61014c81610132565b8114610156575f80fd5b50565b5f8151905061016781610143565b92915050565b5f602082840312156101825761018161010f565b5b5f61018f84828501610159565b91505092915050565b610792806101a55f395ff3fe608060405260043610610058575f3560e01c806307546172146100f45780633ccfd60b1461011e57806345ab331e146101345780637ff9b596146101705780638da5cb5b1461019a578063bea4dfb5146101c4576100f0565b366100f0575f610067346101ee565b905060015f9054906101000a900473ffffffffffffffffffffffffffffffffffffffff1673ffffffffffffffffffffffffffffffffffffffff166340c10f1933836040518363ffffffff1660e01b81526004016100c5929190610446565b5f604051808303815f87803b1580156100dc575f80fd5b505af11580156100ee573d5f803e3d5ffd5b005b5f80fd5b3480156100ff575f80fd5b50610108610245565b60405161011591906104c8565b60405180910390f35b348015610129575f80fd5b5061013261026a565b005b34801561013f575f80fd5b5061015a6004803603810190610155919061050f565b6101ee565b604051610167919061053a565b60405180910390f35b34801561017b575f80fd5b50610184610329565b604051610191919061053a565b60405180910390f35b3480156101a5575f80fd5b506101ae61032f565b6040516101bb9190610553565b60405180910390f35b3480156101cf575f80fd5b506101d8610354565b6040516101e59190610584565b60405180910390f35b5f806101f8610354565b90505f670de0b6b3a7640000828561021091906105ca565b61021a9190610638565b90505f6127106002548361022e9190610638565b6102389190610638565b9050809350505050919050565b60015f9054906101000a900473ffffffffffffffffffffffffffffffffffffffff1681565b60035f9054906101000a900473ffffffffffffffffffffffffffffffffffffffff1673ffffffffffffffffffffffffffffffffffffffff163373ffffffffffffffffffffffffffffffffffffffff16146102c2575f80fd5b60035f9054906101000a900473ffffffffffffffffffffffffffffffffffffffff1673ffffffffffffffffffffffffffffffffffffffff166108fc4790811502906040515f60405180830381858888f19350505050158015610326573d5f803e3d5ffd5b50565b60025481565b60035f9054906101000a900473ffffffffffffffffffffffffffffffffffffffff1681565b5f805f8054906101000a900473ffffffffffffffffffffffffffffffffffffffff1673ffffffffffffffffffffffffffffffffffffffff1663feaf968c6040518163ffffffff1660e01b815260040160a060405180830381865afa1580156103be573d5f803e3d5ffd5b505050506040513d601f19601f820116820180604052508101906103e291906106e5565b5050509150508091505090565b5f73ffffffffffffffffffffffffffffffffffffffff82169050919050565b5f610418826103ef565b9050919050565b6104288161040e565b82525050565b5f819050919050565b6104408161042e565b82525050565b5f6040820190506104595f83018561041f565b6104666020830184610437565b9392505050565b5f819050919050565b5f61049061048b610486846103ef565b61046d565b6103ef565b9050919050565b5f6104a182610476565b9050919050565b5f6104b282610497565b9050919050565b6104c2816104a8565b82525050565b5f6020820190506104db5f8301846104b9565b92915050565b5f80fd5b6104ee8161042e565b81146104f8575f80fd5b50565b5f81359050610509816104e5565b92915050565b5f60208284031215610524576105236104e1565b5b5f610531848285016104fb565b91505092915050565b5f60208201905061054d5f830184610437565b92915050565b5f6020820190506105665f83018461041f565b92915050565b5f819050919050565b61057e8161056c565b82525050565b5f6020820190506105975f830184610575565b92915050565b7f4e487b71000000000000000000000000000000000000000000000000000000005f52601160045260245ffd5b5f6105d48261042e565b91506105df8361042e565b92508282026105ed8161042e565b915082820484148315176106045761060361059d565b5b5092915050565b7f4e487b71000000000000000000000000000000000000000000000000000000005f52601260045260245ffd5b5f6106428261042e565b915061064d8361042e565b92508261065d5761065c61060b565b5b828204905092915050565b5f69ffffffffffffffffffff82169050919050565b61068681610668565b8114610690575f80fd5b50565b5f815190506106a18161067d565b92915050565b6106b08161056c565b81146106ba575f80fd5b50565b5f815190506106cb816106a7565b92915050565b5f815190506106df816104e5565b92915050565b5f805f805f60a086880312156106fe576106fd6104e1565b5b5f61070b88828901610693565b955050602061071c888289016106bd565b945050604061072d888289016106d1565b935050606061073e888289016106d1565b925050608061074f88828901610693565b915050929550929590935056fea2646970667358221220eda294a3ef449a41c7cddbe40d5f103eb0f89a8c6da2e318063991db34c7730464736f6c63430008150033",
					"opcodes": "PUSH1 0x80 PUSH1 0x40 MSTORE PUSH1 0xC8 PUSH1 0x2 SSTORE CALLVALUE DUP1 ISZERO PUSH2 0x14 JUMPI PUSH0 DUP1 REVERT JUMPDEST POP PUSH1 0x40 MLOAD PUSH2 0x937 CODESIZE SUB DUP1 PUSH2 0x937 DUP4 CODECOPY DUP2 DUP2 ADD PUSH1 0x40 MSTORE DUP2 ADD SWAP1 PUSH2 0x36 SWAP2 SWAP1 PUSH2 0x16D JUMP JUMPDEST DUP1 PUSH1 0x1 PUSH0 PUSH2 0x100 EXP DUP2 SLOAD DUP2 PUSH20 0xFFFFFFFFFFFFFFFFFFFFFFFFFFFFFFFFFFFFFFFF MUL NOT AND SWAP1 DUP4 PUSH20 0xFFFFFFFFFFFFFFFFFFFFFFFFFFFFFFFFFFFFFFFF AND MUL OR SWAP1 SSTORE POP PUSH20 0x694AA1769357215DE4FAC081BF1F309ADC325306 PUSH0 DUP1 PUSH2 0x100 EXP DUP2 SLOAD DUP2 PUSH20 0xFFFFFFFFFFFFFFFFFFFFFFFFFFFFFFFFFFFFFFFF MUL NOT AND SWAP1 DUP4 PUSH20 0xFFFFFFFFFFFFFFFFFFFFFFFFFFFFFFFFFFFFFFFF AND MUL OR SWAP1 SSTORE POP CALLER PUSH1 0x3 PUSH0 PUSH2 0x100 EXP DUP2 SLOAD DUP2 PUSH20 0xFFFFFFFFFFFFFFFFFFFFFFFFFFFFFFFFFFFFFFFF MUL NOT AND SWAP1 DUP4 PUSH20 0xFFFFFFFFFFFFFFFFFFFFFFFFFFFFFFFFFFFFFFFF AND MUL OR SWAP1 SSTORE POP POP PUSH2 0x198 JUMP JUMPDEST PUSH0 DUP1 REVERT JUMPDEST PUSH0 PUSH20 0xFFFFFFFFFFFFFFFFFFFFFFFFFFFFFFFFFFFFFFFF DUP3 AND SWAP1 POP SWAP2 SWAP1 POP JUMP JUMPDEST PUSH0 PUSH2 0x13C DUP3 PUSH2 0x113 JUMP JUMPDEST SWAP1 POP SWAP2 SWAP1 POP JUMP JUMPDEST PUSH2 0x14C DUP2 PUSH2 0x132 JUMP JUMPDEST DUP2 EQ PUSH2 0x156 JUMPI PUSH0 DUP1 REVERT JUMPDEST POP JUMP JUMPDEST PUSH0 DUP2 MLOAD SWAP1 POP PUSH2 0x167 DUP2 PUSH2 0x143 JUMP JUMPDEST SWAP3 SWAP2 POP POP JUMP JUMPDEST PUSH0 PUSH1 0x20 DUP3 DUP5 SUB SLT ISZERO PUSH2 0x182 JUMPI PUSH2 0x181 PUSH2 0x10F JUMP JUMPDEST JUMPDEST PUSH0 PUSH2 0x18F DUP5 DUP3 DUP6 ADD PUSH2 0x159 JUMP JUMPDEST SWAP2 POP POP SWAP3 SWAP2 POP POP JUMP JUMPDEST PUSH2 0x792 DUP1 PUSH2 0x1A5 PUSH0 CODECOPY PUSH0 RETURN INVALID PUSH1 0x80 PUSH1 0x40 MSTORE PUSH1 0x4 CALLDATASIZE LT PUSH2 0x58 JUMPI PUSH0 CALLDATALOAD PUSH1 0xE0 SHR DUP1 PUSH4 0x7546172 EQ PUSH2 0xF4 JUMPI DUP1 PUSH4 0x3CCFD60B EQ PUSH2 0x11E JUMPI DUP1 PUSH4 0x45AB331E EQ PUSH2 0x134 JUMPI DUP1 PUSH4 0x7FF9B596 EQ PUSH2 0x170 JUMPI DUP1 PUSH4 0x8DA5CB5B EQ PUSH2 0x19A JUMPI DUP1 PUSH4 0xBEA4DFB5 EQ PUSH2 0x1C4 JUMPI PUSH2 0xF0 JUMP JUMPDEST CALLDATASIZE PUSH2 0xF0 JUMPI PUSH0 PUSH2 0x67 CALLVALUE PUSH2 0x1EE JUMP JUMPDEST SWAP1 POP PUSH1 0x1 PUSH0 SWAP1 SLOAD SWAP1 PUSH2 0x100 EXP SWAP1 DIV PUSH20 0xFFFFFFFFFFFFFFFFFFFFFFFFFFFFFFFFFFFFFFFF AND PUSH20 0xFFFFFFFFFFFFFFFFFFFFFFFFFFFFFFFFFFFFFFFF AND PUSH4 0x40C10F19 CALLER DUP4 PUSH1 0x40 MLOAD DUP4 PUSH4 0xFFFFFFFF AND PUSH1 0xE0 SHL DUP2 MSTORE PUSH1 0x4 ADD PUSH2 0xC5 SWAP3 SWAP2 SWAP1 PUSH2 0x446 JUMP JUMPDEST PUSH0 PUSH1 0x40 MLOAD DUP1 DUP4 SUB DUP2 PUSH0 DUP8 DUP1 EXTCODESIZE ISZERO DUP1 ISZERO PUSH2 0xDC JUMPI PUSH0 DUP1 REVERT JUMPDEST POP GAS CALL ISZERO DUP1 ISZERO PUSH2 0xEE JUMPI RETURNDATASIZE PUSH0 DUP1 RETURNDATACOPY RETURNDATASIZE PUSH0 REVERT JUMPDEST STOP JUMPDEST PUSH0 DUP1 REVERT JUMPDEST CALLVALUE DUP1 ISZERO PUSH2 0xFF JUMPI PUSH0 DUP1 REVERT JUMPDEST POP PUSH2 0x108 PUSH2 0x245 JUMP JUMPDEST PUSH1 0x40 MLOAD PUSH2 0x115 SWAP2 SWAP1 PUSH2 0x4C8 JUMP JUMPDEST PUSH1 0x40 MLOAD DUP1 SWAP2 SUB SWAP1 RETURN JUMPDEST CALLVALUE DUP1 ISZERO PUSH2 0x129 JUMPI PUSH0 DUP1 REVERT JUMPDEST POP PUSH2 0x132 PUSH2 0x26A JUMP JUMPDEST STOP JUMPDEST CALLVALUE DUP1 ISZERO PUSH2 0x13F JUMPI PUSH0 DUP1 REVERT JUMPDEST POP PUSH2 0x15A PUSH1 0x4 DUP1 CALLDATASIZE SUB DUP2 ADD SWAP1 PUSH2 0x155 SWAP2 SWAP1 PUSH2 0x50F JUMP JUMPDEST PUSH2 0x1EE JUMP JUMPDEST PUSH1 0x40 MLOAD PUSH2 0x167 SWAP2 SWAP1 PUSH2 0x53A JUMP JUMPDEST PUSH1 0x40 MLOAD DUP1 SWAP2 SUB SWAP1 RETURN JUMPDEST CALLVALUE DUP1 ISZERO PUSH2 0x17B JUMPI PUSH0 DUP1 REVERT JUMPDEST POP PUSH2 0x184 PUSH2 0x329 JUMP JUMPDEST PUSH1 0x40 MLOAD PUSH2 0x191 SWAP2 SWAP1 PUSH2 0x53A JUMP JUMPDEST PUSH1 0x40 MLOAD DUP1 SWAP2 SUB SWAP1 RETURN JUMPDEST CALLVALUE DUP1 ISZERO PUSH2 0x1A5 JUMPI PUSH0 DUP1 REVERT JUMPDEST POP PUSH2 0x1AE PUSH2 0x32F JUMP JUMPDEST PUSH1 0x40 MLOAD PUSH2 0x1BB SWAP2 SWAP1 PUSH2 0x553 JUMP JUMPDEST PUSH1 0x40 MLOAD DUP1 SWAP2 SUB SWAP1 RETURN JUMPDEST CALLVALUE DUP1 ISZERO PUSH2 0x1CF JUMPI PUSH0 DUP1 REVERT JUMPDEST POP PUSH2 0x1D8 PUSH2 0x354 JUMP JUMPDEST PUSH1 0x40 MLOAD PUSH2 0x1E5 SWAP2 SWAP1 PUSH2 0x584 JUMP JUMPDEST PUSH1 0x40 MLOAD DUP1 SWAP2 SUB SWAP1 RETURN JUMPDEST PUSH0 DUP1 PUSH2 0x1F8 PUSH2 0x354 JUMP JUMPDEST SWAP1 POP PUSH0 PUSH8 0xDE0B6B3A7640000 DUP3 DUP6 PUSH2 0x210 SWAP2 SWAP1 PUSH2 0x5CA JUMP JUMPDEST PUSH2 0x21A SWAP2 SWAP1 PUSH2 0x638 JUMP JUMPDEST SWAP1 POP PUSH0 PUSH2 0x2710 PUSH1 0x2 SLOAD DUP4 PUSH2 0x22E SWAP2 SWAP1 PUSH2 0x638 JUMP JUMPDEST PUSH2 0x238 SWAP2 SWAP1 PUSH2 0x638 JUMP JUMPDEST SWAP1 POP DUP1 SWAP4 POP POP POP POP SWAP2 SWAP1 POP JUMP JUMPDEST PUSH1 0x1 PUSH0 SWAP1 SLOAD SWAP1 PUSH2 0x100 EXP SWAP1 DIV PUSH20 0xFFFFFFFFFFFFFFFFFFFFFFFFFFFFFFFFFFFFFFFF AND DUP2 JUMP JUMPDEST PUSH1 0x3 PUSH0 SWAP1 SLOAD SWAP1 PUSH2 0x100 EXP SWAP1 DIV PUSH20 0xFFFFFFFFFFFFFFFFFFFFFFFFFFFFFFFFFFFFFFFF AND PUSH20 0xFFFFFFFFFFFFFFFFFFFFFFFFFFFFFFFFFFFFFFFF AND CALLER PUSH20 0xFFFFFFFFFFFFFFFFFFFFFFFFFFFFFFFFFFFFFFFF AND EQ PUSH2 0x2C2 JUMPI PUSH0 DUP1 REVERT JUMPDEST PUSH1 0x3 PUSH0 SWAP1 SLOAD SWAP1 PUSH2 0x100 EXP SWAP1 DIV PUSH20 0xFFFFFFFFFFFFFFFFFFFFFFFFFFFFFFFFFFFFFFFF AND PUSH20 0xFFFFFFFFFFFFFFFFFFFFFFFFFFFFFFFFFFFFFFFF AND PUSH2 0x8FC SELFBALANCE SWAP1 DUP2 ISZERO MUL SWAP1 PUSH1 0x40 MLOAD PUSH0 PUSH1 0x40 MLOAD DUP1 DUP4 SUB DUP2 DUP6 DUP9 DUP9 CALL SWAP4 POP POP POP POP ISZERO DUP1 ISZERO PUSH2 0x326 JUMPI RETURNDATASIZE PUSH0 DUP1 RETURNDATACOPY RETURNDATASIZE PUSH0 REVERT JUMPDEST POP JUMP JUMPDEST PUSH1 0x2 SLOAD DUP2 JUMP JUMPDEST PUSH1 0x3 PUSH0 SWAP1 SLOAD SWAP1 PUSH2 0x100 EXP SWAP1 DIV PUSH20 0xFFFFFFFFFFFFFFFFFFFFFFFFFFFFFFFFFFFFFFFF AND DUP2 JUMP JUMPDEST PUSH0 DUP1 PUSH0 DUP1 SLOAD SWAP1 PUSH2 0x100 EXP SWAP1 DIV PUSH20 0xFFFFFFFFFFFFFFFFFFFFFFFFFFFFFFFFFFFFFFFF AND PUSH20 0xFFFFFFFFFFFFFFFFFFFFFFFFFFFFFFFFFFFFFFFF AND PUSH4 0xFEAF968C PUSH1 0x40 MLOAD DUP2 PUSH4 0xFFFFFFFF AND PUSH1 0xE0 SHL DUP2 MSTORE PUSH1 0x4 ADD PUSH1 0xA0 PUSH1 0x40 MLOAD DUP1 DUP4 SUB DUP2 DUP7 GAS STATICCALL ISZERO DUP1 ISZERO PUSH2 0x3BE JUMPI RETURNDATASIZE PUSH0 DUP1 RETURNDATACOPY RETURNDATASIZE PUSH0 REVERT JUMPDEST POP POP POP POP PUSH1 0x40 MLOAD RETURNDATASIZE PUSH1 0x1F NOT PUSH1 0x1F DUP3 ADD AND DUP3 ADD DUP1 PUSH1 0x40 MSTORE POP DUP2 ADD SWAP1 PUSH2 0x3E2 SWAP2 SWAP1 PUSH2 0x6E5 JUMP JUMPDEST POP POP POP SWAP2 POP POP DUP1 SWAP2 POP POP SWAP1 JUMP JUMPDEST PUSH0 PUSH20 0xFFFFFFFFFFFFFFFFFFFFFFFFFFFFFFFFFFFFFFFF DUP3 AND SWAP1 POP SWAP2 SWAP1 POP JUMP JUMPDEST PUSH0 PUSH2 0x418 DUP3 PUSH2 0x3EF JUMP JUMPDEST SWAP1 POP SWAP2 SWAP1 POP JUMP JUMPDEST PUSH2 0x428 DUP2 PUSH2 0x40E JUMP JUMPDEST DUP3 MSTORE POP POP JUMP JUMPDEST PUSH0 DUP2 SWAP1 POP SWAP2 SWAP1 POP JUMP JUMPDEST PUSH2 0x440 DUP2 PUSH2 0x42E JUMP JUMPDEST DUP3 MSTORE POP POP JUMP JUMPDEST PUSH0 PUSH1 0x40 DUP3 ADD SWAP1 POP PUSH2 0x459 PUSH0 DUP4 ADD DUP6 PUSH2 0x41F JUMP JUMPDEST PUSH2 0x466 PUSH1 0x20 DUP4 ADD DUP5 PUSH2 0x437 JUMP JUMPDEST SWAP4 SWAP3 POP POP POP JUMP JUMPDEST PUSH0 DUP2 SWAP1 POP SWAP2 SWAP1 POP JUMP JUMPDEST PUSH0 PUSH2 0x490 PUSH2 0x48B PUSH2 0x486 DUP5 PUSH2 0x3EF JUMP JUMPDEST PUSH2 0x46D JUMP JUMPDEST PUSH2 0x3EF JUMP JUMPDEST SWAP1 POP SWAP2 SWAP1 POP JUMP JUMPDEST PUSH0 PUSH2 0x4A1 DUP3 PUSH2 0x476 JUMP JUMPDEST SWAP1 POP SWAP2 SWAP1 POP JUMP JUMPDEST PUSH0 PUSH2 0x4B2 DUP3 PUSH2 0x497 JUMP JUMPDEST SWAP1 POP SWAP2 SWAP1 POP JUMP JUMPDEST PUSH2 0x4C2 DUP2 PUSH2 0x4A8 JUMP JUMPDEST DUP3 MSTORE POP POP JUMP JUMPDEST PUSH0 PUSH1 0x20 DUP3 ADD SWAP1 POP PUSH2 0x4DB PUSH0 DUP4 ADD DUP5 PUSH2 0x4B9 JUMP JUMPDEST SWAP3 SWAP2 POP POP JUMP JUMPDEST PUSH0 DUP1 REVERT JUMPDEST PUSH2 0x4EE DUP2 PUSH2 0x42E JUMP JUMPDEST DUP2 EQ PUSH2 0x4F8 JUMPI PUSH0 DUP1 REVERT JUMPDEST POP JUMP JUMPDEST PUSH0 DUP2 CALLDATALOAD SWAP1 POP PUSH2 0x509 DUP2 PUSH2 0x4E5 JUMP JUMPDEST SWAP3 SWAP2 POP POP JUMP JUMPDEST PUSH0 PUSH1 0x20 DUP3 DUP5 SUB SLT ISZERO PUSH2 0x524 JUMPI PUSH2 0x523 PUSH2 0x4E1 JUMP JUMPDEST JUMPDEST PUSH0 PUSH2 0x531 DUP5 DUP3 DUP6 ADD PUSH2 0x4FB JUMP JUMPDEST SWAP2 POP POP SWAP3 SWAP2 POP POP JUMP JUMPDEST PUSH0 PUSH1 0x20 DUP3 ADD SWAP1 POP PUSH2 0x54D PUSH0 DUP4 ADD DUP5 PUSH2 0x437 JUMP JUMPDEST SWAP3 SWAP2 POP POP JUMP JUMPDEST PUSH0 PUSH1 0x20 DUP3 ADD SWAP1 POP PUSH2 0x566 PUSH0 DUP4 ADD DUP5 PUSH2 0x41F JUMP JUMPDEST SWAP3 SWAP2 POP POP JUMP JUMPDEST PUSH0 DUP2 SWAP1 POP SWAP2 SWAP1 POP JUMP JUMPDEST PUSH2 0x57E DUP2 PUSH2 0x56C JUMP JUMPDEST DUP3 MSTORE POP POP JUMP JUMPDEST PUSH0 PUSH1 0x20 DUP3 ADD SWAP1 POP PUSH2 0x597 PUSH0 DUP4 ADD DUP5 PUSH2 0x575 JUMP JUMPDEST SWAP3 SWAP2 POP POP JUMP JUMPDEST PUSH32 0x4E487B7100000000000000000000000000000000000000000000000000000000 PUSH0 MSTORE PUSH1 0x11 PUSH1 0x4 MSTORE PUSH1 0x24 PUSH0 REVERT JUMPDEST PUSH0 PUSH2 0x5D4 DUP3 PUSH2 0x42E JUMP JUMPDEST SWAP2 POP PUSH2 0x5DF DUP4 PUSH2 0x42E JUMP JUMPDEST SWAP3 POP DUP3 DUP3 MUL PUSH2 0x5ED DUP2 PUSH2 0x42E JUMP JUMPDEST SWAP2 POP DUP3 DUP3 DIV DUP5 EQ DUP4 ISZERO OR PUSH2 0x604 JUMPI PUSH2 0x603 PUSH2 0x59D JUMP JUMPDEST JUMPDEST POP SWAP3 SWAP2 POP POP JUMP JUMPDEST PUSH32 0x4E487B7100000000000000000000000000000000000000000000000000000000 PUSH0 MSTORE PUSH1 0x12 PUSH1 0x4 MSTORE PUSH1 0x24 PUSH0 REVERT JUMPDEST PUSH0 PUSH2 0x642 DUP3 PUSH2 0x42E JUMP JUMPDEST SWAP2 POP PUSH2 0x64D DUP4 PUSH2 0x42E JUMP JUMPDEST SWAP3 POP DUP3 PUSH2 0x65D JUMPI PUSH2 0x65C PUSH2 0x60B JUMP JUMPDEST JUMPDEST DUP3 DUP3 DIV SWAP1 POP SWAP3 SWAP2 POP POP JUMP JUMPDEST PUSH0 PUSH10 0xFFFFFFFFFFFFFFFFFFFF DUP3 AND SWAP1 POP SWAP2 SWAP1 POP JUMP JUMPDEST PUSH2 0x686 DUP2 PUSH2 0x668 JUMP JUMPDEST DUP2 EQ PUSH2 0x690 JUMPI PUSH0 DUP1 REVERT JUMPDEST POP JUMP JUMPDEST PUSH0 DUP2 MLOAD SWAP1 POP PUSH2 0x6A1 DUP2 PUSH2 0x67D JUMP JUMPDEST SWAP3 SWAP2 POP POP JUMP JUMPDEST PUSH2 0x6B0 DUP2 PUSH2 0x56C JUMP JUMPDEST DUP2 EQ PUSH2 0x6BA JUMPI PUSH0 DUP1 REVERT JUMPDEST POP JUMP JUMPDEST PUSH0 DUP2 MLOAD SWAP1 POP PUSH2 0x6CB DUP2 PUSH2 0x6A7 JUMP JUMPDEST SWAP3 SWAP2 POP POP JUMP JUMPDEST PUSH0 DUP2 MLOAD SWAP1 POP PUSH2 0x6DF DUP2 PUSH2 0x4E5 JUMP JUMPDEST SWAP3 SWAP2 POP POP JUMP JUMPDEST PUSH0 DUP1 PUSH0 DUP1 PUSH0 PUSH1 0xA0 DUP7 DUP9 SUB SLT ISZERO PUSH2 0x6FE JUMPI PUSH2 0x6FD PUSH2 0x4E1 JUMP JUMPDEST JUMPDEST PUSH0 PUSH2 0x70B DUP9 DUP3 DUP10 ADD PUSH2 0x693 JUMP JUMPDEST SWAP6 POP POP PUSH1 0x20 PUSH2 0x71C DUP9 DUP3 DUP10 ADD PUSH2 0x6BD JUMP JUMPDEST SWAP5 POP POP PUSH1 0x40 PUSH2 0x72D DUP9 DUP3 DUP10 ADD PUSH2 0x6D1 JUMP JUMPDEST SWAP4 POP POP PUSH1 0x60 PUSH2 0x73E DUP9 DUP3 DUP10 ADD PUSH2 0x6D1 JUMP JUMPDEST SWAP3 POP POP PUSH1 0x80 PUSH2 0x74F DUP9 DUP3 DUP10 ADD PUSH2 0x693 JUMP JUMPDEST SWAP2 POP POP SWAP3 SWAP6 POP SWAP3 SWAP6 SWAP1 SWAP4 POP JUMP INVALID LOG2 PUSH5 0x6970667358 0x22 SLT KECCAK256 0xED LOG2 SWAP5 LOG3 0xEF PREVRANDAO SWAP11 COINBASE 0xC7 0xCD 0xDB 0xE4 0xD PUSH0 LT RETURNDATACOPY 0xB0 0xF8 SWAP11 DUP13 PUSH14 0xA2E318063991DB34C7730464736F PUSH13 0x63430008150033000000000000 "
				},
				"gasEstimates": {
					"creation": {
						"codeDepositCost": "387600",
						"executionCost": "infinite",
						"totalCost": "infinite"
					},
					"external": {
						"getChainlinkDataFeedLatestAnswer()": "infinite",
						"minter()": "infinite",
						"owner()": "2574",
						"tokenAmount(uint256)": "infinite",
						"tokenPrice()": "2469",
						"withdraw()": "infinite"
					}
				},
				"methodIdentifiers": {
					"getChainlinkDataFeedLatestAnswer()": "bea4dfb5",
					"minter()": "07546172",
					"owner()": "8da5cb5b",
					"tokenAmount(uint256)": "45ab331e",
					"tokenPrice()": "7ff9b596",
					"withdraw()": "3ccfd60b"
				}
			},
			"storageLayout": {
				"storage": [
					{
						"astId": 59,
						"contract": "TokenShop.sol:TokenShop",
						"label": "priceFeed",
						"offset": 0,
						"slot": "0",
						"type": "t_contract(AggregatorV3Interface)45"
					},
					{
						"astId": 62,
						"contract": "TokenShop.sol:TokenShop",
						"label": "minter",
						"offset": 0,
						"slot": "1",
						"type": "t_contract(TokenInterface)56"
					},
					{
						"astId": 65,
						"contract": "TokenShop.sol:TokenShop",
						"label": "tokenPrice",
						"offset": 0,
						"slot": "2",
						"type": "t_uint256"
					},
					{
						"astId": 67,
						"contract": "TokenShop.sol:TokenShop",
						"label": "owner",
						"offset": 0,
						"slot": "3",
						"type": "t_address"
					}
				],
				"types": {
					"t_address": {
						"encoding": "inplace",
						"label": "address",
						"numberOfBytes": "20"
					},
					"t_contract(AggregatorV3Interface)45": {
						"encoding": "inplace",
						"label": "contract AggregatorV3Interface",
						"numberOfBytes": "20"
					},
					"t_contract(TokenInterface)56": {
						"encoding": "inplace",
						"label": "contract TokenInterface",
						"numberOfBytes": "20"
					},
					"t_uint256": {
						"encoding": "inplace",
						"label": "uint256",
						"numberOfBytes": "32"
					}
				}
			},
			"userdoc": {
				"kind": "user",
				"methods": {
					"getChainlinkDataFeedLatestAnswer()": {
						"notice": "Returns the latest answer"
					}
				},
				"version": 1
			}
		}
	}
}