{
	"CCIPTokenSenderFujiSepolia.sol": {
		"CCIPTokenSenderFujiSepolia": {
			"abi": [
				{
					"inputs": [],
					"stateMutability": "nonpayable",
					"type": "constructor"
				},
				{
					"inputs": [
						{
							"internalType": "uint256",
							"name": "currentBalance",
							"type": "uint256"
						},
						{
							"internalType": "uint256",
							"name": "calculatedFees",
							"type": "uint256"
						}
					],
					"name": "NotEnoughBalance",
					"type": "error"
				},
				{
					"inputs": [],
					"name": "NothingToWithdraw",
					"type": "error"
				},
				{
					"anonymous": false,
					"inputs": [
						{
							"indexed": true,
							"internalType": "bytes32",
							"name": "messageId",
							"type": "bytes32"
						},
						{
							"indexed": true,
							"internalType": "uint64",
							"name": "destinationChainSelector",
							"type": "uint64"
						},
						{
							"indexed": false,
							"internalType": "address",
							"name": "receiver",
							"type": "address"
						},
						{
							"indexed": false,
							"internalType": "address",
							"name": "token",
							"type": "address"
						},
						{
							"indexed": false,
							"internalType": "uint256",
							"name": "tokenAmount",
							"type": "uint256"
						},
						{
							"indexed": false,
							"internalType": "address",
							"name": "feeToken",
							"type": "address"
						},
						{
							"indexed": false,
							"internalType": "uint256",
							"name": "fees",
							"type": "uint256"
						}
					],
					"name": "TokensTransferred",
					"type": "event"
				},
				{
					"inputs": [],
					"name": "owner",
					"outputs": [
						{
							"internalType": "address",
							"name": "",
							"type": "address"
						}
					],
					"stateMutability": "view",
					"type": "function"
				},
				{
					"inputs": [
						{
							"internalType": "address",
							"name": "_receiver",
							"type": "address"
						},
						{
							"internalType": "uint256",
							"name": "_amount",
							"type": "uint256"
						}
					],
					"name": "transferToSepolia",
					"outputs": [
						{
							"internalType": "bytes32",
							"name": "messageId",
							"type": "bytes32"
						}
					],
					"stateMutability": "nonpayable",
					"type": "function"
				},
				{
					"inputs": [
						{
							"internalType": "address",
							"name": "_beneficiary",
							"type": "address"
						},
						{
							"internalType": "address",
							"name": "_token",
							"type": "address"
						}
					],
					"name": "withdrawToken",
					"outputs": [],
					"stateMutability": "nonpayable",
					"type": "function"
				}
			],
			"devdoc": {
				"kind": "dev",
				"methods": {},
				"version": 1
			},
			"evm": {
				"assembly": "    /* \"CCIPTokenSenderFujiSepolia.sol\":469:4048  contract CCIPTokenSenderFujiSepolia {... */\n  mstore(0x40, 0x80)\n    /* \"CCIPTokenSenderFujiSepolia.sol\":693:735  0x0b9d5D9136855f6FEc3c0993feE6E9CE8a297846 */\n  0x0b9d5d9136855f6fec3c0993fee6e9ce8a297846\n    /* \"CCIPTokenSenderFujiSepolia.sol\":679:735  address link= 0x0b9d5D9136855f6FEc3c0993feE6E9CE8a297846 */\n  0x03\n  exp(0x0100, 0x00)\n  dup2\n  sload\n  dup2\n  0xffffffffffffffffffffffffffffffffffffffff\n  mul\n  not\n  and\n  swap1\n  dup4\n  0xffffffffffffffffffffffffffffffffffffffff\n  and\n  mul\n  or\n  swap1\n  sstore\n  pop\n    /* \"CCIPTokenSenderFujiSepolia.sol\":854:896  0xF694E193200268f9a4868e4Aa017A0118C9a8177 */\n  0xf694e193200268f9a4868e4aa017a0118c9a8177\n    /* \"CCIPTokenSenderFujiSepolia.sol\":830:896  address routerAddress = 0xF694E193200268f9a4868e4Aa017A0118C9a8177 */\n  0x04\n  exp(0x0100, 0x00)\n  dup2\n  sload\n  dup2\n  0xffffffffffffffffffffffffffffffffffffffff\n  mul\n  not\n  and\n  swap1\n  dup4\n  0xffffffffffffffffffffffffffffffffffffffff\n  and\n  mul\n  or\n  swap1\n  sstore\n  pop\n    /* \"CCIPTokenSenderFujiSepolia.sol\":922:964  0xD21341536c5cF5EB1bcb58f6723cE26e8D8E90e4 */\n  0xd21341536c5cf5eb1bcb58f6723ce26e8d8e90e4\n    /* \"CCIPTokenSenderFujiSepolia.sol\":903:964  address bnmToken = 0xD21341536c5cF5EB1bcb58f6723cE26e8D8E90e4 */\n  0x05\n  exp(0x0100, 0x00)\n  dup2\n  sload\n  dup2\n  0xffffffffffffffffffffffffffffffffffffffff\n  mul\n  not\n  and\n  swap1\n  dup4\n  0xffffffffffffffffffffffffffffffffffffffff\n  and\n  mul\n  or\n  swap1\n  sstore\n  pop\n    /* \"CCIPTokenSenderFujiSepolia.sol\":1099:1119  16015286601757825753 */\n  0xde41ba4fc9d91ad9\n    /* \"CCIPTokenSenderFujiSepolia.sol\":1065:1119  uint64 destinationChainSelector = 16015286601757825753 */\n  0x05\n  exp(0x0100, 0x14)\n  dup2\n  sload\n  dup2\n  0xffffffffffffffff\n  mul\n  not\n  and\n  swap1\n  dup4\n  0xffffffffffffffff\n  and\n  mul\n  or\n  swap1\n  sstore\n  pop\n    /* \"CCIPTokenSenderFujiSepolia.sol\":1810:2018  constructor() {... */\n  callvalue\n  dup1\n  iszero\n  tag_1\n  jumpi\n  0x00\n  dup1\n  revert\ntag_1:\n  pop\n    /* \"CCIPTokenSenderFujiSepolia.sol\":1843:1853  msg.sender */\n  caller\n    /* \"CCIPTokenSenderFujiSepolia.sol\":1835:1840  owner */\n  0x02\n  0x00\n    /* \"CCIPTokenSenderFujiSepolia.sol\":1835:1853  owner = msg.sender */\n  0x0100\n  exp\n  dup2\n  sload\n  dup2\n  0xffffffffffffffffffffffffffffffffffffffff\n  mul\n  not\n  and\n  swap1\n  dup4\n  0xffffffffffffffffffffffffffffffffffffffff\n  and\n  mul\n  or\n  swap1\n  sstore\n  pop\n    /* \"CCIPTokenSenderFujiSepolia.sol\":1887:1900  routerAddress */\n  0x04\n  0x00\n  swap1\n  sload\n  swap1\n  0x0100\n  exp\n  swap1\n  div\n  0xffffffffffffffffffffffffffffffffffffffff\n  and\n    /* \"CCIPTokenSenderFujiSepolia.sol\":1864:1870  router */\n  0x00\n  dup1\n    /* \"CCIPTokenSenderFujiSepolia.sol\":1864:1901  router = IRouterClient(routerAddress) */\n  0x0100\n  exp\n  dup2\n  sload\n  dup2\n  0xffffffffffffffffffffffffffffffffffffffff\n  mul\n  not\n  and\n  swap1\n  dup4\n  0xffffffffffffffffffffffffffffffffffffffff\n  and\n  mul\n  or\n  swap1\n  sstore\n  pop\n    /* \"CCIPTokenSenderFujiSepolia.sol\":1943:1947  link */\n  0x03\n  0x00\n  swap1\n  sload\n  swap1\n  0x0100\n  exp\n  swap1\n  div\n  0xffffffffffffffffffffffffffffffffffffffff\n  and\n    /* \"CCIPTokenSenderFujiSepolia.sol\":1912:1921  linkToken */\n  0x01\n  0x00\n    /* \"CCIPTokenSenderFujiSepolia.sol\":1912:1948  linkToken = LinkTokenInterface(link) */\n  0x0100\n  exp\n  dup2\n  sload\n  dup2\n  0xffffffffffffffffffffffffffffffffffffffff\n  mul\n  not\n  and\n  swap1\n  dup4\n  0xffffffffffffffffffffffffffffffffffffffff\n  and\n  mul\n  or\n  swap1\n  sstore\n  pop\n    /* \"CCIPTokenSenderFujiSepolia.sol\":1959:1968  linkToken */\n  0x01\n  0x00\n  swap1\n  sload\n  swap1\n  0x0100\n  exp\n  swap1\n  div\n  0xffffffffffffffffffffffffffffffffffffffff\n  and\n    /* \"CCIPTokenSenderFujiSepolia.sol\":1959:1976  linkToken.approve */\n  0xffffffffffffffffffffffffffffffffffffffff\n  and\n  0x095ea7b3\n    /* \"CCIPTokenSenderFujiSepolia.sol\":1977:1990  routerAddress */\n  0x04\n  0x00\n  swap1\n  sload\n  swap1\n  0x0100\n  exp\n  swap1\n  div\n  0xffffffffffffffffffffffffffffffffffffffff\n  and\n    /* \"CCIPTokenSenderFujiSepolia.sol\":1992:2009  type(uint256).max */\n  0xffffffffffffffffffffffffffffffffffffffffffffffffffffffffffffffff\n    /* \"CCIPTokenSenderFujiSepolia.sol\":1959:2010  linkToken.approve(routerAddress, type(uint256).max) */\n  mload(0x40)\n  dup4\n  0xffffffff\n  and\n  0xe0\n  shl\n  dup2\n  mstore\n  0x04\n  add\n  tag_4\n  swap3\n  swap2\n  swap1\n  tag_5\n  jump\t// in\ntag_4:\n  0x20\n  mload(0x40)\n  dup1\n  dup4\n  sub\n  dup2\n  0x00\n  dup8\n  gas\n  call\n  iszero\n  dup1\n  iszero\n  tag_7\n  jumpi\n  returndatasize\n  0x00\n  dup1\n  returndatacopy\n  revert(0x00, returndatasize)\ntag_7:\n  pop\n  pop\n  pop\n  pop\n  mload(0x40)\n  returndatasize\n  not(0x1f)\n  0x1f\n  dup3\n  add\n  and\n  dup3\n  add\n  dup1\n  0x40\n  mstore\n  pop\n  dup2\n  add\n  swap1\n  tag_8\n  swap2\n  swap1\n  tag_9\n  jump\t// in\ntag_8:\n  pop\n    /* \"CCIPTokenSenderFujiSepolia.sol\":469:4048  contract CCIPTokenSenderFujiSepolia {... */\n  jump(tag_10)\n    /* \"#utility.yul\":7:133   */\ntag_11:\n    /* \"#utility.yul\":44:51   */\n  0x00\n    /* \"#utility.yul\":84:126   */\n  0xffffffffffffffffffffffffffffffffffffffff\n    /* \"#utility.yul\":77:82   */\n  dup3\n    /* \"#utility.yul\":73:127   */\n  and\n    /* \"#utility.yul\":62:127   */\n  swap1\n  pop\n    /* \"#utility.yul\":7:133   */\n  swap2\n  swap1\n  pop\n  jump\t// out\n    /* \"#utility.yul\":139:235   */\ntag_12:\n    /* \"#utility.yul\":176:183   */\n  0x00\n    /* \"#utility.yul\":205:229   */\n  tag_25\n    /* \"#utility.yul\":223:228   */\n  dup3\n    /* \"#utility.yul\":205:229   */\n  tag_11\n  jump\t// in\ntag_25:\n    /* \"#utility.yul\":194:229   */\n  swap1\n  pop\n    /* \"#utility.yul\":139:235   */\n  swap2\n  swap1\n  pop\n  jump\t// out\n    /* \"#utility.yul\":241:359   */\ntag_13:\n    /* \"#utility.yul\":328:352   */\n  tag_27\n    /* \"#utility.yul\":346:351   */\n  dup2\n    /* \"#utility.yul\":328:352   */\n  tag_12\n  jump\t// in\ntag_27:\n    /* \"#utility.yul\":323:326   */\n  dup3\n    /* \"#utility.yul\":316:353   */\n  mstore\n    /* \"#utility.yul\":241:359   */\n  pop\n  pop\n  jump\t// out\n    /* \"#utility.yul\":365:442   */\ntag_14:\n    /* \"#utility.yul\":402:409   */\n  0x00\n    /* \"#utility.yul\":431:436   */\n  dup2\n    /* \"#utility.yul\":420:436   */\n  swap1\n  pop\n    /* \"#utility.yul\":365:442   */\n  swap2\n  swap1\n  pop\n  jump\t// out\n    /* \"#utility.yul\":448:566   */\ntag_15:\n    /* \"#utility.yul\":535:559   */\n  tag_30\n    /* \"#utility.yul\":553:558   */\n  dup2\n    /* \"#utility.yul\":535:559   */\n  tag_14\n  jump\t// in\ntag_30:\n    /* \"#utility.yul\":530:533   */\n  dup3\n    /* \"#utility.yul\":523:560   */\n  mstore\n    /* \"#utility.yul\":448:566   */\n  pop\n  pop\n  jump\t// out\n    /* \"#utility.yul\":572:904   */\ntag_5:\n    /* \"#utility.yul\":693:697   */\n  0x00\n    /* \"#utility.yul\":731:733   */\n  0x40\n    /* \"#utility.yul\":720:729   */\n  dup3\n    /* \"#utility.yul\":716:734   */\n  add\n    /* \"#utility.yul\":708:734   */\n  swap1\n  pop\n    /* \"#utility.yul\":744:815   */\n  tag_32\n    /* \"#utility.yul\":812:813   */\n  0x00\n    /* \"#utility.yul\":801:810   */\n  dup4\n    /* \"#utility.yul\":797:814   */\n  add\n    /* \"#utility.yul\":788:794   */\n  dup6\n    /* \"#utility.yul\":744:815   */\n  tag_13\n  jump\t// in\ntag_32:\n    /* \"#utility.yul\":825:897   */\n  tag_33\n    /* \"#utility.yul\":893:895   */\n  0x20\n    /* \"#utility.yul\":882:891   */\n  dup4\n    /* \"#utility.yul\":878:896   */\n  add\n    /* \"#utility.yul\":869:875   */\n  dup5\n    /* \"#utility.yul\":825:897   */\n  tag_15\n  jump\t// in\ntag_33:\n    /* \"#utility.yul\":572:904   */\n  swap4\n  swap3\n  pop\n  pop\n  pop\n  jump\t// out\n    /* \"#utility.yul\":991:1108   */\ntag_17:\n    /* \"#utility.yul\":1100:1101   */\n  0x00\n    /* \"#utility.yul\":1097:1098   */\n  dup1\n    /* \"#utility.yul\":1090:1102   */\n  revert\n    /* \"#utility.yul\":1237:1327   */\ntag_19:\n    /* \"#utility.yul\":1271:1278   */\n  0x00\n    /* \"#utility.yul\":1314:1319   */\n  dup2\n    /* \"#utility.yul\":1307:1320   */\n  iszero\n    /* \"#utility.yul\":1300:1321   */\n  iszero\n    /* \"#utility.yul\":1289:1321   */\n  swap1\n  pop\n    /* \"#utility.yul\":1237:1327   */\n  swap2\n  swap1\n  pop\n  jump\t// out\n    /* \"#utility.yul\":1333:1449   */\ntag_20:\n    /* \"#utility.yul\":1403:1424   */\n  tag_39\n    /* \"#utility.yul\":1418:1423   */\n  dup2\n    /* \"#utility.yul\":1403:1424   */\n  tag_19\n  jump\t// in\ntag_39:\n    /* \"#utility.yul\":1396:1401   */\n  dup2\n    /* \"#utility.yul\":1393:1425   */\n  eq\n    /* \"#utility.yul\":1383:1443   */\n  tag_40\n  jumpi\n    /* \"#utility.yul\":1439:1440   */\n  0x00\n    /* \"#utility.yul\":1436:1437   */\n  dup1\n    /* \"#utility.yul\":1429:1441   */\n  revert\n    /* \"#utility.yul\":1383:1443   */\ntag_40:\n    /* \"#utility.yul\":1333:1449   */\n  pop\n  jump\t// out\n    /* \"#utility.yul\":1455:1592   */\ntag_21:\n    /* \"#utility.yul\":1509:1514   */\n  0x00\n    /* \"#utility.yul\":1540:1546   */\n  dup2\n    /* \"#utility.yul\":1534:1547   */\n  mload\n    /* \"#utility.yul\":1525:1547   */\n  swap1\n  pop\n    /* \"#utility.yul\":1556:1586   */\n  tag_42\n    /* \"#utility.yul\":1580:1585   */\n  dup2\n    /* \"#utility.yul\":1556:1586   */\n  tag_20\n  jump\t// in\ntag_42:\n    /* \"#utility.yul\":1455:1592   */\n  swap3\n  swap2\n  pop\n  pop\n  jump\t// out\n    /* \"#utility.yul\":1598:1943   */\ntag_9:\n    /* \"#utility.yul\":1665:1671   */\n  0x00\n    /* \"#utility.yul\":1714:1716   */\n  0x20\n    /* \"#utility.yul\":1702:1711   */\n  dup3\n    /* \"#utility.yul\":1693:1700   */\n  dup5\n    /* \"#utility.yul\":1689:1712   */\n  sub\n    /* \"#utility.yul\":1685:1717   */\n  slt\n    /* \"#utility.yul\":1682:1801   */\n  iszero\n  tag_44\n  jumpi\n    /* \"#utility.yul\":1720:1799   */\n  tag_45\n  tag_17\n  jump\t// in\ntag_45:\n    /* \"#utility.yul\":1682:1801   */\ntag_44:\n    /* \"#utility.yul\":1840:1841   */\n  0x00\n    /* \"#utility.yul\":1865:1926   */\n  tag_46\n    /* \"#utility.yul\":1918:1925   */\n  dup5\n    /* \"#utility.yul\":1909:1915   */\n  dup3\n    /* \"#utility.yul\":1898:1907   */\n  dup6\n    /* \"#utility.yul\":1894:1916   */\n  add\n    /* \"#utility.yul\":1865:1926   */\n  tag_21\n  jump\t// in\ntag_46:\n    /* \"#utility.yul\":1855:1926   */\n  swap2\n  pop\n    /* \"#utility.yul\":1811:1936   */\n  pop\n    /* \"#utility.yul\":1598:1943   */\n  swap3\n  swap2\n  pop\n  pop\n  jump\t// out\n    /* \"CCIPTokenSenderFujiSepolia.sol\":469:4048  contract CCIPTokenSenderFujiSepolia {... */\ntag_10:\n  dataSize(sub_0)\n  dup1\n  dataOffset(sub_0)\n  0x00\n  codecopy\n  0x00\n  return\nstop\n\nsub_0: assembly {\n        /* \"CCIPTokenSenderFujiSepolia.sol\":469:4048  contract CCIPTokenSenderFujiSepolia {... */\n      mstore(0x40, 0x80)\n      callvalue\n      dup1\n      iszero\n      tag_1\n      jumpi\n      0x00\n      dup1\n      revert\n    tag_1:\n      pop\n      jumpi(tag_2, lt(calldatasize, 0x04))\n      shr(0xe0, calldataload(0x00))\n      dup1\n      0x3aeac4e1\n      eq\n      tag_3\n      jumpi\n      dup1\n      0x8da5cb5b\n      eq\n      tag_4\n      jumpi\n      dup1\n      0x9ea604e1\n      eq\n      tag_5\n      jumpi\n    tag_2:\n      0x00\n      dup1\n      revert\n        /* \"CCIPTokenSenderFujiSepolia.sol\":3739:4045  function withdrawToken(... */\n    tag_3:\n      tag_6\n      0x04\n      dup1\n      calldatasize\n      sub\n      dup2\n      add\n      swap1\n      tag_7\n      swap2\n      swap1\n      tag_8\n      jump\t// in\n    tag_7:\n      tag_9\n      jump\t// in\n    tag_6:\n      stop\n        /* \"CCIPTokenSenderFujiSepolia.sol\":574:594  address public owner */\n    tag_4:\n      tag_10\n      tag_11\n      jump\t// in\n    tag_10:\n      mload(0x40)\n      tag_12\n      swap2\n      swap1\n      tag_13\n      jump\t// in\n    tag_12:\n      mload(0x40)\n      dup1\n      swap2\n      sub\n      swap1\n      return\n        /* \"CCIPTokenSenderFujiSepolia.sol\":2029:3643  function transferToSepolia(... */\n    tag_5:\n      tag_14\n      0x04\n      dup1\n      calldatasize\n      sub\n      dup2\n      add\n      swap1\n      tag_15\n      swap2\n      swap1\n      tag_16\n      jump\t// in\n    tag_15:\n      tag_17\n      jump\t// in\n    tag_14:\n      mload(0x40)\n      tag_18\n      swap2\n      swap1\n      tag_19\n      jump\t// in\n    tag_18:\n      mload(0x40)\n      dup1\n      swap2\n      sub\n      swap1\n      return\n        /* \"CCIPTokenSenderFujiSepolia.sol\":3739:4045  function withdrawToken(... */\n    tag_9:\n        /* \"CCIPTokenSenderFujiSepolia.sol\":3705:3710  owner */\n      0x02\n      0x00\n      swap1\n      sload\n      swap1\n      0x0100\n      exp\n      swap1\n      div\n      0xffffffffffffffffffffffffffffffffffffffff\n      and\n        /* \"CCIPTokenSenderFujiSepolia.sol\":3691:3710  msg.sender == owner */\n      0xffffffffffffffffffffffffffffffffffffffff\n      and\n        /* \"CCIPTokenSenderFujiSepolia.sol\":3691:3701  msg.sender */\n      caller\n        /* \"CCIPTokenSenderFujiSepolia.sol\":3691:3710  msg.sender == owner */\n      0xffffffffffffffffffffffffffffffffffffffff\n      and\n      eq\n        /* \"CCIPTokenSenderFujiSepolia.sol\":3683:3711  require(msg.sender == owner) */\n      tag_21\n      jumpi\n      0x00\n      dup1\n      revert\n    tag_21:\n        /* \"CCIPTokenSenderFujiSepolia.sol\":3853:3867  uint256 amount */\n      0x00\n        /* \"CCIPTokenSenderFujiSepolia.sol\":3877:3883  _token */\n      dup2\n        /* \"CCIPTokenSenderFujiSepolia.sol\":3870:3894  IERC20(_token).balanceOf */\n      0xffffffffffffffffffffffffffffffffffffffff\n      and\n      0x70a08231\n        /* \"CCIPTokenSenderFujiSepolia.sol\":3903:3907  this */\n      address\n        /* \"CCIPTokenSenderFujiSepolia.sol\":3870:3909  IERC20(_token).balanceOf(address(this)) */\n      mload(0x40)\n      dup3\n      0xffffffff\n      and\n      0xe0\n      shl\n      dup2\n      mstore\n      0x04\n      add\n      tag_23\n      swap2\n      swap1\n      tag_13\n      jump\t// in\n    tag_23:\n      0x20\n      mload(0x40)\n      dup1\n      dup4\n      sub\n      dup2\n      dup7\n      gas\n      staticcall\n      iszero\n      dup1\n      iszero\n      tag_25\n      jumpi\n      returndatasize\n      0x00\n      dup1\n      returndatacopy\n      revert(0x00, returndatasize)\n    tag_25:\n      pop\n      pop\n      pop\n      pop\n      mload(0x40)\n      returndatasize\n      not(0x1f)\n      0x1f\n      dup3\n      add\n      and\n      dup3\n      add\n      dup1\n      0x40\n      mstore\n      pop\n      dup2\n      add\n      swap1\n      tag_26\n      swap2\n      swap1\n      tag_27\n      jump\t// in\n    tag_26:\n        /* \"CCIPTokenSenderFujiSepolia.sol\":3853:3909  uint256 amount = IERC20(_token).balanceOf(address(this)) */\n      swap1\n      pop\n        /* \"CCIPTokenSenderFujiSepolia.sol\":3943:3944  0 */\n      0x00\n        /* \"CCIPTokenSenderFujiSepolia.sol\":3933:3939  amount */\n      dup2\n        /* \"CCIPTokenSenderFujiSepolia.sol\":3933:3944  amount == 0 */\n      sub\n        /* \"CCIPTokenSenderFujiSepolia.sol\":3929:3972  if (amount == 0) revert NothingToWithdraw() */\n      tag_28\n      jumpi\n        /* \"CCIPTokenSenderFujiSepolia.sol\":3953:3972  NothingToWithdraw() */\n      mload(0x40)\n      0xd0d04f6000000000000000000000000000000000000000000000000000000000\n      dup2\n      mstore\n      0x04\n      add\n      mload(0x40)\n      dup1\n      swap2\n      sub\n      swap1\n      revert\n        /* \"CCIPTokenSenderFujiSepolia.sol\":3929:3972  if (amount == 0) revert NothingToWithdraw() */\n    tag_28:\n        /* \"CCIPTokenSenderFujiSepolia.sol\":3999:4005  _token */\n      dup2\n        /* \"CCIPTokenSenderFujiSepolia.sol\":3992:4015  IERC20(_token).transfer */\n      0xffffffffffffffffffffffffffffffffffffffff\n      and\n      0xa9059cbb\n        /* \"CCIPTokenSenderFujiSepolia.sol\":4016:4028  _beneficiary */\n      dup5\n        /* \"CCIPTokenSenderFujiSepolia.sol\":4030:4036  amount */\n      dup4\n        /* \"CCIPTokenSenderFujiSepolia.sol\":3992:4037  IERC20(_token).transfer(_beneficiary, amount) */\n      mload(0x40)\n      dup4\n      0xffffffff\n      and\n      0xe0\n      shl\n      dup2\n      mstore\n      0x04\n      add\n      tag_29\n      swap3\n      swap2\n      swap1\n      tag_30\n      jump\t// in\n    tag_29:\n      0x20\n      mload(0x40)\n      dup1\n      dup4\n      sub\n      dup2\n      0x00\n      dup8\n      gas\n      call\n      iszero\n      dup1\n      iszero\n      tag_32\n      jumpi\n      returndatasize\n      0x00\n      dup1\n      returndatacopy\n      revert(0x00, returndatasize)\n    tag_32:\n      pop\n      pop\n      pop\n      pop\n      mload(0x40)\n      returndatasize\n      not(0x1f)\n      0x1f\n      dup3\n      add\n      and\n      dup3\n      add\n      dup1\n      0x40\n      mstore\n      pop\n      dup2\n      add\n      swap1\n      tag_33\n      swap2\n      swap1\n      tag_34\n      jump\t// in\n    tag_33:\n      pop\n        /* \"CCIPTokenSenderFujiSepolia.sol\":3842:4045  {... */\n      pop\n        /* \"CCIPTokenSenderFujiSepolia.sol\":3739:4045  function withdrawToken(... */\n      pop\n      pop\n      jump\t// out\n        /* \"CCIPTokenSenderFujiSepolia.sol\":574:594  address public owner */\n    tag_11:\n      0x02\n      0x00\n      swap1\n      sload\n      swap1\n      0x0100\n      exp\n      swap1\n      div\n      0xffffffffffffffffffffffffffffffffffffffff\n      and\n      dup2\n      jump\t// out\n        /* \"CCIPTokenSenderFujiSepolia.sol\":2029:3643  function transferToSepolia(... */\n    tag_17:\n        /* \"CCIPTokenSenderFujiSepolia.sol\":2153:2170  bytes32 messageId */\n      0x00\n        /* \"CCIPTokenSenderFujiSepolia.sol\":2188:2244  Client.EVMTokenAmount[]... */\n      dup1\n        /* \"CCIPTokenSenderFujiSepolia.sol\":2275:2276  1 */\n      0x01\n        /* \"CCIPTokenSenderFujiSepolia.sol\":2247:2277  new Client.EVMTokenAmount[](1) */\n      0xffffffffffffffff\n      dup2\n      gt\n      iszero\n      tag_36\n      jumpi\n      tag_37\n      tag_38\n      jump\t// in\n    tag_37:\n    tag_36:\n      mload(0x40)\n      swap1\n      dup1\n      dup3\n      mstore\n      dup1\n      0x20\n      mul\n      0x20\n      add\n      dup3\n      add\n      0x40\n      mstore\n      dup1\n      iszero\n      tag_39\n      jumpi\n      dup2\n      0x20\n      add\n    tag_40:\n      tag_41\n      tag_42\n      jump\t// in\n    tag_41:\n      dup2\n      mstore\n      0x20\n      add\n      swap1\n      0x01\n      swap1\n      sub\n      swap1\n      dup2\n      tag_40\n      jumpi\n      swap1\n      pop\n    tag_39:\n      pop\n        /* \"CCIPTokenSenderFujiSepolia.sol\":2188:2277  Client.EVMTokenAmount[]... */\n      swap1\n      pop\n        /* \"CCIPTokenSenderFujiSepolia.sol\":2288:2328  Client.EVMTokenAmount memory tokenAmount */\n      0x00\n        /* \"CCIPTokenSenderFujiSepolia.sol\":2331:2425  Client.EVMTokenAmount({... */\n      mload(0x40)\n      dup1\n      0x40\n      add\n      0x40\n      mstore\n      dup1\n        /* \"CCIPTokenSenderFujiSepolia.sol\":2375:2383  bnmToken */\n      0x05\n      0x00\n      swap1\n      sload\n      swap1\n      0x0100\n      exp\n      swap1\n      div\n      0xffffffffffffffffffffffffffffffffffffffff\n      and\n        /* \"CCIPTokenSenderFujiSepolia.sol\":2331:2425  Client.EVMTokenAmount({... */\n      0xffffffffffffffffffffffffffffffffffffffff\n      and\n      dup2\n      mstore\n      0x20\n      add\n        /* \"CCIPTokenSenderFujiSepolia.sol\":2406:2413  _amount */\n      dup6\n        /* \"CCIPTokenSenderFujiSepolia.sol\":2331:2425  Client.EVMTokenAmount({... */\n      dup2\n      mstore\n      pop\n        /* \"CCIPTokenSenderFujiSepolia.sol\":2288:2425  Client.EVMTokenAmount memory tokenAmount = Client.EVMTokenAmount({... */\n      swap1\n      pop\n        /* \"CCIPTokenSenderFujiSepolia.sol\":2454:2465  tokenAmount */\n      dup1\n        /* \"CCIPTokenSenderFujiSepolia.sol\":2436:2448  tokenAmounts */\n      dup3\n        /* \"CCIPTokenSenderFujiSepolia.sol\":2449:2450  0 */\n      0x00\n        /* \"CCIPTokenSenderFujiSepolia.sol\":2436:2451  tokenAmounts[0] */\n      dup2\n      mload\n      dup2\n      lt\n      tag_43\n      jumpi\n      tag_44\n      tag_45\n      jump\t// in\n    tag_44:\n    tag_43:\n      0x20\n      mul\n      0x20\n      add\n      add\n        /* \"CCIPTokenSenderFujiSepolia.sol\":2436:2465  tokenAmounts[0] = tokenAmount */\n      dup2\n      swap1\n      mstore\n      pop\n        /* \"CCIPTokenSenderFujiSepolia.sol\":2520:2556  Client.EVM2AnyMessage memory message */\n      0x00\n        /* \"CCIPTokenSenderFujiSepolia.sol\":2559:2861  Client.EVM2AnyMessage({... */\n      mload(0x40)\n      dup1\n      0xa0\n      add\n      0x40\n      mstore\n      dup1\n        /* \"CCIPTokenSenderFujiSepolia.sol\":2617:2626  _receiver */\n      dup8\n        /* \"CCIPTokenSenderFujiSepolia.sol\":2606:2627  abi.encode(_receiver) */\n      add(0x20, mload(0x40))\n      tag_46\n      swap2\n      swap1\n      tag_13\n      jump\t// in\n    tag_46:\n      mload(0x40)\n      0x20\n      dup2\n      dup4\n      sub\n      sub\n      dup2\n      mstore\n      swap1\n      0x40\n      mstore\n        /* \"CCIPTokenSenderFujiSepolia.sol\":2559:2861  Client.EVM2AnyMessage({... */\n      dup2\n      mstore\n      0x20\n      add\n      mload(0x40)\n      dup1\n      0x20\n      add\n      0x40\n      mstore\n      dup1\n      0x00\n      dup2\n      mstore\n      pop\n      dup2\n      mstore\n      0x20\n      add\n        /* \"CCIPTokenSenderFujiSepolia.sol\":2679:2691  tokenAmounts */\n      dup5\n        /* \"CCIPTokenSenderFujiSepolia.sol\":2559:2861  Client.EVM2AnyMessage({... */\n      dup2\n      mstore\n      0x20\n      add\n        /* \"CCIPTokenSenderFujiSepolia.sol\":2839:2848  linkToken */\n      0x01\n      0x00\n      swap1\n      sload\n      swap1\n      0x0100\n      exp\n      swap1\n      div\n      0xffffffffffffffffffffffffffffffffffffffff\n      and\n        /* \"CCIPTokenSenderFujiSepolia.sol\":2559:2861  Client.EVM2AnyMessage({... */\n      0xffffffffffffffffffffffffffffffffffffffff\n      and\n      dup2\n      mstore\n      0x20\n      add\n        /* \"CCIPTokenSenderFujiSepolia.sol\":2717:2806  Client._argsToBytes(... */\n      tag_47\n        /* \"CCIPTokenSenderFujiSepolia.sol\":2755:2791  Client.EVMExtraArgsV1({gasLimit: 0}) */\n      mload(0x40)\n      dup1\n      0x20\n      add\n      0x40\n      mstore\n      dup1\n        /* \"CCIPTokenSenderFujiSepolia.sol\":2788:2789  0 */\n      0x00\n        /* \"CCIPTokenSenderFujiSepolia.sol\":2755:2791  Client.EVMExtraArgsV1({gasLimit: 0}) */\n      dup2\n      mstore\n      pop\n        /* \"CCIPTokenSenderFujiSepolia.sol\":2717:2736  Client._argsToBytes */\n      tag_48\n        /* \"CCIPTokenSenderFujiSepolia.sol\":2717:2806  Client._argsToBytes(... */\n      jump\t// in\n    tag_47:\n        /* \"CCIPTokenSenderFujiSepolia.sol\":2559:2861  Client.EVM2AnyMessage({... */\n      dup2\n      mstore\n      pop\n        /* \"CCIPTokenSenderFujiSepolia.sol\":2520:2861  Client.EVM2AnyMessage memory message = Client.EVM2AnyMessage({... */\n      swap1\n      pop\n        /* \"CCIPTokenSenderFujiSepolia.sol\":2914:2926  uint256 fees */\n      0x00\n        /* \"CCIPTokenSenderFujiSepolia.sol\":2929:2935  router */\n      dup1\n      0x00\n      swap1\n      sload\n      swap1\n      0x0100\n      exp\n      swap1\n      div\n      0xffffffffffffffffffffffffffffffffffffffff\n      and\n        /* \"CCIPTokenSenderFujiSepolia.sol\":2929:2942  router.getFee */\n      0xffffffffffffffffffffffffffffffffffffffff\n      and\n      0x20487ded\n        /* \"CCIPTokenSenderFujiSepolia.sol\":2943:2967  destinationChainSelector */\n      0x05\n      0x14\n      swap1\n      sload\n      swap1\n      0x0100\n      exp\n      swap1\n      div\n      0xffffffffffffffff\n      and\n        /* \"CCIPTokenSenderFujiSepolia.sol\":2969:2976  message */\n      dup5\n        /* \"CCIPTokenSenderFujiSepolia.sol\":2929:2977  router.getFee(destinationChainSelector, message) */\n      mload(0x40)\n      dup4\n      0xffffffff\n      and\n      0xe0\n      shl\n      dup2\n      mstore\n      0x04\n      add\n      tag_49\n      swap3\n      swap2\n      swap1\n      tag_50\n      jump\t// in\n    tag_49:\n      0x20\n      mload(0x40)\n      dup1\n      dup4\n      sub\n      dup2\n      dup7\n      gas\n      staticcall\n      iszero\n      dup1\n      iszero\n      tag_52\n      jumpi\n      returndatasize\n      0x00\n      dup1\n      returndatacopy\n      revert(0x00, returndatasize)\n    tag_52:\n      pop\n      pop\n      pop\n      pop\n      mload(0x40)\n      returndatasize\n      not(0x1f)\n      0x1f\n      dup3\n      add\n      and\n      dup3\n      add\n      dup1\n      0x40\n      mstore\n      pop\n      dup2\n      add\n      swap1\n      tag_53\n      swap2\n      swap1\n      tag_27\n      jump\t// in\n    tag_53:\n        /* \"CCIPTokenSenderFujiSepolia.sol\":2914:2977  uint256 fees = router.getFee(destinationChainSelector, message) */\n      swap1\n      pop\n        /* \"CCIPTokenSenderFujiSepolia.sol\":3001:3010  linkToken */\n      0x01\n      0x00\n      swap1\n      sload\n      swap1\n      0x0100\n      exp\n      swap1\n      div\n      0xffffffffffffffffffffffffffffffffffffffff\n      and\n        /* \"CCIPTokenSenderFujiSepolia.sol\":3001:3020  linkToken.balanceOf */\n      0xffffffffffffffffffffffffffffffffffffffff\n      and\n      0x70a08231\n        /* \"CCIPTokenSenderFujiSepolia.sol\":3029:3033  this */\n      address\n        /* \"CCIPTokenSenderFujiSepolia.sol\":3001:3035  linkToken.balanceOf(address(this)) */\n      mload(0x40)\n      dup3\n      0xffffffff\n      and\n      0xe0\n      shl\n      dup2\n      mstore\n      0x04\n      add\n      tag_54\n      swap2\n      swap1\n      tag_13\n      jump\t// in\n    tag_54:\n      0x20\n      mload(0x40)\n      dup1\n      dup4\n      sub\n      dup2\n      dup7\n      gas\n      staticcall\n      iszero\n      dup1\n      iszero\n      tag_56\n      jumpi\n      returndatasize\n      0x00\n      dup1\n      returndatacopy\n      revert(0x00, returndatasize)\n    tag_56:\n      pop\n      pop\n      pop\n      pop\n      mload(0x40)\n      returndatasize\n      not(0x1f)\n      0x1f\n      dup3\n      add\n      and\n      dup3\n      add\n      dup1\n      0x40\n      mstore\n      pop\n      dup2\n      add\n      swap1\n      tag_57\n      swap2\n      swap1\n      tag_27\n      jump\t// in\n    tag_57:\n        /* \"CCIPTokenSenderFujiSepolia.sol\":2994:2998  fees */\n      dup2\n        /* \"CCIPTokenSenderFujiSepolia.sol\":2994:3035  fees > linkToken.balanceOf(address(this)) */\n      gt\n        /* \"CCIPTokenSenderFujiSepolia.sol\":2990:3115  if (fees > linkToken.balanceOf(address(this)))... */\n      iszero\n      tag_58\n      jumpi\n        /* \"CCIPTokenSenderFujiSepolia.sol\":3074:3083  linkToken */\n      0x01\n      0x00\n      swap1\n      sload\n      swap1\n      0x0100\n      exp\n      swap1\n      div\n      0xffffffffffffffffffffffffffffffffffffffff\n      and\n        /* \"CCIPTokenSenderFujiSepolia.sol\":3074:3093  linkToken.balanceOf */\n      0xffffffffffffffffffffffffffffffffffffffff\n      and\n      0x70a08231\n        /* \"CCIPTokenSenderFujiSepolia.sol\":3102:3106  this */\n      address\n        /* \"CCIPTokenSenderFujiSepolia.sol\":3074:3108  linkToken.balanceOf(address(this)) */\n      mload(0x40)\n      dup3\n      0xffffffff\n      and\n      0xe0\n      shl\n      dup2\n      mstore\n      0x04\n      add\n      tag_59\n      swap2\n      swap1\n      tag_13\n      jump\t// in\n    tag_59:\n      0x20\n      mload(0x40)\n      dup1\n      dup4\n      sub\n      dup2\n      dup7\n      gas\n      staticcall\n      iszero\n      dup1\n      iszero\n      tag_61\n      jumpi\n      returndatasize\n      0x00\n      dup1\n      returndatacopy\n      revert(0x00, returndatasize)\n    tag_61:\n      pop\n      pop\n      pop\n      pop\n      mload(0x40)\n      returndatasize\n      not(0x1f)\n      0x1f\n      dup3\n      add\n      and\n      dup3\n      add\n      dup1\n      0x40\n      mstore\n      pop\n      dup2\n      add\n      swap1\n      tag_62\n      swap2\n      swap1\n      tag_27\n      jump\t// in\n    tag_62:\n        /* \"CCIPTokenSenderFujiSepolia.sol\":3110:3114  fees */\n      dup2\n        /* \"CCIPTokenSenderFujiSepolia.sol\":3057:3115  NotEnoughBalance(linkToken.balanceOf(address(this)), fees) */\n      mload(0x40)\n      0x8f0f420600000000000000000000000000000000000000000000000000000000\n      dup2\n      mstore\n      0x04\n      add\n      tag_63\n      swap3\n      swap2\n      swap1\n      tag_64\n      jump\t// in\n    tag_63:\n      mload(0x40)\n      dup1\n      swap2\n      sub\n      swap1\n      revert\n        /* \"CCIPTokenSenderFujiSepolia.sol\":2990:3115  if (fees > linkToken.balanceOf(address(this)))... */\n    tag_58:\n        /* \"CCIPTokenSenderFujiSepolia.sol\":3128:3137  linkToken */\n      0x01\n      0x00\n      swap1\n      sload\n      swap1\n      0x0100\n      exp\n      swap1\n      div\n      0xffffffffffffffffffffffffffffffffffffffff\n      and\n        /* \"CCIPTokenSenderFujiSepolia.sol\":3128:3145  linkToken.approve */\n      0xffffffffffffffffffffffffffffffffffffffff\n      and\n      0x095ea7b3\n        /* \"CCIPTokenSenderFujiSepolia.sol\":3154:3160  router */\n      0x00\n      dup1\n      sload\n      swap1\n      0x0100\n      exp\n      swap1\n      div\n      0xffffffffffffffffffffffffffffffffffffffff\n      and\n        /* \"CCIPTokenSenderFujiSepolia.sol\":3163:3167  fees */\n      dup4\n        /* \"CCIPTokenSenderFujiSepolia.sol\":3128:3168  linkToken.approve(address(router), fees) */\n      mload(0x40)\n      dup4\n      0xffffffff\n      and\n      0xe0\n      shl\n      dup2\n      mstore\n      0x04\n      add\n      tag_65\n      swap3\n      swap2\n      swap1\n      tag_30\n      jump\t// in\n    tag_65:\n      0x20\n      mload(0x40)\n      dup1\n      dup4\n      sub\n      dup2\n      0x00\n      dup8\n      gas\n      call\n      iszero\n      dup1\n      iszero\n      tag_67\n      jumpi\n      returndatasize\n      0x00\n      dup1\n      returndatacopy\n      revert(0x00, returndatasize)\n    tag_67:\n      pop\n      pop\n      pop\n      pop\n      mload(0x40)\n      returndatasize\n      not(0x1f)\n      0x1f\n      dup3\n      add\n      and\n      dup3\n      add\n      dup1\n      0x40\n      mstore\n      pop\n      dup2\n      add\n      swap1\n      tag_68\n      swap2\n      swap1\n      tag_34\n      jump\t// in\n    tag_68:\n      pop\n        /* \"CCIPTokenSenderFujiSepolia.sol\":3255:3263  bnmToken */\n      0x05\n      0x00\n      swap1\n      sload\n      swap1\n      0x0100\n      exp\n      swap1\n      div\n      0xffffffffffffffffffffffffffffffffffffffff\n      and\n        /* \"CCIPTokenSenderFujiSepolia.sol\":3248:3272  IERC20(bnmToken).approve */\n      0xffffffffffffffffffffffffffffffffffffffff\n      and\n      0x095ea7b3\n        /* \"CCIPTokenSenderFujiSepolia.sol\":3281:3287  router */\n      0x00\n      dup1\n      sload\n      swap1\n      0x0100\n      exp\n      swap1\n      div\n      0xffffffffffffffffffffffffffffffffffffffff\n      and\n        /* \"CCIPTokenSenderFujiSepolia.sol\":3290:3297  _amount */\n      dup9\n        /* \"CCIPTokenSenderFujiSepolia.sol\":3248:3298  IERC20(bnmToken).approve(address(router), _amount) */\n      mload(0x40)\n      dup4\n      0xffffffff\n      and\n      0xe0\n      shl\n      dup2\n      mstore\n      0x04\n      add\n      tag_69\n      swap3\n      swap2\n      swap1\n      tag_30\n      jump\t// in\n    tag_69:\n      0x20\n      mload(0x40)\n      dup1\n      dup4\n      sub\n      dup2\n      0x00\n      dup8\n      gas\n      call\n      iszero\n      dup1\n      iszero\n      tag_71\n      jumpi\n      returndatasize\n      0x00\n      dup1\n      returndatacopy\n      revert(0x00, returndatasize)\n    tag_71:\n      pop\n      pop\n      pop\n      pop\n      mload(0x40)\n      returndatasize\n      not(0x1f)\n      0x1f\n      dup3\n      add\n      and\n      dup3\n      add\n      dup1\n      0x40\n      mstore\n      pop\n      dup2\n      add\n      swap1\n      tag_72\n      swap2\n      swap1\n      tag_34\n      jump\t// in\n    tag_72:\n      pop\n        /* \"CCIPTokenSenderFujiSepolia.sol\":3360:3366  router */\n      0x00\n      dup1\n      sload\n      swap1\n      0x0100\n      exp\n      swap1\n      div\n      0xffffffffffffffffffffffffffffffffffffffff\n      and\n        /* \"CCIPTokenSenderFujiSepolia.sol\":3360:3375  router.ccipSend */\n      0xffffffffffffffffffffffffffffffffffffffff\n      and\n      0x96f4e9f9\n        /* \"CCIPTokenSenderFujiSepolia.sol\":3376:3400  destinationChainSelector */\n      0x05\n      0x14\n      swap1\n      sload\n      swap1\n      0x0100\n      exp\n      swap1\n      div\n      0xffffffffffffffff\n      and\n        /* \"CCIPTokenSenderFujiSepolia.sol\":3402:3409  message */\n      dup5\n        /* \"CCIPTokenSenderFujiSepolia.sol\":3360:3410  router.ccipSend(destinationChainSelector, message) */\n      mload(0x40)\n      dup4\n      0xffffffff\n      and\n      0xe0\n      shl\n      dup2\n      mstore\n      0x04\n      add\n      tag_73\n      swap3\n      swap2\n      swap1\n      tag_50\n      jump\t// in\n    tag_73:\n      0x20\n      mload(0x40)\n      dup1\n      dup4\n      sub\n      dup2\n      0x00\n      dup8\n      gas\n      call\n      iszero\n      dup1\n      iszero\n      tag_75\n      jumpi\n      returndatasize\n      0x00\n      dup1\n      returndatacopy\n      revert(0x00, returndatasize)\n    tag_75:\n      pop\n      pop\n      pop\n      pop\n      mload(0x40)\n      returndatasize\n      not(0x1f)\n      0x1f\n      dup3\n      add\n      and\n      dup3\n      add\n      dup1\n      0x40\n      mstore\n      pop\n      dup2\n      add\n      swap1\n      tag_76\n      swap2\n      swap1\n      tag_77\n      jump\t// in\n    tag_76:\n        /* \"CCIPTokenSenderFujiSepolia.sol\":3348:3410  messageId = router.ccipSend(destinationChainSelector, message) */\n      swap5\n      pop\n        /* \"CCIPTokenSenderFujiSepolia.sol\":3491:3515  destinationChainSelector */\n      0x05\n      0x14\n      swap1\n      sload\n      swap1\n      0x0100\n      exp\n      swap1\n      div\n      0xffffffffffffffff\n      and\n        /* \"CCIPTokenSenderFujiSepolia.sol\":3435:3633  TokensTransferred(... */\n      0xffffffffffffffff\n      and\n        /* \"CCIPTokenSenderFujiSepolia.sol\":3467:3476  messageId */\n      dup6\n        /* \"CCIPTokenSenderFujiSepolia.sol\":3435:3633  TokensTransferred(... */\n      0xc15fb748c32ba4eb29c1c311e78533f93b4425eab49ea87c6fe4279ecadca043\n        /* \"CCIPTokenSenderFujiSepolia.sol\":3530:3539  _receiver */\n      dup10\n        /* \"CCIPTokenSenderFujiSepolia.sol\":3554:3562  bnmToken */\n      0x05\n      0x00\n      swap1\n      sload\n      swap1\n      0x0100\n      exp\n      swap1\n      div\n      0xffffffffffffffffffffffffffffffffffffffff\n      and\n        /* \"CCIPTokenSenderFujiSepolia.sol\":3577:3584  _amount */\n      dup11\n        /* \"CCIPTokenSenderFujiSepolia.sol\":3599:3603  link */\n      0x03\n      0x00\n      swap1\n      sload\n      swap1\n      0x0100\n      exp\n      swap1\n      div\n      0xffffffffffffffffffffffffffffffffffffffff\n      and\n        /* \"CCIPTokenSenderFujiSepolia.sol\":3618:3622  fees */\n      dup8\n        /* \"CCIPTokenSenderFujiSepolia.sol\":3435:3633  TokensTransferred(... */\n      mload(0x40)\n      tag_78\n      swap6\n      swap5\n      swap4\n      swap3\n      swap2\n      swap1\n      tag_79\n      jump\t// in\n    tag_78:\n      mload(0x40)\n      dup1\n      swap2\n      sub\n      swap1\n      log3\n        /* \"CCIPTokenSenderFujiSepolia.sol\":2177:3643  {... */\n      pop\n      pop\n      pop\n      pop\n        /* \"CCIPTokenSenderFujiSepolia.sol\":2029:3643  function transferToSepolia(... */\n      swap3\n      swap2\n      pop\n      pop\n      jump\t// out\n        /* \"@chainlink/contracts-ccip/src/v0.8/ccip/libraries/Client.sol\":1285:1455  function _argsToBytes(EVMExtraArgsV1 memory extraArgs) internal pure returns (bytes memory bts) {... */\n    tag_48:\n        /* \"@chainlink/contracts-ccip/src/v0.8/ccip/libraries/Client.sol\":1363:1379  bytes memory bts */\n      0x60\n        /* \"@chainlink/contracts-ccip/src/v0.8/ccip/libraries/Client.sol\":1218:1228  0x97a657c9 */\n      0x97a657c9\n        /* \"@chainlink/contracts-ccip/src/v0.8/ccip/libraries/Client.sol\":1417:1438  EVM_EXTRA_ARGS_V1_TAG */\n      0xe0\n      shl\n        /* \"@chainlink/contracts-ccip/src/v0.8/ccip/libraries/Client.sol\":1440:1449  extraArgs */\n      dup3\n        /* \"@chainlink/contracts-ccip/src/v0.8/ccip/libraries/Client.sol\":1394:1450  abi.encodeWithSelector(EVM_EXTRA_ARGS_V1_TAG, extraArgs) */\n      add(0x24, mload(0x40))\n      tag_81\n      swap2\n      swap1\n      tag_82\n      jump\t// in\n    tag_81:\n      mload(0x40)\n      0x20\n      dup2\n      dup4\n      sub\n      sub\n      dup2\n      mstore\n      swap1\n      0x40\n      mstore\n      swap1\n      not(0xffffffffffffffffffffffffffffffffffffffffffffffffffffffff)\n      and\n      0x20\n      dup3\n      add\n      dup1\n      mload\n      0xffffffffffffffffffffffffffffffffffffffffffffffffffffffff\n      dup4\n      dup2\n      dup4\n      and\n      or\n      dup4\n      mstore\n      pop\n      pop\n      pop\n      pop\n        /* \"@chainlink/contracts-ccip/src/v0.8/ccip/libraries/Client.sol\":1387:1450  return abi.encodeWithSelector(EVM_EXTRA_ARGS_V1_TAG, extraArgs) */\n      swap1\n      pop\n        /* \"@chainlink/contracts-ccip/src/v0.8/ccip/libraries/Client.sol\":1285:1455  function _argsToBytes(EVMExtraArgsV1 memory extraArgs) internal pure returns (bytes memory bts) {... */\n      swap2\n      swap1\n      pop\n      jump\t// out\n    tag_42:\n      mload(0x40)\n      dup1\n      0x40\n      add\n      0x40\n      mstore\n      dup1\n      and(0xffffffffffffffffffffffffffffffffffffffff, 0x00)\n      dup2\n      mstore\n      0x20\n      add\n      0x00\n      dup2\n      mstore\n      pop\n      swap1\n      jump\t// out\n        /* \"#utility.yul\":88:205   */\n    tag_84:\n        /* \"#utility.yul\":197:198   */\n      0x00\n        /* \"#utility.yul\":194:195   */\n      dup1\n        /* \"#utility.yul\":187:199   */\n      revert\n        /* \"#utility.yul\":334:460   */\n    tag_86:\n        /* \"#utility.yul\":371:378   */\n      0x00\n        /* \"#utility.yul\":411:453   */\n      0xffffffffffffffffffffffffffffffffffffffff\n        /* \"#utility.yul\":404:409   */\n      dup3\n        /* \"#utility.yul\":400:454   */\n      and\n        /* \"#utility.yul\":389:454   */\n      swap1\n      pop\n        /* \"#utility.yul\":334:460   */\n      swap2\n      swap1\n      pop\n      jump\t// out\n        /* \"#utility.yul\":466:562   */\n    tag_87:\n        /* \"#utility.yul\":503:510   */\n      0x00\n        /* \"#utility.yul\":532:556   */\n      tag_127\n        /* \"#utility.yul\":550:555   */\n      dup3\n        /* \"#utility.yul\":532:556   */\n      tag_86\n      jump\t// in\n    tag_127:\n        /* \"#utility.yul\":521:556   */\n      swap1\n      pop\n        /* \"#utility.yul\":466:562   */\n      swap2\n      swap1\n      pop\n      jump\t// out\n        /* \"#utility.yul\":568:690   */\n    tag_88:\n        /* \"#utility.yul\":641:665   */\n      tag_129\n        /* \"#utility.yul\":659:664   */\n      dup2\n        /* \"#utility.yul\":641:665   */\n      tag_87\n      jump\t// in\n    tag_129:\n        /* \"#utility.yul\":634:639   */\n      dup2\n        /* \"#utility.yul\":631:666   */\n      eq\n        /* \"#utility.yul\":621:684   */\n      tag_130\n      jumpi\n        /* \"#utility.yul\":680:681   */\n      0x00\n        /* \"#utility.yul\":677:678   */\n      dup1\n        /* \"#utility.yul\":670:682   */\n      revert\n        /* \"#utility.yul\":621:684   */\n    tag_130:\n        /* \"#utility.yul\":568:690   */\n      pop\n      jump\t// out\n        /* \"#utility.yul\":696:835   */\n    tag_89:\n        /* \"#utility.yul\":742:747   */\n      0x00\n        /* \"#utility.yul\":780:786   */\n      dup2\n        /* \"#utility.yul\":767:787   */\n      calldataload\n        /* \"#utility.yul\":758:787   */\n      swap1\n      pop\n        /* \"#utility.yul\":796:829   */\n      tag_132\n        /* \"#utility.yul\":823:828   */\n      dup2\n        /* \"#utility.yul\":796:829   */\n      tag_88\n      jump\t// in\n    tag_132:\n        /* \"#utility.yul\":696:835   */\n      swap3\n      swap2\n      pop\n      pop\n      jump\t// out\n        /* \"#utility.yul\":841:1315   */\n    tag_8:\n        /* \"#utility.yul\":909:915   */\n      0x00\n        /* \"#utility.yul\":917:923   */\n      dup1\n        /* \"#utility.yul\":966:968   */\n      0x40\n        /* \"#utility.yul\":954:963   */\n      dup4\n        /* \"#utility.yul\":945:952   */\n      dup6\n        /* \"#utility.yul\":941:964   */\n      sub\n        /* \"#utility.yul\":937:969   */\n      slt\n        /* \"#utility.yul\":934:1053   */\n      iszero\n      tag_134\n      jumpi\n        /* \"#utility.yul\":972:1051   */\n      tag_135\n      tag_84\n      jump\t// in\n    tag_135:\n        /* \"#utility.yul\":934:1053   */\n    tag_134:\n        /* \"#utility.yul\":1092:1093   */\n      0x00\n        /* \"#utility.yul\":1117:1170   */\n      tag_136\n        /* \"#utility.yul\":1162:1169   */\n      dup6\n        /* \"#utility.yul\":1153:1159   */\n      dup3\n        /* \"#utility.yul\":1142:1151   */\n      dup7\n        /* \"#utility.yul\":1138:1160   */\n      add\n        /* \"#utility.yul\":1117:1170   */\n      tag_89\n      jump\t// in\n    tag_136:\n        /* \"#utility.yul\":1107:1170   */\n      swap3\n      pop\n        /* \"#utility.yul\":1063:1180   */\n      pop\n        /* \"#utility.yul\":1219:1221   */\n      0x20\n        /* \"#utility.yul\":1245:1298   */\n      tag_137\n        /* \"#utility.yul\":1290:1297   */\n      dup6\n        /* \"#utility.yul\":1281:1287   */\n      dup3\n        /* \"#utility.yul\":1270:1279   */\n      dup7\n        /* \"#utility.yul\":1266:1288   */\n      add\n        /* \"#utility.yul\":1245:1298   */\n      tag_89\n      jump\t// in\n    tag_137:\n        /* \"#utility.yul\":1235:1298   */\n      swap2\n      pop\n        /* \"#utility.yul\":1190:1308   */\n      pop\n        /* \"#utility.yul\":841:1315   */\n      swap3\n      pop\n      swap3\n      swap1\n      pop\n      jump\t// out\n        /* \"#utility.yul\":1321:1439   */\n    tag_90:\n        /* \"#utility.yul\":1408:1432   */\n      tag_139\n        /* \"#utility.yul\":1426:1431   */\n      dup2\n        /* \"#utility.yul\":1408:1432   */\n      tag_87\n      jump\t// in\n    tag_139:\n        /* \"#utility.yul\":1403:1406   */\n      dup3\n        /* \"#utility.yul\":1396:1433   */\n      mstore\n        /* \"#utility.yul\":1321:1439   */\n      pop\n      pop\n      jump\t// out\n        /* \"#utility.yul\":1445:1667   */\n    tag_13:\n        /* \"#utility.yul\":1538:1542   */\n      0x00\n        /* \"#utility.yul\":1576:1578   */\n      0x20\n        /* \"#utility.yul\":1565:1574   */\n      dup3\n        /* \"#utility.yul\":1561:1579   */\n      add\n        /* \"#utility.yul\":1553:1579   */\n      swap1\n      pop\n        /* \"#utility.yul\":1589:1660   */\n      tag_141\n        /* \"#utility.yul\":1657:1658   */\n      0x00\n        /* \"#utility.yul\":1646:1655   */\n      dup4\n        /* \"#utility.yul\":1642:1659   */\n      add\n        /* \"#utility.yul\":1633:1639   */\n      dup5\n        /* \"#utility.yul\":1589:1660   */\n      tag_90\n      jump\t// in\n    tag_141:\n        /* \"#utility.yul\":1445:1667   */\n      swap3\n      swap2\n      pop\n      pop\n      jump\t// out\n        /* \"#utility.yul\":1673:1750   */\n    tag_91:\n        /* \"#utility.yul\":1710:1717   */\n      0x00\n        /* \"#utility.yul\":1739:1744   */\n      dup2\n        /* \"#utility.yul\":1728:1744   */\n      swap1\n      pop\n        /* \"#utility.yul\":1673:1750   */\n      swap2\n      swap1\n      pop\n      jump\t// out\n        /* \"#utility.yul\":1756:1878   */\n    tag_92:\n        /* \"#utility.yul\":1829:1853   */\n      tag_144\n        /* \"#utility.yul\":1847:1852   */\n      dup2\n        /* \"#utility.yul\":1829:1853   */\n      tag_91\n      jump\t// in\n    tag_144:\n        /* \"#utility.yul\":1822:1827   */\n      dup2\n        /* \"#utility.yul\":1819:1854   */\n      eq\n        /* \"#utility.yul\":1809:1872   */\n      tag_145\n      jumpi\n        /* \"#utility.yul\":1868:1869   */\n      0x00\n        /* \"#utility.yul\":1865:1866   */\n      dup1\n        /* \"#utility.yul\":1858:1870   */\n      revert\n        /* \"#utility.yul\":1809:1872   */\n    tag_145:\n        /* \"#utility.yul\":1756:1878   */\n      pop\n      jump\t// out\n        /* \"#utility.yul\":1884:2023   */\n    tag_93:\n        /* \"#utility.yul\":1930:1935   */\n      0x00\n        /* \"#utility.yul\":1968:1974   */\n      dup2\n        /* \"#utility.yul\":1955:1975   */\n      calldataload\n        /* \"#utility.yul\":1946:1975   */\n      swap1\n      pop\n        /* \"#utility.yul\":1984:2017   */\n      tag_147\n        /* \"#utility.yul\":2011:2016   */\n      dup2\n        /* \"#utility.yul\":1984:2017   */\n      tag_92\n      jump\t// in\n    tag_147:\n        /* \"#utility.yul\":1884:2023   */\n      swap3\n      swap2\n      pop\n      pop\n      jump\t// out\n        /* \"#utility.yul\":2029:2503   */\n    tag_16:\n        /* \"#utility.yul\":2097:2103   */\n      0x00\n        /* \"#utility.yul\":2105:2111   */\n      dup1\n        /* \"#utility.yul\":2154:2156   */\n      0x40\n        /* \"#utility.yul\":2142:2151   */\n      dup4\n        /* \"#utility.yul\":2133:2140   */\n      dup6\n        /* \"#utility.yul\":2129:2152   */\n      sub\n        /* \"#utility.yul\":2125:2157   */\n      slt\n        /* \"#utility.yul\":2122:2241   */\n      iszero\n      tag_149\n      jumpi\n        /* \"#utility.yul\":2160:2239   */\n      tag_150\n      tag_84\n      jump\t// in\n    tag_150:\n        /* \"#utility.yul\":2122:2241   */\n    tag_149:\n        /* \"#utility.yul\":2280:2281   */\n      0x00\n        /* \"#utility.yul\":2305:2358   */\n      tag_151\n        /* \"#utility.yul\":2350:2357   */\n      dup6\n        /* \"#utility.yul\":2341:2347   */\n      dup3\n        /* \"#utility.yul\":2330:2339   */\n      dup7\n        /* \"#utility.yul\":2326:2348   */\n      add\n        /* \"#utility.yul\":2305:2358   */\n      tag_89\n      jump\t// in\n    tag_151:\n        /* \"#utility.yul\":2295:2358   */\n      swap3\n      pop\n        /* \"#utility.yul\":2251:2368   */\n      pop\n        /* \"#utility.yul\":2407:2409   */\n      0x20\n        /* \"#utility.yul\":2433:2486   */\n      tag_152\n        /* \"#utility.yul\":2478:2485   */\n      dup6\n        /* \"#utility.yul\":2469:2475   */\n      dup3\n        /* \"#utility.yul\":2458:2467   */\n      dup7\n        /* \"#utility.yul\":2454:2476   */\n      add\n        /* \"#utility.yul\":2433:2486   */\n      tag_93\n      jump\t// in\n    tag_152:\n        /* \"#utility.yul\":2423:2486   */\n      swap2\n      pop\n        /* \"#utility.yul\":2378:2496   */\n      pop\n        /* \"#utility.yul\":2029:2503   */\n      swap3\n      pop\n      swap3\n      swap1\n      pop\n      jump\t// out\n        /* \"#utility.yul\":2509:2586   */\n    tag_94:\n        /* \"#utility.yul\":2546:2553   */\n      0x00\n        /* \"#utility.yul\":2575:2580   */\n      dup2\n        /* \"#utility.yul\":2564:2580   */\n      swap1\n      pop\n        /* \"#utility.yul\":2509:2586   */\n      swap2\n      swap1\n      pop\n      jump\t// out\n        /* \"#utility.yul\":2592:2710   */\n    tag_95:\n        /* \"#utility.yul\":2679:2703   */\n      tag_155\n        /* \"#utility.yul\":2697:2702   */\n      dup2\n        /* \"#utility.yul\":2679:2703   */\n      tag_94\n      jump\t// in\n    tag_155:\n        /* \"#utility.yul\":2674:2677   */\n      dup3\n        /* \"#utility.yul\":2667:2704   */\n      mstore\n        /* \"#utility.yul\":2592:2710   */\n      pop\n      pop\n      jump\t// out\n        /* \"#utility.yul\":2716:2938   */\n    tag_19:\n        /* \"#utility.yul\":2809:2813   */\n      0x00\n        /* \"#utility.yul\":2847:2849   */\n      0x20\n        /* \"#utility.yul\":2836:2845   */\n      dup3\n        /* \"#utility.yul\":2832:2850   */\n      add\n        /* \"#utility.yul\":2824:2850   */\n      swap1\n      pop\n        /* \"#utility.yul\":2860:2931   */\n      tag_157\n        /* \"#utility.yul\":2928:2929   */\n      0x00\n        /* \"#utility.yul\":2917:2926   */\n      dup4\n        /* \"#utility.yul\":2913:2930   */\n      add\n        /* \"#utility.yul\":2904:2910   */\n      dup5\n        /* \"#utility.yul\":2860:2931   */\n      tag_95\n      jump\t// in\n    tag_157:\n        /* \"#utility.yul\":2716:2938   */\n      swap3\n      swap2\n      pop\n      pop\n      jump\t// out\n        /* \"#utility.yul\":2944:3087   */\n    tag_96:\n        /* \"#utility.yul\":3001:3006   */\n      0x00\n        /* \"#utility.yul\":3032:3038   */\n      dup2\n        /* \"#utility.yul\":3026:3039   */\n      mload\n        /* \"#utility.yul\":3017:3039   */\n      swap1\n      pop\n        /* \"#utility.yul\":3048:3081   */\n      tag_159\n        /* \"#utility.yul\":3075:3080   */\n      dup2\n        /* \"#utility.yul\":3048:3081   */\n      tag_92\n      jump\t// in\n    tag_159:\n        /* \"#utility.yul\":2944:3087   */\n      swap3\n      swap2\n      pop\n      pop\n      jump\t// out\n        /* \"#utility.yul\":3093:3444   */\n    tag_27:\n        /* \"#utility.yul\":3163:3169   */\n      0x00\n        /* \"#utility.yul\":3212:3214   */\n      0x20\n        /* \"#utility.yul\":3200:3209   */\n      dup3\n        /* \"#utility.yul\":3191:3198   */\n      dup5\n        /* \"#utility.yul\":3187:3210   */\n      sub\n        /* \"#utility.yul\":3183:3215   */\n      slt\n        /* \"#utility.yul\":3180:3299   */\n      iszero\n      tag_161\n      jumpi\n        /* \"#utility.yul\":3218:3297   */\n      tag_162\n      tag_84\n      jump\t// in\n    tag_162:\n        /* \"#utility.yul\":3180:3299   */\n    tag_161:\n        /* \"#utility.yul\":3338:3339   */\n      0x00\n        /* \"#utility.yul\":3363:3427   */\n      tag_163\n        /* \"#utility.yul\":3419:3426   */\n      dup5\n        /* \"#utility.yul\":3410:3416   */\n      dup3\n        /* \"#utility.yul\":3399:3408   */\n      dup6\n        /* \"#utility.yul\":3395:3417   */\n      add\n        /* \"#utility.yul\":3363:3427   */\n      tag_96\n      jump\t// in\n    tag_163:\n        /* \"#utility.yul\":3353:3427   */\n      swap2\n      pop\n        /* \"#utility.yul\":3309:3437   */\n      pop\n        /* \"#utility.yul\":3093:3444   */\n      swap3\n      swap2\n      pop\n      pop\n      jump\t// out\n        /* \"#utility.yul\":3450:3568   */\n    tag_97:\n        /* \"#utility.yul\":3537:3561   */\n      tag_165\n        /* \"#utility.yul\":3555:3560   */\n      dup2\n        /* \"#utility.yul\":3537:3561   */\n      tag_91\n      jump\t// in\n    tag_165:\n        /* \"#utility.yul\":3532:3535   */\n      dup3\n        /* \"#utility.yul\":3525:3562   */\n      mstore\n        /* \"#utility.yul\":3450:3568   */\n      pop\n      pop\n      jump\t// out\n        /* \"#utility.yul\":3574:3906   */\n    tag_30:\n        /* \"#utility.yul\":3695:3699   */\n      0x00\n        /* \"#utility.yul\":3733:3735   */\n      0x40\n        /* \"#utility.yul\":3722:3731   */\n      dup3\n        /* \"#utility.yul\":3718:3736   */\n      add\n        /* \"#utility.yul\":3710:3736   */\n      swap1\n      pop\n        /* \"#utility.yul\":3746:3817   */\n      tag_167\n        /* \"#utility.yul\":3814:3815   */\n      0x00\n        /* \"#utility.yul\":3803:3812   */\n      dup4\n        /* \"#utility.yul\":3799:3816   */\n      add\n        /* \"#utility.yul\":3790:3796   */\n      dup6\n        /* \"#utility.yul\":3746:3817   */\n      tag_90\n      jump\t// in\n    tag_167:\n        /* \"#utility.yul\":3827:3899   */\n      tag_168\n        /* \"#utility.yul\":3895:3897   */\n      0x20\n        /* \"#utility.yul\":3884:3893   */\n      dup4\n        /* \"#utility.yul\":3880:3898   */\n      add\n        /* \"#utility.yul\":3871:3877   */\n      dup5\n        /* \"#utility.yul\":3827:3899   */\n      tag_97\n      jump\t// in\n    tag_168:\n        /* \"#utility.yul\":3574:3906   */\n      swap4\n      swap3\n      pop\n      pop\n      pop\n      jump\t// out\n        /* \"#utility.yul\":3912:4002   */\n    tag_98:\n        /* \"#utility.yul\":3946:3953   */\n      0x00\n        /* \"#utility.yul\":3989:3994   */\n      dup2\n        /* \"#utility.yul\":3982:3995   */\n      iszero\n        /* \"#utility.yul\":3975:3996   */\n      iszero\n        /* \"#utility.yul\":3964:3996   */\n      swap1\n      pop\n        /* \"#utility.yul\":3912:4002   */\n      swap2\n      swap1\n      pop\n      jump\t// out\n        /* \"#utility.yul\":4008:4124   */\n    tag_99:\n        /* \"#utility.yul\":4078:4099   */\n      tag_171\n        /* \"#utility.yul\":4093:4098   */\n      dup2\n        /* \"#utility.yul\":4078:4099   */\n      tag_98\n      jump\t// in\n    tag_171:\n        /* \"#utility.yul\":4071:4076   */\n      dup2\n        /* \"#utility.yul\":4068:4100   */\n      eq\n        /* \"#utility.yul\":4058:4118   */\n      tag_172\n      jumpi\n        /* \"#utility.yul\":4114:4115   */\n      0x00\n        /* \"#utility.yul\":4111:4112   */\n      dup1\n        /* \"#utility.yul\":4104:4116   */\n      revert\n        /* \"#utility.yul\":4058:4118   */\n    tag_172:\n        /* \"#utility.yul\":4008:4124   */\n      pop\n      jump\t// out\n        /* \"#utility.yul\":4130:4267   */\n    tag_100:\n        /* \"#utility.yul\":4184:4189   */\n      0x00\n        /* \"#utility.yul\":4215:4221   */\n      dup2\n        /* \"#utility.yul\":4209:4222   */\n      mload\n        /* \"#utility.yul\":4200:4222   */\n      swap1\n      pop\n        /* \"#utility.yul\":4231:4261   */\n      tag_174\n        /* \"#utility.yul\":4255:4260   */\n      dup2\n        /* \"#utility.yul\":4231:4261   */\n      tag_99\n      jump\t// in\n    tag_174:\n        /* \"#utility.yul\":4130:4267   */\n      swap3\n      swap2\n      pop\n      pop\n      jump\t// out\n        /* \"#utility.yul\":4273:4618   */\n    tag_34:\n        /* \"#utility.yul\":4340:4346   */\n      0x00\n        /* \"#utility.yul\":4389:4391   */\n      0x20\n        /* \"#utility.yul\":4377:4386   */\n      dup3\n        /* \"#utility.yul\":4368:4375   */\n      dup5\n        /* \"#utility.yul\":4364:4387   */\n      sub\n        /* \"#utility.yul\":4360:4392   */\n      slt\n        /* \"#utility.yul\":4357:4476   */\n      iszero\n      tag_176\n      jumpi\n        /* \"#utility.yul\":4395:4474   */\n      tag_177\n      tag_84\n      jump\t// in\n    tag_177:\n        /* \"#utility.yul\":4357:4476   */\n    tag_176:\n        /* \"#utility.yul\":4515:4516   */\n      0x00\n        /* \"#utility.yul\":4540:4601   */\n      tag_178\n        /* \"#utility.yul\":4593:4600   */\n      dup5\n        /* \"#utility.yul\":4584:4590   */\n      dup3\n        /* \"#utility.yul\":4573:4582   */\n      dup6\n        /* \"#utility.yul\":4569:4591   */\n      add\n        /* \"#utility.yul\":4540:4601   */\n      tag_100\n      jump\t// in\n    tag_178:\n        /* \"#utility.yul\":4530:4601   */\n      swap2\n      pop\n        /* \"#utility.yul\":4486:4611   */\n      pop\n        /* \"#utility.yul\":4273:4618   */\n      swap3\n      swap2\n      pop\n      pop\n      jump\t// out\n        /* \"#utility.yul\":4624:4804   */\n    tag_38:\n        /* \"#utility.yul\":4672:4749   */\n      0x4e487b7100000000000000000000000000000000000000000000000000000000\n        /* \"#utility.yul\":4669:4670   */\n      0x00\n        /* \"#utility.yul\":4662:4750   */\n      mstore\n        /* \"#utility.yul\":4769:4773   */\n      0x41\n        /* \"#utility.yul\":4766:4767   */\n      0x04\n        /* \"#utility.yul\":4759:4774   */\n      mstore\n        /* \"#utility.yul\":4793:4797   */\n      0x24\n        /* \"#utility.yul\":4790:4791   */\n      0x00\n        /* \"#utility.yul\":4783:4798   */\n      revert\n        /* \"#utility.yul\":4810:4990   */\n    tag_45:\n        /* \"#utility.yul\":4858:4935   */\n      0x4e487b7100000000000000000000000000000000000000000000000000000000\n        /* \"#utility.yul\":4855:4856   */\n      0x00\n        /* \"#utility.yul\":4848:4936   */\n      mstore\n        /* \"#utility.yul\":4955:4959   */\n      0x32\n        /* \"#utility.yul\":4952:4953   */\n      0x04\n        /* \"#utility.yul\":4945:4960   */\n      mstore\n        /* \"#utility.yul\":4979:4983   */\n      0x24\n        /* \"#utility.yul\":4976:4977   */\n      0x00\n        /* \"#utility.yul\":4969:4984   */\n      revert\n        /* \"#utility.yul\":4996:5097   */\n    tag_101:\n        /* \"#utility.yul\":5032:5039   */\n      0x00\n        /* \"#utility.yul\":5072:5090   */\n      0xffffffffffffffff\n        /* \"#utility.yul\":5065:5070   */\n      dup3\n        /* \"#utility.yul\":5061:5091   */\n      and\n        /* \"#utility.yul\":5050:5091   */\n      swap1\n      pop\n        /* \"#utility.yul\":4996:5097   */\n      swap2\n      swap1\n      pop\n      jump\t// out\n        /* \"#utility.yul\":5103:5218   */\n    tag_102:\n        /* \"#utility.yul\":5188:5211   */\n      tag_183\n        /* \"#utility.yul\":5205:5210   */\n      dup2\n        /* \"#utility.yul\":5188:5211   */\n      tag_101\n      jump\t// in\n    tag_183:\n        /* \"#utility.yul\":5183:5186   */\n      dup3\n        /* \"#utility.yul\":5176:5212   */\n      mstore\n        /* \"#utility.yul\":5103:5218   */\n      pop\n      pop\n      jump\t// out\n        /* \"#utility.yul\":5224:5322   */\n    tag_103:\n        /* \"#utility.yul\":5275:5281   */\n      0x00\n        /* \"#utility.yul\":5309:5314   */\n      dup2\n        /* \"#utility.yul\":5303:5315   */\n      mload\n        /* \"#utility.yul\":5293:5315   */\n      swap1\n      pop\n        /* \"#utility.yul\":5224:5322   */\n      swap2\n      swap1\n      pop\n      jump\t// out\n        /* \"#utility.yul\":5328:5486   */\n    tag_104:\n        /* \"#utility.yul\":5401:5412   */\n      0x00\n        /* \"#utility.yul\":5435:5441   */\n      dup3\n        /* \"#utility.yul\":5430:5433   */\n      dup3\n        /* \"#utility.yul\":5423:5442   */\n      mstore\n        /* \"#utility.yul\":5475:5479   */\n      0x20\n        /* \"#utility.yul\":5470:5473   */\n      dup3\n        /* \"#utility.yul\":5466:5480   */\n      add\n        /* \"#utility.yul\":5451:5480   */\n      swap1\n      pop\n        /* \"#utility.yul\":5328:5486   */\n      swap3\n      swap2\n      pop\n      pop\n      jump\t// out\n        /* \"#utility.yul\":5492:5738   */\n    tag_105:\n        /* \"#utility.yul\":5573:5574   */\n      0x00\n        /* \"#utility.yul\":5583:5696   */\n    tag_187:\n        /* \"#utility.yul\":5597:5603   */\n      dup4\n        /* \"#utility.yul\":5594:5595   */\n      dup2\n        /* \"#utility.yul\":5591:5604   */\n      lt\n        /* \"#utility.yul\":5583:5696   */\n      iszero\n      tag_189\n      jumpi\n        /* \"#utility.yul\":5682:5683   */\n      dup1\n        /* \"#utility.yul\":5677:5680   */\n      dup3\n        /* \"#utility.yul\":5673:5684   */\n      add\n        /* \"#utility.yul\":5667:5685   */\n      mload\n        /* \"#utility.yul\":5663:5664   */\n      dup2\n        /* \"#utility.yul\":5658:5661   */\n      dup5\n        /* \"#utility.yul\":5654:5665   */\n      add\n        /* \"#utility.yul\":5647:5686   */\n      mstore\n        /* \"#utility.yul\":5619:5621   */\n      0x20\n        /* \"#utility.yul\":5616:5617   */\n      dup2\n        /* \"#utility.yul\":5612:5622   */\n      add\n        /* \"#utility.yul\":5607:5622   */\n      swap1\n      pop\n        /* \"#utility.yul\":5583:5696   */\n      jump(tag_187)\n    tag_189:\n        /* \"#utility.yul\":5730:5731   */\n      0x00\n        /* \"#utility.yul\":5721:5727   */\n      dup5\n        /* \"#utility.yul\":5716:5719   */\n      dup5\n        /* \"#utility.yul\":5712:5728   */\n      add\n        /* \"#utility.yul\":5705:5732   */\n      mstore\n        /* \"#utility.yul\":5554:5738   */\n      pop\n        /* \"#utility.yul\":5492:5738   */\n      pop\n      pop\n      pop\n      jump\t// out\n        /* \"#utility.yul\":5744:5846   */\n    tag_106:\n        /* \"#utility.yul\":5785:5791   */\n      0x00\n        /* \"#utility.yul\":5836:5838   */\n      0x1f\n        /* \"#utility.yul\":5832:5839   */\n      not\n        /* \"#utility.yul\":5827:5829   */\n      0x1f\n        /* \"#utility.yul\":5820:5825   */\n      dup4\n        /* \"#utility.yul\":5816:5830   */\n      add\n        /* \"#utility.yul\":5812:5840   */\n      and\n        /* \"#utility.yul\":5802:5840   */\n      swap1\n      pop\n        /* \"#utility.yul\":5744:5846   */\n      swap2\n      swap1\n      pop\n      jump\t// out\n        /* \"#utility.yul\":5852:6205   */\n    tag_107:\n        /* \"#utility.yul\":5928:5931   */\n      0x00\n        /* \"#utility.yul\":5956:5994   */\n      tag_192\n        /* \"#utility.yul\":5988:5993   */\n      dup3\n        /* \"#utility.yul\":5956:5994   */\n      tag_103\n      jump\t// in\n    tag_192:\n        /* \"#utility.yul\":6010:6070   */\n      tag_193\n        /* \"#utility.yul\":6063:6069   */\n      dup2\n        /* \"#utility.yul\":6058:6061   */\n      dup6\n        /* \"#utility.yul\":6010:6070   */\n      tag_104\n      jump\t// in\n    tag_193:\n        /* \"#utility.yul\":6003:6070   */\n      swap4\n      pop\n        /* \"#utility.yul\":6079:6144   */\n      tag_194\n        /* \"#utility.yul\":6137:6143   */\n      dup2\n        /* \"#utility.yul\":6132:6135   */\n      dup6\n        /* \"#utility.yul\":6125:6129   */\n      0x20\n        /* \"#utility.yul\":6118:6123   */\n      dup7\n        /* \"#utility.yul\":6114:6130   */\n      add\n        /* \"#utility.yul\":6079:6144   */\n      tag_105\n      jump\t// in\n    tag_194:\n        /* \"#utility.yul\":6169:6198   */\n      tag_195\n        /* \"#utility.yul\":6191:6197   */\n      dup2\n        /* \"#utility.yul\":6169:6198   */\n      tag_106\n      jump\t// in\n    tag_195:\n        /* \"#utility.yul\":6164:6167   */\n      dup5\n        /* \"#utility.yul\":6160:6199   */\n      add\n        /* \"#utility.yul\":6153:6199   */\n      swap2\n      pop\n        /* \"#utility.yul\":5932:6205   */\n      pop\n        /* \"#utility.yul\":5852:6205   */\n      swap3\n      swap2\n      pop\n      pop\n      jump\t// out\n        /* \"#utility.yul\":6211:6355   */\n    tag_108:\n        /* \"#utility.yul\":6308:6314   */\n      0x00\n        /* \"#utility.yul\":6342:6347   */\n      dup2\n        /* \"#utility.yul\":6336:6348   */\n      mload\n        /* \"#utility.yul\":6326:6348   */\n      swap1\n      pop\n        /* \"#utility.yul\":6211:6355   */\n      swap2\n      swap1\n      pop\n      jump\t// out\n        /* \"#utility.yul\":6361:6565   */\n    tag_109:\n        /* \"#utility.yul\":6480:6491   */\n      0x00\n        /* \"#utility.yul\":6514:6520   */\n      dup3\n        /* \"#utility.yul\":6509:6512   */\n      dup3\n        /* \"#utility.yul\":6502:6521   */\n      mstore\n        /* \"#utility.yul\":6554:6558   */\n      0x20\n        /* \"#utility.yul\":6549:6552   */\n      dup3\n        /* \"#utility.yul\":6545:6559   */\n      add\n        /* \"#utility.yul\":6530:6559   */\n      swap1\n      pop\n        /* \"#utility.yul\":6361:6565   */\n      swap3\n      swap2\n      pop\n      pop\n      jump\t// out\n        /* \"#utility.yul\":6571:6733   */\n    tag_110:\n        /* \"#utility.yul\":6668:6672   */\n      0x00\n        /* \"#utility.yul\":6691:6694   */\n      dup2\n        /* \"#utility.yul\":6683:6694   */\n      swap1\n      pop\n        /* \"#utility.yul\":6721:6725   */\n      0x20\n        /* \"#utility.yul\":6716:6719   */\n      dup3\n        /* \"#utility.yul\":6712:6726   */\n      add\n        /* \"#utility.yul\":6704:6726   */\n      swap1\n      pop\n        /* \"#utility.yul\":6571:6733   */\n      swap2\n      swap1\n      pop\n      jump\t// out\n        /* \"#utility.yul\":6739:6847   */\n    tag_111:\n        /* \"#utility.yul\":6816:6840   */\n      tag_200\n        /* \"#utility.yul\":6834:6839   */\n      dup2\n        /* \"#utility.yul\":6816:6840   */\n      tag_87\n      jump\t// in\n    tag_200:\n        /* \"#utility.yul\":6811:6814   */\n      dup3\n        /* \"#utility.yul\":6804:6841   */\n      mstore\n        /* \"#utility.yul\":6739:6847   */\n      pop\n      pop\n      jump\t// out\n        /* \"#utility.yul\":6853:6961   */\n    tag_112:\n        /* \"#utility.yul\":6930:6954   */\n      tag_202\n        /* \"#utility.yul\":6948:6953   */\n      dup2\n        /* \"#utility.yul\":6930:6954   */\n      tag_91\n      jump\t// in\n    tag_202:\n        /* \"#utility.yul\":6925:6928   */\n      dup3\n        /* \"#utility.yul\":6918:6955   */\n      mstore\n        /* \"#utility.yul\":6853:6961   */\n      pop\n      pop\n      jump\t// out\n        /* \"#utility.yul\":7035:7545   */\n    tag_113:\n        /* \"#utility.yul\":7182:7186   */\n      0x40\n        /* \"#utility.yul\":7177:7180   */\n      dup3\n        /* \"#utility.yul\":7173:7187   */\n      add\n        /* \"#utility.yul\":7270:7274   */\n      0x00\n        /* \"#utility.yul\":7263:7268   */\n      dup3\n        /* \"#utility.yul\":7259:7275   */\n      add\n        /* \"#utility.yul\":7253:7276   */\n      mload\n        /* \"#utility.yul\":7289:7352   */\n      tag_204\n        /* \"#utility.yul\":7346:7350   */\n      0x00\n        /* \"#utility.yul\":7341:7344   */\n      dup6\n        /* \"#utility.yul\":7337:7351   */\n      add\n        /* \"#utility.yul\":7323:7335   */\n      dup3\n        /* \"#utility.yul\":7289:7352   */\n      tag_111\n      jump\t// in\n    tag_204:\n        /* \"#utility.yul\":7197:7362   */\n      pop\n        /* \"#utility.yul\":7446:7450   */\n      0x20\n        /* \"#utility.yul\":7439:7444   */\n      dup3\n        /* \"#utility.yul\":7435:7451   */\n      add\n        /* \"#utility.yul\":7429:7452   */\n      mload\n        /* \"#utility.yul\":7465:7528   */\n      tag_205\n        /* \"#utility.yul\":7522:7526   */\n      0x20\n        /* \"#utility.yul\":7517:7520   */\n      dup6\n        /* \"#utility.yul\":7513:7527   */\n      add\n        /* \"#utility.yul\":7499:7511   */\n      dup3\n        /* \"#utility.yul\":7465:7528   */\n      tag_112\n      jump\t// in\n    tag_205:\n        /* \"#utility.yul\":7372:7538   */\n      pop\n        /* \"#utility.yul\":7151:7545   */\n      pop\n        /* \"#utility.yul\":7035:7545   */\n      pop\n      pop\n      jump\t// out\n        /* \"#utility.yul\":7551:7850   */\n    tag_114:\n        /* \"#utility.yul\":7680:7690   */\n      0x00\n        /* \"#utility.yul\":7701:7807   */\n      tag_207\n        /* \"#utility.yul\":7803:7806   */\n      dup4\n        /* \"#utility.yul\":7795:7801   */\n      dup4\n        /* \"#utility.yul\":7701:7807   */\n      tag_113\n      jump\t// in\n    tag_207:\n        /* \"#utility.yul\":7839:7843   */\n      0x40\n        /* \"#utility.yul\":7834:7837   */\n      dup4\n        /* \"#utility.yul\":7830:7844   */\n      add\n        /* \"#utility.yul\":7816:7844   */\n      swap1\n      pop\n        /* \"#utility.yul\":7551:7850   */\n      swap3\n      swap2\n      pop\n      pop\n      jump\t// out\n        /* \"#utility.yul\":7856:7999   */\n    tag_115:\n        /* \"#utility.yul\":7956:7960   */\n      0x00\n        /* \"#utility.yul\":7988:7992   */\n      0x20\n        /* \"#utility.yul\":7983:7986   */\n      dup3\n        /* \"#utility.yul\":7979:7993   */\n      add\n        /* \"#utility.yul\":7971:7993   */\n      swap1\n      pop\n        /* \"#utility.yul\":7856:7999   */\n      swap2\n      swap1\n      pop\n      jump\t// out\n        /* \"#utility.yul\":8077:9029   */\n    tag_116:\n        /* \"#utility.yul\":8246:8249   */\n      0x00\n        /* \"#utility.yul\":8275:8359   */\n      tag_210\n        /* \"#utility.yul\":8353:8358   */\n      dup3\n        /* \"#utility.yul\":8275:8359   */\n      tag_108\n      jump\t// in\n    tag_210:\n        /* \"#utility.yul\":8375:8481   */\n      tag_211\n        /* \"#utility.yul\":8474:8480   */\n      dup2\n        /* \"#utility.yul\":8469:8472   */\n      dup6\n        /* \"#utility.yul\":8375:8481   */\n      tag_109\n      jump\t// in\n    tag_211:\n        /* \"#utility.yul\":8368:8481   */\n      swap4\n      pop\n        /* \"#utility.yul\":8505:8591   */\n      tag_212\n        /* \"#utility.yul\":8585:8590   */\n      dup4\n        /* \"#utility.yul\":8505:8591   */\n      tag_110\n      jump\t// in\n    tag_212:\n        /* \"#utility.yul\":8614:8621   */\n      dup1\n        /* \"#utility.yul\":8645:8646   */\n      0x00\n        /* \"#utility.yul\":8630:9004   */\n    tag_213:\n        /* \"#utility.yul\":8655:8661   */\n      dup4\n        /* \"#utility.yul\":8652:8653   */\n      dup2\n        /* \"#utility.yul\":8649:8662   */\n      lt\n        /* \"#utility.yul\":8630:9004   */\n      iszero\n      tag_215\n      jumpi\n        /* \"#utility.yul\":8731:8737   */\n      dup2\n        /* \"#utility.yul\":8725:8738   */\n      mload\n        /* \"#utility.yul\":8758:8881   */\n      tag_216\n        /* \"#utility.yul\":8877:8880   */\n      dup9\n        /* \"#utility.yul\":8862:8875   */\n      dup3\n        /* \"#utility.yul\":8758:8881   */\n      tag_114\n      jump\t// in\n    tag_216:\n        /* \"#utility.yul\":8751:8881   */\n      swap8\n      pop\n        /* \"#utility.yul\":8904:8994   */\n      tag_217\n        /* \"#utility.yul\":8987:8993   */\n      dup4\n        /* \"#utility.yul\":8904:8994   */\n      tag_115\n      jump\t// in\n    tag_217:\n        /* \"#utility.yul\":8894:8994   */\n      swap3\n      pop\n        /* \"#utility.yul\":8690:9004   */\n      pop\n        /* \"#utility.yul\":8677:8678   */\n      0x01\n        /* \"#utility.yul\":8674:8675   */\n      dup2\n        /* \"#utility.yul\":8670:8679   */\n      add\n        /* \"#utility.yul\":8665:8679   */\n      swap1\n      pop\n        /* \"#utility.yul\":8630:9004   */\n      jump(tag_213)\n    tag_215:\n        /* \"#utility.yul\":8634:8648   */\n      pop\n        /* \"#utility.yul\":9020:9023   */\n      dup6\n        /* \"#utility.yul\":9013:9023   */\n      swap4\n      pop\n        /* \"#utility.yul\":8251:9029   */\n      pop\n      pop\n      pop\n        /* \"#utility.yul\":8077:9029   */\n      swap3\n      swap2\n      pop\n      pop\n      jump\t// out\n        /* \"#utility.yul\":9103:10559   */\n    tag_117:\n        /* \"#utility.yul\":9232:9235   */\n      0x00\n        /* \"#utility.yul\":9268:9272   */\n      0xa0\n        /* \"#utility.yul\":9263:9266   */\n      dup4\n        /* \"#utility.yul\":9259:9273   */\n      add\n        /* \"#utility.yul\":9359:9363   */\n      0x00\n        /* \"#utility.yul\":9352:9357   */\n      dup4\n        /* \"#utility.yul\":9348:9364   */\n      add\n        /* \"#utility.yul\":9342:9365   */\n      mload\n        /* \"#utility.yul\":9412:9415   */\n      dup5\n        /* \"#utility.yul\":9406:9410   */\n      dup3\n        /* \"#utility.yul\":9402:9416   */\n      sub\n        /* \"#utility.yul\":9395:9399   */\n      0x00\n        /* \"#utility.yul\":9390:9393   */\n      dup7\n        /* \"#utility.yul\":9386:9400   */\n      add\n        /* \"#utility.yul\":9379:9417   */\n      mstore\n        /* \"#utility.yul\":9438:9509   */\n      tag_219\n        /* \"#utility.yul\":9504:9508   */\n      dup3\n        /* \"#utility.yul\":9490:9502   */\n      dup3\n        /* \"#utility.yul\":9438:9509   */\n      tag_107\n      jump\t// in\n    tag_219:\n        /* \"#utility.yul\":9430:9509   */\n      swap2\n      pop\n        /* \"#utility.yul\":9283:9520   */\n      pop\n        /* \"#utility.yul\":9602:9606   */\n      0x20\n        /* \"#utility.yul\":9595:9600   */\n      dup4\n        /* \"#utility.yul\":9591:9607   */\n      add\n        /* \"#utility.yul\":9585:9608   */\n      mload\n        /* \"#utility.yul\":9655:9658   */\n      dup5\n        /* \"#utility.yul\":9649:9653   */\n      dup3\n        /* \"#utility.yul\":9645:9659   */\n      sub\n        /* \"#utility.yul\":9638:9642   */\n      0x20\n        /* \"#utility.yul\":9633:9636   */\n      dup7\n        /* \"#utility.yul\":9629:9643   */\n      add\n        /* \"#utility.yul\":9622:9660   */\n      mstore\n        /* \"#utility.yul\":9681:9752   */\n      tag_220\n        /* \"#utility.yul\":9747:9751   */\n      dup3\n        /* \"#utility.yul\":9733:9745   */\n      dup3\n        /* \"#utility.yul\":9681:9752   */\n      tag_107\n      jump\t// in\n    tag_220:\n        /* \"#utility.yul\":9673:9752   */\n      swap2\n      pop\n        /* \"#utility.yul\":9530:9763   */\n      pop\n        /* \"#utility.yul\":9853:9857   */\n      0x40\n        /* \"#utility.yul\":9846:9851   */\n      dup4\n        /* \"#utility.yul\":9842:9858   */\n      add\n        /* \"#utility.yul\":9836:9859   */\n      mload\n        /* \"#utility.yul\":9906:9909   */\n      dup5\n        /* \"#utility.yul\":9900:9904   */\n      dup3\n        /* \"#utility.yul\":9896:9910   */\n      sub\n        /* \"#utility.yul\":9889:9893   */\n      0x40\n        /* \"#utility.yul\":9884:9887   */\n      dup7\n        /* \"#utility.yul\":9880:9894   */\n      add\n        /* \"#utility.yul\":9873:9911   */\n      mstore\n        /* \"#utility.yul\":9932:10095   */\n      tag_221\n        /* \"#utility.yul\":10090:10094   */\n      dup3\n        /* \"#utility.yul\":10076:10088   */\n      dup3\n        /* \"#utility.yul\":9932:10095   */\n      tag_116\n      jump\t// in\n    tag_221:\n        /* \"#utility.yul\":9924:10095   */\n      swap2\n      pop\n        /* \"#utility.yul\":9773:10106   */\n      pop\n        /* \"#utility.yul\":10192:10196   */\n      0x60\n        /* \"#utility.yul\":10185:10190   */\n      dup4\n        /* \"#utility.yul\":10181:10197   */\n      add\n        /* \"#utility.yul\":10175:10198   */\n      mload\n        /* \"#utility.yul\":10211:10274   */\n      tag_222\n        /* \"#utility.yul\":10268:10272   */\n      0x60\n        /* \"#utility.yul\":10263:10266   */\n      dup7\n        /* \"#utility.yul\":10259:10273   */\n      add\n        /* \"#utility.yul\":10245:10257   */\n      dup3\n        /* \"#utility.yul\":10211:10274   */\n      tag_111\n      jump\t// in\n    tag_222:\n        /* \"#utility.yul\":10116:10284   */\n      pop\n        /* \"#utility.yul\":10371:10375   */\n      0x80\n        /* \"#utility.yul\":10364:10369   */\n      dup4\n        /* \"#utility.yul\":10360:10376   */\n      add\n        /* \"#utility.yul\":10354:10377   */\n      mload\n        /* \"#utility.yul\":10424:10427   */\n      dup5\n        /* \"#utility.yul\":10418:10422   */\n      dup3\n        /* \"#utility.yul\":10414:10428   */\n      sub\n        /* \"#utility.yul\":10407:10411   */\n      0x80\n        /* \"#utility.yul\":10402:10405   */\n      dup7\n        /* \"#utility.yul\":10398:10412   */\n      add\n        /* \"#utility.yul\":10391:10429   */\n      mstore\n        /* \"#utility.yul\":10450:10521   */\n      tag_223\n        /* \"#utility.yul\":10516:10520   */\n      dup3\n        /* \"#utility.yul\":10502:10514   */\n      dup3\n        /* \"#utility.yul\":10450:10521   */\n      tag_107\n      jump\t// in\n    tag_223:\n        /* \"#utility.yul\":10442:10521   */\n      swap2\n      pop\n        /* \"#utility.yul\":10294:10532   */\n      pop\n        /* \"#utility.yul\":10549:10553   */\n      dup1\n        /* \"#utility.yul\":10542:10553   */\n      swap2\n      pop\n        /* \"#utility.yul\":9237:10559   */\n      pop\n        /* \"#utility.yul\":9103:10559   */\n      swap3\n      swap2\n      pop\n      pop\n      jump\t// out\n        /* \"#utility.yul\":10565:11064   */\n    tag_50:\n        /* \"#utility.yul\":10744:10748   */\n      0x00\n        /* \"#utility.yul\":10782:10784   */\n      0x40\n        /* \"#utility.yul\":10771:10780   */\n      dup3\n        /* \"#utility.yul\":10767:10785   */\n      add\n        /* \"#utility.yul\":10759:10785   */\n      swap1\n      pop\n        /* \"#utility.yul\":10795:10864   */\n      tag_225\n        /* \"#utility.yul\":10861:10862   */\n      0x00\n        /* \"#utility.yul\":10850:10859   */\n      dup4\n        /* \"#utility.yul\":10846:10863   */\n      add\n        /* \"#utility.yul\":10837:10843   */\n      dup6\n        /* \"#utility.yul\":10795:10864   */\n      tag_102\n      jump\t// in\n    tag_225:\n        /* \"#utility.yul\":10911:10920   */\n      dup2\n        /* \"#utility.yul\":10905:10909   */\n      dup2\n        /* \"#utility.yul\":10901:10921   */\n      sub\n        /* \"#utility.yul\":10896:10898   */\n      0x20\n        /* \"#utility.yul\":10885:10894   */\n      dup4\n        /* \"#utility.yul\":10881:10899   */\n      add\n        /* \"#utility.yul\":10874:10922   */\n      mstore\n        /* \"#utility.yul\":10939:11057   */\n      tag_226\n        /* \"#utility.yul\":11052:11056   */\n      dup2\n        /* \"#utility.yul\":11043:11049   */\n      dup5\n        /* \"#utility.yul\":10939:11057   */\n      tag_117\n      jump\t// in\n    tag_226:\n        /* \"#utility.yul\":10931:11057   */\n      swap1\n      pop\n        /* \"#utility.yul\":10565:11064   */\n      swap4\n      swap3\n      pop\n      pop\n      pop\n      jump\t// out\n        /* \"#utility.yul\":11070:11402   */\n    tag_64:\n        /* \"#utility.yul\":11191:11195   */\n      0x00\n        /* \"#utility.yul\":11229:11231   */\n      0x40\n        /* \"#utility.yul\":11218:11227   */\n      dup3\n        /* \"#utility.yul\":11214:11232   */\n      add\n        /* \"#utility.yul\":11206:11232   */\n      swap1\n      pop\n        /* \"#utility.yul\":11242:11313   */\n      tag_228\n        /* \"#utility.yul\":11310:11311   */\n      0x00\n        /* \"#utility.yul\":11299:11308   */\n      dup4\n        /* \"#utility.yul\":11295:11312   */\n      add\n        /* \"#utility.yul\":11286:11292   */\n      dup6\n        /* \"#utility.yul\":11242:11313   */\n      tag_97\n      jump\t// in\n    tag_228:\n        /* \"#utility.yul\":11323:11395   */\n      tag_229\n        /* \"#utility.yul\":11391:11393   */\n      0x20\n        /* \"#utility.yul\":11380:11389   */\n      dup4\n        /* \"#utility.yul\":11376:11394   */\n      add\n        /* \"#utility.yul\":11367:11373   */\n      dup5\n        /* \"#utility.yul\":11323:11395   */\n      tag_97\n      jump\t// in\n    tag_229:\n        /* \"#utility.yul\":11070:11402   */\n      swap4\n      swap3\n      pop\n      pop\n      pop\n      jump\t// out\n        /* \"#utility.yul\":11408:11530   */\n    tag_118:\n        /* \"#utility.yul\":11481:11505   */\n      tag_231\n        /* \"#utility.yul\":11499:11504   */\n      dup2\n        /* \"#utility.yul\":11481:11505   */\n      tag_94\n      jump\t// in\n    tag_231:\n        /* \"#utility.yul\":11474:11479   */\n      dup2\n        /* \"#utility.yul\":11471:11506   */\n      eq\n        /* \"#utility.yul\":11461:11524   */\n      tag_232\n      jumpi\n        /* \"#utility.yul\":11520:11521   */\n      0x00\n        /* \"#utility.yul\":11517:11518   */\n      dup1\n        /* \"#utility.yul\":11510:11522   */\n      revert\n        /* \"#utility.yul\":11461:11524   */\n    tag_232:\n        /* \"#utility.yul\":11408:11530   */\n      pop\n      jump\t// out\n        /* \"#utility.yul\":11536:11679   */\n    tag_119:\n        /* \"#utility.yul\":11593:11598   */\n      0x00\n        /* \"#utility.yul\":11624:11630   */\n      dup2\n        /* \"#utility.yul\":11618:11631   */\n      mload\n        /* \"#utility.yul\":11609:11631   */\n      swap1\n      pop\n        /* \"#utility.yul\":11640:11673   */\n      tag_234\n        /* \"#utility.yul\":11667:11672   */\n      dup2\n        /* \"#utility.yul\":11640:11673   */\n      tag_118\n      jump\t// in\n    tag_234:\n        /* \"#utility.yul\":11536:11679   */\n      swap3\n      swap2\n      pop\n      pop\n      jump\t// out\n        /* \"#utility.yul\":11685:12036   */\n    tag_77:\n        /* \"#utility.yul\":11755:11761   */\n      0x00\n        /* \"#utility.yul\":11804:11806   */\n      0x20\n        /* \"#utility.yul\":11792:11801   */\n      dup3\n        /* \"#utility.yul\":11783:11790   */\n      dup5\n        /* \"#utility.yul\":11779:11802   */\n      sub\n        /* \"#utility.yul\":11775:11807   */\n      slt\n        /* \"#utility.yul\":11772:11891   */\n      iszero\n      tag_236\n      jumpi\n        /* \"#utility.yul\":11810:11889   */\n      tag_237\n      tag_84\n      jump\t// in\n    tag_237:\n        /* \"#utility.yul\":11772:11891   */\n    tag_236:\n        /* \"#utility.yul\":11930:11931   */\n      0x00\n        /* \"#utility.yul\":11955:12019   */\n      tag_238\n        /* \"#utility.yul\":12011:12018   */\n      dup5\n        /* \"#utility.yul\":12002:12008   */\n      dup3\n        /* \"#utility.yul\":11991:12000   */\n      dup6\n        /* \"#utility.yul\":11987:12009   */\n      add\n        /* \"#utility.yul\":11955:12019   */\n      tag_119\n      jump\t// in\n    tag_238:\n        /* \"#utility.yul\":11945:12019   */\n      swap2\n      pop\n        /* \"#utility.yul\":11901:12029   */\n      pop\n        /* \"#utility.yul\":11685:12036   */\n      swap3\n      swap2\n      pop\n      pop\n      jump\t// out\n        /* \"#utility.yul\":12042:12706   */\n    tag_79:\n        /* \"#utility.yul\":12247:12251   */\n      0x00\n        /* \"#utility.yul\":12285:12288   */\n      0xa0\n        /* \"#utility.yul\":12274:12283   */\n      dup3\n        /* \"#utility.yul\":12270:12289   */\n      add\n        /* \"#utility.yul\":12262:12289   */\n      swap1\n      pop\n        /* \"#utility.yul\":12299:12370   */\n      tag_240\n        /* \"#utility.yul\":12367:12368   */\n      0x00\n        /* \"#utility.yul\":12356:12365   */\n      dup4\n        /* \"#utility.yul\":12352:12369   */\n      add\n        /* \"#utility.yul\":12343:12349   */\n      dup9\n        /* \"#utility.yul\":12299:12370   */\n      tag_90\n      jump\t// in\n    tag_240:\n        /* \"#utility.yul\":12380:12452   */\n      tag_241\n        /* \"#utility.yul\":12448:12450   */\n      0x20\n        /* \"#utility.yul\":12437:12446   */\n      dup4\n        /* \"#utility.yul\":12433:12451   */\n      add\n        /* \"#utility.yul\":12424:12430   */\n      dup8\n        /* \"#utility.yul\":12380:12452   */\n      tag_90\n      jump\t// in\n    tag_241:\n        /* \"#utility.yul\":12462:12534   */\n      tag_242\n        /* \"#utility.yul\":12530:12532   */\n      0x40\n        /* \"#utility.yul\":12519:12528   */\n      dup4\n        /* \"#utility.yul\":12515:12533   */\n      add\n        /* \"#utility.yul\":12506:12512   */\n      dup7\n        /* \"#utility.yul\":12462:12534   */\n      tag_97\n      jump\t// in\n    tag_242:\n        /* \"#utility.yul\":12544:12616   */\n      tag_243\n        /* \"#utility.yul\":12612:12614   */\n      0x60\n        /* \"#utility.yul\":12601:12610   */\n      dup4\n        /* \"#utility.yul\":12597:12615   */\n      add\n        /* \"#utility.yul\":12588:12594   */\n      dup6\n        /* \"#utility.yul\":12544:12616   */\n      tag_90\n      jump\t// in\n    tag_243:\n        /* \"#utility.yul\":12626:12699   */\n      tag_244\n        /* \"#utility.yul\":12694:12697   */\n      0x80\n        /* \"#utility.yul\":12683:12692   */\n      dup4\n        /* \"#utility.yul\":12679:12698   */\n      add\n        /* \"#utility.yul\":12670:12676   */\n      dup5\n        /* \"#utility.yul\":12626:12699   */\n      tag_97\n      jump\t// in\n    tag_244:\n        /* \"#utility.yul\":12042:12706   */\n      swap7\n      swap6\n      pop\n      pop\n      pop\n      pop\n      pop\n      pop\n      jump\t// out\n        /* \"#utility.yul\":12780:13127   */\n    tag_120:\n        /* \"#utility.yul\":12937:12941   */\n      0x20\n        /* \"#utility.yul\":12932:12935   */\n      dup3\n        /* \"#utility.yul\":12928:12942   */\n      add\n        /* \"#utility.yul\":13028:13032   */\n      0x00\n        /* \"#utility.yul\":13021:13026   */\n      dup3\n        /* \"#utility.yul\":13017:13033   */\n      add\n        /* \"#utility.yul\":13011:13034   */\n      mload\n        /* \"#utility.yul\":13047:13110   */\n      tag_246\n        /* \"#utility.yul\":13104:13108   */\n      0x00\n        /* \"#utility.yul\":13099:13102   */\n      dup6\n        /* \"#utility.yul\":13095:13109   */\n      add\n        /* \"#utility.yul\":13081:13093   */\n      dup3\n        /* \"#utility.yul\":13047:13110   */\n      tag_112\n      jump\t// in\n    tag_246:\n        /* \"#utility.yul\":12952:13120   */\n      pop\n        /* \"#utility.yul\":12906:13127   */\n      pop\n        /* \"#utility.yul\":12780:13127   */\n      pop\n      pop\n      jump\t// out\n        /* \"#utility.yul\":13133:13475   */\n    tag_82:\n        /* \"#utility.yul\":13286:13290   */\n      0x00\n        /* \"#utility.yul\":13324:13326   */\n      0x20\n        /* \"#utility.yul\":13313:13322   */\n      dup3\n        /* \"#utility.yul\":13309:13327   */\n      add\n        /* \"#utility.yul\":13301:13327   */\n      swap1\n      pop\n        /* \"#utility.yul\":13337:13468   */\n      tag_248\n        /* \"#utility.yul\":13465:13466   */\n      0x00\n        /* \"#utility.yul\":13454:13463   */\n      dup4\n        /* \"#utility.yul\":13450:13467   */\n      add\n        /* \"#utility.yul\":13441:13447   */\n      dup5\n        /* \"#utility.yul\":13337:13468   */\n      tag_120\n      jump\t// in\n    tag_248:\n        /* \"#utility.yul\":13133:13475   */\n      swap3\n      swap2\n      pop\n      pop\n      jump\t// out\n\n    auxdata: 0xa2646970667358221220635c8d2d1d927032371d31f29b7b8b4a1dad846b113b0232dfea9404fa573db764736f6c63430008130033\n}\n",
				"bytecode": {
					"linkReferences": {},
					"object": "6080604052730b9d5d9136855f6fec3c0993fee6e9ce8a297846600360006101000a81548173ffffffffffffffffffffffffffffffffffffffff021916908373ffffffffffffffffffffffffffffffffffffffff16021790555073f694e193200268f9a4868e4aa017a0118c9a8177600460006101000a81548173ffffffffffffffffffffffffffffffffffffffff021916908373ffffffffffffffffffffffffffffffffffffffff16021790555073d21341536c5cf5eb1bcb58f6723ce26e8d8e90e4600560006101000a81548173ffffffffffffffffffffffffffffffffffffffff021916908373ffffffffffffffffffffffffffffffffffffffff16021790555067de41ba4fc9d91ad9600560146101000a81548167ffffffffffffffff021916908367ffffffffffffffff1602179055503480156200014157600080fd5b5033600260006101000a81548173ffffffffffffffffffffffffffffffffffffffff021916908373ffffffffffffffffffffffffffffffffffffffff160217905550600460009054906101000a900473ffffffffffffffffffffffffffffffffffffffff166000806101000a81548173ffffffffffffffffffffffffffffffffffffffff021916908373ffffffffffffffffffffffffffffffffffffffff160217905550600360009054906101000a900473ffffffffffffffffffffffffffffffffffffffff16600160006101000a81548173ffffffffffffffffffffffffffffffffffffffff021916908373ffffffffffffffffffffffffffffffffffffffff160217905550600160009054906101000a900473ffffffffffffffffffffffffffffffffffffffff1673ffffffffffffffffffffffffffffffffffffffff1663095ea7b3600460009054906101000a900473ffffffffffffffffffffffffffffffffffffffff167fffffffffffffffffffffffffffffffffffffffffffffffffffffffffffffffff6040518363ffffffff1660e01b8152600401620002e992919062000396565b6020604051808303816000875af115801562000309573d6000803e3d6000fd5b505050506040513d601f19601f820116820180604052508101906200032f919062000405565b5062000437565b600073ffffffffffffffffffffffffffffffffffffffff82169050919050565b6000620003638262000336565b9050919050565b620003758162000356565b82525050565b6000819050919050565b62000390816200037b565b82525050565b6000604082019050620003ad60008301856200036a565b620003bc602083018462000385565b9392505050565b600080fd5b60008115159050919050565b620003df81620003c8565b8114620003eb57600080fd5b50565b600081519050620003ff81620003d4565b92915050565b6000602082840312156200041e576200041d620003c3565b5b60006200042e84828501620003ee565b91505092915050565b61100980620004476000396000f3fe608060405234801561001057600080fd5b50600436106100415760003560e01c80633aeac4e1146100465780638da5cb5b146100625780639ea604e114610080575b600080fd5b610060600480360381019061005b9190610a0c565b6100b0565b005b61006a610246565b6040516100779190610a5b565b60405180910390f35b61009a60048036038101906100959190610aac565b61026c565b6040516100a79190610b05565b60405180910390f35b600260009054906101000a900473ffffffffffffffffffffffffffffffffffffffff1673ffffffffffffffffffffffffffffffffffffffff163373ffffffffffffffffffffffffffffffffffffffff161461010a57600080fd5b60008173ffffffffffffffffffffffffffffffffffffffff166370a08231306040518263ffffffff1660e01b81526004016101459190610a5b565b602060405180830381865afa158015610162573d6000803e3d6000fd5b505050506040513d601f19601f820116820180604052508101906101869190610b35565b9050600081036101c2576040517fd0d04f6000000000000000000000000000000000000000000000000000000000815260040160405180910390fd5b8173ffffffffffffffffffffffffffffffffffffffff1663a9059cbb84836040518363ffffffff1660e01b81526004016101fd929190610b71565b6020604051808303816000875af115801561021c573d6000803e3d6000fd5b505050506040513d601f19601f820116820180604052508101906102409190610bd2565b50505050565b600260009054906101000a900473ffffffffffffffffffffffffffffffffffffffff1681565b600080600167ffffffffffffffff81111561028a57610289610bff565b5b6040519080825280602002602001820160405280156102c357816020015b6102b0610979565b8152602001906001900390816102a85790505b50905060006040518060400160405280600560009054906101000a900473ffffffffffffffffffffffffffffffffffffffff1673ffffffffffffffffffffffffffffffffffffffff168152602001858152509050808260008151811061032c5761032b610c2e565b5b602002602001018190525060006040518060a00160405280876040516020016103559190610a5b565b6040516020818303038152906040528152602001604051806020016040528060008152508152602001848152602001600160009054906101000a900473ffffffffffffffffffffffffffffffffffffffff1673ffffffffffffffffffffffffffffffffffffffff1681526020016103da604051806020016040528060008152506108fa565b815250905060008060009054906101000a900473ffffffffffffffffffffffffffffffffffffffff1673ffffffffffffffffffffffffffffffffffffffff166320487ded600560149054906101000a900467ffffffffffffffff16846040518363ffffffff1660e01b8152600401610453929190610e97565b602060405180830381865afa158015610470573d6000803e3d6000fd5b505050506040513d601f19601f820116820180604052508101906104949190610b35565b9050600160009054906101000a900473ffffffffffffffffffffffffffffffffffffffff1673ffffffffffffffffffffffffffffffffffffffff166370a08231306040518263ffffffff1660e01b81526004016104f19190610a5b565b602060405180830381865afa15801561050e573d6000803e3d6000fd5b505050506040513d601f19601f820116820180604052508101906105329190610b35565b81111561061357600160009054906101000a900473ffffffffffffffffffffffffffffffffffffffff1673ffffffffffffffffffffffffffffffffffffffff166370a08231306040518263ffffffff1660e01b81526004016105949190610a5b565b602060405180830381865afa1580156105b1573d6000803e3d6000fd5b505050506040513d601f19601f820116820180604052508101906105d59190610b35565b816040517f8f0f420600000000000000000000000000000000000000000000000000000000815260040161060a929190610ec7565b60405180910390fd5b600160009054906101000a900473ffffffffffffffffffffffffffffffffffffffff1673ffffffffffffffffffffffffffffffffffffffff1663095ea7b360008054906101000a900473ffffffffffffffffffffffffffffffffffffffff16836040518363ffffffff1660e01b8152600401610690929190610b71565b6020604051808303816000875af11580156106af573d6000803e3d6000fd5b505050506040513d601f19601f820116820180604052508101906106d39190610bd2565b50600560009054906101000a900473ffffffffffffffffffffffffffffffffffffffff1673ffffffffffffffffffffffffffffffffffffffff1663095ea7b360008054906101000a900473ffffffffffffffffffffffffffffffffffffffff16886040518363ffffffff1660e01b8152600401610751929190610b71565b6020604051808303816000875af1158015610770573d6000803e3d6000fd5b505050506040513d601f19601f820116820180604052508101906107949190610bd2565b5060008054906101000a900473ffffffffffffffffffffffffffffffffffffffff1673ffffffffffffffffffffffffffffffffffffffff166396f4e9f9600560149054906101000a900467ffffffffffffffff16846040518363ffffffff1660e01b8152600401610806929190610e97565b6020604051808303816000875af1158015610825573d6000803e3d6000fd5b505050506040513d601f19601f820116820180604052508101906108499190610f1c565b9450600560149054906101000a900467ffffffffffffffff1667ffffffffffffffff16857fc15fb748c32ba4eb29c1c311e78533f93b4425eab49ea87c6fe4279ecadca04389600560009054906101000a900473ffffffffffffffffffffffffffffffffffffffff168a600360009054906101000a900473ffffffffffffffffffffffffffffffffffffffff16876040516108e8959493929190610f49565b60405180910390a35050505092915050565b60606397a657c960e01b826040516024016109159190610fb8565b604051602081830303815290604052907bffffffffffffffffffffffffffffffffffffffffffffffffffffffff19166020820180517bffffffffffffffffffffffffffffffffffffffffffffffffffffffff83818316178352505050509050919050565b6040518060400160405280600073ffffffffffffffffffffffffffffffffffffffff168152602001600081525090565b600080fd5b600073ffffffffffffffffffffffffffffffffffffffff82169050919050565b60006109d9826109ae565b9050919050565b6109e9816109ce565b81146109f457600080fd5b50565b600081359050610a06816109e0565b92915050565b60008060408385031215610a2357610a226109a9565b5b6000610a31858286016109f7565b9250506020610a42858286016109f7565b9150509250929050565b610a55816109ce565b82525050565b6000602082019050610a706000830184610a4c565b92915050565b6000819050919050565b610a8981610a76565b8114610a9457600080fd5b50565b600081359050610aa681610a80565b92915050565b60008060408385031215610ac357610ac26109a9565b5b6000610ad1858286016109f7565b9250506020610ae285828601610a97565b9150509250929050565b6000819050919050565b610aff81610aec565b82525050565b6000602082019050610b1a6000830184610af6565b92915050565b600081519050610b2f81610a80565b92915050565b600060208284031215610b4b57610b4a6109a9565b5b6000610b5984828501610b20565b91505092915050565b610b6b81610a76565b82525050565b6000604082019050610b866000830185610a4c565b610b936020830184610b62565b9392505050565b60008115159050919050565b610baf81610b9a565b8114610bba57600080fd5b50565b600081519050610bcc81610ba6565b92915050565b600060208284031215610be857610be76109a9565b5b6000610bf684828501610bbd565b91505092915050565b7f4e487b7100000000000000000000000000000000000000000000000000000000600052604160045260246000fd5b7f4e487b7100000000000000000000000000000000000000000000000000000000600052603260045260246000fd5b600067ffffffffffffffff82169050919050565b610c7a81610c5d565b82525050565b600081519050919050565b600082825260208201905092915050565b60005b83811015610cba578082015181840152602081019050610c9f565b60008484015250505050565b6000601f19601f8301169050919050565b6000610ce282610c80565b610cec8185610c8b565b9350610cfc818560208601610c9c565b610d0581610cc6565b840191505092915050565b600081519050919050565b600082825260208201905092915050565b6000819050602082019050919050565b610d45816109ce565b82525050565b610d5481610a76565b82525050565b604082016000820151610d706000850182610d3c565b506020820151610d836020850182610d4b565b50505050565b6000610d958383610d5a565b60408301905092915050565b6000602082019050919050565b6000610db982610d10565b610dc38185610d1b565b9350610dce83610d2c565b8060005b83811015610dff578151610de68882610d89565b9750610df183610da1565b925050600181019050610dd2565b5085935050505092915050565b600060a0830160008301518482036000860152610e298282610cd7565b91505060208301518482036020860152610e438282610cd7565b91505060408301518482036040860152610e5d8282610dae565b9150506060830151610e726060860182610d3c565b5060808301518482036080860152610e8a8282610cd7565b9150508091505092915050565b6000604082019050610eac6000830185610c71565b8181036020830152610ebe8184610e0c565b90509392505050565b6000604082019050610edc6000830185610b62565b610ee96020830184610b62565b9392505050565b610ef981610aec565b8114610f0457600080fd5b50565b600081519050610f1681610ef0565b92915050565b600060208284031215610f3257610f316109a9565b5b6000610f4084828501610f07565b91505092915050565b600060a082019050610f5e6000830188610a4c565b610f6b6020830187610a4c565b610f786040830186610b62565b610f856060830185610a4c565b610f926080830184610b62565b9695505050505050565b602082016000820151610fb26000850182610d4b565b50505050565b6000602082019050610fcd6000830184610f9c565b9291505056fea2646970667358221220635c8d2d1d927032371d31f29b7b8b4a1dad846b113b0232dfea9404fa573db764736f6c63430008130033",
					"opcodes": "PUSH1 0x80 PUSH1 0x40 MSTORE PUSH20 0xB9D5D9136855F6FEC3C0993FEE6E9CE8A297846 PUSH1 0x3 PUSH1 0x0 PUSH2 0x100 EXP DUP2 SLOAD DUP2 PUSH20 0xFFFFFFFFFFFFFFFFFFFFFFFFFFFFFFFFFFFFFFFF MUL NOT AND SWAP1 DUP4 PUSH20 0xFFFFFFFFFFFFFFFFFFFFFFFFFFFFFFFFFFFFFFFF AND MUL OR SWAP1 SSTORE POP PUSH20 0xF694E193200268F9A4868E4AA017A0118C9A8177 PUSH1 0x4 PUSH1 0x0 PUSH2 0x100 EXP DUP2 SLOAD DUP2 PUSH20 0xFFFFFFFFFFFFFFFFFFFFFFFFFFFFFFFFFFFFFFFF MUL NOT AND SWAP1 DUP4 PUSH20 0xFFFFFFFFFFFFFFFFFFFFFFFFFFFFFFFFFFFFFFFF AND MUL OR SWAP1 SSTORE POP PUSH20 0xD21341536C5CF5EB1BCB58F6723CE26E8D8E90E4 PUSH1 0x5 PUSH1 0x0 PUSH2 0x100 EXP DUP2 SLOAD DUP2 PUSH20 0xFFFFFFFFFFFFFFFFFFFFFFFFFFFFFFFFFFFFFFFF MUL NOT AND SWAP1 DUP4 PUSH20 0xFFFFFFFFFFFFFFFFFFFFFFFFFFFFFFFFFFFFFFFF AND MUL OR SWAP1 SSTORE POP PUSH8 0xDE41BA4FC9D91AD9 PUSH1 0x5 PUSH1 0x14 PUSH2 0x100 EXP DUP2 SLOAD DUP2 PUSH8 0xFFFFFFFFFFFFFFFF MUL NOT AND SWAP1 DUP4 PUSH8 0xFFFFFFFFFFFFFFFF AND MUL OR SWAP1 SSTORE POP CALLVALUE DUP1 ISZERO PUSH3 0x141 JUMPI PUSH1 0x0 DUP1 REVERT JUMPDEST POP CALLER PUSH1 0x2 PUSH1 0x0 PUSH2 0x100 EXP DUP2 SLOAD DUP2 PUSH20 0xFFFFFFFFFFFFFFFFFFFFFFFFFFFFFFFFFFFFFFFF MUL NOT AND SWAP1 DUP4 PUSH20 0xFFFFFFFFFFFFFFFFFFFFFFFFFFFFFFFFFFFFFFFF AND MUL OR SWAP1 SSTORE POP PUSH1 0x4 PUSH1 0x0 SWAP1 SLOAD SWAP1 PUSH2 0x100 EXP SWAP1 DIV PUSH20 0xFFFFFFFFFFFFFFFFFFFFFFFFFFFFFFFFFFFFFFFF AND PUSH1 0x0 DUP1 PUSH2 0x100 EXP DUP2 SLOAD DUP2 PUSH20 0xFFFFFFFFFFFFFFFFFFFFFFFFFFFFFFFFFFFFFFFF MUL NOT AND SWAP1 DUP4 PUSH20 0xFFFFFFFFFFFFFFFFFFFFFFFFFFFFFFFFFFFFFFFF AND MUL OR SWAP1 SSTORE POP PUSH1 0x3 PUSH1 0x0 SWAP1 SLOAD SWAP1 PUSH2 0x100 EXP SWAP1 DIV PUSH20 0xFFFFFFFFFFFFFFFFFFFFFFFFFFFFFFFFFFFFFFFF AND PUSH1 0x1 PUSH1 0x0 PUSH2 0x100 EXP DUP2 SLOAD DUP2 PUSH20 0xFFFFFFFFFFFFFFFFFFFFFFFFFFFFFFFFFFFFFFFF MUL NOT AND SWAP1 DUP4 PUSH20 0xFFFFFFFFFFFFFFFFFFFFFFFFFFFFFFFFFFFFFFFF AND MUL OR SWAP1 SSTORE POP PUSH1 0x1 PUSH1 0x0 SWAP1 SLOAD SWAP1 PUSH2 0x100 EXP SWAP1 DIV PUSH20 0xFFFFFFFFFFFFFFFFFFFFFFFFFFFFFFFFFFFFFFFF AND PUSH20 0xFFFFFFFFFFFFFFFFFFFFFFFFFFFFFFFFFFFFFFFF AND PUSH4 0x95EA7B3 PUSH1 0x4 PUSH1 0x0 SWAP1 SLOAD SWAP1 PUSH2 0x100 EXP SWAP1 DIV PUSH20 0xFFFFFFFFFFFFFFFFFFFFFFFFFFFFFFFFFFFFFFFF AND PUSH32 0xFFFFFFFFFFFFFFFFFFFFFFFFFFFFFFFFFFFFFFFFFFFFFFFFFFFFFFFFFFFFFFFF PUSH1 0x40 MLOAD DUP4 PUSH4 0xFFFFFFFF AND PUSH1 0xE0 SHL DUP2 MSTORE PUSH1 0x4 ADD PUSH3 0x2E9 SWAP3 SWAP2 SWAP1 PUSH3 0x396 JUMP JUMPDEST PUSH1 0x20 PUSH1 0x40 MLOAD DUP1 DUP4 SUB DUP2 PUSH1 0x0 DUP8 GAS CALL ISZERO DUP1 ISZERO PUSH3 0x309 JUMPI RETURNDATASIZE PUSH1 0x0 DUP1 RETURNDATACOPY RETURNDATASIZE PUSH1 0x0 REVERT JUMPDEST POP POP POP POP PUSH1 0x40 MLOAD RETURNDATASIZE PUSH1 0x1F NOT PUSH1 0x1F DUP3 ADD AND DUP3 ADD DUP1 PUSH1 0x40 MSTORE POP DUP2 ADD SWAP1 PUSH3 0x32F SWAP2 SWAP1 PUSH3 0x405 JUMP JUMPDEST POP PUSH3 0x437 JUMP JUMPDEST PUSH1 0x0 PUSH20 0xFFFFFFFFFFFFFFFFFFFFFFFFFFFFFFFFFFFFFFFF DUP3 AND SWAP1 POP SWAP2 SWAP1 POP JUMP JUMPDEST PUSH1 0x0 PUSH3 0x363 DUP3 PUSH3 0x336 JUMP JUMPDEST SWAP1 POP SWAP2 SWAP1 POP JUMP JUMPDEST PUSH3 0x375 DUP2 PUSH3 0x356 JUMP JUMPDEST DUP3 MSTORE POP POP JUMP JUMPDEST PUSH1 0x0 DUP2 SWAP1 POP SWAP2 SWAP1 POP JUMP JUMPDEST PUSH3 0x390 DUP2 PUSH3 0x37B JUMP JUMPDEST DUP3 MSTORE POP POP JUMP JUMPDEST PUSH1 0x0 PUSH1 0x40 DUP3 ADD SWAP1 POP PUSH3 0x3AD PUSH1 0x0 DUP4 ADD DUP6 PUSH3 0x36A JUMP JUMPDEST PUSH3 0x3BC PUSH1 0x20 DUP4 ADD DUP5 PUSH3 0x385 JUMP JUMPDEST SWAP4 SWAP3 POP POP POP JUMP JUMPDEST PUSH1 0x0 DUP1 REVERT JUMPDEST PUSH1 0x0 DUP2 ISZERO ISZERO SWAP1 POP SWAP2 SWAP1 POP JUMP JUMPDEST PUSH3 0x3DF DUP2 PUSH3 0x3C8 JUMP JUMPDEST DUP2 EQ PUSH3 0x3EB JUMPI PUSH1 0x0 DUP1 REVERT JUMPDEST POP JUMP JUMPDEST PUSH1 0x0 DUP2 MLOAD SWAP1 POP PUSH3 0x3FF DUP2 PUSH3 0x3D4 JUMP JUMPDEST SWAP3 SWAP2 POP POP JUMP JUMPDEST PUSH1 0x0 PUSH1 0x20 DUP3 DUP5 SUB SLT ISZERO PUSH3 0x41E JUMPI PUSH3 0x41D PUSH3 0x3C3 JUMP JUMPDEST JUMPDEST PUSH1 0x0 PUSH3 0x42E DUP5 DUP3 DUP6 ADD PUSH3 0x3EE JUMP JUMPDEST SWAP2 POP POP SWAP3 SWAP2 POP POP JUMP JUMPDEST PUSH2 0x1009 DUP1 PUSH3 0x447 PUSH1 0x0 CODECOPY PUSH1 0x0 RETURN INVALID PUSH1 0x80 PUSH1 0x40 MSTORE CALLVALUE DUP1 ISZERO PUSH2 0x10 JUMPI PUSH1 0x0 DUP1 REVERT JUMPDEST POP PUSH1 0x4 CALLDATASIZE LT PUSH2 0x41 JUMPI PUSH1 0x0 CALLDATALOAD PUSH1 0xE0 SHR DUP1 PUSH4 0x3AEAC4E1 EQ PUSH2 0x46 JUMPI DUP1 PUSH4 0x8DA5CB5B EQ PUSH2 0x62 JUMPI DUP1 PUSH4 0x9EA604E1 EQ PUSH2 0x80 JUMPI JUMPDEST PUSH1 0x0 DUP1 REVERT JUMPDEST PUSH2 0x60 PUSH1 0x4 DUP1 CALLDATASIZE SUB DUP2 ADD SWAP1 PUSH2 0x5B SWAP2 SWAP1 PUSH2 0xA0C JUMP JUMPDEST PUSH2 0xB0 JUMP JUMPDEST STOP JUMPDEST PUSH2 0x6A PUSH2 0x246 JUMP JUMPDEST PUSH1 0x40 MLOAD PUSH2 0x77 SWAP2 SWAP1 PUSH2 0xA5B JUMP JUMPDEST PUSH1 0x40 MLOAD DUP1 SWAP2 SUB SWAP1 RETURN JUMPDEST PUSH2 0x9A PUSH1 0x4 DUP1 CALLDATASIZE SUB DUP2 ADD SWAP1 PUSH2 0x95 SWAP2 SWAP1 PUSH2 0xAAC JUMP JUMPDEST PUSH2 0x26C JUMP JUMPDEST PUSH1 0x40 MLOAD PUSH2 0xA7 SWAP2 SWAP1 PUSH2 0xB05 JUMP JUMPDEST PUSH1 0x40 MLOAD DUP1 SWAP2 SUB SWAP1 RETURN JUMPDEST PUSH1 0x2 PUSH1 0x0 SWAP1 SLOAD SWAP1 PUSH2 0x100 EXP SWAP1 DIV PUSH20 0xFFFFFFFFFFFFFFFFFFFFFFFFFFFFFFFFFFFFFFFF AND PUSH20 0xFFFFFFFFFFFFFFFFFFFFFFFFFFFFFFFFFFFFFFFF AND CALLER PUSH20 0xFFFFFFFFFFFFFFFFFFFFFFFFFFFFFFFFFFFFFFFF AND EQ PUSH2 0x10A JUMPI PUSH1 0x0 DUP1 REVERT JUMPDEST PUSH1 0x0 DUP2 PUSH20 0xFFFFFFFFFFFFFFFFFFFFFFFFFFFFFFFFFFFFFFFF AND PUSH4 0x70A08231 ADDRESS PUSH1 0x40 MLOAD DUP3 PUSH4 0xFFFFFFFF AND PUSH1 0xE0 SHL DUP2 MSTORE PUSH1 0x4 ADD PUSH2 0x145 SWAP2 SWAP1 PUSH2 0xA5B JUMP JUMPDEST PUSH1 0x20 PUSH1 0x40 MLOAD DUP1 DUP4 SUB DUP2 DUP7 GAS STATICCALL ISZERO DUP1 ISZERO PUSH2 0x162 JUMPI RETURNDATASIZE PUSH1 0x0 DUP1 RETURNDATACOPY RETURNDATASIZE PUSH1 0x0 REVERT JUMPDEST POP POP POP POP PUSH1 0x40 MLOAD RETURNDATASIZE PUSH1 0x1F NOT PUSH1 0x1F DUP3 ADD AND DUP3 ADD DUP1 PUSH1 0x40 MSTORE POP DUP2 ADD SWAP1 PUSH2 0x186 SWAP2 SWAP1 PUSH2 0xB35 JUMP JUMPDEST SWAP1 POP PUSH1 0x0 DUP2 SUB PUSH2 0x1C2 JUMPI PUSH1 0x40 MLOAD PUSH32 0xD0D04F6000000000000000000000000000000000000000000000000000000000 DUP2 MSTORE PUSH1 0x4 ADD PUSH1 0x40 MLOAD DUP1 SWAP2 SUB SWAP1 REVERT JUMPDEST DUP2 PUSH20 0xFFFFFFFFFFFFFFFFFFFFFFFFFFFFFFFFFFFFFFFF AND PUSH4 0xA9059CBB DUP5 DUP4 PUSH1 0x40 MLOAD DUP4 PUSH4 0xFFFFFFFF AND PUSH1 0xE0 SHL DUP2 MSTORE PUSH1 0x4 ADD PUSH2 0x1FD SWAP3 SWAP2 SWAP1 PUSH2 0xB71 JUMP JUMPDEST PUSH1 0x20 PUSH1 0x40 MLOAD DUP1 DUP4 SUB DUP2 PUSH1 0x0 DUP8 GAS CALL ISZERO DUP1 ISZERO PUSH2 0x21C JUMPI RETURNDATASIZE PUSH1 0x0 DUP1 RETURNDATACOPY RETURNDATASIZE PUSH1 0x0 REVERT JUMPDEST POP POP POP POP PUSH1 0x40 MLOAD RETURNDATASIZE PUSH1 0x1F NOT PUSH1 0x1F DUP3 ADD AND DUP3 ADD DUP1 PUSH1 0x40 MSTORE POP DUP2 ADD SWAP1 PUSH2 0x240 SWAP2 SWAP1 PUSH2 0xBD2 JUMP JUMPDEST POP POP POP POP JUMP JUMPDEST PUSH1 0x2 PUSH1 0x0 SWAP1 SLOAD SWAP1 PUSH2 0x100 EXP SWAP1 DIV PUSH20 0xFFFFFFFFFFFFFFFFFFFFFFFFFFFFFFFFFFFFFFFF AND DUP2 JUMP JUMPDEST PUSH1 0x0 DUP1 PUSH1 0x1 PUSH8 0xFFFFFFFFFFFFFFFF DUP2 GT ISZERO PUSH2 0x28A JUMPI PUSH2 0x289 PUSH2 0xBFF JUMP JUMPDEST JUMPDEST PUSH1 0x40 MLOAD SWAP1 DUP1 DUP3 MSTORE DUP1 PUSH1 0x20 MUL PUSH1 0x20 ADD DUP3 ADD PUSH1 0x40 MSTORE DUP1 ISZERO PUSH2 0x2C3 JUMPI DUP2 PUSH1 0x20 ADD JUMPDEST PUSH2 0x2B0 PUSH2 0x979 JUMP JUMPDEST DUP2 MSTORE PUSH1 0x20 ADD SWAP1 PUSH1 0x1 SWAP1 SUB SWAP1 DUP2 PUSH2 0x2A8 JUMPI SWAP1 POP JUMPDEST POP SWAP1 POP PUSH1 0x0 PUSH1 0x40 MLOAD DUP1 PUSH1 0x40 ADD PUSH1 0x40 MSTORE DUP1 PUSH1 0x5 PUSH1 0x0 SWAP1 SLOAD SWAP1 PUSH2 0x100 EXP SWAP1 DIV PUSH20 0xFFFFFFFFFFFFFFFFFFFFFFFFFFFFFFFFFFFFFFFF AND PUSH20 0xFFFFFFFFFFFFFFFFFFFFFFFFFFFFFFFFFFFFFFFF AND DUP2 MSTORE PUSH1 0x20 ADD DUP6 DUP2 MSTORE POP SWAP1 POP DUP1 DUP3 PUSH1 0x0 DUP2 MLOAD DUP2 LT PUSH2 0x32C JUMPI PUSH2 0x32B PUSH2 0xC2E JUMP JUMPDEST JUMPDEST PUSH1 0x20 MUL PUSH1 0x20 ADD ADD DUP2 SWAP1 MSTORE POP PUSH1 0x0 PUSH1 0x40 MLOAD DUP1 PUSH1 0xA0 ADD PUSH1 0x40 MSTORE DUP1 DUP8 PUSH1 0x40 MLOAD PUSH1 0x20 ADD PUSH2 0x355 SWAP2 SWAP1 PUSH2 0xA5B JUMP JUMPDEST PUSH1 0x40 MLOAD PUSH1 0x20 DUP2 DUP4 SUB SUB DUP2 MSTORE SWAP1 PUSH1 0x40 MSTORE DUP2 MSTORE PUSH1 0x20 ADD PUSH1 0x40 MLOAD DUP1 PUSH1 0x20 ADD PUSH1 0x40 MSTORE DUP1 PUSH1 0x0 DUP2 MSTORE POP DUP2 MSTORE PUSH1 0x20 ADD DUP5 DUP2 MSTORE PUSH1 0x20 ADD PUSH1 0x1 PUSH1 0x0 SWAP1 SLOAD SWAP1 PUSH2 0x100 EXP SWAP1 DIV PUSH20 0xFFFFFFFFFFFFFFFFFFFFFFFFFFFFFFFFFFFFFFFF AND PUSH20 0xFFFFFFFFFFFFFFFFFFFFFFFFFFFFFFFFFFFFFFFF AND DUP2 MSTORE PUSH1 0x20 ADD PUSH2 0x3DA PUSH1 0x40 MLOAD DUP1 PUSH1 0x20 ADD PUSH1 0x40 MSTORE DUP1 PUSH1 0x0 DUP2 MSTORE POP PUSH2 0x8FA JUMP JUMPDEST DUP2 MSTORE POP SWAP1 POP PUSH1 0x0 DUP1 PUSH1 0x0 SWAP1 SLOAD SWAP1 PUSH2 0x100 EXP SWAP1 DIV PUSH20 0xFFFFFFFFFFFFFFFFFFFFFFFFFFFFFFFFFFFFFFFF AND PUSH20 0xFFFFFFFFFFFFFFFFFFFFFFFFFFFFFFFFFFFFFFFF AND PUSH4 0x20487DED PUSH1 0x5 PUSH1 0x14 SWAP1 SLOAD SWAP1 PUSH2 0x100 EXP SWAP1 DIV PUSH8 0xFFFFFFFFFFFFFFFF AND DUP5 PUSH1 0x40 MLOAD DUP4 PUSH4 0xFFFFFFFF AND PUSH1 0xE0 SHL DUP2 MSTORE PUSH1 0x4 ADD PUSH2 0x453 SWAP3 SWAP2 SWAP1 PUSH2 0xE97 JUMP JUMPDEST PUSH1 0x20 PUSH1 0x40 MLOAD DUP1 DUP4 SUB DUP2 DUP7 GAS STATICCALL ISZERO DUP1 ISZERO PUSH2 0x470 JUMPI RETURNDATASIZE PUSH1 0x0 DUP1 RETURNDATACOPY RETURNDATASIZE PUSH1 0x0 REVERT JUMPDEST POP POP POP POP PUSH1 0x40 MLOAD RETURNDATASIZE PUSH1 0x1F NOT PUSH1 0x1F DUP3 ADD AND DUP3 ADD DUP1 PUSH1 0x40 MSTORE POP DUP2 ADD SWAP1 PUSH2 0x494 SWAP2 SWAP1 PUSH2 0xB35 JUMP JUMPDEST SWAP1 POP PUSH1 0x1 PUSH1 0x0 SWAP1 SLOAD SWAP1 PUSH2 0x100 EXP SWAP1 DIV PUSH20 0xFFFFFFFFFFFFFFFFFFFFFFFFFFFFFFFFFFFFFFFF AND PUSH20 0xFFFFFFFFFFFFFFFFFFFFFFFFFFFFFFFFFFFFFFFF AND PUSH4 0x70A08231 ADDRESS PUSH1 0x40 MLOAD DUP3 PUSH4 0xFFFFFFFF AND PUSH1 0xE0 SHL DUP2 MSTORE PUSH1 0x4 ADD PUSH2 0x4F1 SWAP2 SWAP1 PUSH2 0xA5B JUMP JUMPDEST PUSH1 0x20 PUSH1 0x40 MLOAD DUP1 DUP4 SUB DUP2 DUP7 GAS STATICCALL ISZERO DUP1 ISZERO PUSH2 0x50E JUMPI RETURNDATASIZE PUSH1 0x0 DUP1 RETURNDATACOPY RETURNDATASIZE PUSH1 0x0 REVERT JUMPDEST POP POP POP POP PUSH1 0x40 MLOAD RETURNDATASIZE PUSH1 0x1F NOT PUSH1 0x1F DUP3 ADD AND DUP3 ADD DUP1 PUSH1 0x40 MSTORE POP DUP2 ADD SWAP1 PUSH2 0x532 SWAP2 SWAP1 PUSH2 0xB35 JUMP JUMPDEST DUP2 GT ISZERO PUSH2 0x613 JUMPI PUSH1 0x1 PUSH1 0x0 SWAP1 SLOAD SWAP1 PUSH2 0x100 EXP SWAP1 DIV PUSH20 0xFFFFFFFFFFFFFFFFFFFFFFFFFFFFFFFFFFFFFFFF AND PUSH20 0xFFFFFFFFFFFFFFFFFFFFFFFFFFFFFFFFFFFFFFFF AND PUSH4 0x70A08231 ADDRESS PUSH1 0x40 MLOAD DUP3 PUSH4 0xFFFFFFFF AND PUSH1 0xE0 SHL DUP2 MSTORE PUSH1 0x4 ADD PUSH2 0x594 SWAP2 SWAP1 PUSH2 0xA5B JUMP JUMPDEST PUSH1 0x20 PUSH1 0x40 MLOAD DUP1 DUP4 SUB DUP2 DUP7 GAS STATICCALL ISZERO DUP1 ISZERO PUSH2 0x5B1 JUMPI RETURNDATASIZE PUSH1 0x0 DUP1 RETURNDATACOPY RETURNDATASIZE PUSH1 0x0 REVERT JUMPDEST POP POP POP POP PUSH1 0x40 MLOAD RETURNDATASIZE PUSH1 0x1F NOT PUSH1 0x1F DUP3 ADD AND DUP3 ADD DUP1 PUSH1 0x40 MSTORE POP DUP2 ADD SWAP1 PUSH2 0x5D5 SWAP2 SWAP1 PUSH2 0xB35 JUMP JUMPDEST DUP2 PUSH1 0x40 MLOAD PUSH32 0x8F0F420600000000000000000000000000000000000000000000000000000000 DUP2 MSTORE PUSH1 0x4 ADD PUSH2 0x60A SWAP3 SWAP2 SWAP1 PUSH2 0xEC7 JUMP JUMPDEST PUSH1 0x40 MLOAD DUP1 SWAP2 SUB SWAP1 REVERT JUMPDEST PUSH1 0x1 PUSH1 0x0 SWAP1 SLOAD SWAP1 PUSH2 0x100 EXP SWAP1 DIV PUSH20 0xFFFFFFFFFFFFFFFFFFFFFFFFFFFFFFFFFFFFFFFF AND PUSH20 0xFFFFFFFFFFFFFFFFFFFFFFFFFFFFFFFFFFFFFFFF AND PUSH4 0x95EA7B3 PUSH1 0x0 DUP1 SLOAD SWAP1 PUSH2 0x100 EXP SWAP1 DIV PUSH20 0xFFFFFFFFFFFFFFFFFFFFFFFFFFFFFFFFFFFFFFFF AND DUP4 PUSH1 0x40 MLOAD DUP4 PUSH4 0xFFFFFFFF AND PUSH1 0xE0 SHL DUP2 MSTORE PUSH1 0x4 ADD PUSH2 0x690 SWAP3 SWAP2 SWAP1 PUSH2 0xB71 JUMP JUMPDEST PUSH1 0x20 PUSH1 0x40 MLOAD DUP1 DUP4 SUB DUP2 PUSH1 0x0 DUP8 GAS CALL ISZERO DUP1 ISZERO PUSH2 0x6AF JUMPI RETURNDATASIZE PUSH1 0x0 DUP1 RETURNDATACOPY RETURNDATASIZE PUSH1 0x0 REVERT JUMPDEST POP POP POP POP PUSH1 0x40 MLOAD RETURNDATASIZE PUSH1 0x1F NOT PUSH1 0x1F DUP3 ADD AND DUP3 ADD DUP1 PUSH1 0x40 MSTORE POP DUP2 ADD SWAP1 PUSH2 0x6D3 SWAP2 SWAP1 PUSH2 0xBD2 JUMP JUMPDEST POP PUSH1 0x5 PUSH1 0x0 SWAP1 SLOAD SWAP1 PUSH2 0x100 EXP SWAP1 DIV PUSH20 0xFFFFFFFFFFFFFFFFFFFFFFFFFFFFFFFFFFFFFFFF AND PUSH20 0xFFFFFFFFFFFFFFFFFFFFFFFFFFFFFFFFFFFFFFFF AND PUSH4 0x95EA7B3 PUSH1 0x0 DUP1 SLOAD SWAP1 PUSH2 0x100 EXP SWAP1 DIV PUSH20 0xFFFFFFFFFFFFFFFFFFFFFFFFFFFFFFFFFFFFFFFF AND DUP9 PUSH1 0x40 MLOAD DUP4 PUSH4 0xFFFFFFFF AND PUSH1 0xE0 SHL DUP2 MSTORE PUSH1 0x4 ADD PUSH2 0x751 SWAP3 SWAP2 SWAP1 PUSH2 0xB71 JUMP JUMPDEST PUSH1 0x20 PUSH1 0x40 MLOAD DUP1 DUP4 SUB DUP2 PUSH1 0x0 DUP8 GAS CALL ISZERO DUP1 ISZERO PUSH2 0x770 JUMPI RETURNDATASIZE PUSH1 0x0 DUP1 RETURNDATACOPY RETURNDATASIZE PUSH1 0x0 REVERT JUMPDEST POP POP POP POP PUSH1 0x40 MLOAD RETURNDATASIZE PUSH1 0x1F NOT PUSH1 0x1F DUP3 ADD AND DUP3 ADD DUP1 PUSH1 0x40 MSTORE POP DUP2 ADD SWAP1 PUSH2 0x794 SWAP2 SWAP1 PUSH2 0xBD2 JUMP JUMPDEST POP PUSH1 0x0 DUP1 SLOAD SWAP1 PUSH2 0x100 EXP SWAP1 DIV PUSH20 0xFFFFFFFFFFFFFFFFFFFFFFFFFFFFFFFFFFFFFFFF AND PUSH20 0xFFFFFFFFFFFFFFFFFFFFFFFFFFFFFFFFFFFFFFFF AND PUSH4 0x96F4E9F9 PUSH1 0x5 PUSH1 0x14 SWAP1 SLOAD SWAP1 PUSH2 0x100 EXP SWAP1 DIV PUSH8 0xFFFFFFFFFFFFFFFF AND DUP5 PUSH1 0x40 MLOAD DUP4 PUSH4 0xFFFFFFFF AND PUSH1 0xE0 SHL DUP2 MSTORE PUSH1 0x4 ADD PUSH2 0x806 SWAP3 SWAP2 SWAP1 PUSH2 0xE97 JUMP JUMPDEST PUSH1 0x20 PUSH1 0x40 MLOAD DUP1 DUP4 SUB DUP2 PUSH1 0x0 DUP8 GAS CALL ISZERO DUP1 ISZERO PUSH2 0x825 JUMPI RETURNDATASIZE PUSH1 0x0 DUP1 RETURNDATACOPY RETURNDATASIZE PUSH1 0x0 REVERT JUMPDEST POP POP POP POP PUSH1 0x40 MLOAD RETURNDATASIZE PUSH1 0x1F NOT PUSH1 0x1F DUP3 ADD AND DUP3 ADD DUP1 PUSH1 0x40 MSTORE POP DUP2 ADD SWAP1 PUSH2 0x849 SWAP2 SWAP1 PUSH2 0xF1C JUMP JUMPDEST SWAP5 POP PUSH1 0x5 PUSH1 0x14 SWAP1 SLOAD SWAP1 PUSH2 0x100 EXP SWAP1 DIV PUSH8 0xFFFFFFFFFFFFFFFF AND PUSH8 0xFFFFFFFFFFFFFFFF AND DUP6 PUSH32 0xC15FB748C32BA4EB29C1C311E78533F93B4425EAB49EA87C6FE4279ECADCA043 DUP10 PUSH1 0x5 PUSH1 0x0 SWAP1 SLOAD SWAP1 PUSH2 0x100 EXP SWAP1 DIV PUSH20 0xFFFFFFFFFFFFFFFFFFFFFFFFFFFFFFFFFFFFFFFF AND DUP11 PUSH1 0x3 PUSH1 0x0 SWAP1 SLOAD SWAP1 PUSH2 0x100 EXP SWAP1 DIV PUSH20 0xFFFFFFFFFFFFFFFFFFFFFFFFFFFFFFFFFFFFFFFF AND DUP8 PUSH1 0x40 MLOAD PUSH2 0x8E8 SWAP6 SWAP5 SWAP4 SWAP3 SWAP2 SWAP1 PUSH2 0xF49 JUMP JUMPDEST PUSH1 0x40 MLOAD DUP1 SWAP2 SUB SWAP1 LOG3 POP POP POP POP SWAP3 SWAP2 POP POP JUMP JUMPDEST PUSH1 0x60 PUSH4 0x97A657C9 PUSH1 0xE0 SHL DUP3 PUSH1 0x40 MLOAD PUSH1 0x24 ADD PUSH2 0x915 SWAP2 SWAP1 PUSH2 0xFB8 JUMP JUMPDEST PUSH1 0x40 MLOAD PUSH1 0x20 DUP2 DUP4 SUB SUB DUP2 MSTORE SWAP1 PUSH1 0x40 MSTORE SWAP1 PUSH28 0xFFFFFFFFFFFFFFFFFFFFFFFFFFFFFFFFFFFFFFFFFFFFFFFFFFFFFFFF NOT AND PUSH1 0x20 DUP3 ADD DUP1 MLOAD PUSH28 0xFFFFFFFFFFFFFFFFFFFFFFFFFFFFFFFFFFFFFFFFFFFFFFFFFFFFFFFF DUP4 DUP2 DUP4 AND OR DUP4 MSTORE POP POP POP POP SWAP1 POP SWAP2 SWAP1 POP JUMP JUMPDEST PUSH1 0x40 MLOAD DUP1 PUSH1 0x40 ADD PUSH1 0x40 MSTORE DUP1 PUSH1 0x0 PUSH20 0xFFFFFFFFFFFFFFFFFFFFFFFFFFFFFFFFFFFFFFFF AND DUP2 MSTORE PUSH1 0x20 ADD PUSH1 0x0 DUP2 MSTORE POP SWAP1 JUMP JUMPDEST PUSH1 0x0 DUP1 REVERT JUMPDEST PUSH1 0x0 PUSH20 0xFFFFFFFFFFFFFFFFFFFFFFFFFFFFFFFFFFFFFFFF DUP3 AND SWAP1 POP SWAP2 SWAP1 POP JUMP JUMPDEST PUSH1 0x0 PUSH2 0x9D9 DUP3 PUSH2 0x9AE JUMP JUMPDEST SWAP1 POP SWAP2 SWAP1 POP JUMP JUMPDEST PUSH2 0x9E9 DUP2 PUSH2 0x9CE JUMP JUMPDEST DUP2 EQ PUSH2 0x9F4 JUMPI PUSH1 0x0 DUP1 REVERT JUMPDEST POP JUMP JUMPDEST PUSH1 0x0 DUP2 CALLDATALOAD SWAP1 POP PUSH2 0xA06 DUP2 PUSH2 0x9E0 JUMP JUMPDEST SWAP3 SWAP2 POP POP JUMP JUMPDEST PUSH1 0x0 DUP1 PUSH1 0x40 DUP4 DUP6 SUB SLT ISZERO PUSH2 0xA23 JUMPI PUSH2 0xA22 PUSH2 0x9A9 JUMP JUMPDEST JUMPDEST PUSH1 0x0 PUSH2 0xA31 DUP6 DUP3 DUP7 ADD PUSH2 0x9F7 JUMP JUMPDEST SWAP3 POP POP PUSH1 0x20 PUSH2 0xA42 DUP6 DUP3 DUP7 ADD PUSH2 0x9F7 JUMP JUMPDEST SWAP2 POP POP SWAP3 POP SWAP3 SWAP1 POP JUMP JUMPDEST PUSH2 0xA55 DUP2 PUSH2 0x9CE JUMP JUMPDEST DUP3 MSTORE POP POP JUMP JUMPDEST PUSH1 0x0 PUSH1 0x20 DUP3 ADD SWAP1 POP PUSH2 0xA70 PUSH1 0x0 DUP4 ADD DUP5 PUSH2 0xA4C JUMP JUMPDEST SWAP3 SWAP2 POP POP JUMP JUMPDEST PUSH1 0x0 DUP2 SWAP1 POP SWAP2 SWAP1 POP JUMP JUMPDEST PUSH2 0xA89 DUP2 PUSH2 0xA76 JUMP JUMPDEST DUP2 EQ PUSH2 0xA94 JUMPI PUSH1 0x0 DUP1 REVERT JUMPDEST POP JUMP JUMPDEST PUSH1 0x0 DUP2 CALLDATALOAD SWAP1 POP PUSH2 0xAA6 DUP2 PUSH2 0xA80 JUMP JUMPDEST SWAP3 SWAP2 POP POP JUMP JUMPDEST PUSH1 0x0 DUP1 PUSH1 0x40 DUP4 DUP6 SUB SLT ISZERO PUSH2 0xAC3 JUMPI PUSH2 0xAC2 PUSH2 0x9A9 JUMP JUMPDEST JUMPDEST PUSH1 0x0 PUSH2 0xAD1 DUP6 DUP3 DUP7 ADD PUSH2 0x9F7 JUMP JUMPDEST SWAP3 POP POP PUSH1 0x20 PUSH2 0xAE2 DUP6 DUP3 DUP7 ADD PUSH2 0xA97 JUMP JUMPDEST SWAP2 POP POP SWAP3 POP SWAP3 SWAP1 POP JUMP JUMPDEST PUSH1 0x0 DUP2 SWAP1 POP SWAP2 SWAP1 POP JUMP JUMPDEST PUSH2 0xAFF DUP2 PUSH2 0xAEC JUMP JUMPDEST DUP3 MSTORE POP POP JUMP JUMPDEST PUSH1 0x0 PUSH1 0x20 DUP3 ADD SWAP1 POP PUSH2 0xB1A PUSH1 0x0 DUP4 ADD DUP5 PUSH2 0xAF6 JUMP JUMPDEST SWAP3 SWAP2 POP POP JUMP JUMPDEST PUSH1 0x0 DUP2 MLOAD SWAP1 POP PUSH2 0xB2F DUP2 PUSH2 0xA80 JUMP JUMPDEST SWAP3 SWAP2 POP POP JUMP JUMPDEST PUSH1 0x0 PUSH1 0x20 DUP3 DUP5 SUB SLT ISZERO PUSH2 0xB4B JUMPI PUSH2 0xB4A PUSH2 0x9A9 JUMP JUMPDEST JUMPDEST PUSH1 0x0 PUSH2 0xB59 DUP5 DUP3 DUP6 ADD PUSH2 0xB20 JUMP JUMPDEST SWAP2 POP POP SWAP3 SWAP2 POP POP JUMP JUMPDEST PUSH2 0xB6B DUP2 PUSH2 0xA76 JUMP JUMPDEST DUP3 MSTORE POP POP JUMP JUMPDEST PUSH1 0x0 PUSH1 0x40 DUP3 ADD SWAP1 POP PUSH2 0xB86 PUSH1 0x0 DUP4 ADD DUP6 PUSH2 0xA4C JUMP JUMPDEST PUSH2 0xB93 PUSH1 0x20 DUP4 ADD DUP5 PUSH2 0xB62 JUMP JUMPDEST SWAP4 SWAP3 POP POP POP JUMP JUMPDEST PUSH1 0x0 DUP2 ISZERO ISZERO SWAP1 POP SWAP2 SWAP1 POP JUMP JUMPDEST PUSH2 0xBAF DUP2 PUSH2 0xB9A JUMP JUMPDEST DUP2 EQ PUSH2 0xBBA JUMPI PUSH1 0x0 DUP1 REVERT JUMPDEST POP JUMP JUMPDEST PUSH1 0x0 DUP2 MLOAD SWAP1 POP PUSH2 0xBCC DUP2 PUSH2 0xBA6 JUMP JUMPDEST SWAP3 SWAP2 POP POP JUMP JUMPDEST PUSH1 0x0 PUSH1 0x20 DUP3 DUP5 SUB SLT ISZERO PUSH2 0xBE8 JUMPI PUSH2 0xBE7 PUSH2 0x9A9 JUMP JUMPDEST JUMPDEST PUSH1 0x0 PUSH2 0xBF6 DUP5 DUP3 DUP6 ADD PUSH2 0xBBD JUMP JUMPDEST SWAP2 POP POP SWAP3 SWAP2 POP POP JUMP JUMPDEST PUSH32 0x4E487B7100000000000000000000000000000000000000000000000000000000 PUSH1 0x0 MSTORE PUSH1 0x41 PUSH1 0x4 MSTORE PUSH1 0x24 PUSH1 0x0 REVERT JUMPDEST PUSH32 0x4E487B7100000000000000000000000000000000000000000000000000000000 PUSH1 0x0 MSTORE PUSH1 0x32 PUSH1 0x4 MSTORE PUSH1 0x24 PUSH1 0x0 REVERT JUMPDEST PUSH1 0x0 PUSH8 0xFFFFFFFFFFFFFFFF DUP3 AND SWAP1 POP SWAP2 SWAP1 POP JUMP JUMPDEST PUSH2 0xC7A DUP2 PUSH2 0xC5D JUMP JUMPDEST DUP3 MSTORE POP POP JUMP JUMPDEST PUSH1 0x0 DUP2 MLOAD SWAP1 POP SWAP2 SWAP1 POP JUMP JUMPDEST PUSH1 0x0 DUP3 DUP3 MSTORE PUSH1 0x20 DUP3 ADD SWAP1 POP SWAP3 SWAP2 POP POP JUMP JUMPDEST PUSH1 0x0 JUMPDEST DUP4 DUP2 LT ISZERO PUSH2 0xCBA JUMPI DUP1 DUP3 ADD MLOAD DUP2 DUP5 ADD MSTORE PUSH1 0x20 DUP2 ADD SWAP1 POP PUSH2 0xC9F JUMP JUMPDEST PUSH1 0x0 DUP5 DUP5 ADD MSTORE POP POP POP POP JUMP JUMPDEST PUSH1 0x0 PUSH1 0x1F NOT PUSH1 0x1F DUP4 ADD AND SWAP1 POP SWAP2 SWAP1 POP JUMP JUMPDEST PUSH1 0x0 PUSH2 0xCE2 DUP3 PUSH2 0xC80 JUMP JUMPDEST PUSH2 0xCEC DUP2 DUP6 PUSH2 0xC8B JUMP JUMPDEST SWAP4 POP PUSH2 0xCFC DUP2 DUP6 PUSH1 0x20 DUP7 ADD PUSH2 0xC9C JUMP JUMPDEST PUSH2 0xD05 DUP2 PUSH2 0xCC6 JUMP JUMPDEST DUP5 ADD SWAP2 POP POP SWAP3 SWAP2 POP POP JUMP JUMPDEST PUSH1 0x0 DUP2 MLOAD SWAP1 POP SWAP2 SWAP1 POP JUMP JUMPDEST PUSH1 0x0 DUP3 DUP3 MSTORE PUSH1 0x20 DUP3 ADD SWAP1 POP SWAP3 SWAP2 POP POP JUMP JUMPDEST PUSH1 0x0 DUP2 SWAP1 POP PUSH1 0x20 DUP3 ADD SWAP1 POP SWAP2 SWAP1 POP JUMP JUMPDEST PUSH2 0xD45 DUP2 PUSH2 0x9CE JUMP JUMPDEST DUP3 MSTORE POP POP JUMP JUMPDEST PUSH2 0xD54 DUP2 PUSH2 0xA76 JUMP JUMPDEST DUP3 MSTORE POP POP JUMP JUMPDEST PUSH1 0x40 DUP3 ADD PUSH1 0x0 DUP3 ADD MLOAD PUSH2 0xD70 PUSH1 0x0 DUP6 ADD DUP3 PUSH2 0xD3C JUMP JUMPDEST POP PUSH1 0x20 DUP3 ADD MLOAD PUSH2 0xD83 PUSH1 0x20 DUP6 ADD DUP3 PUSH2 0xD4B JUMP JUMPDEST POP POP POP POP JUMP JUMPDEST PUSH1 0x0 PUSH2 0xD95 DUP4 DUP4 PUSH2 0xD5A JUMP JUMPDEST PUSH1 0x40 DUP4 ADD SWAP1 POP SWAP3 SWAP2 POP POP JUMP JUMPDEST PUSH1 0x0 PUSH1 0x20 DUP3 ADD SWAP1 POP SWAP2 SWAP1 POP JUMP JUMPDEST PUSH1 0x0 PUSH2 0xDB9 DUP3 PUSH2 0xD10 JUMP JUMPDEST PUSH2 0xDC3 DUP2 DUP6 PUSH2 0xD1B JUMP JUMPDEST SWAP4 POP PUSH2 0xDCE DUP4 PUSH2 0xD2C JUMP JUMPDEST DUP1 PUSH1 0x0 JUMPDEST DUP4 DUP2 LT ISZERO PUSH2 0xDFF JUMPI DUP2 MLOAD PUSH2 0xDE6 DUP9 DUP3 PUSH2 0xD89 JUMP JUMPDEST SWAP8 POP PUSH2 0xDF1 DUP4 PUSH2 0xDA1 JUMP JUMPDEST SWAP3 POP POP PUSH1 0x1 DUP2 ADD SWAP1 POP PUSH2 0xDD2 JUMP JUMPDEST POP DUP6 SWAP4 POP POP POP POP SWAP3 SWAP2 POP POP JUMP JUMPDEST PUSH1 0x0 PUSH1 0xA0 DUP4 ADD PUSH1 0x0 DUP4 ADD MLOAD DUP5 DUP3 SUB PUSH1 0x0 DUP7 ADD MSTORE PUSH2 0xE29 DUP3 DUP3 PUSH2 0xCD7 JUMP JUMPDEST SWAP2 POP POP PUSH1 0x20 DUP4 ADD MLOAD DUP5 DUP3 SUB PUSH1 0x20 DUP7 ADD MSTORE PUSH2 0xE43 DUP3 DUP3 PUSH2 0xCD7 JUMP JUMPDEST SWAP2 POP POP PUSH1 0x40 DUP4 ADD MLOAD DUP5 DUP3 SUB PUSH1 0x40 DUP7 ADD MSTORE PUSH2 0xE5D DUP3 DUP3 PUSH2 0xDAE JUMP JUMPDEST SWAP2 POP POP PUSH1 0x60 DUP4 ADD MLOAD PUSH2 0xE72 PUSH1 0x60 DUP7 ADD DUP3 PUSH2 0xD3C JUMP JUMPDEST POP PUSH1 0x80 DUP4 ADD MLOAD DUP5 DUP3 SUB PUSH1 0x80 DUP7 ADD MSTORE PUSH2 0xE8A DUP3 DUP3 PUSH2 0xCD7 JUMP JUMPDEST SWAP2 POP POP DUP1 SWAP2 POP POP SWAP3 SWAP2 POP POP JUMP JUMPDEST PUSH1 0x0 PUSH1 0x40 DUP3 ADD SWAP1 POP PUSH2 0xEAC PUSH1 0x0 DUP4 ADD DUP6 PUSH2 0xC71 JUMP JUMPDEST DUP2 DUP2 SUB PUSH1 0x20 DUP4 ADD MSTORE PUSH2 0xEBE DUP2 DUP5 PUSH2 0xE0C JUMP JUMPDEST SWAP1 POP SWAP4 SWAP3 POP POP POP JUMP JUMPDEST PUSH1 0x0 PUSH1 0x40 DUP3 ADD SWAP1 POP PUSH2 0xEDC PUSH1 0x0 DUP4 ADD DUP6 PUSH2 0xB62 JUMP JUMPDEST PUSH2 0xEE9 PUSH1 0x20 DUP4 ADD DUP5 PUSH2 0xB62 JUMP JUMPDEST SWAP4 SWAP3 POP POP POP JUMP JUMPDEST PUSH2 0xEF9 DUP2 PUSH2 0xAEC JUMP JUMPDEST DUP2 EQ PUSH2 0xF04 JUMPI PUSH1 0x0 DUP1 REVERT JUMPDEST POP JUMP JUMPDEST PUSH1 0x0 DUP2 MLOAD SWAP1 POP PUSH2 0xF16 DUP2 PUSH2 0xEF0 JUMP JUMPDEST SWAP3 SWAP2 POP POP JUMP JUMPDEST PUSH1 0x0 PUSH1 0x20 DUP3 DUP5 SUB SLT ISZERO PUSH2 0xF32 JUMPI PUSH2 0xF31 PUSH2 0x9A9 JUMP JUMPDEST JUMPDEST PUSH1 0x0 PUSH2 0xF40 DUP5 DUP3 DUP6 ADD PUSH2 0xF07 JUMP JUMPDEST SWAP2 POP POP SWAP3 SWAP2 POP POP JUMP JUMPDEST PUSH1 0x0 PUSH1 0xA0 DUP3 ADD SWAP1 POP PUSH2 0xF5E PUSH1 0x0 DUP4 ADD DUP9 PUSH2 0xA4C JUMP JUMPDEST PUSH2 0xF6B PUSH1 0x20 DUP4 ADD DUP8 PUSH2 0xA4C JUMP JUMPDEST PUSH2 0xF78 PUSH1 0x40 DUP4 ADD DUP7 PUSH2 0xB62 JUMP JUMPDEST PUSH2 0xF85 PUSH1 0x60 DUP4 ADD DUP6 PUSH2 0xA4C JUMP JUMPDEST PUSH2 0xF92 PUSH1 0x80 DUP4 ADD DUP5 PUSH2 0xB62 JUMP JUMPDEST SWAP7 SWAP6 POP POP POP POP POP POP JUMP JUMPDEST PUSH1 0x20 DUP3 ADD PUSH1 0x0 DUP3 ADD MLOAD PUSH2 0xFB2 PUSH1 0x0 DUP6 ADD DUP3 PUSH2 0xD4B JUMP JUMPDEST POP POP POP POP JUMP JUMPDEST PUSH1 0x0 PUSH1 0x20 DUP3 ADD SWAP1 POP PUSH2 0xFCD PUSH1 0x0 DUP4 ADD DUP5 PUSH2 0xF9C JUMP JUMPDEST SWAP3 SWAP2 POP POP JUMP INVALID LOG2 PUSH5 0x6970667358 0x22 SLT KECCAK256 PUSH4 0x5C8D2D1D SWAP3 PUSH17 0x32371D31F29B7B8B4A1DAD846B113B0232 0xDF 0xEA SWAP5 DIV STATICCALL JUMPI RETURNDATASIZE 0xB7 PUSH5 0x736F6C6343 STOP ADDMOD SGT STOP CALLER "
				},
				"gasEstimates": {
					"creation": {
						"codeDepositCost": "821000",
						"executionCost": "infinite",
						"totalCost": "infinite"
					},
					"external": {
						"owner()": "2514",
						"transferToSepolia(address,uint256)": "infinite",
						"withdrawToken(address,address)": "infinite"
					}
				},
				"methodIdentifiers": {
					"owner()": "8da5cb5b",
					"transferToSepolia(address,uint256)": "9ea604e1",
					"withdrawToken(address,address)": "3aeac4e1"
				}
			},
			"storageLayout": {
				"storage": [
					{
						"astId": 292,
						"contract": "CCIPTokenSenderFujiSepolia.sol:CCIPTokenSenderFujiSepolia",
						"label": "router",
						"offset": 0,
						"slot": "0",
						"type": "t_contract(IRouterClient)51"
					},
					{
						"astId": 295,
						"contract": "CCIPTokenSenderFujiSepolia.sol:CCIPTokenSenderFujiSepolia",
						"label": "linkToken",
						"offset": 0,
						"slot": "1",
						"type": "t_contract(LinkTokenInterface)279"
					},
					{
						"astId": 297,
						"contract": "CCIPTokenSenderFujiSepolia.sol:CCIPTokenSenderFujiSepolia",
						"label": "owner",
						"offset": 0,
						"slot": "2",
						"type": "t_address"
					},
					{
						"astId": 300,
						"contract": "CCIPTokenSenderFujiSepolia.sol:CCIPTokenSenderFujiSepolia",
						"label": "link",
						"offset": 0,
						"slot": "3",
						"type": "t_address"
					},
					{
						"astId": 303,
						"contract": "CCIPTokenSenderFujiSepolia.sol:CCIPTokenSenderFujiSepolia",
						"label": "routerAddress",
						"offset": 0,
						"slot": "4",
						"type": "t_address"
					},
					{
						"astId": 306,
						"contract": "CCIPTokenSenderFujiSepolia.sol:CCIPTokenSenderFujiSepolia",
						"label": "bnmToken",
						"offset": 0,
						"slot": "5",
						"type": "t_address"
					},
					{
						"astId": 309,
						"contract": "CCIPTokenSenderFujiSepolia.sol:CCIPTokenSenderFujiSepolia",
						"label": "destinationChainSelector",
						"offset": 20,
						"slot": "5",
						"type": "t_uint64"
					}
				],
				"types": {
					"t_address": {
						"encoding": "inplace",
						"label": "address",
						"numberOfBytes": "20"
					},
					"t_contract(IRouterClient)51": {
						"encoding": "inplace",
						"label": "contract IRouterClient",
						"numberOfBytes": "20"
					},
					"t_contract(LinkTokenInterface)279": {
						"encoding": "inplace",
						"label": "contract LinkTokenInterface",
						"numberOfBytes": "20"
					},
					"t_uint64": {
						"encoding": "inplace",
						"label": "uint64",
						"numberOfBytes": "8"
					}
				}
			},
			"userdoc": {
				"kind": "user",
				"methods": {},
				"version": 1
			}
		}
	}
}